{
    "contractName": "ArbRelayHub",
    "abi": [
        {
            "inputs": [
                {
                    "internalType": "contract ArbSys",
                    "name": "_arbsys",
                    "type": "address"
                },
                {
                    "internalType": "contract IStakeManager",
                    "name": "_stakeManager",
                    "type": "address"
                },
                {
                    "internalType": "address",
                    "name": "_penalizer",
                    "type": "address"
                },
                {
                    "internalType": "address",
                    "name": "_batchGateway",
                    "type": "address"
                },
                {
                    "internalType": "address",
                    "name": "_relayRegistrar",
                    "type": "address"
                },
                {
                    "components": [
                        {
                            "internalType": "uint256",
                            "name": "maxWorkerCount",
                            "type": "uint256"
                        },
                        {
                            "internalType": "uint256",
                            "name": "gasReserve",
                            "type": "uint256"
                        },
                        {
                            "internalType": "uint256",
                            "name": "postOverhead",
                            "type": "uint256"
                        },
                        {
                            "internalType": "uint256",
                            "name": "gasOverhead",
                            "type": "uint256"
                        },
                        {
                            "internalType": "uint256",
                            "name": "minimumUnstakeDelay",
                            "type": "uint256"
                        },
                        {
                            "internalType": "address",
                            "name": "devAddress",
                            "type": "address"
                        },
                        {
                            "internalType": "uint8",
                            "name": "devFee",
                            "type": "uint8"
                        },
                        {
                            "internalType": "uint80",
                            "name": "baseRelayFee",
                            "type": "uint80"
                        },
                        {
                            "internalType": "uint16",
                            "name": "pctRelayFee",
                            "type": "uint16"
                        }
                    ],
                    "internalType": "struct IRelayHub.RelayHubConfig",
                    "name": "_config",
                    "type": "tuple"
                }
            ],
            "stateMutability": "nonpayable",
            "type": "constructor"
        },
        {
            "anonymous": false,
            "inputs": [
                {
                    "indexed": true,
                    "internalType": "address",
                    "name": "relayManager",
                    "type": "address"
                },
                {
                    "indexed": false,
                    "internalType": "uint256",
                    "name": "balance",
                    "type": "uint256"
                }
            ],
            "name": "AbandonedRelayManagerBalanceEscheated",
            "type": "event"
        },
        {
            "anonymous": false,
            "inputs": [
                {
                    "indexed": true,
                    "internalType": "address",
                    "name": "paymaster",
                    "type": "address"
                },
                {
                    "indexed": true,
                    "internalType": "address",
                    "name": "from",
                    "type": "address"
                },
                {
                    "indexed": false,
                    "internalType": "uint256",
                    "name": "amount",
                    "type": "uint256"
                }
            ],
            "name": "Deposited",
            "type": "event"
        },
        {
            "anonymous": false,
            "inputs": [
                {
                    "indexed": false,
                    "internalType": "uint256",
                    "name": "deprecationTime",
                    "type": "uint256"
                }
            ],
            "name": "HubDeprecated",
            "type": "event"
        },
        {
            "anonymous": false,
            "inputs": [
                {
                    "indexed": true,
                    "internalType": "address",
                    "name": "previousOwner",
                    "type": "address"
                },
                {
                    "indexed": true,
                    "internalType": "address",
                    "name": "newOwner",
                    "type": "address"
                }
            ],
            "name": "OwnershipTransferred",
            "type": "event"
        },
        {
            "anonymous": false,
            "inputs": [
                {
                    "components": [
                        {
                            "internalType": "uint256",
                            "name": "maxWorkerCount",
                            "type": "uint256"
                        },
                        {
                            "internalType": "uint256",
                            "name": "gasReserve",
                            "type": "uint256"
                        },
                        {
                            "internalType": "uint256",
                            "name": "postOverhead",
                            "type": "uint256"
                        },
                        {
                            "internalType": "uint256",
                            "name": "gasOverhead",
                            "type": "uint256"
                        },
                        {
                            "internalType": "uint256",
                            "name": "minimumUnstakeDelay",
                            "type": "uint256"
                        },
                        {
                            "internalType": "address",
                            "name": "devAddress",
                            "type": "address"
                        },
                        {
                            "internalType": "uint8",
                            "name": "devFee",
                            "type": "uint8"
                        },
                        {
                            "internalType": "uint80",
                            "name": "baseRelayFee",
                            "type": "uint80"
                        },
                        {
                            "internalType": "uint16",
                            "name": "pctRelayFee",
                            "type": "uint16"
                        }
                    ],
                    "indexed": false,
                    "internalType": "struct IRelayHub.RelayHubConfig",
                    "name": "config",
                    "type": "tuple"
                }
            ],
            "name": "RelayHubConfigured",
            "type": "event"
        },
        {
            "anonymous": false,
            "inputs": [
                {
                    "indexed": true,
                    "internalType": "address",
                    "name": "relayManager",
                    "type": "address"
                },
                {
                    "indexed": false,
                    "internalType": "address[]",
                    "name": "newRelayWorkers",
                    "type": "address[]"
                },
                {
                    "indexed": false,
                    "internalType": "uint256",
                    "name": "workersCount",
                    "type": "uint256"
                }
            ],
            "name": "RelayWorkersAdded",
            "type": "event"
        },
        {
            "anonymous": false,
            "inputs": [
                {
                    "indexed": false,
                    "internalType": "address",
                    "name": "token",
                    "type": "address"
                },
                {
                    "indexed": false,
                    "internalType": "uint256",
                    "name": "minimumStake",
                    "type": "uint256"
                }
            ],
            "name": "StakingTokenDataChanged",
            "type": "event"
        },
        {
            "anonymous": false,
            "inputs": [
                {
                    "indexed": true,
                    "internalType": "address",
                    "name": "relayManager",
                    "type": "address"
                },
                {
                    "indexed": true,
                    "internalType": "address",
                    "name": "paymaster",
                    "type": "address"
                },
                {
                    "indexed": true,
                    "internalType": "bytes32",
                    "name": "relayRequestID",
                    "type": "bytes32"
                },
                {
                    "indexed": false,
                    "internalType": "address",
                    "name": "from",
                    "type": "address"
                },
                {
                    "indexed": false,
                    "internalType": "address",
                    "name": "to",
                    "type": "address"
                },
                {
                    "indexed": false,
                    "internalType": "address",
                    "name": "relayWorker",
                    "type": "address"
                },
                {
                    "indexed": false,
                    "internalType": "bytes4",
                    "name": "selector",
                    "type": "bytes4"
                },
                {
                    "indexed": false,
                    "internalType": "uint256",
                    "name": "innerGasUsed",
                    "type": "uint256"
                },
                {
                    "indexed": false,
                    "internalType": "bytes",
                    "name": "reason",
                    "type": "bytes"
                }
            ],
            "name": "TransactionRejectedByPaymaster",
            "type": "event"
        },
        {
            "anonymous": false,
            "inputs": [
                {
                    "indexed": true,
                    "internalType": "address",
                    "name": "relayManager",
                    "type": "address"
                },
                {
                    "indexed": true,
                    "internalType": "address",
                    "name": "relayWorker",
                    "type": "address"
                },
                {
                    "indexed": true,
                    "internalType": "bytes32",
                    "name": "relayRequestID",
                    "type": "bytes32"
                },
                {
                    "indexed": false,
                    "internalType": "address",
                    "name": "from",
                    "type": "address"
                },
                {
                    "indexed": false,
                    "internalType": "address",
                    "name": "to",
                    "type": "address"
                },
                {
                    "indexed": false,
                    "internalType": "address",
                    "name": "paymaster",
                    "type": "address"
                },
                {
                    "indexed": false,
                    "internalType": "bytes4",
                    "name": "selector",
                    "type": "bytes4"
                },
                {
                    "indexed": false,
                    "internalType": "enum IRelayHub.RelayCallStatus",
                    "name": "status",
                    "type": "uint8"
                },
                {
                    "indexed": false,
                    "internalType": "uint256",
                    "name": "charge",
                    "type": "uint256"
                }
            ],
            "name": "TransactionRelayed",
            "type": "event"
        },
        {
            "anonymous": false,
            "inputs": [
                {
                    "indexed": false,
                    "internalType": "enum IRelayHub.RelayCallStatus",
                    "name": "status",
                    "type": "uint8"
                },
                {
                    "indexed": false,
                    "internalType": "bytes",
                    "name": "returnValue",
                    "type": "bytes"
                }
            ],
            "name": "TransactionResult",
            "type": "event"
        },
        {
            "anonymous": false,
            "inputs": [
                {
                    "indexed": true,
                    "internalType": "address",
                    "name": "account",
                    "type": "address"
                },
                {
                    "indexed": true,
                    "internalType": "address",
                    "name": "dest",
                    "type": "address"
                },
                {
                    "indexed": false,
                    "internalType": "uint256",
                    "name": "amount",
                    "type": "uint256"
                }
            ],
            "name": "Withdrawn",
            "type": "event"
        },
        {
            "inputs": [
                {
                    "internalType": "address[]",
                    "name": "newRelayWorkers",
                    "type": "address[]"
                }
            ],
            "name": "addRelayWorkers",
            "outputs": [],
            "stateMutability": "nonpayable",
            "type": "function"
        },
        {
            "inputs": [],
            "name": "arbsys",
            "outputs": [
                {
                    "internalType": "contract ArbSys",
                    "name": "",
                    "type": "address"
                }
            ],
            "stateMutability": "view",
            "type": "function"
        },
        {
            "inputs": [
                {
                    "internalType": "address",
                    "name": "target",
                    "type": "address"
                }
            ],
            "name": "balanceOf",
            "outputs": [
                {
                    "internalType": "uint256",
                    "name": "",
                    "type": "uint256"
                }
            ],
            "stateMutability": "view",
            "type": "function"
        },
        {
            "inputs": [
                {
                    "internalType": "uint256",
                    "name": "gasUsed",
                    "type": "uint256"
                },
                {
                    "components": [
                        {
                            "internalType": "uint256",
                            "name": "maxFeePerGas",
                            "type": "uint256"
                        },
                        {
                            "internalType": "uint256",
                            "name": "maxPriorityFeePerGas",
                            "type": "uint256"
                        },
                        {
                            "internalType": "uint256",
                            "name": "transactionCalldataGasUsed",
                            "type": "uint256"
                        },
                        {
                            "internalType": "address",
                            "name": "relayWorker",
                            "type": "address"
                        },
                        {
                            "internalType": "address",
                            "name": "paymaster",
                            "type": "address"
                        },
                        {
                            "internalType": "address",
                            "name": "forwarder",
                            "type": "address"
                        },
                        {
                            "internalType": "bytes",
                            "name": "paymasterData",
                            "type": "bytes"
                        },
                        {
                            "internalType": "uint256",
                            "name": "clientId",
                            "type": "uint256"
                        }
                    ],
                    "internalType": "struct GsnTypes.RelayData",
                    "name": "relayData",
                    "type": "tuple"
                }
            ],
            "name": "calculateCharge",
            "outputs": [
                {
                    "internalType": "uint256",
                    "name": "",
                    "type": "uint256"
                }
            ],
            "stateMutability": "view",
            "type": "function"
        },
        {
            "inputs": [
                {
                    "internalType": "uint256",
                    "name": "charge",
                    "type": "uint256"
                }
            ],
            "name": "calculateDevCharge",
            "outputs": [
                {
                    "internalType": "uint256",
                    "name": "",
                    "type": "uint256"
                }
            ],
            "stateMutability": "view",
            "type": "function"
        },
        {
            "inputs": [
                {
                    "internalType": "address",
                    "name": "target",
                    "type": "address"
                }
            ],
            "name": "depositFor",
            "outputs": [],
            "stateMutability": "payable",
            "type": "function"
        },
        {
            "inputs": [
                {
                    "internalType": "uint256",
                    "name": "_deprecationTime",
                    "type": "uint256"
                }
            ],
            "name": "deprecateHub",
            "outputs": [],
            "stateMutability": "nonpayable",
            "type": "function"
        },
        {
            "inputs": [
                {
                    "internalType": "address",
                    "name": "relayManager",
                    "type": "address"
                }
            ],
            "name": "escheatAbandonedRelayBalance",
            "outputs": [],
            "stateMutability": "nonpayable",
            "type": "function"
        },
        {
            "inputs": [],
            "name": "getBatchGateway",
            "outputs": [
                {
                    "internalType": "address",
                    "name": "",
                    "type": "address"
                }
            ],
            "stateMutability": "view",
            "type": "function"
        },
        {
            "inputs": [],
            "name": "getConfiguration",
            "outputs": [
                {
                    "components": [
                        {
                            "internalType": "uint256",
                            "name": "maxWorkerCount",
                            "type": "uint256"
                        },
                        {
                            "internalType": "uint256",
                            "name": "gasReserve",
                            "type": "uint256"
                        },
                        {
                            "internalType": "uint256",
                            "name": "postOverhead",
                            "type": "uint256"
                        },
                        {
                            "internalType": "uint256",
                            "name": "gasOverhead",
                            "type": "uint256"
                        },
                        {
                            "internalType": "uint256",
                            "name": "minimumUnstakeDelay",
                            "type": "uint256"
                        },
                        {
                            "internalType": "address",
                            "name": "devAddress",
                            "type": "address"
                        },
                        {
                            "internalType": "uint8",
                            "name": "devFee",
                            "type": "uint8"
                        },
                        {
                            "internalType": "uint80",
                            "name": "baseRelayFee",
                            "type": "uint80"
                        },
                        {
                            "internalType": "uint16",
                            "name": "pctRelayFee",
                            "type": "uint16"
                        }
                    ],
                    "internalType": "struct IRelayHub.RelayHubConfig",
                    "name": "",
                    "type": "tuple"
                }
            ],
            "stateMutability": "view",
            "type": "function"
        },
        {
            "inputs": [],
            "name": "getDeprecationTime",
            "outputs": [
                {
                    "internalType": "uint256",
                    "name": "",
                    "type": "uint256"
                }
            ],
            "stateMutability": "view",
            "type": "function"
        },
        {
            "inputs": [
                {
                    "internalType": "contract IERC20",
                    "name": "token",
                    "type": "address"
                }
            ],
            "name": "getMinimumStakePerToken",
            "outputs": [
                {
                    "internalType": "uint256",
                    "name": "",
                    "type": "uint256"
                }
            ],
            "stateMutability": "view",
            "type": "function"
        },
        {
            "inputs": [],
            "name": "getPenalizer",
            "outputs": [
                {
                    "internalType": "address",
                    "name": "",
                    "type": "address"
                }
            ],
            "stateMutability": "view",
            "type": "function"
        },
        {
            "inputs": [],
            "name": "getRelayRegistrar",
            "outputs": [
                {
                    "internalType": "address",
                    "name": "",
                    "type": "address"
                }
            ],
            "stateMutability": "view",
            "type": "function"
        },
        {
            "inputs": [],
            "name": "getStakeManager",
            "outputs": [
                {
                    "internalType": "contract IStakeManager",
                    "name": "",
                    "type": "address"
                }
            ],
            "stateMutability": "view",
            "type": "function"
        },
        {
            "inputs": [
                {
                    "internalType": "address",
                    "name": "manager",
                    "type": "address"
                }
            ],
            "name": "getWorkerCount",
            "outputs": [
                {
                    "internalType": "uint256",
                    "name": "",
                    "type": "uint256"
                }
            ],
            "stateMutability": "view",
            "type": "function"
        },
        {
            "inputs": [
                {
                    "internalType": "address",
                    "name": "worker",
                    "type": "address"
                }
            ],
            "name": "getWorkerManager",
            "outputs": [
                {
                    "internalType": "address",
                    "name": "",
                    "type": "address"
                }
            ],
            "stateMutability": "view",
            "type": "function"
        },
        {
            "inputs": [
                {
                    "internalType": "string",
                    "name": "domainSeparatorName",
                    "type": "string"
                },
                {
                    "components": [
                        {
                            "components": [
                                {
                                    "internalType": "address",
                                    "name": "from",
                                    "type": "address"
                                },
                                {
                                    "internalType": "address",
                                    "name": "to",
                                    "type": "address"
                                },
                                {
                                    "internalType": "uint256",
                                    "name": "value",
                                    "type": "uint256"
                                },
                                {
                                    "internalType": "uint256",
                                    "name": "gas",
                                    "type": "uint256"
                                },
                                {
                                    "internalType": "uint256",
                                    "name": "nonce",
                                    "type": "uint256"
                                },
                                {
                                    "internalType": "bytes",
                                    "name": "data",
                                    "type": "bytes"
                                },
                                {
                                    "internalType": "uint256",
                                    "name": "validUntilTime",
                                    "type": "uint256"
                                }
                            ],
                            "internalType": "struct IForwarder.ForwardRequest",
                            "name": "request",
                            "type": "tuple"
                        },
                        {
                            "components": [
                                {
                                    "internalType": "uint256",
                                    "name": "maxFeePerGas",
                                    "type": "uint256"
                                },
                                {
                                    "internalType": "uint256",
                                    "name": "maxPriorityFeePerGas",
                                    "type": "uint256"
                                },
                                {
                                    "internalType": "uint256",
                                    "name": "transactionCalldataGasUsed",
                                    "type": "uint256"
                                },
                                {
                                    "internalType": "address",
                                    "name": "relayWorker",
                                    "type": "address"
                                },
                                {
                                    "internalType": "address",
                                    "name": "paymaster",
                                    "type": "address"
                                },
                                {
                                    "internalType": "address",
                                    "name": "forwarder",
                                    "type": "address"
                                },
                                {
                                    "internalType": "bytes",
                                    "name": "paymasterData",
                                    "type": "bytes"
                                },
                                {
                                    "internalType": "uint256",
                                    "name": "clientId",
                                    "type": "uint256"
                                }
                            ],
                            "internalType": "struct GsnTypes.RelayData",
                            "name": "relayData",
                            "type": "tuple"
                        }
                    ],
                    "internalType": "struct GsnTypes.RelayRequest",
                    "name": "relayRequest",
                    "type": "tuple"
                },
                {
                    "internalType": "bytes",
                    "name": "signature",
                    "type": "bytes"
                },
                {
                    "internalType": "bytes",
                    "name": "approvalData",
                    "type": "bytes"
                },
                {
                    "components": [
                        {
                            "internalType": "uint256",
                            "name": "acceptanceBudget",
                            "type": "uint256"
                        },
                        {
                            "internalType": "uint256",
                            "name": "preRelayedCallGasLimit",
                            "type": "uint256"
                        },
                        {
                            "internalType": "uint256",
                            "name": "postRelayedCallGasLimit",
                            "type": "uint256"
                        },
                        {
                            "internalType": "uint256",
                            "name": "calldataSizeLimit",
                            "type": "uint256"
                        }
                    ],
                    "internalType": "struct IPaymaster.GasAndDataLimits",
                    "name": "gasAndDataLimits",
                    "type": "tuple"
                },
                {
                    "internalType": "uint256",
                    "name": "totalInitialGas",
                    "type": "uint256"
                },
                {
                    "internalType": "uint256",
                    "name": "maxPossibleGas",
                    "type": "uint256"
                }
            ],
            "name": "innerRelayCall",
            "outputs": [
                {
                    "internalType": "enum IRelayHub.RelayCallStatus",
                    "name": "",
                    "type": "uint8"
                },
                {
                    "internalType": "bytes",
                    "name": "",
                    "type": "bytes"
                }
            ],
            "stateMutability": "nonpayable",
            "type": "function"
        },
        {
            "inputs": [],
            "name": "isDeprecated",
            "outputs": [
                {
                    "internalType": "bool",
                    "name": "",
                    "type": "bool"
                }
            ],
            "stateMutability": "view",
            "type": "function"
        },
        {
            "inputs": [
                {
                    "internalType": "address",
                    "name": "relayManager",
                    "type": "address"
                }
            ],
            "name": "isRelayEscheatable",
            "outputs": [
                {
                    "internalType": "bool",
                    "name": "",
                    "type": "bool"
                }
            ],
            "stateMutability": "view",
            "type": "function"
        },
        {
            "inputs": [
                {
                    "internalType": "address",
                    "name": "relayManager",
                    "type": "address"
                }
            ],
            "name": "onRelayServerRegistered",
            "outputs": [],
            "stateMutability": "nonpayable",
            "type": "function"
        },
        {
            "inputs": [],
            "name": "owner",
            "outputs": [
                {
                    "internalType": "address",
                    "name": "",
                    "type": "address"
                }
            ],
            "stateMutability": "view",
            "type": "function"
        },
        {
            "inputs": [
                {
                    "internalType": "address",
                    "name": "relayWorker",
                    "type": "address"
                },
                {
                    "internalType": "address payable",
                    "name": "beneficiary",
                    "type": "address"
                }
            ],
            "name": "penalize",
            "outputs": [],
            "stateMutability": "nonpayable",
            "type": "function"
        },
        {
            "inputs": [
                {
                    "internalType": "string",
                    "name": "domainSeparatorName",
                    "type": "string"
                },
                {
                    "internalType": "uint256",
                    "name": "maxAcceptanceBudget",
                    "type": "uint256"
                },
                {
                    "components": [
                        {
                            "components": [
                                {
                                    "internalType": "address",
                                    "name": "from",
                                    "type": "address"
                                },
                                {
                                    "internalType": "address",
                                    "name": "to",
                                    "type": "address"
                                },
                                {
                                    "internalType": "uint256",
                                    "name": "value",
                                    "type": "uint256"
                                },
                                {
                                    "internalType": "uint256",
                                    "name": "gas",
                                    "type": "uint256"
                                },
                                {
                                    "internalType": "uint256",
                                    "name": "nonce",
                                    "type": "uint256"
                                },
                                {
                                    "internalType": "bytes",
                                    "name": "data",
                                    "type": "bytes"
                                },
                                {
                                    "internalType": "uint256",
                                    "name": "validUntilTime",
                                    "type": "uint256"
                                }
                            ],
                            "internalType": "struct IForwarder.ForwardRequest",
                            "name": "request",
                            "type": "tuple"
                        },
                        {
                            "components": [
                                {
                                    "internalType": "uint256",
                                    "name": "maxFeePerGas",
                                    "type": "uint256"
                                },
                                {
                                    "internalType": "uint256",
                                    "name": "maxPriorityFeePerGas",
                                    "type": "uint256"
                                },
                                {
                                    "internalType": "uint256",
                                    "name": "transactionCalldataGasUsed",
                                    "type": "uint256"
                                },
                                {
                                    "internalType": "address",
                                    "name": "relayWorker",
                                    "type": "address"
                                },
                                {
                                    "internalType": "address",
                                    "name": "paymaster",
                                    "type": "address"
                                },
                                {
                                    "internalType": "address",
                                    "name": "forwarder",
                                    "type": "address"
                                },
                                {
                                    "internalType": "bytes",
                                    "name": "paymasterData",
                                    "type": "bytes"
                                },
                                {
                                    "internalType": "uint256",
                                    "name": "clientId",
                                    "type": "uint256"
                                }
                            ],
                            "internalType": "struct GsnTypes.RelayData",
                            "name": "relayData",
                            "type": "tuple"
                        }
                    ],
                    "internalType": "struct GsnTypes.RelayRequest",
                    "name": "relayRequest",
                    "type": "tuple"
                },
                {
                    "internalType": "bytes",
                    "name": "signature",
                    "type": "bytes"
                },
                {
                    "internalType": "bytes",
                    "name": "approvalData",
                    "type": "bytes"
                }
            ],
            "name": "relayCall",
            "outputs": [
                {
                    "internalType": "bool",
                    "name": "paymasterAccepted",
                    "type": "bool"
                },
                {
                    "internalType": "uint256",
                    "name": "charge",
                    "type": "uint256"
                },
                {
                    "internalType": "enum IRelayHub.RelayCallStatus",
                    "name": "status",
                    "type": "uint8"
                },
                {
                    "internalType": "bytes",
                    "name": "returnValue",
                    "type": "bytes"
                }
            ],
            "stateMutability": "nonpayable",
            "type": "function"
        },
        {
            "inputs": [],
            "name": "renounceOwnership",
            "outputs": [],
            "stateMutability": "nonpayable",
            "type": "function"
        },
        {
            "inputs": [
                {
                    "components": [
                        {
                            "internalType": "uint256",
                            "name": "maxWorkerCount",
                            "type": "uint256"
                        },
                        {
                            "internalType": "uint256",
                            "name": "gasReserve",
                            "type": "uint256"
                        },
                        {
                            "internalType": "uint256",
                            "name": "postOverhead",
                            "type": "uint256"
                        },
                        {
                            "internalType": "uint256",
                            "name": "gasOverhead",
                            "type": "uint256"
                        },
                        {
                            "internalType": "uint256",
                            "name": "minimumUnstakeDelay",
                            "type": "uint256"
                        },
                        {
                            "internalType": "address",
                            "name": "devAddress",
                            "type": "address"
                        },
                        {
                            "internalType": "uint8",
                            "name": "devFee",
                            "type": "uint8"
                        },
                        {
                            "internalType": "uint80",
                            "name": "baseRelayFee",
                            "type": "uint80"
                        },
                        {
                            "internalType": "uint16",
                            "name": "pctRelayFee",
                            "type": "uint16"
                        }
                    ],
                    "internalType": "struct IRelayHub.RelayHubConfig",
                    "name": "_config",
                    "type": "tuple"
                }
            ],
            "name": "setConfiguration",
            "outputs": [],
            "stateMutability": "nonpayable",
            "type": "function"
        },
        {
            "inputs": [
                {
                    "internalType": "contract IERC20[]",
                    "name": "token",
                    "type": "address[]"
                },
                {
                    "internalType": "uint256[]",
                    "name": "minimumStake",
                    "type": "uint256[]"
                }
            ],
            "name": "setMinimumStakes",
            "outputs": [],
            "stateMutability": "nonpayable",
            "type": "function"
        },
        {
            "inputs": [
                {
                    "internalType": "bytes4",
                    "name": "interfaceId",
                    "type": "bytes4"
                }
            ],
            "name": "supportsInterface",
            "outputs": [
                {
                    "internalType": "bool",
                    "name": "",
                    "type": "bool"
                }
            ],
            "stateMutability": "view",
            "type": "function"
        },
        {
            "inputs": [
                {
                    "internalType": "address",
                    "name": "newOwner",
                    "type": "address"
                }
            ],
            "name": "transferOwnership",
            "outputs": [],
            "stateMutability": "nonpayable",
            "type": "function"
        },
        {
            "inputs": [
                {
                    "internalType": "address",
                    "name": "relayManager",
                    "type": "address"
                }
            ],
            "name": "verifyRelayManagerStaked",
            "outputs": [],
            "stateMutability": "view",
            "type": "function"
        },
        {
            "inputs": [
                {
                    "internalType": "address payable",
                    "name": "dest",
                    "type": "address"
                },
                {
                    "internalType": "uint256",
                    "name": "amount",
                    "type": "uint256"
                }
            ],
            "name": "withdraw",
            "outputs": [],
            "stateMutability": "nonpayable",
            "type": "function"
        },
        {
            "inputs": [
                {
                    "internalType": "address payable[]",
                    "name": "dest",
                    "type": "address[]"
                },
                {
                    "internalType": "uint256[]",
                    "name": "amount",
                    "type": "uint256[]"
                }
            ],
            "name": "withdrawMultiple",
            "outputs": [],
            "stateMutability": "nonpayable",
            "type": "function"
        },
        {
            "inputs": [],
            "name": "versionHub",
            "outputs": [
                {
                    "internalType": "string",
                    "name": "",
                    "type": "string"
                }
            ],
            "stateMutability": "pure",
            "type": "function"
        },
        {
            "inputs": [],
            "name": "getCreationBlock",
            "outputs": [
                {
                    "internalType": "uint256",
                    "name": "",
                    "type": "uint256"
                }
            ],
            "stateMutability": "view",
            "type": "function"
        },
        {
            "inputs": [],
            "name": "getL1CreationBlock",
            "outputs": [
                {
                    "internalType": "uint256",
                    "name": "",
                    "type": "uint256"
                }
            ],
            "stateMutability": "view",
            "type": "function"
        },
        {
            "inputs": [],
            "name": "aggregateGasleft",
            "outputs": [
                {
                    "internalType": "uint256",
                    "name": "",
                    "type": "uint256"
                }
            ],
            "stateMutability": "view",
            "type": "function"
        }
    ],
    "bytecode": "0x610160604052600019600c553480156200001857600080fd5b50604051620058e0380380620058e08339810160408190526200003b91620003d4565b84848484846200004b336200012e565b43610100526001600160601b0319606086811b821660805285811b821660a05284811b821660c05283901b1660e05262000085816200017e565b5050505050856001600160a01b0316610120816001600160a01b031660601b81525050856001600160a01b031663a3b1b31d6040518163ffffffff1660e01b815260040160206040518083038186803b158015620000e257600080fd5b505afa158015620000f7573d6000803e3d6000fd5b505050506040513d601f19601f820116820180604052508101906200011d9190620004fb565b610140525062000566945050505050565b600080546001600160a01b038381166001600160a01b0319831681178455604051919092169283917f8be0079c531659141344cd1fd0a4f28419497f9722a3daafe3b4186f6b6457e09190a35050565b6200018862000327565b60648160c0015160ff1610620001d85760405162461bcd60e51b815260206004820152601060248201526f0c8caec40cccaca40e8dede40d0d2ced60831b60448201526064015b60405180910390fd5b8051600190815560208201516002556040808301516003556060830151600455608083015160055560a08301516006805460c086015160e08701516001600160501b0316600160a81b02600160a81b600160f81b031960ff909216600160a01b026001600160a81b03199093166001600160a01b039095169490941791909117169190911790556101008301516007805461ffff90921661ffff19909216919091179055517f4812ada68f7c2cdc9f4a4a09e157ea6b924e0ef40a4fa7aa074fa8f70b1e7247916200031c91815481526001820154602082015260028201546040820152600382015460608201526004820154608082015260058201546001600160a01b03811660a08084019190915260ff9082901c1660c083015260a81c6001600160501b031660e082015260069091015461ffff166101008201526101200190565b60405180910390a150565b6000546001600160a01b03163314620003835760405162461bcd60e51b815260206004820181905260248201527f4f776e61626c653a2063616c6c6572206973206e6f7420746865206f776e65726044820152606401620001cf565b565b805162000392816200054d565b919050565b805161ffff811681146200039257600080fd5b80516001600160501b03811681146200039257600080fd5b805160ff811681146200039257600080fd5b6000806000806000808688036101c0811215620003f057600080fd5b8751620003fd816200054d565b602089015190975062000410816200054d565b604089015190965062000423816200054d565b606089015190955062000436816200054d565b608089015190945062000449816200054d565b9250610120609f1982018113156200046057600080fd5b6200046a62000515565b915060a0890151825260c0890151602083015260e08901516040830152610100808a01516060840152818a01516080840152620004ab6101408b0162000385565b60a0840152620004bf6101608b01620003c2565b60c0840152620004d36101808b01620003aa565b60e0840152620004e76101a08b0162000397565b818401525050809150509295509295509295565b6000602082840312156200050e57600080fd5b5051919050565b60405161012081016001600160401b03811182821017156200054757634e487b7160e01b600052604160045260246000fd5b60405290565b6001600160a01b03811681146200056357600080fd5b50565b60805160601c60a05160601c60c05160601c60e05160601c610100516101205160601c610140516152ca62000616600039600061025801526000818161050f0152610889015260006105fa015260008181610301015261093201526000818161077001526111a601526000818161043b0152612ca30152600081816106450152818161080801528181610a240152818161287e01528181612a1901528181612d810152612e7c01526152ca6000f3fe60806040526004361061020f5760003560e01c80639bcde3f311610118578063ca64f9e7116100a0578063e6e22e121161006f578063e6e22e12146106e1578063ebcd31ac14610701578063f2fde38b14610721578063f3fef3a314610741578063f7908a741461076157600080fd5b8063ca64f9e714610636578063d26152f914610669578063d904c73214610689578063ddf73789146106ab57600080fd5b8063af595dfc116100e7578063af595dfc14610572578063be7c76ad14610592578063c2da0786146105cb578063c5c98a1a146105eb578063c71782301461061e57600080fd5b80639bcde3f3146104dd578063a51c8cb9146104fd578063a6e61b6014610531578063aa67c9191461055f57600080fd5b80636ca862e21161019b57806375dc7b4e1161016a57806375dc7b4e1461042c5780638a09fb561461045f5780638ac3b8451461047f5780638da5cb5b1461049f5780638e53548b146104bd57600080fd5b80636ca862e21461039157806370a08231146103c1578063715018a6146103f757806372c1ab0c1461040c57600080fd5b806345bdade7116101e257806345bdade7146102bb5780634f7de031146102d057806351d85156146102f257806359c4afc0146103395780636bd50cef1461036f57600080fd5b806301ffc9a71461021457806320ffd56d1461024957806339622167146102865780633c16e59a146102a6575b600080fd5b34801561022057600080fd5b5061023461022f36600461412b565b610794565b60405190151581526020015b60405180910390f35b34801561025557600080fd5b507f00000000000000000000000000000000000000000000000000000000000000005b604051908152602001610240565b34801561029257600080fd5b506102346102a1366004613e75565b6107e6565b3480156102b257600080fd5b50600c54610278565b3480156102c757600080fd5b50610278610884565b3480156102dc57600080fd5b506102f06102eb366004613e75565b610927565b005b3480156102fe57600080fd5b507f00000000000000000000000000000000000000000000000000000000000000005b6040516001600160a01b039091168152602001610240565b34801561034557600080fd5b50610278610354366004613e75565b6001600160a01b03166000908152600a602052604090205490565b34801561037b57600080fd5b50610384610a83565b6040516102409190614b70565b34801561039d57600080fd5b506103b16103ac3660046142c5565b610b64565b604051610240949392919061496f565b3480156103cd57600080fd5b506102786103dc366004613e75565b6001600160a01b03166000908152600b602052604090205490565b34801561040357600080fd5b506102f06119e7565b34801561041857600080fd5b506102f0610427366004613f6b565b6119fb565b34801561043857600080fd5b507f0000000000000000000000000000000000000000000000000000000000000000610321565b34801561046b57600080fd5b506102f061047a366004614033565b611cbc565b34801561048b57600080fd5b5061027861049a366004614510565b611e13565b3480156104ab57600080fd5b506000546001600160a01b0316610321565b3480156104c957600080fd5b506102786104d8366004614542565b611e48565b3480156104e957600080fd5b506102f06104f83660046143f1565b611ede565b34801561050957600080fd5b506103217f000000000000000000000000000000000000000000000000000000000000000081565b34801561053d57600080fd5b5061055161054c3660046141e0565b612084565b6040516102409291906149e3565b6102f061056d366004613e75565b612510565b34801561057e57600080fd5b506102f061058d366004614510565b6125f1565b34801561059e57600080fd5b506103216105ad366004613e75565b6001600160a01b039081166000908152600960205260409020541690565b3480156105d757600080fd5b506102f06105e6366004613ef7565b612674565b3480156105f757600080fd5b507f0000000000000000000000000000000000000000000000000000000000000000610278565b34801561062a57600080fd5b50600c54421015610234565b34801561064257600080fd5b507f0000000000000000000000000000000000000000000000000000000000000000610321565b34801561067557600080fd5b506102f0610684366004613e75565b612857565b34801561069557600080fd5b5061069e6129d5565b604051610240919061499d565b3480156106b757600080fd5b506102786106c6366004613e75565b6001600160a01b031660009081526008602052604090205490565b3480156106ed57600080fd5b506102f06106fc366004613e75565b6129f5565b34801561070d57600080fd5b506102f061071c366004613ebe565b612c98565b34801561072d57600080fd5b506102f061073c366004613e75565b612ee0565b34801561074d57600080fd5b506102f061075c366004613e92565b612f59565b34801561076d57600080fd5b507f0000000000000000000000000000000000000000000000000000000000000000610321565b60006001600160e01b0319821663e9fb30f760e01b14806107c557506001600160e01b03198216630704183b60e11b145b806107e057506301ffc9a760e01b6001600160e01b03198316145b92915050565b604051633962216760e01b81526001600160a01b0382811660048301526000917f00000000000000000000000000000000000000000000000000000000000000009091169063396221679060240160206040518083038186803b15801561084c57600080fd5b505afa158015610860573d6000803e3d6000fd5b505050506040513d601f19601f820116820180604052508101906107e091906140cd565b60005a7f00000000000000000000000000000000000000000000000000000000000000006001600160a01b031663a94597ff6040518163ffffffff1660e01b815260040160206040518083038186803b1580156108e057600080fd5b505afa1580156108f4573d6000803e3d6000fd5b505050506040513d601f19601f820116820180604052508101906109189190614529565b6109229190614dbc565b905090565b336001600160a01b037f000000000000000000000000000000000000000000000000000000000000000016146109a45760405162461bcd60e51b815260206004820152601d60248201527f63616c6c6572206973206e6f742072656c61792072656769737472617200000060448201526064015b60405180910390fd5b6109ad816129f5565b6001600160a01b0381166000908152600a6020526040902054610a055760405162461bcd60e51b815260206004820152601060248201526f6e6f2072656c617920776f726b65727360801b604482015260640161099b565b6040516346dcbf0b60e01b81526001600160a01b0382811660048301527f000000000000000000000000000000000000000000000000000000000000000016906346dcbf0b90602401600060405180830381600087803b158015610a6857600080fd5b505af1158015610a7c573d6000803e3d6000fd5b5050505050565b610aeb604051806101200160405280600081526020016000815260200160008152602001600081526020016000815260200160006001600160a01b03168152602001600060ff16815260200160006001600160501b03168152602001600061ffff1681525090565b5060408051610120810182526001548152600254602082015260035491810191909152600454606082015260055460808201526006546001600160a01b03811660a0830152600160a01b810460ff1660c0830152600160a81b90046001600160501b031660e082015260075461ffff1661010082015290565b60008060006060610b73613c00565b610b7b610884565b6040820152610b8b8a8a8a612ffc565b6101e082015260408051808201909152601881527f72656c617943616c6c2072656c617952657175657374496400000000000000006020820152610bce90613061565b610bdc816101e001516130a4565b610c1560405180606001604052806023815260200161527260239139610c028c80614c87565b610c10906020810190613e75565b6130e9565b610c4c604051806060016040528060218152602001614fbf60219139610c3b8c80614c87565b610c10906040810190602001613e75565b610c7b6040518060600160405280602481526020016150c860249139610c728c80614c87565b60400135613132565b610caa604051806060016040528060228152602001614fe060229139610ca18c80614c87565b60600135613132565b610cd9604051806060016040528060248152602001614f9b60249139610cd08c80614c87565b60800135613132565b610d086040518060600160405280602d8152602001614f0d602d9139610cff8c80614c87565b60c00135613132565b610d376040518060600160405280602d815260200161503d602d9139610d3160208d018d614c9d565b35613132565b610d6960405180606001604052806035815260200161509360359139610d6060208d018d614c9d565b60200135613132565b610d926040518060600160405280603b8152602001615002603b9139610c7260208d018d614c9d565b610dcc6040518060600160405280602c8152602001614ee1602c9139610dbb60208d018d614c9d565b610c10906080810190606001613e75565b610e066040518060600160405280602a8152602001615248602a9139610df560208d018d614c9d565b610c109060a0810190608001613e75565b610e406040518060600160405280602a815260200161521e602a9139610e2f60208d018d614c9d565b610c109060c081019060a001613e75565b610e7260405180606001604052806029815260200161506a60299139610e6960208d018d614c9d565b60e00135613132565b610eb06040518060400160405280601d81526020017f72656c617943616c6c20646f6d61696e536570617261746f724e616d65000000815250613061565b610eef8d8d8080601f01602080910402602001604051908101604052809392919081815260200183838082843760009201919091525061306192505050565b610f236040518060400160405280601381526020017272656c617943616c6c207369676e617475726560681b815250613061565b610f6289898080601f01602080910402602001604051908101604052809392919081815260200183838082843760009201919091525061317792505050565b610f996040518060400160405280601681526020017572656c617943616c6c20617070726f76616c4461746160501b815250613061565b610fd887878080601f01602080910402602001604051908101604052809392919081815260200183838082843760009201919091525061317792505050565b610ff96040518060600160405280602381526020016151fb60239139613061565b61104e6110068b80614c87565b6110149060a0810190614c41565b8080601f01602080910402602001604051908101604052809392919081815260200183838082843760009201919091525061317792505050565b61106f6040518060600160405280602e8152602001615111602e9139613061565b61108d61107f60208c018c614c9d565b6110149060c0810190614c41565b6110cc6040518060400160405280601d81526020017f72656c617943616c6c206d6178416363657074616e63654275646765740000008152508c613132565b600c54421061110e5760405162461bcd60e51b815260206004820152600e60248201526d1a1d588819195c1c9958d85d195960921b604482015260640161099b565b600461111a8b80614c87565b6111289060a0810190614c41565b9050101561113757600061118c565b61118c6111448b80614c87565b6111529060a0810190614c41565b8080601f016020809104026020016040519081016040528093929190818152602001838380828437600092018290525092506131ba915050565b6001600160e01b0319166020820152336001600160a01b037f000000000000000000000000000000000000000000000000000000000000000016148015906111d357503215155b156112e757876112255760405162461bcd60e51b815260206004820181905260248201527f6d697373696e67207369676e6174757265206f72206261642067617465776179604482015260640161099b565b3332146112745760405162461bcd60e51b815260206004820152601860248201527f72656c617920776f726b6572206d75737420626520454f410000000000000000604482015260640161099b565b61128160208b018b614c9d565b611292906080810190606001613e75565b6001600160a01b0316336001600160a01b0316146112e75760405162461bcd60e51b81526020600482015260126024820152712737ba1030903934b3b43a103bb7b935b2b960711b604482015260640161099b565b321561138557600960006112fe60208d018d614c9d565b61130f906080810190606001613e75565b6001600160a01b039081168252602082019290925260400160002054166101c082018190526113775760405162461bcd60e51b81526020600482015260146024820152732ab735b737bbb7103932b630bc903bb7b935b2b960611b604482015260640161099b565b611385816101c001516129f5565b6113948b8b836040015161322a565b61010083015260a08201526113ae8d8d8c8c8c8c8c6134b4565b60025460405a6113bf90603f614df6565b6113c99190614dd4565b6113d39190614e15565b6101208201526113e1610884565b610140820152600354600454610120830151604084015161140560208f018f614c9d565b604001356114139190614dbc565b61141d9190614dbc565b6114279190614dbc565b6114319190614dbc565b81610200018181525050306001600160a01b031681610120015163a6e61b6060e01b8f8f8e8e8e8e8e8a60a00151611467610884565b8c61020001516114779190614e15565b8c61010001516040516024016114969a99989796959493929190614a03565b60408051601f198184030181529181526020820180516001600160e01b03166001600160e01b03199094169390931790925290516114d49190614795565b60006040518083038160008787f1925050503d8060008114611512576040519150601f19603f3d011682016040523d82523d6000602084013e611517565b606091505b506102208301521515815261152a610884565b81610140015161153a9190614e15565b60e08201526102208101518051611559916020918101820191016141a2565b8260c0018360800182905282600681111561157657611576614e89565b600681111561158757611587614e89565b90525050608081015151156115d8577fa1478a4242848419db824250a0dddc645dca0d6a9b12ab1fd79b00145a0ba98e8160c0015182608001516040516115cf9291906149e3565b60405180910390a15b805161173a5760028160c0015160068111156115f6576115f6614e89565b1480611665575061160a60208b018b614c9d565b60a08201515161161e916040013590614dbc565b8160e0015111158015611665575060038160c00151600681111561164457611644614e89565b1480611665575060048160c00151600681111561166357611663614e89565b145b1561173a576101e081015161167d60208c018c614c9d565b61168e9060a0810190608001613e75565b6101c08301516001600160a01b0391821691167f0c47510cb900901afca7c9e926892582a36fd3bb7f908142ccf0fb4382a2b6846116cc8e80614c87565b6116da906020810190613e75565b6116e48f80614c87565b6116f5906040810190602001613e75565b3387602001518860e0015189608001516040516117179695949392919061489a565b60405180910390a46000808260c0015183608001519450945094509450506119d8565b600454611745610884565b82604001516117549190614e15565b61176160208d018d614c9d565b6040013561176f9190614dbc565b6117799190614dbc565b6101608201819052611792906104d860208d018d614c9d565b935061179d84611e13565b61018082015283600b60006117b560208e018e614c9d565b6117c69060a0810190608001613e75565b6001600160a01b03166001600160a01b03168152602001908152602001600020546117f19190614e15565b600b600061180260208e018e614c9d565b6118139060a0810190608001613e75565b6001600160a01b0316815260208101919091526040016000205561018081015161183d9085614e15565b6101c08201516001600160a01b03166000908152600b60205260409020546118659190614dbc565b6101c08201516001600160a01b03166000908152600b6020526040902055610180810151156118d5576101808101516006546001600160a01b03166000908152600b60205260409020546118b99190614dbc565b6006546001600160a01b03166000908152600b60205260409020555b60006118e18b80614c87565b6118ef906020810190613e75565b905060006118fd8c80614c87565b61190e906040810190602001613e75565b9050600061191f60208e018e614c9d565b6119309060a0810190608001613e75565b9050836101e00151336001600160a01b0316856101c001516001600160a01b03167fd51ac07012398c2059ec53c6005fa8639657917bd2dbd72bc489a3c0eaaa7f168686868a602001518b60c001518f6040516119929695949392919061484c565b60405180910390a4505050326119bb5760c08101516080909101516001955090925090506119d8565b60c001516040805160208101909152600081526001955090925090505b98509850985098945050505050565b6119ef61358e565b6119f960006135e8565b565b3360005b8251811015611cb657611aa06040518060400160405280601981526020017f77697468647261774d756c7469706c6520257320257320257300000000000000815250600b6000856001600160a01b03166001600160a01b0316815260200190815260200160002054868481518110611a7957611a79614e9f565b6020026020010151868581518110611a9357611a93614e9f565b6020026020010151613638565b6001600160a01b0382166000908152600b60205260409020548351849083908110611acd57611acd614e9f565b6020026020010151811015611b195760405162461bcd60e51b8152602060048201526012602482015271696e73756666696369656e742066756e647360701b604482015260640161099b565b838281518110611b2b57611b2b614e9f565b602002602001015181611b3e9190614e15565b6001600160a01b0384166000908152600b60205260408120919091558551869084908110611b6e57611b6e614e9f565b60200260200101516001600160a01b0316858481518110611b9157611b91614e9f565b602002602001015160405160006040518083038185875af1925050503d8060008114611bd9576040519150601f19603f3d011682016040523d82523d6000602084013e611bde565b606091505b5050905080611c225760405162461bcd60e51b815260206004820152601060248201526f2a3930b739b332b9103330b4b632b21760811b604482015260640161099b565b858381518110611c3457611c34614e9f565b60200260200101516001600160a01b0316846001600160a01b03167fd1c19fbcd4551a5edfb66d43d2e337c04837afda3482b42bdf569a8fccdae5fb878681518110611c8257611c82614e9f565b6020026020010151604051611c9991815260200190565b60405180910390a350508080611cae90614e58565b9150506119ff565b50505050565b611cc461358e565b8051825114611d155760405162461bcd60e51b815260206004820152601e60248201527f7365744d696e696d756d5374616b65733a2077726f6e67206c656e6774680000604482015260640161099b565b60005b8251811015611e0e57818181518110611d3357611d33614e9f565b602002602001015160086000858481518110611d5157611d51614e9f565b60200260200101516001600160a01b03166001600160a01b03168152602001908152602001600020819055507ffb7510fe755f485459ee8ed619d4a0addc092c230ff47e760a62aeba78ebb9e3838281518110611db057611db0614e9f565b6020026020010151838381518110611dca57611dca614e9f565b6020026020010151604051611df49291906001600160a01b03929092168252602082015260400190565b60405180910390a180611e0681614e58565b915050611d18565b505050565b600654600090600160a01b900460ff16611e2f57506000919050565b600654606490600160a01b900460ff1683020492915050565b600080823560208401351415611e6057506000611e63565b50485b6000611e7f8435611e7a3a81602089013587614dbc565b613681565b600754909150606490611e969061ffff1682614d96565b61ffff16611ea48388614df6565b611eae9190614df6565b611eb89190614dd4565b600654611ed59190600160a81b90046001600160501b0316614dbc565b95945050505050565b611ee661358e565b60648160c0015160ff1610611f305760405162461bcd60e51b815260206004820152601060248201526f0c8caec40cccaca40e8dede40d0d2ced60831b604482015260640161099b565b8051600190815560208201516002556040808301516003556060830151600455608083015160055560a08301516006805460c086015160e08701516001600160501b0316600160a81b0269ffffffffffffffffffff60a81b1960ff909216600160a01b026001600160a81b03199093166001600160a01b039095169490941791909117169190911790556101008301516007805461ffff90921661ffff19909216919091179055517f4812ada68f7c2cdc9f4a4a09e157ea6b924e0ef40a4fa7aa074fa8f70b1e72479161207991815481526001820154602082015260028201546040820152600382015460608201526004820154608082015260058201546001600160a01b03811660a08084019190915260ff9082901c1660c08301526001600160501b0360a89190911c1660e082015260069091015461ffff166101008201526101200190565b60405180910390a150565b600060606120de604051806101200160405280600081526020016000815260200160008152602001600080191681526020016000151581526020016060815260200160608152602001606081526020016000151581525090565b6120e6610884565b81525a6120f39086614e15565b60208201523330146121475760405162461bcd60e51b815260206004820152601a60248201527f4d7573742062652063616c6c65642062792052656c6179487562000000000000604482015260640161099b565b600b600061215860208e018e614c9d565b6121699060a0810190608001613e75565b6001600160a01b0316815260208101919091526040908101600020548282015251622f977560e21b906121aa908d908d908d908d908d908b90602401614bf2565b60408051601f19818403018152919052602080820180516001600160e01b03166001600160e01b03199094169390931790925260e08301526000906060906121f4908e018e614c9d565b6122059060a0810190608001613e75565b6001600160a01b031688602001358460e001516040516122259190614795565b60006040518083038160008787f1925050503d8060008114612263576040519150601f19603f3d011682016040523d82523d6000602084013e612268565b606091505b509092509050816122875761227c81613699565b6122876002826136a5565b8080602001905181019061229b9190614155565b8460c001856101000182151515158152508290525050505060006123058e8e8080601f016020809104026020016040519081016040528093929190818152602001838380828437600081840152601f19601f820116905080830192505050505050508d8d8d6136de565b60a0850152151560808401529050806123275761232760038360a001516136a5565b816101000151801561233b57508160800151155b1561234f5761234f60048360a001516136a5565b506376fa01c360e01b8160c00151826080015161236a610884565b84516123769190614e15565b84602001516123859190614dbc565b8e80602001906123959190614c9d565b6040516024016123a894939291906149b0565b60408051601f19818403018152919052602080820180516001600160e01b03166001600160e01b03199094169390931790925260e083015260009081906123f1908e018e614c9d565b6124029060a0810190608001613e75565b6001600160a01b031688604001358460e001516040516124229190614795565b60006040518083038160008787f1925050503d8060008114612460576040519150601f19603f3d011682016040523d82523d6000602084013e612465565b606091505b50915091508161247a5761247a6005826136a5565b50506040810151600b600061249260208f018f614c9d565b6124a39060a0810190608001613e75565b6001600160a01b03166001600160a01b031681526020019081526020016000205410156124e4576124e46006604051806020016040528060008152506136a5565b80608001516124f45760016124f7565b60005b8160a0015192509250509a509a98505050505050505050565b61252a6001600160a01b0382166370d596f560e11b6138c4565b6125765760405162461bcd60e51b815260206004820181905260248201527f746172676574206973206e6f7420612076616c696420495061796d6173746572604482015260640161099b565b6001600160a01b0381166000908152600b6020526040902054349061259c908290614dbc565b6001600160a01b0383166000818152600b6020908152604091829020939093555183815233927f8752a472e571a816aea92eec8dae9baf628e840f4929fbcc2d155e6233ff68a7910160405180910390a35050565b6125f961358e565b600c54421061263f5760405162461bcd60e51b8152602060048201526012602482015271105b1c9958591e4819195c1c9958d85d195960721b604482015260640161099b565b600c8190556040518181527f1c0aa0c666483fbf0cf795d9d646ea3552d1e3008162ba9ab1d6d6dfd8c6ec6b90602001612079565b336000818152600a602052604081205461268f908490614dbc565b6001600160a01b0383166000908152600a602052604090208190556001549091508111156126f25760405162461bcd60e51b815260206004820152601060248201526f746f6f206d616e7920776f726b65727360801b604482015260640161099b565b6126fb826129f5565b60005b8381101561280b57600060098187878581811061271d5761271d614e9f565b90506020020160208101906127329190613e75565b6001600160a01b039081168252602082019290925260400160002054161461279c5760405162461bcd60e51b815260206004820152601960248201527f7468697320776f726b6572206861732061206d616e6167657200000000000000604482015260640161099b565b82600960008787858181106127b3576127b3614e9f565b90506020020160208101906127c89190613e75565b6001600160a01b039081168252602082019290925260400160002080546001600160a01b031916929091169190911790558061280381614e58565b9150506126fe565b50816001600160a01b03167febf4a9bffb39f7c5dbf3f65540183b9381ae226ac3d0a45b4cad484713bd4a2885858460405161284993929190614919565b60405180910390a250505050565b61285f61358e565b604051633962216760e01b81526001600160a01b0382811660048301527f0000000000000000000000000000000000000000000000000000000000000000169063396221679060240160206040518083038186803b1580156128c057600080fd5b505afa1580156128d4573d6000803e3d6000fd5b505050506040513d601f19601f820116820180604052508101906128f891906140cd565b6129445760405162461bcd60e51b815260206004820181905260248201527f72656c617920736572766572206e6f74206573636865617461626c6520796574604482015260640161099b565b6001600160a01b038082166000908152600b6020526040808220805490839055600654909316825290205461297a908290614dbc565b6006546001600160a01b039081166000908152600b60209081526040918290209390935551838152908416917f3fb672a061b9c3ab083062a9a8ff532d341e5fa42145b91f3922a711ae135659910160405180910390a25050565b60606040518060600160405280602581526020016150ec60259139905090565b60405163c345315360e01b81526001600160a01b03828116600483015260009182917f0000000000000000000000000000000000000000000000000000000000000000169063c3453153906024016101006040518083038186803b158015612a5c57600080fd5b505afa158015612a70573d6000803e3d6000fd5b505050506040513d601f19601f82011682018060405250810190612a949190614484565b60a0820180516001600160a01b0390811660009081526008602052604090205491519395509193509116612b055760405162461bcd60e51b81526020600482015260186024820152771c995b185e481b585b9859d95c881b9bdd081cdd185ad95960421b604482015260640161099b565b8251811115612b565760405162461bcd60e51b815260206004820152601960248201527f7374616b6520616d6f756e7420697320746f6f20736d616c6c00000000000000604482015260640161099b565b80612ba35760405162461bcd60e51b815260206004820152601f60248201527f7374616b696e67207468697320746f6b656e20697320666f7262696464656e00604482015260640161099b565b60055460208401511015612bf95760405162461bcd60e51b815260206004820152601a60248201527f756e7374616b652064656c617920697320746f6f20736d616c6c000000000000604482015260640161099b565b604083015115612c4b5760405162461bcd60e51b815260206004820152601860248201527f7374616b6520686173206265656e2077697468647261776e0000000000000000604482015260640161099b565b81611cb65760405162461bcd60e51b815260206004820181905260248201527f7468697320687562206973206e6f7420617574686f72697a656420627920534d604482015260640161099b565b336001600160a01b037f00000000000000000000000000000000000000000000000000000000000000001614612d005760405162461bcd60e51b815260206004820152600d60248201526c2737ba103832b730b634bd32b960991b604482015260640161099b565b6001600160a01b038083166000908152600960205260409020541680612d5f5760405162461bcd60e51b81526020600482015260146024820152732ab735b737bbb7103932b630bc903bb7b935b2b960611b604482015260640161099b565b60405163c345315360e01b81526001600160a01b0382811660048301526000917f00000000000000000000000000000000000000000000000000000000000000009091169063c3453153906024016101006040518083038186803b158015612dc657600080fd5b505afa158015612dda573d6000803e3d6000fd5b505050506040513d601f19601f82011682018060405250810190612dfe9190614484565b508051909150612e4b5760405162461bcd60e51b81526020600482015260186024820152771c995b185e481b585b9859d95c881b9bdd081cdd185ad95960421b604482015260640161099b565b805160405163026822bd60e21b81526001600160a01b038481166004830152858116602483015260448201929092527f0000000000000000000000000000000000000000000000000000000000000000909116906309a08af490606401600060405180830381600087803b158015612ec257600080fd5b505af1158015612ed6573d6000803e3d6000fd5b5050505050505050565b612ee861358e565b6001600160a01b038116612f4d5760405162461bcd60e51b815260206004820152602660248201527f4f776e61626c653a206e6577206f776e657220697320746865207a65726f206160448201526564647265737360d01b606482015260840161099b565b612f56816135e8565b50565b6040805160018082528183019092526000916020808301908036833750506040805160018082528183019092529293506000929150602080830190803683370190505090508282600081518110612fb257612fb2614e9f565b6020026020010181815250508381600081518110612fd257612fd2614e9f565b60200260200101906001600160a01b031690816001600160a01b031681525050611cb681836119fb565b60006001600160e01b036130108580614c87565b61301e906020810190613e75565b6130288680614c87565b60800135858560405160200161304194939291906148f1565b604051602081830303815290604052805190602001201690509392505050565b612f5681604051602401613075919061499d565b60408051601f198184030181529190526020810180516001600160e01b031663104c13eb60e21b1790526138e0565b612f56816040516024016130ba91815260200190565b60408051601f198184030181529190526020810180516001600160e01b03166327b7cf8560e01b1790526138e0565b61312e82826040516024016130ff929190614a99565b60408051601f198184030181529190526020810180516001600160e01b031663319af33360e01b1790526138e0565b5050565b61312e8282604051602401613148929190614ac3565b60408051601f198184030181529190526020810180516001600160e01b03166309710a9d60e41b1790526138e0565b612f568160405160240161318b919061499d565b60408051601f198184030181529190526020810180516001600160e01b03166305f3bfab60e11b1790526138e0565b60006131c7826004614dbc565b835110156132175760405162461bcd60e51b815260206004820152601a60248201527f726561644279746573343a206461746120746f6f2073686f7274000000000000604482015260640161099b565b5001602001516001600160e01b03191690565b6132556040518060800160405280600081526020016000815260200160008152602001600081525090565b60006132646020850185614c9d565b6132759060a0810190608001613e75565b6001600160a01b031663b039a88f61c3506040518263ffffffff1660e01b815260040160806040518083038187803b1580156132b057600080fd5b5086fa1580156132c4573d6000803e3d6000fd5b50505050506040513d601f19601f820116820180604052508101906132e9919061438c565b60608101519092503611156133405760405162461bcd60e51b815260206004820152601760248201527f6d73672e64617461206578636565646564206c696d6974000000000000000000604482015260640161099b565b81518510156133915760405162461bcd60e51b815260206004820152601a60248201527f616363657074616e63652062756467657420746f6f2068696768000000000000604482015260640161099b565b6020820151825110156133e65760405162461bcd60e51b815260206004820152601960248201527f616363657074616e63652062756467657420746f6f206c6f7700000000000000604482015260640161099b565b826133f46020860186614c9d565b604001356134029190614dbc565b90506000613417826104d86020880188614c9d565b9050600b600061342a6020880188614c9d565b61343b9060a0810190608001613e75565b6001600160a01b03166001600160a01b03168152602001908152602001600020548111156134ab5760405162461bcd60e51b815260206004820152601960248201527f5061796d61737465722062616c616e636520746f6f206c6f7700000000000000604482015260640161099b565b50935093915050565b60006134d96134c66020880188614c9d565b6134d49060c0810190614c41565b613901565b6134f46134e68880614c87565b6134d49060a0810190614c41565b6134fe8585613901565b6135088888613901565b6135128c8c613901565b61351e906102c4614dbc565b6135289190614dbc565b6135329190614dbc565b61353c9190614dbc565b6135469190614dbc565b9050368114612ed65760405162461bcd60e51b81526020600482015260146024820152736578747261206d73672e6461746120627974657360601b604482015260640161099b565b6000546001600160a01b031633146119f95760405162461bcd60e51b815260206004820181905260248201527f4f776e61626c653a2063616c6c6572206973206e6f7420746865206f776e6572604482015260640161099b565b600080546001600160a01b038381166001600160a01b0319831681178455604051919092169283917f8be0079c531659141344cd1fd0a4f28419497f9722a3daafe3b4186f6b6457e09190a35050565b611cb6848484846040516024016136529493929190614ae5565b60408051601f198184030181529190526020810180516001600160e01b0316632c24bd7f60e11b1790526138e0565b60008183106136905781613692565b825b9392505050565b612f5681610400613927565b600082826040516020016136ba9291906149e3565b60405160208183030381529060405290506136d481613699565b8051602082018181fd5b600080606060006136ee87613934565b905060006137198961370360208b018b614c9d565b6137149060c081019060a001613e75565b613973565b90506137286020890189614c9d565b6137399060c081019060a001613e75565b6001600160a01b031663e024dc7f60e01b6137548a80614c87565b836040518060400160405280600c81526020016b14995b185e54995c5d595cdd60a21b8152506040518060a0016040528060618152602001614f3a606191396040518060e0016040528060bc815260200161513f60bc91396040516020016137bc9190614810565b60408051601f19818403018152908290526137db9392916020016147b1565b60405160208183030381529060405280519060200120868c8c60405160240161380996959493929190614b1d565b60408051601f198184030181529181526020820180516001600160e01b03166001600160e01b03199094169390931790925290516138479190614795565b6000604051808303816000865af19150503d8060008114613884576040519150601f19603f3d011682016040523d82523d6000602084013e613889565b606091505b50909550925084156138af57828060200190518101906138a991906140e8565b90945092505b6138b883613699565b50509450945094915050565b60006138cf836139c6565b8015613692575061369283836139f9565b80516a636f6e736f6c652e6c6f67602083016000808483855afa5050505050565b6000613910601f600019614e15565b61391b83601f614dbc565b61369291166020614dbc565b808251111561312e579052565b606061394b6139466020840184614c9d565b613a82565b60405160200161395d91815260200190565b6040516020818303038152906040529050919050565b60006136926040518060800160405280858152602001604051806040016040528060018152602001603360f81b81525081526020016139af4690565b8152602001846001600160a01b0316815250613b80565b60006139d9826301ffc9a760e01b6139f9565b80156107e057506139f2826001600160e01b03196139f9565b1592915050565b604080516001600160e01b03198316602480830191909152825180830390910181526044909101909152602080820180516001600160e01b03166301ffc9a760e01b178152825160009392849283928392918391908a617530fa92503d91506000519050828015613a6b575060208210155b8015613a775750600081115b979650505050505050565b60006040518060e0016040528060bc815260200161513f60bc91398051602091820120908335908401356040850135613ac16080870160608801613e75565b613ad160a0880160808901613e75565b613ae160c0890160a08a01613e75565b613aee60c08a018a614c41565b604051613afc929190614785565b604051908190038120613b63989796959493929160e08c0135906020019889526020890197909752604088019590955260608701939093526001600160a01b039182166080870152811660a08601521660c084015260e08301526101008201526101200190565b604051602081830303815290604052805190602001209050919050565b60007f8b73c3c69bb8fe3d512ecc4cf759cc79239f7b179b0ffacaa9a75d522b39400f82600001518051906020012083602001518051906020012084604001518560600151604051602001613b639594939291909485526020850193909352604084019190915260608301526001600160a01b0316608082015260a00190565b60405180610240016040528060001515815260200160006001600160e01b0319168152602001600081526020016060815260200160608152602001613c666040518060800160405280600081526020016000815260200160008152602001600081525090565b8152602001600081526020016000815260200160008152602001600081526020016000815260200160008152602001600081526020016060815260200160006001600160a01b031681526020016000801916815260200160008152602001606081525090565b8035613cd781614ecb565b919050565b600082601f830112613ced57600080fd5b81356020613d02613cfd83614d2e565b614cfe565b80838252828201915082860187848660051b8901011115613d2257600080fd5b60005b85811015613d4157813584529284019290840190600101613d25565b5090979650505050505050565b80518015158114613cd757600080fd5b60008083601f840112613d7057600080fd5b5081356001600160401b03811115613d8757600080fd5b602083019150836020828501011115613d9f57600080fd5b9250929050565b600082601f830112613db757600080fd5b81516001600160401b03811115613dd057613dd0614eb5565b613de3601f8201601f1916602001614cfe565b818152846020838601011115613df857600080fd5b613e09826020830160208701614e2c565b949350505050565b600060808284031215613e2357600080fd5b50919050565b600060408284031215613e2357600080fd5b803561ffff81168114613cd757600080fd5b803560ff81168114613cd757600080fd5b80356001600160501b0381168114613cd757600080fd5b600060208284031215613e8757600080fd5b813561369281614ecb565b60008060408385031215613ea557600080fd5b8235613eb081614ecb565b946020939093013593505050565b60008060408385031215613ed157600080fd5b8235613edc81614ecb565b91506020830135613eec81614ecb565b809150509250929050565b60008060208385031215613f0a57600080fd5b82356001600160401b0380821115613f2157600080fd5b818501915085601f830112613f3557600080fd5b813581811115613f4457600080fd5b8660208260051b8501011115613f5957600080fd5b60209290920196919550909350505050565b60008060408385031215613f7e57600080fd5b82356001600160401b0380821115613f9557600080fd5b818501915085601f830112613fa957600080fd5b81356020613fb9613cfd83614d2e565b8083825282820191508286018a848660051b8901011115613fd957600080fd5b600096505b84871015614005578035613ff181614ecb565b835260019690960195918301918301613fde565b509650508601359250508082111561401c57600080fd5b5061402985828601613cdc565b9150509250929050565b6000806040838503121561404657600080fd5b82356001600160401b038082111561405d57600080fd5b818501915085601f83011261407157600080fd5b81356020614081613cfd83614d2e565b8083825282820191508286018a848660051b89010111156140a157600080fd5b600096505b848710156140055780356140b981614ecb565b8352600196909601959183019183016140a6565b6000602082840312156140df57600080fd5b61369282613d4e565b600080604083850312156140fb57600080fd5b61410483613d4e565b915060208301516001600160401b0381111561411f57600080fd5b61402985828601613da6565b60006020828403121561413d57600080fd5b81356001600160e01b03198116811461369257600080fd5b6000806040838503121561416857600080fd5b82516001600160401b0381111561417e57600080fd5b61418a85828601613da6565b92505061419960208401613d4e565b90509250929050565b600080604083850312156141b557600080fd5b8251600781106141c457600080fd5b60208401519092506001600160401b0381111561411f57600080fd5b6000806000806000806000806000806101408b8d03121561420057600080fd5b8a356001600160401b038082111561421757600080fd5b6142238e838f01613d5e565b909c509a5060208d013591508082111561423c57600080fd5b6142488e838f01613e29565b995060408d013591508082111561425e57600080fd5b61426a8e838f01613d5e565b909950975060608d013591508082111561428357600080fd5b506142908d828e01613d5e565b90965094506142a490508c60808d01613e11565b92506101008b013591506101208b013590509295989b9194979a5092959850565b60008060008060008060008060a0898b0312156142e157600080fd5b88356001600160401b03808211156142f857600080fd5b6143048c838d01613d5e565b909a50985060208b0135975060408b013591508082111561432457600080fd5b6143308c838d01613e29565b965060608b013591508082111561434657600080fd5b6143528c838d01613d5e565b909650945060808b013591508082111561436b57600080fd5b506143788b828c01613d5e565b999c989b5096995094979396929594505050565b60006080828403121561439e57600080fd5b604051608081018181106001600160401b03821117156143c0576143c0614eb5565b8060405250825181526020830151602082015260408301516040820152606083015160608201528091505092915050565b6000610120828403121561440457600080fd5b61440c614cb3565b823581526020830135602082015260408301356040820152606083013560608201526080830135608082015261444460a08401613ccc565b60a082015261445560c08401613e4d565b60c082015261446660e08401613e5e565b60e0820152610100614479818501613e3b565b908201529392505050565b60008082840361010081121561449957600080fd5b60e08112156144a757600080fd5b506144b0614cdc565b835181526020840151602082015260408401516040820152606084015160608201526080840151608082015260a08401516144ea81614ecb565b60a082015260c08401516144fd81614ecb565b60c0820152915061419960e08401613d4e565b60006020828403121561452257600080fd5b5035919050565b60006020828403121561453b57600080fd5b5051919050565b6000806040838503121561455557600080fd5b8235915060208301356001600160401b0381111561457257600080fd5b83016101008186031215613eec57600080fd5b81835281816020850137506000828201602090810191909152601f909101601f19169091010190565b600081518084526145c6816020860160208601614e2c565b601f01601f19169290920160200192915050565b600781106145f857634e487b7160e01b600052602160045260246000fd5b9052565b6000813561460981614ecb565b6001600160a01b03908116845260208301359061462582614ecb565b16602084015260408281013590840152606080830135908401526080808301359084015261465660a0830183614d51565b60e060a086015261466b60e086018284614585565b91505060c083013560c08501528091505092915050565b600061010082358452602083013560208501526040830135604085015260608301356146ad81614ecb565b6001600160a01b0390811660608601526080840135906146cc82614ecb565b16608085015260a08301356146e081614ecb565b6001600160a01b031660a08501526146fb60c0840184614d51565b8260c087015261470e8387018284614585565b9250505060e083013560e08501528091505092915050565b6000813582360360de198101821261473d57600080fd5b60408552614750604086018584016145fc565b9150602084013560fe198201811261476757600080fd5b858303602087015261477b83868301614682565b9695505050505050565b8183823760009101908152919050565b600082516147a7818460208701614e2c565b9190910192915050565b600084516147c3818460208901614e2c565b600560fb1b90830190815284516147e1816001840160208901614e2c565b600b60fa1b600192909101918201528351614803816002840160208801614e2c565b0160020195945050505050565b7352656c6179446174612072656c6179446174612960601b81526000825161483f816014850160208701614e2c565b9190910160140192915050565b6001600160a01b0387811682528681166020830152851660408201526001600160e01b03198416606082015260c0810161488960808301856145da565b8260a0830152979650505050505050565b6001600160a01b0387811682528681166020830152851660408201526001600160e01b0319841660608201526080810183905260c060a082018190526000906148e5908301846145ae565b98975050505050505050565b60018060a01b038516815283602082015260606040820152600061477b606083018486614585565b6040808252810183905260008460608301825b8681101561495c57823561493f81614ecb565b6001600160a01b031682526020928301929091019060010161492c565b5060209390930193909352509392505050565b841515815283602082015261498760408201846145da565b60806060820152600061477b60808301846145ae565b60208152600061369260208301846145ae565b6080815260006149c360808301876145ae565b85151560208401528460408401528281036060840152613a778185614682565b6149ed81846145da565b604060208201526000613e0960408301846145ae565b6000610140808352614a188184018d8f614585565b90508281036020840152614a2c818c614726565b90508281036040840152614a41818a8c614585565b90508281036060840152614a5681888a614585565b86516080850152602087015160a0850152604087015160c085015260609096015160e0840152505061010081019290925261012090910152979650505050505050565b604081526000614aac60408301856145ae565b905060018060a01b03831660208301529392505050565b604081526000614ad660408301856145ae565b90508260208301529392505050565b608081526000614af860808301876145ae565b6020830195909552506001600160a01b03929092166040830152606090910152919050565b60a081526000614b3060a08301896145fc565b8760208401528660408401528281036060840152614b4e81876145ae565b90508281036080840152614b63818587614585565b9998505050505050505050565b600061012082019050825182526020830151602083015260408301516040830152606083015160608301526080830151608083015260018060a01b0360a08401511660a083015260ff60c08401511660c083015260e0830151614bde60e08401826001600160501b03169052565b506101009283015161ffff16919092015290565b608081526000614c056080830189614726565b8281036020840152614c1881888a614585565b90508281036040840152614c2d818688614585565b915050826060830152979650505050505050565b6000808335601e19843603018112614c5857600080fd5b8301803591506001600160401b03821115614c7257600080fd5b602001915036819003821315613d9f57600080fd5b6000823560de198336030181126147a757600080fd5b6000823560fe198336030181126147a757600080fd5b60405161012081016001600160401b0381118282101715614cd657614cd6614eb5565b60405290565b60405160e081016001600160401b0381118282101715614cd657614cd6614eb5565b604051601f8201601f191681016001600160401b0381118282101715614d2657614d26614eb5565b604052919050565b60006001600160401b03821115614d4757614d47614eb5565b5060051b60200190565b6000808335601e19843603018112614d6857600080fd5b83016020810192503590506001600160401b03811115614d8757600080fd5b803603831315613d9f57600080fd5b600061ffff808316818516808303821115614db357614db3614e73565b01949350505050565b60008219821115614dcf57614dcf614e73565b500190565b600082614df157634e487b7160e01b600052601260045260246000fd5b500490565b6000816000190483118215151615614e1057614e10614e73565b500290565b600082821015614e2757614e27614e73565b500390565b60005b83811015614e47578181015183820152602001614e2f565b83811115611cb65750506000910152565b6000600019821415614e6c57614e6c614e73565b5060010190565b634e487b7160e01b600052601160045260246000fd5b634e487b7160e01b600052602160045260246000fd5b634e487b7160e01b600052603260045260246000fd5b634e487b7160e01b600052604160045260246000fd5b6001600160a01b0381168114612f5657600080fdfe72656c617943616c6c2072656c6179526571756573742e72656c6179446174612e72656c6179576f726b657272656c617943616c6c2072656c6179526571756573742e726571756573742e76616c6964556e74696c54696d65616464726573732066726f6d2c6164647265737320746f2c75696e743235362076616c75652c75696e74323536206761732c75696e74323536206e6f6e63652c627974657320646174612c75696e743235362076616c6964556e74696c54696d6572656c617943616c6c2072656c6179526571756573742e726571756573742e6e6f6e636572656c617943616c6c2072656c6179526571756573742e726571756573742e746f72656c617943616c6c2072656c6179526571756573742e726571756573742e67617372656c617943616c6c2072656c6179526571756573742e72656c6179446174612e7472616e73616374696f6e43616c6c646174614761735573656472656c617943616c6c2072656c6179526571756573742e72656c6179446174612e6d617846656550657247617372656c617943616c6c2072656c6179526571756573742e72656c6179446174612e636c69656e74496472656c617943616c6c2072656c6179526571756573742e72656c6179446174612e6d61785072696f7269747946656550657247617372656c617943616c6c2072656c6179526571756573742e726571756573742e76616c7565332e302e302d626574612e332b6f70656e67736e2e6172626875622e6972656c617968756272656c617943616c6c2072656c6179526571756573742e72656c6179446174612e7061796d61737465724461746152656c6179446174612875696e74323536206d61784665655065724761732c75696e74323536206d61785072696f726974794665655065724761732c75696e74323536207472616e73616374696f6e43616c6c64617461476173557365642c616464726573732072656c6179576f726b65722c61646472657373207061796d61737465722c6164647265737320666f727761726465722c6279746573207061796d6173746572446174612c75696e7432353620636c69656e7449642972656c617943616c6c2072656c6179526571756573742e726571756573742e6461746172656c617943616c6c2072656c6179526571756573742e72656c6179446174612e666f7277617264657272656c617943616c6c2072656c6179526571756573742e72656c6179446174612e7061796d617374657272656c617943616c6c2072656c6179526571756573742e726571756573742e66726f6da2646970667358221220d90e9f7e0601b2285119a29274c239b38263ebd8f707911409e80a7ae8250dcd64736f6c63430008070033",
    "immutableReferences": {
        "1227": [
            {
                "length": 32,
                "start": 1605
            },
            {
                "length": 32,
                "start": 2056
            },
            {
                "length": 32,
                "start": 2596
            },
            {
                "length": 32,
                "start": 10366
            },
            {
                "length": 32,
                "start": 10777
            },
            {
                "length": 32,
                "start": 11649
            },
            {
                "length": 32,
                "start": 11900
            }
        ],
        "1229": [
            {
                "length": 32,
                "start": 1083
            },
            {
                "length": 32,
                "start": 11427
            }
        ],
        "1231": [
            {
                "length": 32,
                "start": 1904
            },
            {
                "length": 32,
                "start": 4518
            }
        ],
        "1233": [
            {
                "length": 32,
                "start": 769
            },
            {
                "length": 32,
                "start": 2354
            }
        ],
        "1352": [
            {
                "length": 32,
                "start": 1530
            }
        ],
        "4376": [
            {
                "length": 32,
                "start": 1295
            },
            {
                "length": 32,
                "start": 2185
            }
        ],
        "4378": [
            {
                "length": 32,
                "start": 600
            }
        ]
    },
    "source": "pragma solidity ^0.8.0;\npragma abicoder v2;\n\n// SPDX-License-Identifier: GPL-3.0-only\n\nimport \"../RelayHub.sol\";\nimport \"./ArbSys.sol\";\n\n/**\n * @title The RelayHub Implementation for Arbitrum\n * @notice This contract implements the `IRelayHub` interface for the Arbitrum-compatible Rollups.\n *\n * @notice This implementation relies on the `ArbSys` built-ins that do not exist outside of Arbitrum.\n */\ncontract ArbRelayHub is RelayHub {\n\n    /// @inheritdoc IRelayHub\n    function versionHub() override public pure returns (string memory){\n        return \"3.0.0-beta.3+opengsn.arbhub.irelayhub\";\n    }\n\n    ArbSys public immutable arbsys;\n    uint256 internal immutable arbCreationBlock;\n\n    /// @notice we accept the `ArbSys` address in the constructor to allow mocking it in tests.\n    constructor(\n        ArbSys _arbsys,\n        IStakeManager _stakeManager,\n        address _penalizer,\n        address _batchGateway,\n        address _relayRegistrar,\n        RelayHubConfig memory _config\n    ) RelayHub(_stakeManager, _penalizer, _batchGateway, _relayRegistrar, _config){\n        arbsys = _arbsys;\n        arbCreationBlock = _arbsys.arbBlockNumber();\n    }\n\n    /// @inheritdoc IRelayHub\n    /// @notice Uses `ArbSys` L2 block number specific to the Arbitrum Rollup.\n    function getCreationBlock() external override virtual view returns (uint256){\n        return arbCreationBlock;\n    }\n\n    /// @return The block number in which the contract has been deployed.\n    /// @notice Uses original L1 block number.\n    function getL1CreationBlock() external view returns (uint256){\n        return creationBlock;\n    }\n\n    /// @notice Includes the 'storage gas' specific to the Arbitrum Rollup.\n    /// @inheritdoc IRelayHub\n    function aggregateGasleft() public override virtual view returns (uint256){\n        return arbsys.getStorageGasAvailable() + gasleft();\n    }\n}",
    "sourcePath": "/Users/cameron/Rally/evm/gsn/packages/contracts/solpp/arbitrum/ArbRelayHub.sol",
    "compiler": {
        "name": "solc",
        "version": "0.8.7+commit.e28d00a7.Emscripten.clang"
    },
    "schemaVersion": "3.1.0",
    "updatedAt": "2023-06-08T13:50:08.465Z",
    "devdoc": {
        "kind": "dev",
        "methods": {
            "aggregateGasleft()": {
                "returns": {
                    "_0": "A total measurable amount of gas left to current execution. Same as 'gasleft()' for pure EVMs."
                }
            },
            "balanceOf(address)": {
                "returns": {
                    "_0": "An account's balance. It can be either a deposit of a `Paymaster`, or a revenue of a Relay Manager."
                }
            },
            "calculateCharge(uint256,(uint256,uint256,uint256,address,address,address,bytes,uint256))": {
                "params": {
                    "gasUsed": "An amount of gas used by the transaction.",
                    "relayData": "The details of a transaction signed by the sender."
                },
                "returns": {
                    "_0": "The calculated charge, in wei."
                }
            },
            "calculateDevCharge(uint256)": {
                "params": {
                    "charge": "The amount of Ether in wei the Paymaster will be charged for this transaction."
                },
                "returns": {
                    "_0": "The calculated devFee, in wei."
                }
            },
            "deprecateHub(uint256)": {
                "params": {
                    "_deprecationTime": "The timestamp in seconds after which the `RelayHub` stops serving transactions."
                }
            },
            "getBatchGateway()": {
                "returns": {
                    "_0": "The `BatchGateway` address for this `RelayHub`."
                }
            },
            "getConfiguration()": {
                "returns": {
                    "_0": "The configuration of the `RelayHub`."
                }
            },
            "getCreationBlock()": {
                "returns": {
                    "_0": "The block number in which the contract has been deployed."
                }
            },
            "getDeprecationTime()": {
                "returns": {
                    "_0": "The timestamp from which the hub no longer allows relaying calls."
                }
            },
            "getL1CreationBlock()": {
                "returns": {
                    "_0": "The block number in which the contract has been deployed."
                }
            },
            "getMinimumStakePerToken(address)": {
                "params": {
                    "token": "An address of an ERC-20 compatible tokens."
                },
                "returns": {
                    "_0": "The minimum amount of a given `token` that needs to be staked so that the Relay Manager is considered to be 'staked' by this `RelayHub`. Zero value means this token is not allowed for staking."
                }
            },
            "getPenalizer()": {
                "returns": {
                    "_0": "The `Penalizer` address for this `RelayHub`."
                }
            },
            "getRelayRegistrar()": {
                "returns": {
                    "_0": "The `RelayRegistrar` address for this `RelayHub`."
                }
            },
            "getStakeManager()": {
                "returns": {
                    "_0": "The `StakeManager` address for this `RelayHub`."
                }
            },
            "getWorkerCount(address)": {
                "params": {
                    "manager": "An address of the Relay Manager."
                },
                "returns": {
                    "_0": "The count of Relay Workers associated with this Relay Manager."
                }
            },
            "getWorkerManager(address)": {
                "params": {
                    "worker": "An address of the Relay Worker."
                },
                "returns": {
                    "_0": "The address of its Relay Manager."
                }
            },
            "isDeprecated()": {
                "returns": {
                    "_0": "`true` if the `RelayHub` is deprecated, `false` it it is not deprecated and can serve transactions."
                }
            },
            "owner()": {
                "details": "Returns the address of the current owner."
            },
            "penalize(address,address)": {
                "params": {
                    "beneficiary": "The address that called the `Penalizer` and will receive a reward for it.",
                    "relayWorker": "The address of the Relay Worker that committed a penalizable offense."
                }
            },
            "relayCall(string,uint256,((address,address,uint256,uint256,uint256,bytes,uint256),(uint256,uint256,uint256,address,address,address,bytes,uint256)),bytes,bytes)": {
                "params": {
                    "approvalData": "The dapp-specific data forwarded to the `Paymaster`'s `preRelayedCall` method. This value is **not** verified by the `RelayHub` in any way. As an example, it can be used to pass some kind of a third-party signature to the `Paymaster` for verification. Emits a `TransactionRelayed` event regardless of whether the transaction succeeded or failed.",
                    "domainSeparatorName": "The name of the Domain Separator used to verify the EIP-712 signature",
                    "maxAcceptanceBudget": "The maximum valid value for `paymaster.getGasLimits().acceptanceBudget` to return.",
                    "relayRequest": "All details of the requested relayed call.",
                    "signature": "The client's EIP-712 signature over the `relayRequest` struct."
                }
            },
            "renounceOwnership()": {
                "details": "Leaves the contract without owner. It will not be possible to call `onlyOwner` functions anymore. Can only be called by the current owner. NOTE: Renouncing ownership will leave the contract without an owner, thereby removing any functionality that is only available to the owner."
            },
            "setConfiguration((uint256,uint256,uint256,uint256,uint256,address,uint8,uint80,uint16))": {
                "params": {
                    "_config": "The new configuration."
                }
            },
            "setMinimumStakes(address[],uint256[])": {
                "params": {
                    "minimumStake": "An array of minimal amounts necessary for a corresponding token, in wei.",
                    "token": "An array of addresses of ERC-20 compatible tokens."
                }
            },
            "supportsInterface(bytes4)": {
                "details": "Returns true if this contract implements the interface defined by `interfaceId`. See the corresponding https://eips.ethereum.org/EIPS/eip-165#how-interfaces-are-identified[EIP section] to learn more about how these ids are created. This function call must use less than 30 000 gas."
            },
            "transferOwnership(address)": {
                "details": "Transfers ownership of the contract to a new account (`newOwner`). Can only be called by the current owner."
            },
            "versionHub()": {
                "returns": {
                    "_0": "a SemVer-compliant version of the `RelayHub` contract."
                }
            }
        },
        "title": "The RelayHub Implementation for Arbitrum",
        "version": 1
    },
    "userdoc": {
        "events": {
            "AbandonedRelayManagerBalanceEscheated(address,uint256)": {
                "notice": "This event is emitted in case a `relayManager` has been deemed \"abandoned\" for being unresponsive for a prolonged period of time.This event means the entire balance of the relay has been transferred to the `devAddress`."
            },
            "Deposited(address,address,uint256)": {
                "notice": "Emitted when `depositFor` is called, including the amount and account that was funded."
            },
            "HubDeprecated(uint256)": {
                "notice": "This event is emitted in case this `RelayHub` is deprecated and will stop serving transactions soon."
            },
            "RelayHubConfigured((uint256,uint256,uint256,uint256,uint256,address,uint8,uint80,uint16))": {
                "notice": "Emitted when a configuration of the `RelayHub` is changed"
            },
            "RelayWorkersAdded(address,address[],uint256)": {
                "notice": "Emitted when relays are added by a relayManager"
            },
            "StakingTokenDataChanged(address,uint256)": {
                "notice": "Emitted for each token configured for staking in setMinimumStakes"
            },
            "TransactionRejectedByPaymaster(address,address,bytes32,address,address,address,bytes4,uint256,bytes)": {
                "notice": "Emitted when an attempt to relay a call fails and the `Paymaster` does not accept the transaction. The actual relayed call was not executed, and the recipient not charged."
            },
            "TransactionRelayed(address,address,bytes32,address,address,address,bytes4,uint8,uint256)": {
                "notice": "Emitted when a transaction is relayed. Note that the actual internal function call might be reverted. The reason for a revert will be indicated in the `status` field of a corresponding `RelayCallStatus` value.`charge` is the Ether value deducted from the `Paymaster` balance. The amount added to the `relayManager` balance will be lower if there is an activated `devFee` in the `config`."
            },
            "TransactionResult(uint8,bytes)": {
                "notice": "This event is emitted in case the internal function returns a value or reverts with a revert string."
            },
            "Withdrawn(address,address,uint256)": {
                "notice": "Emitted when an account withdraws funds from the `RelayHub`."
            }
        },
        "kind": "user",
        "methods": {
            "addRelayWorkers(address[])": {
                "notice": "Add new worker addresses controlled by the sender who must be a staked Relay Manager address. Emits a `RelayWorkersAdded` event. This function can be called multiple times, emitting new events."
            },
            "aggregateGasleft()": {
                "notice": "Includes the 'storage gas' specific to the Arbitrum Rollup."
            },
            "calculateCharge(uint256,(uint256,uint256,uint256,address,address,address,bytes,uint256))": {
                "notice": "The fee is expressed as a base fee in wei plus percentage of the actual charge. For example, a value '40' stands for a 40% fee, so the recipient will be charged for 1.4 times the spent amount."
            },
            "calculateDevCharge(uint256)": {
                "notice": "The fee is expressed as a  percentage of the actual charge. For example, a value '40' stands for a 40% fee, so the Relay Manager will only get 60% of the `charge`."
            },
            "constructor": {
                "notice": "we accept the `ArbSys` address in the constructor to allow mocking it in tests."
            },
            "depositFor(address)": {
                "notice": "Deposits ether for a `Paymaster`, so that it can and pay for relayed transactions. :warning: **Warning** :warning: Unused balance can only be withdrawn by the holder itself, by calling `withdraw`. Emits a `Deposited` event."
            },
            "deprecateHub(uint256)": {
                "notice": "Deprecate hub by reverting all incoming `relayCall()` calls starting from a given timestamp"
            },
            "escheatAbandonedRelayBalance(address)": {
                "notice": "@param relayManager"
            },
            "getCreationBlock()": {
                "notice": "Uses `ArbSys` L2 block number specific to the Arbitrum Rollup."
            },
            "getL1CreationBlock()": {
                "notice": "Uses original L1 block number."
            },
            "innerRelayCall(string,((address,address,uint256,uint256,uint256,bytes,uint256),(uint256,uint256,uint256,address,address,address,bytes,uint256)),bytes,bytes,(uint256,uint256,uint256,uint256),uint256,uint256)": {
                "notice": "This method can only by called by this `RelayHub`. It wraps the execution of the `RelayRequest` in a revertable frame context."
            },
            "isRelayEscheatable(address)": {
                "notice": "Uses `StakeManager` to check if the Relay Manager can be considered abandoned or not. Returns true if the stake's abandonment time is in the past including the escheatment delay, false otherwise."
            },
            "onRelayServerRegistered(address)": {
                "notice": "The `RelayRegistrar` callback to notify the `RelayHub` that this `relayManager` has updated registration."
            },
            "penalize(address,address)": {
                "notice": "In case the Relay Worker has been found to be in violation of some rules by the `Penalizer` contract, the `Penalizer` will call this method to execute a penalization. The `RelayHub` will look up the Relay Manager of the given Relay Worker and will forward the call to the `StakeManager` contract. The `RelayHub` does not perform the actual penalization either."
            },
            "relayCall(string,uint256,((address,address,uint256,uint256,uint256,bytes,uint256),(uint256,uint256,uint256,address,address,address,bytes,uint256)),bytes,bytes)": {
                "notice": "Relays a transaction. For this to succeed, multiple conditions must be met:  - `Paymaster`'s `preRelayCall` method must succeed and not revert.  - the `msg.sender` must be a registered Relay Worker that the user signed to use.  - the transaction's gas fees must be equal or larger than the ones that were signed by the sender.  - the transaction must have enough gas to run all internal transactions if they use all gas available to them.  - the `Paymaster` must have enough balance to pay the Relay Worker if all gas is spent.If all conditions are met, the call will be relayed and the `Paymaster` charged."
            },
            "setConfiguration((uint256,uint256,uint256,uint256,uint256,address,uint8,uint80,uint16))": {
                "notice": "Sets or changes the configuration of this `RelayHub`."
            },
            "setMinimumStakes(address[],uint256[])": {
                "notice": "Sets or changes the minimum amount of a given `token` that needs to be staked so that the Relay Manager is considered to be 'staked' by this `RelayHub`. Zero value means this token is not allowed for staking."
            },
            "verifyRelayManagerStaked(address)": {
                "notice": "Uses `StakeManager` to decide if the Relay Manager can be considered staked or not. Returns if the stake's token, amount and delay satisfy all requirements, reverts otherwise."
            },
            "withdraw(address,uint256)": {
                "notice": "Withdraws from an account's balance, sending it back to the caller. Relay Managers call this to retrieve their revenue, and `Paymasters` can also use it to reduce their funding. Emits a `Withdrawn` event."
            },
            "withdrawMultiple(address[],uint256[])": {
                "notice": "Withdraws from an account's balance, sending funds to multiple provided addresses. Relay Managers call this to retrieve their revenue, and `Paymasters` can also use it to reduce their funding. Emits a `Withdrawn` event for each destination."
            }
        },
        "notice": "This contract implements the `IRelayHub` interface for the Arbitrum-compatible Rollups.This implementation relies on the `ArbSys` built-ins that do not exist outside of Arbitrum.",
        "version": 1
    }
}