{
    "contractName": "GsnEip712Library",
    "abi": [
        {
            "inputs": [],
            "name": "EIP712DOMAIN_TYPEHASH",
            "outputs": [
                {
                    "internalType": "bytes32",
                    "name": "",
                    "type": "bytes32"
                }
            ],
            "stateMutability": "view",
            "type": "function"
        },
        {
            "inputs": [],
            "name": "GENERIC_PARAMS",
            "outputs": [
                {
                    "internalType": "string",
                    "name": "",
                    "type": "string"
                }
            ],
            "stateMutability": "view",
            "type": "function"
        },
        {
            "inputs": [],
            "name": "RELAYDATA_TYPE",
            "outputs": [
                {
                    "internalType": "bytes",
                    "name": "",
                    "type": "bytes"
                }
            ],
            "stateMutability": "view",
            "type": "function"
        },
        {
            "inputs": [],
            "name": "RELAYDATA_TYPEHASH",
            "outputs": [
                {
                    "internalType": "bytes32",
                    "name": "",
                    "type": "bytes32"
                }
            ],
            "stateMutability": "view",
            "type": "function"
        },
        {
            "inputs": [],
            "name": "RELAY_REQUEST_NAME",
            "outputs": [
                {
                    "internalType": "string",
                    "name": "",
                    "type": "string"
                }
            ],
            "stateMutability": "view",
            "type": "function"
        },
        {
            "inputs": [],
            "name": "RELAY_REQUEST_SUFFIX",
            "outputs": [
                {
                    "internalType": "string",
                    "name": "",
                    "type": "string"
                }
            ],
            "stateMutability": "view",
            "type": "function"
        },
        {
            "inputs": [],
            "name": "RELAY_REQUEST_TYPE",
            "outputs": [
                {
                    "internalType": "bytes",
                    "name": "",
                    "type": "bytes"
                }
            ],
            "stateMutability": "view",
            "type": "function"
        },
        {
            "inputs": [],
            "name": "RELAY_REQUEST_TYPEHASH",
            "outputs": [
                {
                    "internalType": "bytes32",
                    "name": "",
                    "type": "bytes32"
                }
            ],
            "stateMutability": "view",
            "type": "function"
        }
    ],
    "bytecode": "0x61055c61003a600b82828239805160001a60731461002d57634e487b7160e01b600052600060045260246000fd5b30600052607381538281f3fe73000000000000000000000000000000000000000030146080604052600436106100925760003560e01c8063abf0d3f411610065578063abf0d3f4146100f0578063c46cf83f14610106578063c49f91d31461010e578063cc0c62b21461013557600080fd5b8063066a310c146100975780636225e61b146100b5578063931cd38f146100bd578063987673f7146100c5575b600080fd5b61009f61013d565b6040516100ac91906103bf565b60405180910390f35b61009f610159565b61009f6101f1565b61009f6040518060400160405280600c81526020016b14995b185e54995c5d595cdd60a21b81525081565b6100f861021a565b6040519081526020016100ac565b61009f6102b9565b6100f87f8b73c3c69bb8fe3d512ecc4cf759cc79239f7b179b0ffacaa9a75d522b39400f81565b6100f86102d5565b6040518060a001604052806061815260200161040a6061913981565b6040518060400160405280600c81526020016b14995b185e54995c5d595cdd60a21b8152506040518060a001604052806061815260200161040a606191396040518060e0016040528060bc815260200161046b60bc91396040516020016101c09190610383565b60408051601f19818403018152908290526101df939291602001610324565b60405160208183030381529060405281565b6040518060e0016040528060bc815260200161046b60bc91396040516020016101df9190610383565b6040518060400160405280600c81526020016b14995b185e54995c5d595cdd60a21b8152506040518060a001604052806061815260200161040a606191396040518060e0016040528060bc815260200161046b60bc91396040516020016102819190610383565b60408051601f19818403018152908290526102a0939291602001610324565b6040516020818303038152906040528051906020012081565b6040518060e0016040528060bc815260200161046b60bc913981565b6040518060e0016040528060bc815260200161046b60bc91398051906020012081565b600081518084526103108160208601602086016103d9565b601f01601f19169290920160200192915050565b600084516103368184602089016103d9565b600560fb1b90830190815284516103548160018401602089016103d9565b600b60fa1b6001929091019182015283516103768160028401602088016103d9565b0160020195945050505050565b7352656c6179446174612072656c6179446174612960601b8152600082516103b28160148501602087016103d9565b9190910160140192915050565b6020815260006103d260208301846102f8565b9392505050565b60005b838110156103f45781810151838201526020016103dc565b83811115610403576000848401525b5050505056fe616464726573732066726f6d2c6164647265737320746f2c75696e743235362076616c75652c75696e74323536206761732c75696e74323536206e6f6e63652c627974657320646174612c75696e743235362076616c6964556e74696c54696d6552656c6179446174612875696e74323536206d61784665655065724761732c75696e74323536206d61785072696f726974794665655065724761732c75696e74323536207472616e73616374696f6e43616c6c64617461476173557365642c616464726573732072656c6179576f726b65722c61646472657373207061796d61737465722c6164647265737320666f727761726465722c6279746573207061796d6173746572446174612c75696e7432353620636c69656e74496429a26469706673582212203cb6d2b9e98a1aa23f03f1dae6e9ea942aebf18f0a5d6829ad1cd32cf4d3079964736f6c63430008070033",
    "immutableReferences": {},
    "source": "pragma solidity ^0.8.0;\npragma abicoder v2;\n\n// SPDX-License-Identifier: GPL-3.0-only\n\nimport \"../utils/GsnTypes.sol\";\nimport \"../interfaces/IERC2771Recipient.sol\";\nimport \"../forwarder/IForwarder.sol\";\n\nimport \"./GsnUtils.sol\";\n\n/**\n * @title The ERC-712 Library for GSN\n * @notice Bridge Library to convert a GSN RelayRequest into a valid `ForwardRequest` for a `Forwarder`.\n */\nlibrary GsnEip712Library {\n    // maximum length of return value/revert reason for 'execute' method. Will truncate result if exceeded.\n    uint256 private constant MAX_RETURN_SIZE = 1024;\n\n    //copied from Forwarder (can't reference string constants even from another library)\n    string public constant GENERIC_PARAMS = \"address from,address to,uint256 value,uint256 gas,uint256 nonce,bytes data,uint256 validUntilTime\";\n\n    bytes public constant RELAYDATA_TYPE = \"RelayData(uint256 maxFeePerGas,uint256 maxPriorityFeePerGas,uint256 transactionCalldataGasUsed,address relayWorker,address paymaster,address forwarder,bytes paymasterData,uint256 clientId)\";\n\n    string public constant RELAY_REQUEST_NAME = \"RelayRequest\";\n    string public constant RELAY_REQUEST_SUFFIX = string(abi.encodePacked(\"RelayData relayData)\", RELAYDATA_TYPE));\n\n    bytes public constant RELAY_REQUEST_TYPE = abi.encodePacked(\n        RELAY_REQUEST_NAME,\"(\",GENERIC_PARAMS,\",\", RELAY_REQUEST_SUFFIX);\n\n    bytes32 public constant RELAYDATA_TYPEHASH = keccak256(RELAYDATA_TYPE);\n    bytes32 public constant RELAY_REQUEST_TYPEHASH = keccak256(RELAY_REQUEST_TYPE);\n\n    struct EIP712Domain {\n        string name;\n        string version;\n        uint256 chainId;\n        address verifyingContract;\n    }\n\n    bytes32 public constant EIP712DOMAIN_TYPEHASH = keccak256(\n        \"EIP712Domain(string name,string version,uint256 chainId,address verifyingContract)\"\n    );\n\n    function splitRequest(\n        GsnTypes.RelayRequest calldata req\n    )\n    internal\n    pure\n    returns (\n        bytes memory suffixData\n    ) {\n        suffixData = abi.encode(\n            hashRelayData(req.relayData));\n    }\n\n    //verify that the recipient trusts the given forwarder\n    // MUST be called by paymaster\n    function verifyForwarderTrusted(GsnTypes.RelayRequest calldata relayRequest) internal view {\n        (bool success, bytes memory ret) = relayRequest.request.to.staticcall(\n            abi.encodeWithSelector(\n                IERC2771Recipient.isTrustedForwarder.selector, relayRequest.relayData.forwarder\n            )\n        );\n        require(success, \"isTrustedForwarder: reverted\");\n        require(ret.length == 32, \"isTrustedForwarder: bad response\");\n        require(abi.decode(ret, (bool)), \"invalid forwarder for recipient\");\n    }\n\n    function verifySignature(\n        string memory domainSeparatorName,\n        GsnTypes.RelayRequest calldata relayRequest,\n        bytes calldata signature\n    ) internal view {\n        (bytes memory suffixData) = splitRequest(relayRequest);\n        bytes32 _domainSeparator = domainSeparator(domainSeparatorName, relayRequest.relayData.forwarder);\n        IForwarder forwarder = IForwarder(payable(relayRequest.relayData.forwarder));\n        forwarder.verify(relayRequest.request, _domainSeparator, RELAY_REQUEST_TYPEHASH, suffixData, signature);\n    }\n\n    function verify(\n        string memory domainSeparatorName,\n        GsnTypes.RelayRequest calldata relayRequest,\n        bytes calldata signature\n    ) internal view {\n        verifyForwarderTrusted(relayRequest);\n        verifySignature(domainSeparatorName, relayRequest, signature);\n    }\n\n    function execute(\n        string memory domainSeparatorName,\n        GsnTypes.RelayRequest calldata relayRequest,\n        bytes calldata signature\n    ) internal returns (\n        bool forwarderSuccess,\n        bool callSuccess,\n        bytes memory ret\n    ) {\n        (bytes memory suffixData) = splitRequest(relayRequest);\n        bytes32 _domainSeparator = domainSeparator(domainSeparatorName, relayRequest.relayData.forwarder);\n        /* solhint-disable-next-line avoid-low-level-calls */\n        (forwarderSuccess, ret) = relayRequest.relayData.forwarder.call(\n            abi.encodeWithSelector(IForwarder.execute.selector,\n            relayRequest.request, _domainSeparator, RELAY_REQUEST_TYPEHASH, suffixData, signature\n        ));\n        if ( forwarderSuccess ) {\n\n          //decode return value of execute:\n          (callSuccess, ret) = abi.decode(ret, (bool, bytes));\n        }\n        truncateInPlace(ret);\n    }\n\n    //truncate the given parameter (in-place) if its length is above the given maximum length\n    // do nothing otherwise.\n    //NOTE: solidity warns unless the method is marked \"pure\", but it DOES modify its parameter.\n    function truncateInPlace(bytes memory data) internal pure {\n        MinLibBytes.truncateInPlace(data, MAX_RETURN_SIZE);\n    }\n\n    function domainSeparator(string memory name, address forwarder) internal view returns (bytes32) {\n        return hashDomain(EIP712Domain({\n            name : name,\n            version : \"3\",\n            chainId : getChainID(),\n            verifyingContract : forwarder\n            }));\n    }\n\n    function getChainID() internal view returns (uint256 id) {\n        /* solhint-disable no-inline-assembly */\n        assembly {\n            id := chainid()\n        }\n    }\n\n    function hashDomain(EIP712Domain memory req) internal pure returns (bytes32) {\n        return keccak256(abi.encode(\n                EIP712DOMAIN_TYPEHASH,\n                keccak256(bytes(req.name)),\n                keccak256(bytes(req.version)),\n                req.chainId,\n                req.verifyingContract));\n    }\n\n    function hashRelayData(GsnTypes.RelayData calldata req) internal pure returns (bytes32) {\n        return keccak256(abi.encode(\n                RELAYDATA_TYPEHASH,\n                req.maxFeePerGas,\n                req.maxPriorityFeePerGas,\n                req.transactionCalldataGasUsed,\n                req.relayWorker,\n                req.paymaster,\n                req.forwarder,\n                keccak256(req.paymasterData),\n                req.clientId\n            ));\n    }\n}",
    "sourcePath": "/Users/cameron/Rally/evm/gsn/packages/contracts/solpp/utils/GsnEip712Library.sol",
    "compiler": {
        "name": "solc",
        "version": "0.8.7+commit.e28d00a7.Emscripten.clang"
    },
    "schemaVersion": "3.1.0",
    "updatedAt": "2023-06-08T13:50:08.517Z",
    "devdoc": {
        "kind": "dev",
        "methods": {},
        "title": "The ERC-712 Library for GSN",
        "version": 1
    },
    "userdoc": {
        "kind": "user",
        "methods": {},
        "notice": "Bridge Library to convert a GSN RelayRequest into a valid `ForwardRequest` for a `Forwarder`.",
        "version": 1
    }
}