{
    "contractName": "RelayHub",
    "abi": [
        {
            "inputs": [
                {
                    "internalType": "contract IStakeManager",
                    "name": "_stakeManager",
                    "type": "address"
                },
                {
                    "internalType": "address",
                    "name": "_penalizer",
                    "type": "address"
                },
                {
                    "internalType": "address",
                    "name": "_batchGateway",
                    "type": "address"
                },
                {
                    "internalType": "address",
                    "name": "_relayRegistrar",
                    "type": "address"
                },
                {
                    "components": [
                        {
                            "internalType": "uint256",
                            "name": "maxWorkerCount",
                            "type": "uint256"
                        },
                        {
                            "internalType": "uint256",
                            "name": "gasReserve",
                            "type": "uint256"
                        },
                        {
                            "internalType": "uint256",
                            "name": "postOverhead",
                            "type": "uint256"
                        },
                        {
                            "internalType": "uint256",
                            "name": "gasOverhead",
                            "type": "uint256"
                        },
                        {
                            "internalType": "uint256",
                            "name": "minimumUnstakeDelay",
                            "type": "uint256"
                        },
                        {
                            "internalType": "address",
                            "name": "devAddress",
                            "type": "address"
                        },
                        {
                            "internalType": "uint8",
                            "name": "devFee",
                            "type": "uint8"
                        },
                        {
                            "internalType": "uint80",
                            "name": "baseRelayFee",
                            "type": "uint80"
                        },
                        {
                            "internalType": "uint16",
                            "name": "pctRelayFee",
                            "type": "uint16"
                        }
                    ],
                    "internalType": "struct IRelayHub.RelayHubConfig",
                    "name": "_config",
                    "type": "tuple"
                }
            ],
            "stateMutability": "nonpayable",
            "type": "constructor"
        },
        {
            "anonymous": false,
            "inputs": [
                {
                    "indexed": true,
                    "internalType": "address",
                    "name": "relayManager",
                    "type": "address"
                },
                {
                    "indexed": false,
                    "internalType": "uint256",
                    "name": "balance",
                    "type": "uint256"
                }
            ],
            "name": "AbandonedRelayManagerBalanceEscheated",
            "type": "event"
        },
        {
            "anonymous": false,
            "inputs": [
                {
                    "indexed": true,
                    "internalType": "address",
                    "name": "paymaster",
                    "type": "address"
                },
                {
                    "indexed": true,
                    "internalType": "address",
                    "name": "from",
                    "type": "address"
                },
                {
                    "indexed": false,
                    "internalType": "uint256",
                    "name": "amount",
                    "type": "uint256"
                }
            ],
            "name": "Deposited",
            "type": "event"
        },
        {
            "anonymous": false,
            "inputs": [
                {
                    "indexed": false,
                    "internalType": "uint256",
                    "name": "deprecationTime",
                    "type": "uint256"
                }
            ],
            "name": "HubDeprecated",
            "type": "event"
        },
        {
            "anonymous": false,
            "inputs": [
                {
                    "indexed": true,
                    "internalType": "address",
                    "name": "previousOwner",
                    "type": "address"
                },
                {
                    "indexed": true,
                    "internalType": "address",
                    "name": "newOwner",
                    "type": "address"
                }
            ],
            "name": "OwnershipTransferred",
            "type": "event"
        },
        {
            "anonymous": false,
            "inputs": [
                {
                    "components": [
                        {
                            "internalType": "uint256",
                            "name": "maxWorkerCount",
                            "type": "uint256"
                        },
                        {
                            "internalType": "uint256",
                            "name": "gasReserve",
                            "type": "uint256"
                        },
                        {
                            "internalType": "uint256",
                            "name": "postOverhead",
                            "type": "uint256"
                        },
                        {
                            "internalType": "uint256",
                            "name": "gasOverhead",
                            "type": "uint256"
                        },
                        {
                            "internalType": "uint256",
                            "name": "minimumUnstakeDelay",
                            "type": "uint256"
                        },
                        {
                            "internalType": "address",
                            "name": "devAddress",
                            "type": "address"
                        },
                        {
                            "internalType": "uint8",
                            "name": "devFee",
                            "type": "uint8"
                        },
                        {
                            "internalType": "uint80",
                            "name": "baseRelayFee",
                            "type": "uint80"
                        },
                        {
                            "internalType": "uint16",
                            "name": "pctRelayFee",
                            "type": "uint16"
                        }
                    ],
                    "indexed": false,
                    "internalType": "struct IRelayHub.RelayHubConfig",
                    "name": "config",
                    "type": "tuple"
                }
            ],
            "name": "RelayHubConfigured",
            "type": "event"
        },
        {
            "anonymous": false,
            "inputs": [
                {
                    "indexed": true,
                    "internalType": "address",
                    "name": "relayManager",
                    "type": "address"
                },
                {
                    "indexed": false,
                    "internalType": "address[]",
                    "name": "newRelayWorkers",
                    "type": "address[]"
                },
                {
                    "indexed": false,
                    "internalType": "uint256",
                    "name": "workersCount",
                    "type": "uint256"
                }
            ],
            "name": "RelayWorkersAdded",
            "type": "event"
        },
        {
            "anonymous": false,
            "inputs": [
                {
                    "indexed": false,
                    "internalType": "address",
                    "name": "token",
                    "type": "address"
                },
                {
                    "indexed": false,
                    "internalType": "uint256",
                    "name": "minimumStake",
                    "type": "uint256"
                }
            ],
            "name": "StakingTokenDataChanged",
            "type": "event"
        },
        {
            "anonymous": false,
            "inputs": [
                {
                    "indexed": true,
                    "internalType": "address",
                    "name": "relayManager",
                    "type": "address"
                },
                {
                    "indexed": true,
                    "internalType": "address",
                    "name": "paymaster",
                    "type": "address"
                },
                {
                    "indexed": true,
                    "internalType": "bytes32",
                    "name": "relayRequestID",
                    "type": "bytes32"
                },
                {
                    "indexed": false,
                    "internalType": "address",
                    "name": "from",
                    "type": "address"
                },
                {
                    "indexed": false,
                    "internalType": "address",
                    "name": "to",
                    "type": "address"
                },
                {
                    "indexed": false,
                    "internalType": "address",
                    "name": "relayWorker",
                    "type": "address"
                },
                {
                    "indexed": false,
                    "internalType": "bytes4",
                    "name": "selector",
                    "type": "bytes4"
                },
                {
                    "indexed": false,
                    "internalType": "uint256",
                    "name": "innerGasUsed",
                    "type": "uint256"
                },
                {
                    "indexed": false,
                    "internalType": "bytes",
                    "name": "reason",
                    "type": "bytes"
                }
            ],
            "name": "TransactionRejectedByPaymaster",
            "type": "event"
        },
        {
            "anonymous": false,
            "inputs": [
                {
                    "indexed": true,
                    "internalType": "address",
                    "name": "relayManager",
                    "type": "address"
                },
                {
                    "indexed": true,
                    "internalType": "address",
                    "name": "relayWorker",
                    "type": "address"
                },
                {
                    "indexed": true,
                    "internalType": "bytes32",
                    "name": "relayRequestID",
                    "type": "bytes32"
                },
                {
                    "indexed": false,
                    "internalType": "address",
                    "name": "from",
                    "type": "address"
                },
                {
                    "indexed": false,
                    "internalType": "address",
                    "name": "to",
                    "type": "address"
                },
                {
                    "indexed": false,
                    "internalType": "address",
                    "name": "paymaster",
                    "type": "address"
                },
                {
                    "indexed": false,
                    "internalType": "bytes4",
                    "name": "selector",
                    "type": "bytes4"
                },
                {
                    "indexed": false,
                    "internalType": "enum IRelayHub.RelayCallStatus",
                    "name": "status",
                    "type": "uint8"
                },
                {
                    "indexed": false,
                    "internalType": "uint256",
                    "name": "charge",
                    "type": "uint256"
                }
            ],
            "name": "TransactionRelayed",
            "type": "event"
        },
        {
            "anonymous": false,
            "inputs": [
                {
                    "indexed": false,
                    "internalType": "enum IRelayHub.RelayCallStatus",
                    "name": "status",
                    "type": "uint8"
                },
                {
                    "indexed": false,
                    "internalType": "bytes",
                    "name": "returnValue",
                    "type": "bytes"
                }
            ],
            "name": "TransactionResult",
            "type": "event"
        },
        {
            "anonymous": false,
            "inputs": [
                {
                    "indexed": true,
                    "internalType": "address",
                    "name": "account",
                    "type": "address"
                },
                {
                    "indexed": true,
                    "internalType": "address",
                    "name": "dest",
                    "type": "address"
                },
                {
                    "indexed": false,
                    "internalType": "uint256",
                    "name": "amount",
                    "type": "uint256"
                }
            ],
            "name": "Withdrawn",
            "type": "event"
        },
        {
            "inputs": [],
            "name": "owner",
            "outputs": [
                {
                    "internalType": "address",
                    "name": "",
                    "type": "address"
                }
            ],
            "stateMutability": "view",
            "type": "function"
        },
        {
            "inputs": [],
            "name": "renounceOwnership",
            "outputs": [],
            "stateMutability": "nonpayable",
            "type": "function"
        },
        {
            "inputs": [
                {
                    "internalType": "address",
                    "name": "newOwner",
                    "type": "address"
                }
            ],
            "name": "transferOwnership",
            "outputs": [],
            "stateMutability": "nonpayable",
            "type": "function"
        },
        {
            "inputs": [],
            "name": "versionHub",
            "outputs": [
                {
                    "internalType": "string",
                    "name": "",
                    "type": "string"
                }
            ],
            "stateMutability": "pure",
            "type": "function"
        },
        {
            "inputs": [],
            "name": "getConfiguration",
            "outputs": [
                {
                    "components": [
                        {
                            "internalType": "uint256",
                            "name": "maxWorkerCount",
                            "type": "uint256"
                        },
                        {
                            "internalType": "uint256",
                            "name": "gasReserve",
                            "type": "uint256"
                        },
                        {
                            "internalType": "uint256",
                            "name": "postOverhead",
                            "type": "uint256"
                        },
                        {
                            "internalType": "uint256",
                            "name": "gasOverhead",
                            "type": "uint256"
                        },
                        {
                            "internalType": "uint256",
                            "name": "minimumUnstakeDelay",
                            "type": "uint256"
                        },
                        {
                            "internalType": "address",
                            "name": "devAddress",
                            "type": "address"
                        },
                        {
                            "internalType": "uint8",
                            "name": "devFee",
                            "type": "uint8"
                        },
                        {
                            "internalType": "uint80",
                            "name": "baseRelayFee",
                            "type": "uint80"
                        },
                        {
                            "internalType": "uint16",
                            "name": "pctRelayFee",
                            "type": "uint16"
                        }
                    ],
                    "internalType": "struct IRelayHub.RelayHubConfig",
                    "name": "",
                    "type": "tuple"
                }
            ],
            "stateMutability": "view",
            "type": "function"
        },
        {
            "inputs": [
                {
                    "components": [
                        {
                            "internalType": "uint256",
                            "name": "maxWorkerCount",
                            "type": "uint256"
                        },
                        {
                            "internalType": "uint256",
                            "name": "gasReserve",
                            "type": "uint256"
                        },
                        {
                            "internalType": "uint256",
                            "name": "postOverhead",
                            "type": "uint256"
                        },
                        {
                            "internalType": "uint256",
                            "name": "gasOverhead",
                            "type": "uint256"
                        },
                        {
                            "internalType": "uint256",
                            "name": "minimumUnstakeDelay",
                            "type": "uint256"
                        },
                        {
                            "internalType": "address",
                            "name": "devAddress",
                            "type": "address"
                        },
                        {
                            "internalType": "uint8",
                            "name": "devFee",
                            "type": "uint8"
                        },
                        {
                            "internalType": "uint80",
                            "name": "baseRelayFee",
                            "type": "uint80"
                        },
                        {
                            "internalType": "uint16",
                            "name": "pctRelayFee",
                            "type": "uint16"
                        }
                    ],
                    "internalType": "struct IRelayHub.RelayHubConfig",
                    "name": "_config",
                    "type": "tuple"
                }
            ],
            "name": "setConfiguration",
            "outputs": [],
            "stateMutability": "nonpayable",
            "type": "function"
        },
        {
            "inputs": [
                {
                    "internalType": "contract IERC20[]",
                    "name": "token",
                    "type": "address[]"
                },
                {
                    "internalType": "uint256[]",
                    "name": "minimumStake",
                    "type": "uint256[]"
                }
            ],
            "name": "setMinimumStakes",
            "outputs": [],
            "stateMutability": "nonpayable",
            "type": "function"
        },
        {
            "inputs": [],
            "name": "getCreationBlock",
            "outputs": [
                {
                    "internalType": "uint256",
                    "name": "",
                    "type": "uint256"
                }
            ],
            "stateMutability": "view",
            "type": "function"
        },
        {
            "inputs": [],
            "name": "getDeprecationTime",
            "outputs": [
                {
                    "internalType": "uint256",
                    "name": "",
                    "type": "uint256"
                }
            ],
            "stateMutability": "view",
            "type": "function"
        },
        {
            "inputs": [],
            "name": "getStakeManager",
            "outputs": [
                {
                    "internalType": "contract IStakeManager",
                    "name": "",
                    "type": "address"
                }
            ],
            "stateMutability": "view",
            "type": "function"
        },
        {
            "inputs": [],
            "name": "getPenalizer",
            "outputs": [
                {
                    "internalType": "address",
                    "name": "",
                    "type": "address"
                }
            ],
            "stateMutability": "view",
            "type": "function"
        },
        {
            "inputs": [],
            "name": "getBatchGateway",
            "outputs": [
                {
                    "internalType": "address",
                    "name": "",
                    "type": "address"
                }
            ],
            "stateMutability": "view",
            "type": "function"
        },
        {
            "inputs": [],
            "name": "getRelayRegistrar",
            "outputs": [
                {
                    "internalType": "address",
                    "name": "",
                    "type": "address"
                }
            ],
            "stateMutability": "view",
            "type": "function"
        },
        {
            "inputs": [
                {
                    "internalType": "contract IERC20",
                    "name": "token",
                    "type": "address"
                }
            ],
            "name": "getMinimumStakePerToken",
            "outputs": [
                {
                    "internalType": "uint256",
                    "name": "",
                    "type": "uint256"
                }
            ],
            "stateMutability": "view",
            "type": "function"
        },
        {
            "inputs": [
                {
                    "internalType": "address",
                    "name": "worker",
                    "type": "address"
                }
            ],
            "name": "getWorkerManager",
            "outputs": [
                {
                    "internalType": "address",
                    "name": "",
                    "type": "address"
                }
            ],
            "stateMutability": "view",
            "type": "function"
        },
        {
            "inputs": [
                {
                    "internalType": "address",
                    "name": "manager",
                    "type": "address"
                }
            ],
            "name": "getWorkerCount",
            "outputs": [
                {
                    "internalType": "uint256",
                    "name": "",
                    "type": "uint256"
                }
            ],
            "stateMutability": "view",
            "type": "function"
        },
        {
            "inputs": [
                {
                    "internalType": "bytes4",
                    "name": "interfaceId",
                    "type": "bytes4"
                }
            ],
            "name": "supportsInterface",
            "outputs": [
                {
                    "internalType": "bool",
                    "name": "",
                    "type": "bool"
                }
            ],
            "stateMutability": "view",
            "type": "function"
        },
        {
            "inputs": [
                {
                    "internalType": "address",
                    "name": "relayManager",
                    "type": "address"
                }
            ],
            "name": "onRelayServerRegistered",
            "outputs": [],
            "stateMutability": "nonpayable",
            "type": "function"
        },
        {
            "inputs": [
                {
                    "internalType": "address[]",
                    "name": "newRelayWorkers",
                    "type": "address[]"
                }
            ],
            "name": "addRelayWorkers",
            "outputs": [],
            "stateMutability": "nonpayable",
            "type": "function"
        },
        {
            "inputs": [
                {
                    "internalType": "address",
                    "name": "target",
                    "type": "address"
                }
            ],
            "name": "depositFor",
            "outputs": [],
            "stateMutability": "payable",
            "type": "function"
        },
        {
            "inputs": [
                {
                    "internalType": "address",
                    "name": "target",
                    "type": "address"
                }
            ],
            "name": "balanceOf",
            "outputs": [
                {
                    "internalType": "uint256",
                    "name": "",
                    "type": "uint256"
                }
            ],
            "stateMutability": "view",
            "type": "function"
        },
        {
            "inputs": [
                {
                    "internalType": "address payable",
                    "name": "dest",
                    "type": "address"
                },
                {
                    "internalType": "uint256",
                    "name": "amount",
                    "type": "uint256"
                }
            ],
            "name": "withdraw",
            "outputs": [],
            "stateMutability": "nonpayable",
            "type": "function"
        },
        {
            "inputs": [
                {
                    "internalType": "address payable[]",
                    "name": "dest",
                    "type": "address[]"
                },
                {
                    "internalType": "uint256[]",
                    "name": "amount",
                    "type": "uint256[]"
                }
            ],
            "name": "withdrawMultiple",
            "outputs": [],
            "stateMutability": "nonpayable",
            "type": "function"
        },
        {
            "inputs": [
                {
                    "internalType": "string",
                    "name": "domainSeparatorName",
                    "type": "string"
                },
                {
                    "internalType": "uint256",
                    "name": "maxAcceptanceBudget",
                    "type": "uint256"
                },
                {
                    "components": [
                        {
                            "components": [
                                {
                                    "internalType": "address",
                                    "name": "from",
                                    "type": "address"
                                },
                                {
                                    "internalType": "address",
                                    "name": "to",
                                    "type": "address"
                                },
                                {
                                    "internalType": "uint256",
                                    "name": "value",
                                    "type": "uint256"
                                },
                                {
                                    "internalType": "uint256",
                                    "name": "gas",
                                    "type": "uint256"
                                },
                                {
                                    "internalType": "uint256",
                                    "name": "nonce",
                                    "type": "uint256"
                                },
                                {
                                    "internalType": "bytes",
                                    "name": "data",
                                    "type": "bytes"
                                },
                                {
                                    "internalType": "uint256",
                                    "name": "validUntilTime",
                                    "type": "uint256"
                                }
                            ],
                            "internalType": "struct IForwarder.ForwardRequest",
                            "name": "request",
                            "type": "tuple"
                        },
                        {
                            "components": [
                                {
                                    "internalType": "uint256",
                                    "name": "maxFeePerGas",
                                    "type": "uint256"
                                },
                                {
                                    "internalType": "uint256",
                                    "name": "maxPriorityFeePerGas",
                                    "type": "uint256"
                                },
                                {
                                    "internalType": "uint256",
                                    "name": "transactionCalldataGasUsed",
                                    "type": "uint256"
                                },
                                {
                                    "internalType": "address",
                                    "name": "relayWorker",
                                    "type": "address"
                                },
                                {
                                    "internalType": "address",
                                    "name": "paymaster",
                                    "type": "address"
                                },
                                {
                                    "internalType": "address",
                                    "name": "forwarder",
                                    "type": "address"
                                },
                                {
                                    "internalType": "bytes",
                                    "name": "paymasterData",
                                    "type": "bytes"
                                },
                                {
                                    "internalType": "uint256",
                                    "name": "clientId",
                                    "type": "uint256"
                                }
                            ],
                            "internalType": "struct GsnTypes.RelayData",
                            "name": "relayData",
                            "type": "tuple"
                        }
                    ],
                    "internalType": "struct GsnTypes.RelayRequest",
                    "name": "relayRequest",
                    "type": "tuple"
                },
                {
                    "internalType": "bytes",
                    "name": "signature",
                    "type": "bytes"
                },
                {
                    "internalType": "bytes",
                    "name": "approvalData",
                    "type": "bytes"
                }
            ],
            "name": "relayCall",
            "outputs": [
                {
                    "internalType": "bool",
                    "name": "paymasterAccepted",
                    "type": "bool"
                },
                {
                    "internalType": "uint256",
                    "name": "charge",
                    "type": "uint256"
                },
                {
                    "internalType": "enum IRelayHub.RelayCallStatus",
                    "name": "status",
                    "type": "uint8"
                },
                {
                    "internalType": "bytes",
                    "name": "returnValue",
                    "type": "bytes"
                }
            ],
            "stateMutability": "nonpayable",
            "type": "function"
        },
        {
            "inputs": [
                {
                    "internalType": "string",
                    "name": "domainSeparatorName",
                    "type": "string"
                },
                {
                    "components": [
                        {
                            "components": [
                                {
                                    "internalType": "address",
                                    "name": "from",
                                    "type": "address"
                                },
                                {
                                    "internalType": "address",
                                    "name": "to",
                                    "type": "address"
                                },
                                {
                                    "internalType": "uint256",
                                    "name": "value",
                                    "type": "uint256"
                                },
                                {
                                    "internalType": "uint256",
                                    "name": "gas",
                                    "type": "uint256"
                                },
                                {
                                    "internalType": "uint256",
                                    "name": "nonce",
                                    "type": "uint256"
                                },
                                {
                                    "internalType": "bytes",
                                    "name": "data",
                                    "type": "bytes"
                                },
                                {
                                    "internalType": "uint256",
                                    "name": "validUntilTime",
                                    "type": "uint256"
                                }
                            ],
                            "internalType": "struct IForwarder.ForwardRequest",
                            "name": "request",
                            "type": "tuple"
                        },
                        {
                            "components": [
                                {
                                    "internalType": "uint256",
                                    "name": "maxFeePerGas",
                                    "type": "uint256"
                                },
                                {
                                    "internalType": "uint256",
                                    "name": "maxPriorityFeePerGas",
                                    "type": "uint256"
                                },
                                {
                                    "internalType": "uint256",
                                    "name": "transactionCalldataGasUsed",
                                    "type": "uint256"
                                },
                                {
                                    "internalType": "address",
                                    "name": "relayWorker",
                                    "type": "address"
                                },
                                {
                                    "internalType": "address",
                                    "name": "paymaster",
                                    "type": "address"
                                },
                                {
                                    "internalType": "address",
                                    "name": "forwarder",
                                    "type": "address"
                                },
                                {
                                    "internalType": "bytes",
                                    "name": "paymasterData",
                                    "type": "bytes"
                                },
                                {
                                    "internalType": "uint256",
                                    "name": "clientId",
                                    "type": "uint256"
                                }
                            ],
                            "internalType": "struct GsnTypes.RelayData",
                            "name": "relayData",
                            "type": "tuple"
                        }
                    ],
                    "internalType": "struct GsnTypes.RelayRequest",
                    "name": "relayRequest",
                    "type": "tuple"
                },
                {
                    "internalType": "bytes",
                    "name": "signature",
                    "type": "bytes"
                },
                {
                    "internalType": "bytes",
                    "name": "approvalData",
                    "type": "bytes"
                },
                {
                    "components": [
                        {
                            "internalType": "uint256",
                            "name": "acceptanceBudget",
                            "type": "uint256"
                        },
                        {
                            "internalType": "uint256",
                            "name": "preRelayedCallGasLimit",
                            "type": "uint256"
                        },
                        {
                            "internalType": "uint256",
                            "name": "postRelayedCallGasLimit",
                            "type": "uint256"
                        },
                        {
                            "internalType": "uint256",
                            "name": "calldataSizeLimit",
                            "type": "uint256"
                        }
                    ],
                    "internalType": "struct IPaymaster.GasAndDataLimits",
                    "name": "gasAndDataLimits",
                    "type": "tuple"
                },
                {
                    "internalType": "uint256",
                    "name": "totalInitialGas",
                    "type": "uint256"
                },
                {
                    "internalType": "uint256",
                    "name": "maxPossibleGas",
                    "type": "uint256"
                }
            ],
            "name": "innerRelayCall",
            "outputs": [
                {
                    "internalType": "enum IRelayHub.RelayCallStatus",
                    "name": "",
                    "type": "uint8"
                },
                {
                    "internalType": "bytes",
                    "name": "",
                    "type": "bytes"
                }
            ],
            "stateMutability": "nonpayable",
            "type": "function"
        },
        {
            "inputs": [
                {
                    "internalType": "uint256",
                    "name": "charge",
                    "type": "uint256"
                }
            ],
            "name": "calculateDevCharge",
            "outputs": [
                {
                    "internalType": "uint256",
                    "name": "",
                    "type": "uint256"
                }
            ],
            "stateMutability": "view",
            "type": "function"
        },
        {
            "inputs": [
                {
                    "internalType": "uint256",
                    "name": "gasUsed",
                    "type": "uint256"
                },
                {
                    "components": [
                        {
                            "internalType": "uint256",
                            "name": "maxFeePerGas",
                            "type": "uint256"
                        },
                        {
                            "internalType": "uint256",
                            "name": "maxPriorityFeePerGas",
                            "type": "uint256"
                        },
                        {
                            "internalType": "uint256",
                            "name": "transactionCalldataGasUsed",
                            "type": "uint256"
                        },
                        {
                            "internalType": "address",
                            "name": "relayWorker",
                            "type": "address"
                        },
                        {
                            "internalType": "address",
                            "name": "paymaster",
                            "type": "address"
                        },
                        {
                            "internalType": "address",
                            "name": "forwarder",
                            "type": "address"
                        },
                        {
                            "internalType": "bytes",
                            "name": "paymasterData",
                            "type": "bytes"
                        },
                        {
                            "internalType": "uint256",
                            "name": "clientId",
                            "type": "uint256"
                        }
                    ],
                    "internalType": "struct GsnTypes.RelayData",
                    "name": "relayData",
                    "type": "tuple"
                }
            ],
            "name": "calculateCharge",
            "outputs": [
                {
                    "internalType": "uint256",
                    "name": "",
                    "type": "uint256"
                }
            ],
            "stateMutability": "view",
            "type": "function"
        },
        {
            "inputs": [
                {
                    "internalType": "address",
                    "name": "relayManager",
                    "type": "address"
                }
            ],
            "name": "verifyRelayManagerStaked",
            "outputs": [],
            "stateMutability": "view",
            "type": "function"
        },
        {
            "inputs": [
                {
                    "internalType": "uint256",
                    "name": "_deprecationTime",
                    "type": "uint256"
                }
            ],
            "name": "deprecateHub",
            "outputs": [],
            "stateMutability": "nonpayable",
            "type": "function"
        },
        {
            "inputs": [],
            "name": "isDeprecated",
            "outputs": [
                {
                    "internalType": "bool",
                    "name": "",
                    "type": "bool"
                }
            ],
            "stateMutability": "view",
            "type": "function"
        },
        {
            "inputs": [
                {
                    "internalType": "address",
                    "name": "relayWorker",
                    "type": "address"
                },
                {
                    "internalType": "address payable",
                    "name": "beneficiary",
                    "type": "address"
                }
            ],
            "name": "penalize",
            "outputs": [],
            "stateMutability": "nonpayable",
            "type": "function"
        },
        {
            "inputs": [
                {
                    "internalType": "address",
                    "name": "relayManager",
                    "type": "address"
                }
            ],
            "name": "isRelayEscheatable",
            "outputs": [
                {
                    "internalType": "bool",
                    "name": "",
                    "type": "bool"
                }
            ],
            "stateMutability": "view",
            "type": "function"
        },
        {
            "inputs": [
                {
                    "internalType": "address",
                    "name": "relayManager",
                    "type": "address"
                }
            ],
            "name": "escheatAbandonedRelayBalance",
            "outputs": [],
            "stateMutability": "nonpayable",
            "type": "function"
        },
        {
            "inputs": [],
            "name": "aggregateGasleft",
            "outputs": [
                {
                    "internalType": "uint256",
                    "name": "",
                    "type": "uint256"
                }
            ],
            "stateMutability": "view",
            "type": "function"
        }
    ],
    "bytecode": "0x610120604052600019600c553480156200001857600080fd5b506040516200570a3803806200570a8339810160408190526200003b9162000331565b62000046336200008b565b43610100526001600160601b0319606086811b821660805285811b821660a05284811b821660c05283901b1660e0526200008081620000db565b505050505062000493565b600080546001600160a01b038381166001600160a01b0319831681178455604051919092169283917f8be0079c531659141344cd1fd0a4f28419497f9722a3daafe3b4186f6b6457e09190a35050565b620000e562000284565b60648160c0015160ff1610620001355760405162461bcd60e51b815260206004820152601060248201526f0c8caec40cccaca40e8dede40d0d2ced60831b60448201526064015b60405180910390fd5b8051600190815560208201516002556040808301516003556060830151600455608083015160055560a08301516006805460c086015160e08701516001600160501b0316600160a81b02600160a81b600160f81b031960ff909216600160a01b026001600160a81b03199093166001600160a01b039095169490941791909117169190911790556101008301516007805461ffff90921661ffff19909216919091179055517f4812ada68f7c2cdc9f4a4a09e157ea6b924e0ef40a4fa7aa074fa8f70b1e7247916200027991815481526001820154602082015260028201546040820152600382015460608201526004820154608082015260058201546001600160a01b03811660a08084019190915260ff9082901c1660c083015260a81c6001600160501b031660e082015260069091015461ffff166101008201526101200190565b60405180910390a150565b6000546001600160a01b03163314620002e05760405162461bcd60e51b815260206004820181905260248201527f4f776e61626c653a2063616c6c6572206973206e6f7420746865206f776e657260448201526064016200012c565b565b8051620002ef816200047a565b919050565b805161ffff81168114620002ef57600080fd5b80516001600160501b0381168114620002ef57600080fd5b805160ff81168114620002ef57600080fd5b60008060008060008587036101a08112156200034c57600080fd5b865162000359816200047a565b60208801519096506200036c816200047a565b60408801519095506200037f816200047a565b606088015190945062000392816200047a565b9250610120607f198201811315620003a957600080fd5b620003b362000442565b91506080880151825260a0880151602083015260c0880151604083015260e08801516060830152610100808901516080840152620003f3828a01620002e2565b60a0840152620004076101408a016200031f565b60c08401526200041b6101608a0162000307565b60e08401526200042f6101808a01620002f4565b9083015250949793965091945092919050565b60405161012081016001600160401b03811182821017156200047457634e487b7160e01b600052604160045260246000fd5b60405290565b6001600160a01b03811681146200049057600080fd5b50565b60805160601c60a05160601c60c05160601c60e05160601c610100516151e76200052360003960006102420152600081816102eb015261081a0152600081816106f3015261108e0152600081816104250152612b8b0152600081816105c80152818161078b0152818161090c015281816127660152818161290101528181612c690152612d6401526151e76000f3fe6080604052600436106101f95760003560e01c80638e53548b1161010d578063ca64f9e7116100a0578063e6e22e121161006f578063e6e22e1214610664578063ebcd31ac14610684578063f2fde38b146106a4578063f3fef3a3146106c4578063f7908a74146106e457600080fd5b8063ca64f9e7146105b9578063d26152f9146105ec578063d904c7321461060c578063ddf737891461062e57600080fd5b8063af595dfc116100dc578063af595dfc14610528578063be7c76ad14610548578063c2da078614610581578063c7178230146105a157600080fd5b80638e53548b146104a75780639bcde3f3146104c7578063a6e61b60146104e7578063aa67c9191461051557600080fd5b80636bd50cef1161019057806372c1ab0c1161015f57806372c1ab0c146103f657806375dc7b4e146104165780638a09fb56146104495780638ac3b845146104695780638da5cb5b1461048957600080fd5b80636bd50cef146103595780636ca862e21461037b57806370a08231146103ab578063715018a6146103e157600080fd5b806345bdade7116101cc57806345bdade7146102a55780634f7de031146102ba57806351d85156146102dc57806359c4afc01461032357600080fd5b806301ffc9a7146101fe57806320ffd56d1461023357806339622167146102705780633c16e59a14610290575b600080fd5b34801561020a57600080fd5b5061021e610219366004614064565b610717565b60405190151581526020015b60405180910390f35b34801561023f57600080fd5b507f00000000000000000000000000000000000000000000000000000000000000005b60405190815260200161022a565b34801561027c57600080fd5b5061021e61028b366004613dae565b610769565b34801561029c57600080fd5b50600c54610262565b3480156102b157600080fd5b50610262610807565b3480156102c657600080fd5b506102da6102d5366004613dae565b61080f565b005b3480156102e857600080fd5b507f00000000000000000000000000000000000000000000000000000000000000005b6040516001600160a01b03909116815260200161022a565b34801561032f57600080fd5b5061026261033e366004613dae565b6001600160a01b03166000908152600a602052604090205490565b34801561036557600080fd5b5061036e61096b565b60405161022a9190614a90565b34801561038757600080fd5b5061039b6103963660046141fe565b610a4c565b60405161022a949392919061488f565b3480156103b757600080fd5b506102626103c6366004613dae565b6001600160a01b03166000908152600b602052604090205490565b3480156103ed57600080fd5b506102da6118cf565b34801561040257600080fd5b506102da610411366004613ea4565b6118e3565b34801561042257600080fd5b507f000000000000000000000000000000000000000000000000000000000000000061030b565b34801561045557600080fd5b506102da610464366004613f6c565b611ba4565b34801561047557600080fd5b50610262610484366004614449565b611cfb565b34801561049557600080fd5b506000546001600160a01b031661030b565b3480156104b357600080fd5b506102626104c2366004614462565b611d30565b3480156104d357600080fd5b506102da6104e236600461432a565b611dc6565b3480156104f357600080fd5b50610507610502366004614119565b611f6c565b60405161022a929190614903565b6102da610523366004613dae565b6123f8565b34801561053457600080fd5b506102da610543366004614449565b6124d9565b34801561055457600080fd5b5061030b610563366004613dae565b6001600160a01b039081166000908152600960205260409020541690565b34801561058d57600080fd5b506102da61059c366004613e30565b61255c565b3480156105ad57600080fd5b50600c5442101561021e565b3480156105c557600080fd5b507f000000000000000000000000000000000000000000000000000000000000000061030b565b3480156105f857600080fd5b506102da610607366004613dae565b61273f565b34801561061857600080fd5b506106216128bd565b60405161022a91906148bd565b34801561063a57600080fd5b50610262610649366004613dae565b6001600160a01b031660009081526008602052604090205490565b34801561067057600080fd5b506102da61067f366004613dae565b6128dd565b34801561069057600080fd5b506102da61069f366004613df7565b612b80565b3480156106b057600080fd5b506102da6106bf366004613dae565b612dc8565b3480156106d057600080fd5b506102da6106df366004613dcb565b612e41565b3480156106f057600080fd5b507f000000000000000000000000000000000000000000000000000000000000000061030b565b60006001600160e01b0319821663e9fb30f760e01b148061074857506001600160e01b03198216630704183b60e11b145b8061076357506301ffc9a760e01b6001600160e01b03198316145b92915050565b604051633962216760e01b81526001600160a01b0382811660048301526000917f00000000000000000000000000000000000000000000000000000000000000009091169063396221679060240160206040518083038186803b1580156107cf57600080fd5b505afa1580156107e3573d6000803e3d6000fd5b505050506040513d601f19601f820116820180604052508101906107639190614006565b60005a905090565b336001600160a01b037f0000000000000000000000000000000000000000000000000000000000000000161461088c5760405162461bcd60e51b815260206004820152601d60248201527f63616c6c6572206973206e6f742072656c61792072656769737472617200000060448201526064015b60405180910390fd5b610895816128dd565b6001600160a01b0381166000908152600a60205260409020546108ed5760405162461bcd60e51b815260206004820152601060248201526f6e6f2072656c617920776f726b65727360801b6044820152606401610883565b6040516346dcbf0b60e01b81526001600160a01b0382811660048301527f000000000000000000000000000000000000000000000000000000000000000016906346dcbf0b90602401600060405180830381600087803b15801561095057600080fd5b505af1158015610964573d6000803e3d6000fd5b5050505050565b6109d3604051806101200160405280600081526020016000815260200160008152602001600081526020016000815260200160006001600160a01b03168152602001600060ff16815260200160006001600160501b03168152602001600061ffff1681525090565b5060408051610120810182526001548152600254602082015260035491810191909152600454606082015260055460808201526006546001600160a01b03811660a0830152600160a01b810460ff1660c0830152600160a81b90046001600160501b031660e082015260075461ffff1661010082015290565b60008060006060610a5b613b39565b610a63610807565b6040820152610a738a8a8a612ee4565b6101e082015260408051808201909152601881527f72656c617943616c6c2072656c617952657175657374496400000000000000006020820152610ab690612f49565b610ac4816101e00151612f8c565b610afd60405180606001604052806023815260200161518f60239139610aea8c80614ba7565b610af8906020810190613dae565b612fd1565b610b34604051806060016040528060218152602001614edf60219139610b238c80614ba7565b610af8906040810190602001613dae565b610b63604051806060016040528060248152602001614fe860249139610b5a8c80614ba7565b6040013561301a565b610b92604051806060016040528060228152602001614f0060229139610b898c80614ba7565b6060013561301a565b610bc1604051806060016040528060248152602001614ebb60249139610bb88c80614ba7565b6080013561301a565b610bf06040518060600160405280602d8152602001614e2d602d9139610be78c80614ba7565b60c0013561301a565b610c1f6040518060600160405280602d8152602001614f5d602d9139610c1960208d018d614bbd565b3561301a565b610c51604051806060016040528060358152602001614fb360359139610c4860208d018d614bbd565b6020013561301a565b610c7a6040518060600160405280603b8152602001614f22603b9139610b5a60208d018d614bbd565b610cb46040518060600160405280602c8152602001614e01602c9139610ca360208d018d614bbd565b610af8906080810190606001613dae565b610cee6040518060600160405280602a8152602001615165602a9139610cdd60208d018d614bbd565b610af89060a0810190608001613dae565b610d286040518060600160405280602a815260200161513b602a9139610d1760208d018d614bbd565b610af89060c081019060a001613dae565b610d5a604051806060016040528060298152602001614f8a60299139610d5160208d018d614bbd565b60e0013561301a565b610d986040518060400160405280601d81526020017f72656c617943616c6c20646f6d61696e536570617261746f724e616d65000000815250612f49565b610dd78d8d8080601f016020809104026020016040519081016040528093929190818152602001838380828437600092019190915250612f4992505050565b610e0b6040518060400160405280601381526020017272656c617943616c6c207369676e617475726560681b815250612f49565b610e4a89898080601f01602080910402602001604051908101604052809392919081815260200183838082843760009201919091525061305f92505050565b610e816040518060400160405280601681526020017572656c617943616c6c20617070726f76616c4461746160501b815250612f49565b610ec087878080601f01602080910402602001604051908101604052809392919081815260200183838082843760009201919091525061305f92505050565b610ee160405180606001604052806023815260200161511860239139612f49565b610f36610eee8b80614ba7565b610efc9060a0810190614b61565b8080601f01602080910402602001604051908101604052809392919081815260200183838082843760009201919091525061305f92505050565b610f576040518060600160405280602e815260200161500c602e9139612f49565b610f75610f6760208c018c614bbd565b610efc9060c0810190614b61565b610fb46040518060400160405280601d81526020017f72656c617943616c6c206d6178416363657074616e63654275646765740000008152508c61301a565b600c544210610ff65760405162461bcd60e51b815260206004820152600e60248201526d1a1d588819195c1c9958d85d195960921b6044820152606401610883565b60046110028b80614ba7565b6110109060a0810190614b61565b9050101561101f576000611074565b61107461102c8b80614ba7565b61103a9060a0810190614b61565b8080601f016020809104026020016040519081016040528093929190818152602001838380828437600092018290525092506130a2915050565b6001600160e01b0319166020820152336001600160a01b037f000000000000000000000000000000000000000000000000000000000000000016148015906110bb57503215155b156111cf578761110d5760405162461bcd60e51b815260206004820181905260248201527f6d697373696e67207369676e6174757265206f722062616420676174657761796044820152606401610883565b33321461115c5760405162461bcd60e51b815260206004820152601860248201527f72656c617920776f726b6572206d75737420626520454f4100000000000000006044820152606401610883565b61116960208b018b614bbd565b61117a906080810190606001613dae565b6001600160a01b0316336001600160a01b0316146111cf5760405162461bcd60e51b81526020600482015260126024820152712737ba1030903934b3b43a103bb7b935b2b960711b6044820152606401610883565b321561126d57600960006111e660208d018d614bbd565b6111f7906080810190606001613dae565b6001600160a01b039081168252602082019290925260400160002054166101c0820181905261125f5760405162461bcd60e51b81526020600482015260146024820152732ab735b737bbb7103932b630bc903bb7b935b2b960611b6044820152606401610883565b61126d816101c001516128dd565b61127c8b8b8360400151613112565b61010083015260a08201526112968d8d8c8c8c8c8c61339c565b60025460405a6112a790603f614d16565b6112b19190614cf4565b6112bb9190614d35565b6101208201526112c9610807565b61014082015260035460045461012083015160408401516112ed60208f018f614bbd565b604001356112fb9190614cdc565b6113059190614cdc565b61130f9190614cdc565b6113199190614cdc565b81610200018181525050306001600160a01b031681610120015163a6e61b6060e01b8f8f8e8e8e8e8e8a60a0015161134f610807565b8c610200015161135f9190614d35565b8c610100015160405160240161137e9a99989796959493929190614923565b60408051601f198184030181529181526020820180516001600160e01b03166001600160e01b03199094169390931790925290516113bc91906146b5565b60006040518083038160008787f1925050503d80600081146113fa576040519150601f19603f3d011682016040523d82523d6000602084013e6113ff565b606091505b5061022083015215158152611412610807565b8161014001516114229190614d35565b60e08201526102208101518051611441916020918101820191016140db565b8260c0018360800182905282600681111561145e5761145e614da9565b600681111561146f5761146f614da9565b90525050608081015151156114c0577fa1478a4242848419db824250a0dddc645dca0d6a9b12ab1fd79b00145a0ba98e8160c0015182608001516040516114b7929190614903565b60405180910390a15b80516116225760028160c0015160068111156114de576114de614da9565b148061154d57506114f260208b018b614bbd565b60a082015151611506916040013590614cdc565b8160e001511115801561154d575060038160c00151600681111561152c5761152c614da9565b148061154d575060048160c00151600681111561154b5761154b614da9565b145b15611622576101e081015161156560208c018c614bbd565b6115769060a0810190608001613dae565b6101c08301516001600160a01b0391821691167f0c47510cb900901afca7c9e926892582a36fd3bb7f908142ccf0fb4382a2b6846115b48e80614ba7565b6115c2906020810190613dae565b6115cc8f80614ba7565b6115dd906040810190602001613dae565b3387602001518860e0015189608001516040516115ff969594939291906147ba565b60405180910390a46000808260c0015183608001519450945094509450506118c0565b60045461162d610807565b826040015161163c9190614d35565b61164960208d018d614bbd565b604001356116579190614cdc565b6116619190614cdc565b610160820181905261167a906104c260208d018d614bbd565b935061168584611cfb565b61018082015283600b600061169d60208e018e614bbd565b6116ae9060a0810190608001613dae565b6001600160a01b03166001600160a01b03168152602001908152602001600020546116d99190614d35565b600b60006116ea60208e018e614bbd565b6116fb9060a0810190608001613dae565b6001600160a01b031681526020810191909152604001600020556101808101516117259085614d35565b6101c08201516001600160a01b03166000908152600b602052604090205461174d9190614cdc565b6101c08201516001600160a01b03166000908152600b6020526040902055610180810151156117bd576101808101516006546001600160a01b03166000908152600b60205260409020546117a19190614cdc565b6006546001600160a01b03166000908152600b60205260409020555b60006117c98b80614ba7565b6117d7906020810190613dae565b905060006117e58c80614ba7565b6117f6906040810190602001613dae565b9050600061180760208e018e614bbd565b6118189060a0810190608001613dae565b9050836101e00151336001600160a01b0316856101c001516001600160a01b03167fd51ac07012398c2059ec53c6005fa8639657917bd2dbd72bc489a3c0eaaa7f168686868a602001518b60c001518f60405161187a9695949392919061476c565b60405180910390a4505050326118a35760c08101516080909101516001955090925090506118c0565b60c001516040805160208101909152600081526001955090925090505b98509850985098945050505050565b6118d76134c7565b6118e16000613521565b565b3360005b8251811015611b9e576119886040518060400160405280601981526020017f77697468647261774d756c7469706c6520257320257320257300000000000000815250600b6000856001600160a01b03166001600160a01b031681526020019081526020016000205486848151811061196157611961614dbf565b602002602001015186858151811061197b5761197b614dbf565b6020026020010151613571565b6001600160a01b0382166000908152600b602052604090205483518490839081106119b5576119b5614dbf565b6020026020010151811015611a015760405162461bcd60e51b8152602060048201526012602482015271696e73756666696369656e742066756e647360701b6044820152606401610883565b838281518110611a1357611a13614dbf565b602002602001015181611a269190614d35565b6001600160a01b0384166000908152600b60205260408120919091558551869084908110611a5657611a56614dbf565b60200260200101516001600160a01b0316858481518110611a7957611a79614dbf565b602002602001015160405160006040518083038185875af1925050503d8060008114611ac1576040519150601f19603f3d011682016040523d82523d6000602084013e611ac6565b606091505b5050905080611b0a5760405162461bcd60e51b815260206004820152601060248201526f2a3930b739b332b9103330b4b632b21760811b6044820152606401610883565b858381518110611b1c57611b1c614dbf565b60200260200101516001600160a01b0316846001600160a01b03167fd1c19fbcd4551a5edfb66d43d2e337c04837afda3482b42bdf569a8fccdae5fb878681518110611b6a57611b6a614dbf565b6020026020010151604051611b8191815260200190565b60405180910390a350508080611b9690614d78565b9150506118e7565b50505050565b611bac6134c7565b8051825114611bfd5760405162461bcd60e51b815260206004820152601e60248201527f7365744d696e696d756d5374616b65733a2077726f6e67206c656e67746800006044820152606401610883565b60005b8251811015611cf657818181518110611c1b57611c1b614dbf565b602002602001015160086000858481518110611c3957611c39614dbf565b60200260200101516001600160a01b03166001600160a01b03168152602001908152602001600020819055507ffb7510fe755f485459ee8ed619d4a0addc092c230ff47e760a62aeba78ebb9e3838281518110611c9857611c98614dbf565b6020026020010151838381518110611cb257611cb2614dbf565b6020026020010151604051611cdc9291906001600160a01b03929092168252602082015260400190565b60405180910390a180611cee81614d78565b915050611c00565b505050565b600654600090600160a01b900460ff16611d1757506000919050565b600654606490600160a01b900460ff1683020492915050565b600080823560208401351415611d4857506000611d4b565b50485b6000611d678435611d623a81602089013587614cdc565b6135ba565b600754909150606490611d7e9061ffff1682614cb6565b61ffff16611d8c8388614d16565b611d969190614d16565b611da09190614cf4565b600654611dbd9190600160a81b90046001600160501b0316614cdc565b95945050505050565b611dce6134c7565b60648160c0015160ff1610611e185760405162461bcd60e51b815260206004820152601060248201526f0c8caec40cccaca40e8dede40d0d2ced60831b6044820152606401610883565b8051600190815560208201516002556040808301516003556060830151600455608083015160055560a08301516006805460c086015160e08701516001600160501b0316600160a81b0269ffffffffffffffffffff60a81b1960ff909216600160a01b026001600160a81b03199093166001600160a01b039095169490941791909117169190911790556101008301516007805461ffff90921661ffff19909216919091179055517f4812ada68f7c2cdc9f4a4a09e157ea6b924e0ef40a4fa7aa074fa8f70b1e724791611f6191815481526001820154602082015260028201546040820152600382015460608201526004820154608082015260058201546001600160a01b03811660a08084019190915260ff9082901c1660c08301526001600160501b0360a89190911c1660e082015260069091015461ffff166101008201526101200190565b60405180910390a150565b60006060611fc6604051806101200160405280600081526020016000815260200160008152602001600080191681526020016000151581526020016060815260200160608152602001606081526020016000151581525090565b611fce610807565b81525a611fdb9086614d35565b602082015233301461202f5760405162461bcd60e51b815260206004820152601a60248201527f4d7573742062652063616c6c65642062792052656c61794875620000000000006044820152606401610883565b600b600061204060208e018e614bbd565b6120519060a0810190608001613dae565b6001600160a01b0316815260208101919091526040908101600020548282015251622f977560e21b90612092908d908d908d908d908d908b90602401614b12565b60408051601f19818403018152919052602080820180516001600160e01b03166001600160e01b03199094169390931790925260e08301526000906060906120dc908e018e614bbd565b6120ed9060a0810190608001613dae565b6001600160a01b031688602001358460e0015160405161210d91906146b5565b60006040518083038160008787f1925050503d806000811461214b576040519150601f19603f3d011682016040523d82523d6000602084013e612150565b606091505b5090925090508161216f57612164816135d2565b61216f6002826135de565b80806020019051810190612183919061408e565b8460c001856101000182151515158152508290525050505060006121ed8e8e8080601f016020809104026020016040519081016040528093929190818152602001838380828437600081840152601f19601f820116905080830192505050505050508d8d8d613617565b60a08501521515608084015290508061220f5761220f60038360a001516135de565b816101000151801561222357508160800151155b156122375761223760048360a001516135de565b506376fa01c360e01b8160c001518260800151612252610807565b845161225e9190614d35565b846020015161226d9190614cdc565b8e806020019061227d9190614bbd565b60405160240161229094939291906148d0565b60408051601f19818403018152919052602080820180516001600160e01b03166001600160e01b03199094169390931790925260e083015260009081906122d9908e018e614bbd565b6122ea9060a0810190608001613dae565b6001600160a01b031688604001358460e0015160405161230a91906146b5565b60006040518083038160008787f1925050503d8060008114612348576040519150601f19603f3d011682016040523d82523d6000602084013e61234d565b606091505b509150915081612362576123626005826135de565b50506040810151600b600061237a60208f018f614bbd565b61238b9060a0810190608001613dae565b6001600160a01b03166001600160a01b031681526020019081526020016000205410156123cc576123cc6006604051806020016040528060008152506135de565b80608001516123dc5760016123df565b60005b8160a0015192509250509a509a98505050505050505050565b6124126001600160a01b0382166370d596f560e11b6137fd565b61245e5760405162461bcd60e51b815260206004820181905260248201527f746172676574206973206e6f7420612076616c696420495061796d61737465726044820152606401610883565b6001600160a01b0381166000908152600b60205260409020543490612484908290614cdc565b6001600160a01b0383166000818152600b6020908152604091829020939093555183815233927f8752a472e571a816aea92eec8dae9baf628e840f4929fbcc2d155e6233ff68a7910160405180910390a35050565b6124e16134c7565b600c5442106125275760405162461bcd60e51b8152602060048201526012602482015271105b1c9958591e4819195c1c9958d85d195960721b6044820152606401610883565b600c8190556040518181527f1c0aa0c666483fbf0cf795d9d646ea3552d1e3008162ba9ab1d6d6dfd8c6ec6b90602001611f61565b336000818152600a6020526040812054612577908490614cdc565b6001600160a01b0383166000908152600a602052604090208190556001549091508111156125da5760405162461bcd60e51b815260206004820152601060248201526f746f6f206d616e7920776f726b65727360801b6044820152606401610883565b6125e3826128dd565b60005b838110156126f357600060098187878581811061260557612605614dbf565b905060200201602081019061261a9190613dae565b6001600160a01b03908116825260208201929092526040016000205416146126845760405162461bcd60e51b815260206004820152601960248201527f7468697320776f726b6572206861732061206d616e61676572000000000000006044820152606401610883565b826009600087878581811061269b5761269b614dbf565b90506020020160208101906126b09190613dae565b6001600160a01b039081168252602082019290925260400160002080546001600160a01b03191692909116919091179055806126eb81614d78565b9150506125e6565b50816001600160a01b03167febf4a9bffb39f7c5dbf3f65540183b9381ae226ac3d0a45b4cad484713bd4a2885858460405161273193929190614839565b60405180910390a250505050565b6127476134c7565b604051633962216760e01b81526001600160a01b0382811660048301527f0000000000000000000000000000000000000000000000000000000000000000169063396221679060240160206040518083038186803b1580156127a857600080fd5b505afa1580156127bc573d6000803e3d6000fd5b505050506040513d601f19601f820116820180604052508101906127e09190614006565b61282c5760405162461bcd60e51b815260206004820181905260248201527f72656c617920736572766572206e6f74206573636865617461626c65207965746044820152606401610883565b6001600160a01b038082166000908152600b60205260408082208054908390556006549093168252902054612862908290614cdc565b6006546001600160a01b039081166000908152600b60209081526040918290209390935551838152908416917f3fb672a061b9c3ab083062a9a8ff532d341e5fa42145b91f3922a711ae135659910160405180910390a25050565b60606040518060600160405280602281526020016150f660229139905090565b60405163c345315360e01b81526001600160a01b03828116600483015260009182917f0000000000000000000000000000000000000000000000000000000000000000169063c3453153906024016101006040518083038186803b15801561294457600080fd5b505afa158015612958573d6000803e3d6000fd5b505050506040513d601f19601f8201168201806040525081019061297c91906143bd565b60a0820180516001600160a01b03908116600090815260086020526040902054915193955091935091166129ed5760405162461bcd60e51b81526020600482015260186024820152771c995b185e481b585b9859d95c881b9bdd081cdd185ad95960421b6044820152606401610883565b8251811115612a3e5760405162461bcd60e51b815260206004820152601960248201527f7374616b6520616d6f756e7420697320746f6f20736d616c6c000000000000006044820152606401610883565b80612a8b5760405162461bcd60e51b815260206004820152601f60248201527f7374616b696e67207468697320746f6b656e20697320666f7262696464656e006044820152606401610883565b60055460208401511015612ae15760405162461bcd60e51b815260206004820152601a60248201527f756e7374616b652064656c617920697320746f6f20736d616c6c0000000000006044820152606401610883565b604083015115612b335760405162461bcd60e51b815260206004820152601860248201527f7374616b6520686173206265656e2077697468647261776e00000000000000006044820152606401610883565b81611b9e5760405162461bcd60e51b815260206004820181905260248201527f7468697320687562206973206e6f7420617574686f72697a656420627920534d6044820152606401610883565b336001600160a01b037f00000000000000000000000000000000000000000000000000000000000000001614612be85760405162461bcd60e51b815260206004820152600d60248201526c2737ba103832b730b634bd32b960991b6044820152606401610883565b6001600160a01b038083166000908152600960205260409020541680612c475760405162461bcd60e51b81526020600482015260146024820152732ab735b737bbb7103932b630bc903bb7b935b2b960611b6044820152606401610883565b60405163c345315360e01b81526001600160a01b0382811660048301526000917f00000000000000000000000000000000000000000000000000000000000000009091169063c3453153906024016101006040518083038186803b158015612cae57600080fd5b505afa158015612cc2573d6000803e3d6000fd5b505050506040513d601f19601f82011682018060405250810190612ce691906143bd565b508051909150612d335760405162461bcd60e51b81526020600482015260186024820152771c995b185e481b585b9859d95c881b9bdd081cdd185ad95960421b6044820152606401610883565b805160405163026822bd60e21b81526001600160a01b038481166004830152858116602483015260448201929092527f0000000000000000000000000000000000000000000000000000000000000000909116906309a08af490606401600060405180830381600087803b158015612daa57600080fd5b505af1158015612dbe573d6000803e3d6000fd5b5050505050505050565b612dd06134c7565b6001600160a01b038116612e355760405162461bcd60e51b815260206004820152602660248201527f4f776e61626c653a206e6577206f776e657220697320746865207a65726f206160448201526564647265737360d01b6064820152608401610883565b612e3e81613521565b50565b6040805160018082528183019092526000916020808301908036833750506040805160018082528183019092529293506000929150602080830190803683370190505090508282600081518110612e9a57612e9a614dbf565b6020026020010181815250508381600081518110612eba57612eba614dbf565b60200260200101906001600160a01b031690816001600160a01b031681525050611b9e81836118e3565b60006001600160e01b03612ef88580614ba7565b612f06906020810190613dae565b612f108680614ba7565b608001358585604051602001612f299493929190614811565b604051602081830303815290604052805190602001201690509392505050565b612e3e81604051602401612f5d91906148bd565b60408051601f198184030181529190526020810180516001600160e01b031663104c13eb60e21b179052613819565b612e3e81604051602401612fa291815260200190565b60408051601f198184030181529190526020810180516001600160e01b03166327b7cf8560e01b179052613819565b6130168282604051602401612fe79291906149b9565b60408051601f198184030181529190526020810180516001600160e01b031663319af33360e01b179052613819565b5050565b61301682826040516024016130309291906149e3565b60408051601f198184030181529190526020810180516001600160e01b0316632d839cb360e21b179052613819565b612e3e8160405160240161307391906148bd565b60408051601f198184030181529190526020810180516001600160e01b03166305f3bfab60e11b179052613819565b60006130af826004614cdc565b835110156130ff5760405162461bcd60e51b815260206004820152601a60248201527f726561644279746573343a206461746120746f6f2073686f72740000000000006044820152606401610883565b5001602001516001600160e01b03191690565b61313d6040518060800160405280600081526020016000815260200160008152602001600081525090565b600061314c6020850185614bbd565b61315d9060a0810190608001613dae565b6001600160a01b031663b039a88f61c3506040518263ffffffff1660e01b815260040160806040518083038187803b15801561319857600080fd5b5086fa1580156131ac573d6000803e3d6000fd5b50505050506040513d601f19601f820116820180604052508101906131d191906142c5565b60608101519092503611156132285760405162461bcd60e51b815260206004820152601760248201527f6d73672e64617461206578636565646564206c696d69740000000000000000006044820152606401610883565b81518510156132795760405162461bcd60e51b815260206004820152601a60248201527f616363657074616e63652062756467657420746f6f20686967680000000000006044820152606401610883565b6020820151825110156132ce5760405162461bcd60e51b815260206004820152601960248201527f616363657074616e63652062756467657420746f6f206c6f77000000000000006044820152606401610883565b826132dc6020860186614bbd565b604001356132ea9190614cdc565b905060006132ff826104c26020880188614bbd565b9050600b60006133126020880188614bbd565b6133239060a0810190608001613dae565b6001600160a01b03166001600160a01b03168152602001908152602001600020548111156133935760405162461bcd60e51b815260206004820152601960248201527f5061796d61737465722062616c616e636520746f6f206c6f77000000000000006044820152606401610883565b50935093915050565b60006133c16133ae6020880188614bbd565b6133bc9060c0810190614b61565b61383a565b6133dc6133ce8880614ba7565b6133bc9060a0810190614b61565b6133e6858561383a565b6133f0888861383a565b6133fa8c8c61383a565b613406906102c4614cdc565b6134109190614cdc565b61341a9190614cdc565b6134249190614cdc565b61342e9190614cdc565b905060418411156134815760405162461bcd60e51b815260206004820152601860248201527f696e76616c6964207369676e6174757265206c656e67746800000000000000006044820152606401610883565b368114612dbe5760405162461bcd60e51b81526020600482015260146024820152736578747261206d73672e6461746120627974657360601b6044820152606401610883565b6000546001600160a01b031633146118e15760405162461bcd60e51b815260206004820181905260248201527f4f776e61626c653a2063616c6c6572206973206e6f7420746865206f776e65726044820152606401610883565b600080546001600160a01b038381166001600160a01b0319831681178455604051919092169283917f8be0079c531659141344cd1fd0a4f28419497f9722a3daafe3b4186f6b6457e09190a35050565b611b9e8484848460405160240161358b9493929190614a05565b60408051601f198184030181529190526020810180516001600160e01b03166327827ee360e11b179052613819565b60008183106135c957816135cb565b825b9392505050565b612e3e81610400613860565b600082826040516020016135f3929190614903565b604051602081830303815290604052905061360d816135d2565b8051602082018181fd5b600080606060006136278761386d565b905060006136528961363c60208b018b614bbd565b61364d9060c081019060a001613dae565b6138ac565b90506136616020890189614bbd565b6136729060c081019060a001613dae565b6001600160a01b031663e024dc7f60e01b61368d8a80614ba7565b836040518060400160405280600c81526020016b14995b185e54995c5d595cdd60a21b8152506040518060a0016040528060618152602001614e5a606191396040518060e0016040528060bc815260200161503a60bc91396040516020016136f59190614730565b60408051601f19818403018152908290526137149392916020016146d1565b60405160208183030381529060405280519060200120868c8c60405160240161374296959493929190614a3d565b60408051601f198184030181529181526020820180516001600160e01b03166001600160e01b031990941693909317909252905161378091906146b5565b6000604051808303816000865af19150503d80600081146137bd576040519150601f19603f3d011682016040523d82523d6000602084013e6137c2565b606091505b50909550925084156137e857828060200190518101906137e29190614021565b90945092505b6137f1836135d2565b50509450945094915050565b6000613808836138ff565b80156135cb57506135cb8383613932565b80516a636f6e736f6c652e6c6f67602083016000808483855afa5050505050565b6000613849601f600019614d35565b61385483601f614cdc565b6135cb91166020614cdc565b8082511115613016579052565b606061388461387f6020840184614bbd565b6139bb565b60405160200161389691815260200190565b6040516020818303038152906040529050919050565b60006135cb6040518060800160405280858152602001604051806040016040528060018152602001603360f81b81525081526020016138e84690565b8152602001846001600160a01b0316815250613ab9565b6000613912826301ffc9a760e01b613932565b8015610763575061392b826001600160e01b0319613932565b1592915050565b604080516001600160e01b03198316602480830191909152825180830390910181526044909101909152602080820180516001600160e01b03166301ffc9a760e01b178152825160009392849283928392918391908a617530fa92503d915060005190508280156139a4575060208210155b80156139b05750600081115b979650505050505050565b60006040518060e0016040528060bc815260200161503a60bc913980516020918201209083359084013560408501356139fa6080870160608801613dae565b613a0a60a0880160808901613dae565b613a1a60c0890160a08a01613dae565b613a2760c08a018a614b61565b604051613a359291906146a5565b604051908190038120613a9c989796959493929160e08c0135906020019889526020890197909752604088019590955260608701939093526001600160a01b039182166080870152811660a08601521660c084015260e08301526101008201526101200190565b604051602081830303815290604052805190602001209050919050565b60007f8b73c3c69bb8fe3d512ecc4cf759cc79239f7b179b0ffacaa9a75d522b39400f82600001518051906020012083602001518051906020012084604001518560600151604051602001613a9c9594939291909485526020850193909352604084019190915260608301526001600160a01b0316608082015260a00190565b60405180610240016040528060001515815260200160006001600160e01b0319168152602001600081526020016060815260200160608152602001613b9f6040518060800160405280600081526020016000815260200160008152602001600081525090565b8152602001600081526020016000815260200160008152602001600081526020016000815260200160008152602001600081526020016060815260200160006001600160a01b031681526020016000801916815260200160008152602001606081525090565b8035613c1081614deb565b919050565b600082601f830112613c2657600080fd5b81356020613c3b613c3683614c4e565b614c1e565b80838252828201915082860187848660051b8901011115613c5b57600080fd5b60005b85811015613c7a57813584529284019290840190600101613c5e565b5090979650505050505050565b80518015158114613c1057600080fd5b60008083601f840112613ca957600080fd5b5081356001600160401b03811115613cc057600080fd5b602083019150836020828501011115613cd857600080fd5b9250929050565b600082601f830112613cf057600080fd5b81516001600160401b03811115613d0957613d09614dd5565b613d1c601f8201601f1916602001614c1e565b818152846020838601011115613d3157600080fd5b613d42826020830160208701614d4c565b949350505050565b600060808284031215613d5c57600080fd5b50919050565b600060408284031215613d5c57600080fd5b803561ffff81168114613c1057600080fd5b803560ff81168114613c1057600080fd5b80356001600160501b0381168114613c1057600080fd5b600060208284031215613dc057600080fd5b81356135cb81614deb565b60008060408385031215613dde57600080fd5b8235613de981614deb565b946020939093013593505050565b60008060408385031215613e0a57600080fd5b8235613e1581614deb565b91506020830135613e2581614deb565b809150509250929050565b60008060208385031215613e4357600080fd5b82356001600160401b0380821115613e5a57600080fd5b818501915085601f830112613e6e57600080fd5b813581811115613e7d57600080fd5b8660208260051b8501011115613e9257600080fd5b60209290920196919550909350505050565b60008060408385031215613eb757600080fd5b82356001600160401b0380821115613ece57600080fd5b818501915085601f830112613ee257600080fd5b81356020613ef2613c3683614c4e565b8083825282820191508286018a848660051b8901011115613f1257600080fd5b600096505b84871015613f3e578035613f2a81614deb565b835260019690960195918301918301613f17565b5096505086013592505080821115613f5557600080fd5b50613f6285828601613c15565b9150509250929050565b60008060408385031215613f7f57600080fd5b82356001600160401b0380821115613f9657600080fd5b818501915085601f830112613faa57600080fd5b81356020613fba613c3683614c4e565b8083825282820191508286018a848660051b8901011115613fda57600080fd5b600096505b84871015613f3e578035613ff281614deb565b835260019690960195918301918301613fdf565b60006020828403121561401857600080fd5b6135cb82613c87565b6000806040838503121561403457600080fd5b61403d83613c87565b915060208301516001600160401b0381111561405857600080fd5b613f6285828601613cdf565b60006020828403121561407657600080fd5b81356001600160e01b0319811681146135cb57600080fd5b600080604083850312156140a157600080fd5b82516001600160401b038111156140b757600080fd5b6140c385828601613cdf565b9250506140d260208401613c87565b90509250929050565b600080604083850312156140ee57600080fd5b8251600781106140fd57600080fd5b60208401519092506001600160401b0381111561405857600080fd5b6000806000806000806000806000806101408b8d03121561413957600080fd5b8a356001600160401b038082111561415057600080fd5b61415c8e838f01613c97565b909c509a5060208d013591508082111561417557600080fd5b6141818e838f01613d62565b995060408d013591508082111561419757600080fd5b6141a38e838f01613c97565b909950975060608d01359150808211156141bc57600080fd5b506141c98d828e01613c97565b90965094506141dd90508c60808d01613d4a565b92506101008b013591506101208b013590509295989b9194979a5092959850565b60008060008060008060008060a0898b03121561421a57600080fd5b88356001600160401b038082111561423157600080fd5b61423d8c838d01613c97565b909a50985060208b0135975060408b013591508082111561425d57600080fd5b6142698c838d01613d62565b965060608b013591508082111561427f57600080fd5b61428b8c838d01613c97565b909650945060808b01359150808211156142a457600080fd5b506142b18b828c01613c97565b999c989b5096995094979396929594505050565b6000608082840312156142d757600080fd5b604051608081018181106001600160401b03821117156142f9576142f9614dd5565b8060405250825181526020830151602082015260408301516040820152606083015160608201528091505092915050565b6000610120828403121561433d57600080fd5b614345614bd3565b823581526020830135602082015260408301356040820152606083013560608201526080830135608082015261437d60a08401613c05565b60a082015261438e60c08401613d86565b60c082015261439f60e08401613d97565b60e08201526101006143b2818501613d74565b908201529392505050565b6000808284036101008112156143d257600080fd5b60e08112156143e057600080fd5b506143e9614bfc565b835181526020840151602082015260408401516040820152606084015160608201526080840151608082015260a084015161442381614deb565b60a082015260c084015161443681614deb565b60c082015291506140d260e08401613c87565b60006020828403121561445b57600080fd5b5035919050565b6000806040838503121561447557600080fd5b8235915060208301356001600160401b0381111561449257600080fd5b83016101008186031215613e2557600080fd5b81835281816020850137506000828201602090810191909152601f909101601f19169091010190565b600081518084526144e6816020860160208601614d4c565b601f01601f19169290920160200192915050565b6007811061451857634e487b7160e01b600052602160045260246000fd5b9052565b6000813561452981614deb565b6001600160a01b03908116845260208301359061454582614deb565b16602084015260408281013590840152606080830135908401526080808301359084015261457660a0830183614c71565b60e060a086015261458b60e0860182846144a5565b91505060c083013560c08501528091505092915050565b600061010082358452602083013560208501526040830135604085015260608301356145cd81614deb565b6001600160a01b0390811660608601526080840135906145ec82614deb565b16608085015260a083013561460081614deb565b6001600160a01b031660a085015261461b60c0840184614c71565b8260c087015261462e83870182846144a5565b9250505060e083013560e08501528091505092915050565b6000813582360360de198101821261465d57600080fd5b604085526146706040860185840161451c565b9150602084013560fe198201811261468757600080fd5b858303602087015261469b838683016145a2565b9695505050505050565b8183823760009101908152919050565b600082516146c7818460208701614d4c565b9190910192915050565b600084516146e3818460208901614d4c565b600560fb1b9083019081528451614701816001840160208901614d4c565b600b60fa1b600192909101918201528351614723816002840160208801614d4c565b0160020195945050505050565b7352656c6179446174612072656c6179446174612960601b81526000825161475f816014850160208701614d4c565b9190910160140192915050565b6001600160a01b0387811682528681166020830152851660408201526001600160e01b03198416606082015260c081016147a960808301856144fa565b8260a0830152979650505050505050565b6001600160a01b0387811682528681166020830152851660408201526001600160e01b0319841660608201526080810183905260c060a08201819052600090614805908301846144ce565b98975050505050505050565b60018060a01b038516815283602082015260606040820152600061469b6060830184866144a5565b6040808252810183905260008460608301825b8681101561487c57823561485f81614deb565b6001600160a01b031682526020928301929091019060010161484c565b5060209390930193909352509392505050565b84151581528360208201526148a760408201846144fa565b60806060820152600061469b60808301846144ce565b6020815260006135cb60208301846144ce565b6080815260006148e360808301876144ce565b851515602084015284604084015282810360608401526139b081856145a2565b61490d81846144fa565b604060208201526000613d4260408301846144ce565b60006101408083526149388184018d8f6144a5565b9050828103602084015261494c818c614646565b90508281036040840152614961818a8c6144a5565b9050828103606084015261497681888a6144a5565b86516080850152602087015160a0850152604087015160c085015260609096015160e0840152505061010081019290925261012090910152979650505050505050565b6040815260006149cc60408301856144ce565b905060018060a01b03831660208301529392505050565b6040815260006149f660408301856144ce565b90508260208301529392505050565b608081526000614a1860808301876144ce565b6020830195909552506001600160a01b03929092166040830152606090910152919050565b60a081526000614a5060a083018961451c565b8760208401528660408401528281036060840152614a6e81876144ce565b90508281036080840152614a838185876144a5565b9998505050505050505050565b600061012082019050825182526020830151602083015260408301516040830152606083015160608301526080830151608083015260018060a01b0360a08401511660a083015260ff60c08401511660c083015260e0830151614afe60e08401826001600160501b03169052565b506101009283015161ffff16919092015290565b608081526000614b256080830189614646565b8281036020840152614b3881888a6144a5565b90508281036040840152614b4d8186886144a5565b915050826060830152979650505050505050565b6000808335601e19843603018112614b7857600080fd5b8301803591506001600160401b03821115614b9257600080fd5b602001915036819003821315613cd857600080fd5b6000823560de198336030181126146c757600080fd5b6000823560fe198336030181126146c757600080fd5b60405161012081016001600160401b0381118282101715614bf657614bf6614dd5565b60405290565b60405160e081016001600160401b0381118282101715614bf657614bf6614dd5565b604051601f8201601f191681016001600160401b0381118282101715614c4657614c46614dd5565b604052919050565b60006001600160401b03821115614c6757614c67614dd5565b5060051b60200190565b6000808335601e19843603018112614c8857600080fd5b83016020810192503590506001600160401b03811115614ca757600080fd5b803603831315613cd857600080fd5b600061ffff808316818516808303821115614cd357614cd3614d93565b01949350505050565b60008219821115614cef57614cef614d93565b500190565b600082614d1157634e487b7160e01b600052601260045260246000fd5b500490565b6000816000190483118215151615614d3057614d30614d93565b500290565b600082821015614d4757614d47614d93565b500390565b60005b83811015614d67578181015183820152602001614d4f565b83811115611b9e5750506000910152565b6000600019821415614d8c57614d8c614d93565b5060010190565b634e487b7160e01b600052601160045260246000fd5b634e487b7160e01b600052602160045260246000fd5b634e487b7160e01b600052603260045260246000fd5b634e487b7160e01b600052604160045260246000fd5b6001600160a01b0381168114612e3e57600080fdfe72656c617943616c6c2072656c6179526571756573742e72656c6179446174612e72656c6179576f726b657272656c617943616c6c2072656c6179526571756573742e726571756573742e76616c6964556e74696c54696d65616464726573732066726f6d2c6164647265737320746f2c75696e743235362076616c75652c75696e74323536206761732c75696e74323536206e6f6e63652c627974657320646174612c75696e743235362076616c6964556e74696c54696d6572656c617943616c6c2072656c6179526571756573742e726571756573742e6e6f6e636572656c617943616c6c2072656c6179526571756573742e726571756573742e746f72656c617943616c6c2072656c6179526571756573742e726571756573742e67617372656c617943616c6c2072656c6179526571756573742e72656c6179446174612e7472616e73616374696f6e43616c6c646174614761735573656472656c617943616c6c2072656c6179526571756573742e72656c6179446174612e6d617846656550657247617372656c617943616c6c2072656c6179526571756573742e72656c6179446174612e636c69656e74496472656c617943616c6c2072656c6179526571756573742e72656c6179446174612e6d61785072696f7269747946656550657247617372656c617943616c6c2072656c6179526571756573742e726571756573742e76616c756572656c617943616c6c2072656c6179526571756573742e72656c6179446174612e7061796d61737465724461746152656c6179446174612875696e74323536206d61784665655065724761732c75696e74323536206d61785072696f726974794665655065724761732c75696e74323536207472616e73616374696f6e43616c6c64617461476173557365642c616464726573732072656c6179576f726b65722c61646472657373207061796d61737465722c6164647265737320666f727761726465722c6279746573207061796d6173746572446174612c75696e7432353620636c69656e74496429332e302e302d626574612e322b6f70656e67736e2e6875622e6972656c617968756272656c617943616c6c2072656c6179526571756573742e726571756573742e6461746172656c617943616c6c2072656c6179526571756573742e72656c6179446174612e666f7277617264657272656c617943616c6c2072656c6179526571756573742e72656c6179446174612e7061796d617374657272656c617943616c6c2072656c6179526571756573742e726571756573742e66726f6da2646970667358221220819d79b45af7cf8e905673a691bce690c8b5ec1f9ece34a165909a2fb4ea2a6a64736f6c63430008070033",
    "immutableReferences": {
        "1283": [
            {
                "length": 32,
                "start": 1480
            },
            {
                "length": 32,
                "start": 1931
            },
            {
                "length": 32,
                "start": 2316
            },
            {
                "length": 32,
                "start": 10086
            },
            {
                "length": 32,
                "start": 10497
            },
            {
                "length": 32,
                "start": 11369
            },
            {
                "length": 32,
                "start": 11620
            }
        ],
        "1285": [
            {
                "length": 32,
                "start": 1061
            },
            {
                "length": 32,
                "start": 11147
            }
        ],
        "1287": [
            {
                "length": 32,
                "start": 1779
            },
            {
                "length": 32,
                "start": 4238
            }
        ],
        "1289": [
            {
                "length": 32,
                "start": 747
            },
            {
                "length": 32,
                "start": 2074
            }
        ],
        "1408": [
            {
                "length": 32,
                "start": 578
            }
        ]
    },
    "source": "pragma solidity ^0.8.0;\npragma abicoder v2;\n\n/* solhint-disable avoid-low-level-calls */\n/* solhint-disable no-inline-assembly */\n/* solhint-disable not-rely-on-time */\n/* solhint-disable avoid-tx-origin */\n/* solhint-disable bracket-align */\n// SPDX-License-Identifier: GPL-3.0-only\n\nimport \"hardhat/console.sol\";\n\nimport \"./utils/MinLibBytes.sol\";\nimport \"@openzeppelin/contracts/utils/Address.sol\";\nimport \"@openzeppelin/contracts/utils/introspection/ERC165.sol\";\nimport \"@openzeppelin/contracts/utils/introspection/ERC165Checker.sol\";\nimport \"@openzeppelin/contracts/utils/math/Math.sol\";\nimport \"@openzeppelin/contracts/access/Ownable.sol\";\nimport \"@openzeppelin/contracts/token/ERC20/IERC20.sol\";\n\nimport \"./utils/GsnUtils.sol\";\nimport \"./utils/GsnEip712Library.sol\";\nimport \"./utils/RelayHubValidator.sol\";\nimport \"./utils/GsnTypes.sol\";\nimport \"./interfaces/IRelayHub.sol\";\nimport \"./interfaces/IPaymaster.sol\";\nimport \"./forwarder/IForwarder.sol\";\nimport \"./interfaces/IStakeManager.sol\";\nimport \"./interfaces/IRelayRegistrar.sol\";\nimport \"./interfaces/IStakeManager.sol\";\n\n/**\n * @title The RelayHub Implementation\n * @notice This contract implements the `IRelayHub` interface for the EVM-compatible networks.\n */\ncontract RelayHub is IRelayHub, Ownable, ERC165 {\n    using ERC165Checker for address;\n    using Address for address;\n\n    address private constant DRY_RUN_ADDRESS = 0x0000000000000000000000000000000000000000;\n\n    /// @inheritdoc IRelayHub\n    function versionHub() override virtual public pure returns (string memory){\n        return \"3.0.0-beta.2+opengsn.hub.irelayhub\";\n    }\n\n    IStakeManager internal immutable stakeManager;\n    address internal immutable penalizer;\n    address internal immutable batchGateway;\n    address internal immutable relayRegistrar;\n\n    RelayHubConfig internal config;\n\n    /// @inheritdoc IRelayHub\n    function getConfiguration() public override view returns (RelayHubConfig memory) {\n        return config;\n    }\n\n    /// @inheritdoc IRelayHub\n    function setConfiguration(RelayHubConfig memory _config) public override onlyOwner {\n        require(_config.devFee < 100, \"dev fee too high\");\n        config = _config;\n        emit RelayHubConfigured(config);\n    }\n\n    // maps ERC-20 token address to a minimum stake for it\n    mapping(IERC20 => uint256) internal minimumStakePerToken;\n\n    /// @inheritdoc IRelayHub\n    function setMinimumStakes(IERC20[] memory token, uint256[] memory minimumStake) public override onlyOwner {\n        require(token.length == minimumStake.length, \"setMinimumStakes: wrong length\");\n        for (uint256 i = 0; i < token.length; i++) {\n            minimumStakePerToken[token[i]] = minimumStake[i];\n            emit StakingTokenDataChanged(address(token[i]), minimumStake[i]);\n        }\n    }\n\n    // maps relay worker's address to its manager's address\n    mapping(address => address) internal workerToManager;\n\n    // maps relay managers to the number of their workers\n    mapping(address => uint256) internal workerCount;\n\n    mapping(address => uint256) internal balances;\n\n    uint256 internal immutable creationBlock;\n    uint256 internal deprecationTime = type(uint256).max;\n\n    constructor (\n        IStakeManager _stakeManager,\n        address _penalizer,\n        address _batchGateway,\n        address _relayRegistrar,\n        RelayHubConfig memory _config\n    ) {\n        creationBlock = block.number;\n        stakeManager = _stakeManager;\n        penalizer = _penalizer;\n        batchGateway = _batchGateway;\n        relayRegistrar = _relayRegistrar;\n        setConfiguration(_config);\n    }\n\n    /// @inheritdoc IRelayHub\n    function getCreationBlock() external override virtual view returns (uint256){\n        return creationBlock;\n    }\n\n    /// @inheritdoc IRelayHub\n    function getDeprecationTime() external override view returns (uint256) {\n        return deprecationTime;\n    }\n\n    /// @inheritdoc IRelayHub\n    function getStakeManager() external override view returns (IStakeManager) {\n        return stakeManager;\n    }\n\n    /// @inheritdoc IRelayHub\n    function getPenalizer() external override view returns (address) {\n        return penalizer;\n    }\n\n    /// @inheritdoc IRelayHub\n    function getBatchGateway() external override view returns (address) {\n        return batchGateway;\n    }\n\n    /// @inheritdoc IRelayHub\n    function getRelayRegistrar() external override view returns (address) {\n        return relayRegistrar;\n    }\n\n    /// @inheritdoc IRelayHub\n    function getMinimumStakePerToken(IERC20 token) external override view returns (uint256) {\n        return minimumStakePerToken[token];\n    }\n\n    /// @inheritdoc IRelayHub\n    function getWorkerManager(address worker) external override view returns (address) {\n        return workerToManager[worker];\n    }\n\n    /// @inheritdoc IRelayHub\n    function getWorkerCount(address manager) external override view returns (uint256) {\n        return workerCount[manager];\n    }\n\n    /// @inheritdoc IERC165\n    function supportsInterface(bytes4 interfaceId) public view virtual override(IERC165, ERC165) returns (bool) {\n        return interfaceId == type(IRelayHub).interfaceId ||\n            interfaceId == type(Ownable).interfaceId ||\n            super.supportsInterface(interfaceId);\n    }\n\n    /// @inheritdoc IRelayHub\n    function onRelayServerRegistered(address relayManager) external override {\n        require(msg.sender == relayRegistrar, \"caller is not relay registrar\");\n        verifyRelayManagerStaked(relayManager);\n        require(workerCount[relayManager] > 0, \"no relay workers\");\n        stakeManager.updateRelayKeepaliveTime(relayManager);\n    }\n\n    /// @inheritdoc IRelayHub\n    function addRelayWorkers(address[] calldata newRelayWorkers) external override {\n        address relayManager = msg.sender;\n        uint256 newWorkerCount = workerCount[relayManager] + newRelayWorkers.length;\n        workerCount[relayManager] = newWorkerCount;\n        require(newWorkerCount <= config.maxWorkerCount, \"too many workers\");\n\n        verifyRelayManagerStaked(relayManager);\n\n        for (uint256 i = 0; i < newRelayWorkers.length; i++) {\n            require(workerToManager[newRelayWorkers[i]] == address(0), \"this worker has a manager\");\n            workerToManager[newRelayWorkers[i]] = relayManager;\n        }\n\n        emit RelayWorkersAdded(relayManager, newRelayWorkers, newWorkerCount);\n    }\n\n    /// @inheritdoc IRelayHub\n    function depositFor(address target) public virtual override payable {\n        require(target.supportsInterface(type(IPaymaster).interfaceId), \"target is not a valid IPaymaster\");\n        uint256 amount = msg.value;\n\n        balances[target] = balances[target] + amount;\n\n        emit Deposited(target, msg.sender, amount);\n    }\n\n    /// @inheritdoc IRelayHub\n    function balanceOf(address target) external override view returns (uint256) {\n        return balances[target];\n    }\n\n    /// @inheritdoc IRelayHub\n    function withdraw(address payable dest, uint256 amount) public override {\n        uint256[] memory amounts = new uint256[](1);\n        address payable[] memory destinations = new address payable[](1);\n        amounts[0] = amount;\n        destinations[0] = dest;\n        withdrawMultiple(destinations, amounts);\n    }\n\n    /// @inheritdoc IRelayHub\n    function withdrawMultiple(address payable[] memory dest, uint256[] memory amount) public override {\n        address payable account = payable(msg.sender);\n        for (uint256 i = 0; i < amount.length; i++) {\n            console.log(\"withdrawMultiple %s %s %s\", balances[account], dest[i], amount[i]);\n            uint256 balance = balances[account];\n            require(balance >= amount[i], \"insufficient funds\");\n            balances[account] = balance - amount[i];\n            (bool success, ) = dest[i].call{value: amount[i]}(\"\");\n            require(success, \"Transfer failed.\");\n            emit Withdrawn(account, dest[i], amount[i]);\n        }\n    }\n\n    function verifyGasAndDataLimits(\n        uint256 maxAcceptanceBudget,\n        GsnTypes.RelayRequest calldata relayRequest,\n        uint256 initialGasLeft\n    )\n    private\n    view\n    returns (IPaymaster.GasAndDataLimits memory gasAndDataLimits, uint256 maxPossibleGas) {\n        gasAndDataLimits =\n            IPaymaster(relayRequest.relayData.paymaster).getGasAndDataLimits{gas:50000}();\n        require(msg.data.length <= gasAndDataLimits.calldataSizeLimit, \"msg.data exceeded limit\" );\n\n        require(maxAcceptanceBudget >= gasAndDataLimits.acceptanceBudget, \"acceptance budget too high\");\n        require(gasAndDataLimits.acceptanceBudget >= gasAndDataLimits.preRelayedCallGasLimit, \"acceptance budget too low\");\n\n        maxPossibleGas = relayRequest.relayData.transactionCalldataGasUsed + initialGasLeft;\n\n        uint256 maxPossibleCharge = calculateCharge(\n            maxPossibleGas,\n            relayRequest.relayData\n        );\n\n        // We don't yet know how much gas will be used by the recipient, so we make sure there are enough funds to pay\n        // for the maximum possible charge.\n        require(maxPossibleCharge <= balances[relayRequest.relayData.paymaster],\n            \"Paymaster balance too low\");\n    }\n\n    struct RelayCallData {\n        bool success;\n        bytes4 functionSelector;\n        uint256 initialGasLeft;\n        bytes recipientContext;\n        bytes relayedCallReturnValue;\n        IPaymaster.GasAndDataLimits gasAndDataLimits;\n        RelayCallStatus status;\n        uint256 innerGasUsed;\n        uint256 maxPossibleGas;\n        uint256 innerGasLimit;\n        uint256 gasBeforeInner;\n        uint256 gasUsed;\n        uint256 devCharge;\n        bytes retData;\n        address relayManager;\n        bytes32 relayRequestId;\n        uint256 tmpInitialGas;\n        bytes relayCallStatus;\n    }\n\n    /// @inheritdoc IRelayHub\n    function relayCall(\n        string calldata domainSeparatorName,\n        uint256 maxAcceptanceBudget,\n        GsnTypes.RelayRequest calldata relayRequest,\n        bytes calldata signature,\n        bytes calldata approvalData\n    )\n    external\n    override\n    returns (\n        bool paymasterAccepted,\n        uint256 charge,\n        IRelayHub.RelayCallStatus status,\n        bytes memory returnValue)\n    {\n        RelayCallData memory vars;\n        vars.initialGasLeft = aggregateGasleft();\n        vars.relayRequestId = GsnUtils.getRelayRequestID(relayRequest, signature);\n\n        console.log(\"relayCall relayRequestId\");\n        console.logBytes32(vars.relayRequestId);\n        console.log(\"relayCall relayRequest.request.from\", relayRequest.request.from);\n        console.log(\"relayCall relayRequest.request.to\", relayRequest.request.to);\n        console.log(\"relayCall relayRequest.request.value\", relayRequest.request.value);\n        console.log(\"relayCall relayRequest.request.gas\", relayRequest.request.gas);\n        console.log(\"relayCall relayRequest.request.nonce\", relayRequest.request.nonce);\n        console.log(\"relayCall relayRequest.request.validUntilTime\", relayRequest.request.validUntilTime);\n\n        console.log(\"relayCall relayRequest.relayData.maxFeePerGas\", relayRequest.relayData.maxFeePerGas);\n        console.log(\"relayCall relayRequest.relayData.maxPriorityFeePerGas\", relayRequest.relayData.maxPriorityFeePerGas);\n        console.log(\"relayCall relayRequest.relayData.transactionCalldataGasUsed\", relayRequest.relayData.transactionCalldataGasUsed);\n        console.log(\"relayCall relayRequest.relayData.relayWorker\", relayRequest.relayData.relayWorker);\n        console.log(\"relayCall relayRequest.relayData.paymaster\", relayRequest.relayData.paymaster);\n        console.log(\"relayCall relayRequest.relayData.forwarder\", relayRequest.relayData.forwarder);\n        console.log(\"relayCall relayRequest.relayData.clientId\", relayRequest.relayData.clientId);\n\n        console.log(\"relayCall domainSeparatorName\");\n        console.logString(domainSeparatorName);\n        console.log(\"relayCall signature\");\n        console.logBytes(signature);\n        console.log(\"relayCall approvalData\");\n        console.logBytes(approvalData);\n        console.log(\"relayCall relayRequest.request.data\");\n        console.logBytes(relayRequest.request.data);\n        console.log(\"relayCall relayRequest.relayData.paymasterData\");\n        console.logBytes(relayRequest.relayData.paymasterData);\n        console.log(\"relayCall maxAcceptanceBudget\", maxAcceptanceBudget);\n\n        require(!isDeprecated(), \"hub deprecated\");\n        vars.functionSelector = relayRequest.request.data.length>=4 ? MinLibBytes.readBytes4(relayRequest.request.data, 0) : bytes4(0);\n\n        if (msg.sender != batchGateway && tx.origin != DRY_RUN_ADDRESS) {\n            require(signature.length != 0, \"missing signature or bad gateway\");\n            require(msg.sender == tx.origin, \"relay worker must be EOA\");\n            require(msg.sender == relayRequest.relayData.relayWorker, \"Not a right worker\");\n        }\n\n        if (tx.origin != DRY_RUN_ADDRESS) {\n            vars.relayManager = workerToManager[relayRequest.relayData.relayWorker];\n            require(vars.relayManager != address(0), \"Unknown relay worker\");\n            verifyRelayManagerStaked(vars.relayManager);\n        }\n\n        (vars.gasAndDataLimits, vars.maxPossibleGas) =\n            verifyGasAndDataLimits(maxAcceptanceBudget, relayRequest, vars.initialGasLeft);\n\n        RelayHubValidator.verifyTransactionPacking(domainSeparatorName,relayRequest,signature,approvalData);\n\n    {\n\n        //How much gas to pass down to innerRelayCall. must be lower than the default 63/64\n        // actually, min(gasleft*63/64, gasleft-GAS_RESERVE) might be enough.\n        vars.innerGasLimit = gasleft()*63/64- config.gasReserve;\n        vars.gasBeforeInner = aggregateGasleft();\n\n        /*\n        Preparing to calculate \"gasUseWithoutPost\":\n        MPG = calldataGasUsage + vars.initialGasLeft :: max possible gas, an approximate gas limit for the current transaction\n        GU1 = MPG - gasleft(called right before innerRelayCall) :: gas actually used by current transaction until that point\n        GU2 = innerGasLimit - gasleft(called inside the innerRelayCall just before preRelayedCall) :: gas actually used by innerRelayCall before calling postRelayCall\n        GWP1 = GU1 + GU2 :: gas actually used by the entire transaction before calling postRelayCall\n        TGO = config.gasOverhead + config.postOverhead :: extra that will be added to the charge to cover hidden costs\n        GWP = GWP1 + TGO :: transaction \"gas used without postRelayCall\"\n        */\n        vars.tmpInitialGas = relayRequest.relayData.transactionCalldataGasUsed + vars.initialGasLeft + vars.innerGasLimit + config.gasOverhead + config.postOverhead;\n        // Calls to the recipient are performed atomically inside an inner transaction which may revert in case of\n        // errors in the recipient. In either case (revert or regular execution) the return data encodes the\n        // RelayCallStatus value.\n        (vars.success, vars.relayCallStatus) = address(this).call{gas:vars.innerGasLimit}(\n            abi.encodeWithSelector(RelayHub.innerRelayCall.selector, domainSeparatorName, relayRequest, signature, approvalData, vars.gasAndDataLimits,\n            vars.tmpInitialGas - aggregateGasleft(), /* totalInitialGas */\n            vars.maxPossibleGas\n            )\n        );\n        vars.innerGasUsed = vars.gasBeforeInner-aggregateGasleft();\n        (vars.status, vars.relayedCallReturnValue) = abi.decode(vars.relayCallStatus, (RelayCallStatus, bytes));\n        if ( vars.relayedCallReturnValue.length>0 ) {\n            emit TransactionResult(vars.status, vars.relayedCallReturnValue);\n        }\n    }\n    {\n        if (!vars.success) {\n            //Failure cases where the PM doesn't pay\n            if (vars.status == RelayCallStatus.RejectedByPreRelayed ||\n                    (vars.innerGasUsed <= vars.gasAndDataLimits.acceptanceBudget + relayRequest.relayData.transactionCalldataGasUsed) && (\n                    vars.status == RelayCallStatus.RejectedByForwarder ||\n                    vars.status == RelayCallStatus.RejectedByRecipientRevert  //can only be thrown if rejectOnRecipientRevert==true\n                )) {\n                emit TransactionRejectedByPaymaster(\n                    vars.relayManager,\n                    relayRequest.relayData.paymaster,\n                    vars.relayRequestId,\n                    relayRequest.request.from,\n                    relayRequest.request.to,\n                    msg.sender,\n                    vars.functionSelector,\n                    vars.innerGasUsed,\n                    vars.relayedCallReturnValue);\n                return (false, 0, vars.status, vars.relayedCallReturnValue);\n            }\n        }\n\n        // We now perform the actual charge calculation, based on the measured gas used\n        vars.gasUsed = relayRequest.relayData.transactionCalldataGasUsed + (vars.initialGasLeft - aggregateGasleft()) + config.gasOverhead;\n        charge = calculateCharge(vars.gasUsed, relayRequest.relayData);\n        vars.devCharge = calculateDevCharge(charge);\n\n        balances[relayRequest.relayData.paymaster] = balances[relayRequest.relayData.paymaster] - charge;\n        balances[vars.relayManager] = balances[vars.relayManager] + (charge - vars.devCharge);\n        if (vars.devCharge > 0) { // save some gas in case of zero dev charge\n            balances[config.devAddress] = balances[config.devAddress] + vars.devCharge;\n        }\n\n        {\n            address from = relayRequest.request.from;\n            address to = relayRequest.request.to;\n            address paymaster = relayRequest.relayData.paymaster;\n            emit TransactionRelayed(\n                vars.relayManager,\n                msg.sender,\n                vars.relayRequestId,\n                from,\n                to,\n                paymaster,\n                vars.functionSelector,\n                vars.status,\n                charge);\n        }\n\n        // avoid variable size memory copying after gas calculation completed on-chain\n        if (tx.origin == DRY_RUN_ADDRESS) {\n            return (true, charge, vars.status, vars.relayedCallReturnValue);\n        }\n        return (true, charge, vars.status, \"\");\n    }\n    }\n\n    struct InnerRelayCallData {\n        uint256 initialGasLeft;\n        uint256 gasUsedToCallInner;\n        uint256 balanceBefore;\n        bytes32 preReturnValue;\n        bool relayedCallSuccess;\n        bytes relayedCallReturnValue;\n        bytes recipientContext;\n        bytes data;\n        bool rejectOnRecipientRevert;\n    }\n\n    /**\n     * @notice This method can only by called by this `RelayHub`.\n     * It wraps the execution of the `RelayRequest` in a revertable frame context.\n     */\n    function innerRelayCall(\n        string calldata domainSeparatorName,\n        GsnTypes.RelayRequest calldata relayRequest,\n        bytes calldata signature,\n        bytes calldata approvalData,\n        IPaymaster.GasAndDataLimits calldata gasAndDataLimits,\n        uint256 totalInitialGas,\n        uint256 maxPossibleGas\n    )\n    external\n    returns (RelayCallStatus, bytes memory)\n    {\n        InnerRelayCallData memory vars;\n        vars.initialGasLeft = aggregateGasleft();\n        vars.gasUsedToCallInner = totalInitialGas - gasleft();\n        // A new gas measurement is performed inside innerRelayCall, since\n        // due to EIP150 available gas amounts cannot be directly compared across external calls\n\n        // This external function can only be called by RelayHub itself, creating an internal transaction. Calls to the\n        // recipient (preRelayedCall, the relayedCall, and postRelayedCall) are called from inside this transaction.\n        require(msg.sender == address(this), \"Must be called by RelayHub\");\n\n        // If either pre or post reverts, the whole internal transaction will be reverted, reverting all side effects on\n        // the recipient. The recipient will still be charged for the used gas by the relay.\n\n        // The paymaster is no allowed to withdraw balance from RelayHub during a relayed transaction. We check pre and\n        // post state to ensure this doesn't happen.\n        vars.balanceBefore = balances[relayRequest.relayData.paymaster];\n\n        // First preRelayedCall is executed.\n        // Note: we open a new block to avoid growing the stack too much.\n        vars.data = abi.encodeWithSelector(\n            IPaymaster.preRelayedCall.selector,\n            relayRequest, signature, approvalData, maxPossibleGas\n        );\n        {\n            bool success;\n            bytes memory retData;\n            (success, retData) = relayRequest.relayData.paymaster.call{gas:gasAndDataLimits.preRelayedCallGasLimit}(vars.data);\n            if (!success) {\n                GsnEip712Library.truncateInPlace(retData);\n                revertWithStatus(RelayCallStatus.RejectedByPreRelayed, retData);\n            }\n            (vars.recipientContext, vars.rejectOnRecipientRevert) = abi.decode(retData, (bytes,bool));\n        }\n\n        // The actual relayed call is now executed. The sender's address is appended at the end of the transaction data\n\n        {\n            bool forwarderSuccess;\n            (forwarderSuccess, vars.relayedCallSuccess, vars.relayedCallReturnValue) = GsnEip712Library.execute(domainSeparatorName, relayRequest, signature);\n            if ( !forwarderSuccess ) {\n                revertWithStatus(RelayCallStatus.RejectedByForwarder, vars.relayedCallReturnValue);\n            }\n\n            if (vars.rejectOnRecipientRevert && !vars.relayedCallSuccess) {\n                // we trusted the recipient, but it reverted...\n                revertWithStatus(RelayCallStatus.RejectedByRecipientRevert, vars.relayedCallReturnValue);\n            }\n        }\n        // Finally, postRelayedCall is executed, with the relayedCall execution's status and a charge estimate\n        // We now determine how much the recipient will be charged, to pass this value to postRelayedCall for accurate\n        // accounting.\n        vars.data = abi.encodeWithSelector(\n            IPaymaster.postRelayedCall.selector,\n            vars.recipientContext,\n            vars.relayedCallSuccess,\n            vars.gasUsedToCallInner + (vars.initialGasLeft - aggregateGasleft()), /*gasUseWithoutPost*/\n            relayRequest.relayData\n        );\n\n        {\n        (bool successPost,bytes memory ret) = relayRequest.relayData.paymaster.call{gas:gasAndDataLimits.postRelayedCallGasLimit}(vars.data);\n\n            if (!successPost) {\n                revertWithStatus(RelayCallStatus.PostRelayedFailed, ret);\n            }\n        }\n\n        if (balances[relayRequest.relayData.paymaster] < vars.balanceBefore) {\n            revertWithStatus(RelayCallStatus.PaymasterBalanceChanged, \"\");\n        }\n\n        return (vars.relayedCallSuccess ? RelayCallStatus.OK : RelayCallStatus.RelayedCallFailed, vars.relayedCallReturnValue);\n    }\n\n    /**\n     * @dev Reverts the transaction with return data set to the ABI encoding of the status argument (and revert reason data)\n     */\n    function revertWithStatus(RelayCallStatus status, bytes memory ret) private pure {\n        bytes memory data = abi.encode(status, ret);\n        GsnEip712Library.truncateInPlace(data);\n\n        assembly {\n            let dataSize := mload(data)\n            let dataPtr := add(data, 32)\n\n            revert(dataPtr, dataSize)\n        }\n    }\n\n    /// @inheritdoc IRelayHub\n    function calculateDevCharge(uint256 charge) public override virtual view returns (uint256){\n        if (config.devFee == 0){ // save some gas in case of zero dev charge\n            return 0;\n        }\n        unchecked {\n        return charge * config.devFee / 100;\n        }\n    }\n\n    /// @inheritdoc IRelayHub\n    function calculateCharge(uint256 gasUsed, GsnTypes.RelayData calldata relayData) public override virtual view returns (uint256) {\n        uint256 basefee;\n        if (relayData.maxFeePerGas == relayData.maxPriorityFeePerGas) {\n            basefee = 0;\n        } else {\n            basefee = block.basefee;\n        }\n        uint256 chargeableGasPrice = Math.min(relayData.maxFeePerGas, Math.min(tx.gasprice, basefee + relayData.maxPriorityFeePerGas));\n        return config.baseRelayFee + (gasUsed * chargeableGasPrice * (config.pctRelayFee + 100)) / 100;\n    }\n\n    /// @inheritdoc IRelayHub\n    function verifyRelayManagerStaked(address relayManager) public override view {\n        (IStakeManager.StakeInfo memory info, bool isHubAuthorized) = stakeManager.getStakeInfo(relayManager);\n        uint256 minimumStake = minimumStakePerToken[info.token];\n        require(info.token != IERC20(address(0)), \"relay manager not staked\");\n        require(info.stake >= minimumStake, \"stake amount is too small\");\n        require(minimumStake != 0, \"staking this token is forbidden\");\n        require(info.unstakeDelay >= config.minimumUnstakeDelay, \"unstake delay is too small\");\n        require(info.withdrawTime == 0, \"stake has been withdrawn\");\n        require(isHubAuthorized, \"this hub is not authorized by SM\");\n    }\n\n    /// @inheritdoc IRelayHub\n    function deprecateHub(uint256 _deprecationTime) public override onlyOwner {\n        require(!isDeprecated(), \"Already deprecated\");\n        deprecationTime = _deprecationTime;\n        emit HubDeprecated(deprecationTime);\n    }\n\n    /// @inheritdoc IRelayHub\n    function isDeprecated() public override view returns (bool) {\n        return block.timestamp >= deprecationTime;\n    }\n\n    /// @notice Prevents any address other than the `Penalizer` from calling this method.\n    modifier penalizerOnly () {\n        require(msg.sender == penalizer, \"Not penalizer\");\n        _;\n    }\n\n    /// @inheritdoc IRelayHub\n    function penalize(address relayWorker, address payable beneficiary) external override penalizerOnly {\n        address relayManager = workerToManager[relayWorker];\n        // The worker must be controlled by a manager with a locked stake\n        require(relayManager != address(0), \"Unknown relay worker\");\n        (IStakeManager.StakeInfo memory stakeInfo,) = stakeManager.getStakeInfo(relayManager);\n        require(stakeInfo.stake > 0, \"relay manager not staked\");\n        stakeManager.penalizeRelayManager(relayManager, beneficiary, stakeInfo.stake);\n    }\n\n    /// @inheritdoc IRelayHub\n    function isRelayEscheatable(address relayManager) public view override returns (bool){\n        return stakeManager.isRelayEscheatable(relayManager);\n    }\n\n    /// @inheritdoc IRelayHub\n    function escheatAbandonedRelayBalance(address relayManager) external override onlyOwner {\n        require(stakeManager.isRelayEscheatable(relayManager), \"relay server not escheatable yet\");\n        uint256 balance = balances[relayManager];\n        balances[relayManager] = 0;\n        balances[config.devAddress] = balances[config.devAddress] + balance;\n        emit AbandonedRelayManagerBalanceEscheated(relayManager, balance);\n    }\n\n    /// @inheritdoc IRelayHub\n    function aggregateGasleft() public override virtual view returns (uint256){\n        return gasleft();\n    }\n}",
    "sourcePath": "/Users/cameron/Rally/evm/gsn/packages/contracts/solpp/RelayHub.sol",
    "compiler": {
        "name": "solc",
        "version": "0.8.7+commit.e28d00a7.Emscripten.clang"
    },
    "schemaVersion": "3.1.0",
    "updatedAt": "2022-11-15T19:32:08.369Z",
    "devdoc": {
        "kind": "dev",
        "methods": {
            "aggregateGasleft()": {
                "returns": {
                    "_0": "A total measurable amount of gas left to current execution. Same as 'gasleft()' for pure EVMs."
                }
            },
            "balanceOf(address)": {
                "returns": {
                    "_0": "An account's balance. It can be either a deposit of a `Paymaster`, or a revenue of a Relay Manager."
                }
            },
            "calculateCharge(uint256,(uint256,uint256,uint256,address,address,address,bytes,uint256))": {
                "params": {
                    "gasUsed": "An amount of gas used by the transaction.",
                    "relayData": "The details of a transaction signed by the sender."
                },
                "returns": {
                    "_0": "The calculated charge, in wei."
                }
            },
            "calculateDevCharge(uint256)": {
                "params": {
                    "charge": "The amount of Ether in wei the Paymaster will be charged for this transaction."
                },
                "returns": {
                    "_0": "The calculated devFee, in wei."
                }
            },
            "deprecateHub(uint256)": {
                "params": {
                    "_deprecationTime": "The timestamp in seconds after which the `RelayHub` stops serving transactions."
                }
            },
            "getBatchGateway()": {
                "returns": {
                    "_0": "The `BatchGateway` address for this `RelayHub`."
                }
            },
            "getConfiguration()": {
                "returns": {
                    "_0": "The configuration of the `RelayHub`."
                }
            },
            "getCreationBlock()": {
                "returns": {
                    "_0": "The block number in which the contract has been deployed."
                }
            },
            "getDeprecationTime()": {
                "returns": {
                    "_0": "The timestamp from which the hub no longer allows relaying calls."
                }
            },
            "getMinimumStakePerToken(address)": {
                "params": {
                    "token": "An address of an ERC-20 compatible tokens."
                },
                "returns": {
                    "_0": "The minimum amount of a given `token` that needs to be staked so that the Relay Manager is considered to be 'staked' by this `RelayHub`. Zero value means this token is not allowed for staking."
                }
            },
            "getPenalizer()": {
                "returns": {
                    "_0": "The `Penalizer` address for this `RelayHub`."
                }
            },
            "getRelayRegistrar()": {
                "returns": {
                    "_0": "The `RelayRegistrar` address for this `RelayHub`."
                }
            },
            "getStakeManager()": {
                "returns": {
                    "_0": "The `StakeManager` address for this `RelayHub`."
                }
            },
            "getWorkerCount(address)": {
                "params": {
                    "manager": "An address of the Relay Manager."
                },
                "returns": {
                    "_0": "The count of Relay Workers associated with this Relay Manager."
                }
            },
            "getWorkerManager(address)": {
                "params": {
                    "worker": "An address of the Relay Worker."
                },
                "returns": {
                    "_0": "The address of its Relay Manager."
                }
            },
            "isDeprecated()": {
                "returns": {
                    "_0": "`true` if the `RelayHub` is deprecated, `false` it it is not deprecated and can serve transactions."
                }
            },
            "owner()": {
                "details": "Returns the address of the current owner."
            },
            "penalize(address,address)": {
                "params": {
                    "beneficiary": "The address that called the `Penalizer` and will receive a reward for it.",
                    "relayWorker": "The address of the Relay Worker that committed a penalizable offense."
                }
            },
            "relayCall(string,uint256,((address,address,uint256,uint256,uint256,bytes,uint256),(uint256,uint256,uint256,address,address,address,bytes,uint256)),bytes,bytes)": {
                "params": {
                    "approvalData": "The dapp-specific data forwarded to the `Paymaster`'s `preRelayedCall` method. This value is **not** verified by the `RelayHub` in any way. As an example, it can be used to pass some kind of a third-party signature to the `Paymaster` for verification. Emits a `TransactionRelayed` event regardless of whether the transaction succeeded or failed.",
                    "domainSeparatorName": "The name of the Domain Separator used to verify the EIP-712 signature",
                    "maxAcceptanceBudget": "The maximum valid value for `paymaster.getGasLimits().acceptanceBudget` to return.",
                    "relayRequest": "All details of the requested relayed call.",
                    "signature": "The client's EIP-712 signature over the `relayRequest` struct."
                }
            },
            "renounceOwnership()": {
                "details": "Leaves the contract without owner. It will not be possible to call `onlyOwner` functions anymore. Can only be called by the current owner. NOTE: Renouncing ownership will leave the contract without an owner, thereby removing any functionality that is only available to the owner."
            },
            "setConfiguration((uint256,uint256,uint256,uint256,uint256,address,uint8,uint80,uint16))": {
                "params": {
                    "_config": "The new configuration."
                }
            },
            "setMinimumStakes(address[],uint256[])": {
                "params": {
                    "minimumStake": "An array of minimal amounts necessary for a corresponding token, in wei.",
                    "token": "An array of addresses of ERC-20 compatible tokens."
                }
            },
            "supportsInterface(bytes4)": {
                "details": "Returns true if this contract implements the interface defined by `interfaceId`. See the corresponding https://eips.ethereum.org/EIPS/eip-165#how-interfaces-are-identified[EIP section] to learn more about how these ids are created. This function call must use less than 30 000 gas."
            },
            "transferOwnership(address)": {
                "details": "Transfers ownership of the contract to a new account (`newOwner`). Can only be called by the current owner."
            },
            "versionHub()": {
                "returns": {
                    "_0": "a SemVer-compliant version of the `RelayHub` contract."
                }
            }
        },
        "title": "The RelayHub Implementation",
        "version": 1
    },
    "userdoc": {
        "events": {
            "AbandonedRelayManagerBalanceEscheated(address,uint256)": {
                "notice": "This event is emitted in case a `relayManager` has been deemed \"abandoned\" for being unresponsive for a prolonged period of time.This event means the entire balance of the relay has been transferred to the `devAddress`."
            },
            "Deposited(address,address,uint256)": {
                "notice": "Emitted when `depositFor` is called, including the amount and account that was funded."
            },
            "HubDeprecated(uint256)": {
                "notice": "This event is emitted in case this `RelayHub` is deprecated and will stop serving transactions soon."
            },
            "RelayHubConfigured((uint256,uint256,uint256,uint256,uint256,address,uint8,uint80,uint16))": {
                "notice": "Emitted when a configuration of the `RelayHub` is changed"
            },
            "RelayWorkersAdded(address,address[],uint256)": {
                "notice": "Emitted when relays are added by a relayManager"
            },
            "StakingTokenDataChanged(address,uint256)": {
                "notice": "Emitted for each token configured for staking in setMinimumStakes"
            },
            "TransactionRejectedByPaymaster(address,address,bytes32,address,address,address,bytes4,uint256,bytes)": {
                "notice": "Emitted when an attempt to relay a call fails and the `Paymaster` does not accept the transaction. The actual relayed call was not executed, and the recipient not charged."
            },
            "TransactionRelayed(address,address,bytes32,address,address,address,bytes4,uint8,uint256)": {
                "notice": "Emitted when a transaction is relayed. Note that the actual internal function call might be reverted. The reason for a revert will be indicated in the `status` field of a corresponding `RelayCallStatus` value.`charge` is the Ether value deducted from the `Paymaster` balance. The amount added to the `relayManager` balance will be lower if there is an activated `devFee` in the `config`."
            },
            "TransactionResult(uint8,bytes)": {
                "notice": "This event is emitted in case the internal function returns a value or reverts with a revert string."
            },
            "Withdrawn(address,address,uint256)": {
                "notice": "Emitted when an account withdraws funds from the `RelayHub`."
            }
        },
        "kind": "user",
        "methods": {
            "addRelayWorkers(address[])": {
                "notice": "Add new worker addresses controlled by the sender who must be a staked Relay Manager address. Emits a `RelayWorkersAdded` event. This function can be called multiple times, emitting new events."
            },
            "calculateCharge(uint256,(uint256,uint256,uint256,address,address,address,bytes,uint256))": {
                "notice": "The fee is expressed as a base fee in wei plus percentage of the actual charge. For example, a value '40' stands for a 40% fee, so the recipient will be charged for 1.4 times the spent amount."
            },
            "calculateDevCharge(uint256)": {
                "notice": "The fee is expressed as a  percentage of the actual charge. For example, a value '40' stands for a 40% fee, so the Relay Manager will only get 60% of the `charge`."
            },
            "depositFor(address)": {
                "notice": "Deposits ether for a `Paymaster`, so that it can and pay for relayed transactions. :warning: **Warning** :warning: Unused balance can only be withdrawn by the holder itself, by calling `withdraw`. Emits a `Deposited` event."
            },
            "deprecateHub(uint256)": {
                "notice": "Deprecate hub by reverting all incoming `relayCall()` calls starting from a given timestamp"
            },
            "escheatAbandonedRelayBalance(address)": {
                "notice": "@param relayManager"
            },
            "innerRelayCall(string,((address,address,uint256,uint256,uint256,bytes,uint256),(uint256,uint256,uint256,address,address,address,bytes,uint256)),bytes,bytes,(uint256,uint256,uint256,uint256),uint256,uint256)": {
                "notice": "This method can only by called by this `RelayHub`. It wraps the execution of the `RelayRequest` in a revertable frame context."
            },
            "isRelayEscheatable(address)": {
                "notice": "Uses `StakeManager` to check if the Relay Manager can be considered abandoned or not. Returns true if the stake's abandonment time is in the past including the escheatment delay, false otherwise."
            },
            "onRelayServerRegistered(address)": {
                "notice": "The `RelayRegistrar` callback to notify the `RelayHub` that this `relayManager` has updated registration."
            },
            "penalize(address,address)": {
                "notice": "In case the Relay Worker has been found to be in violation of some rules by the `Penalizer` contract, the `Penalizer` will call this method to execute a penalization. The `RelayHub` will look up the Relay Manager of the given Relay Worker and will forward the call to the `StakeManager` contract. The `RelayHub` does not perform the actual penalization either."
            },
            "relayCall(string,uint256,((address,address,uint256,uint256,uint256,bytes,uint256),(uint256,uint256,uint256,address,address,address,bytes,uint256)),bytes,bytes)": {
                "notice": "Relays a transaction. For this to succeed, multiple conditions must be met:  - `Paymaster`'s `preRelayCall` method must succeed and not revert.  - the `msg.sender` must be a registered Relay Worker that the user signed to use.  - the transaction's gas fees must be equal or larger than the ones that were signed by the sender.  - the transaction must have enough gas to run all internal transactions if they use all gas available to them.  - the `Paymaster` must have enough balance to pay the Relay Worker if all gas is spent.If all conditions are met, the call will be relayed and the `Paymaster` charged."
            },
            "setConfiguration((uint256,uint256,uint256,uint256,uint256,address,uint8,uint80,uint16))": {
                "notice": "Sets or changes the configuration of this `RelayHub`."
            },
            "setMinimumStakes(address[],uint256[])": {
                "notice": "Sets or changes the minimum amount of a given `token` that needs to be staked so that the Relay Manager is considered to be 'staked' by this `RelayHub`. Zero value means this token is not allowed for staking."
            },
            "verifyRelayManagerStaked(address)": {
                "notice": "Uses `StakeManager` to decide if the Relay Manager can be considered staked or not. Returns if the stake's token, amount and delay satisfy all requirements, reverts otherwise."
            },
            "withdraw(address,uint256)": {
                "notice": "Withdraws from an account's balance, sending it back to the caller. Relay Managers call this to retrieve their revenue, and `Paymasters` can also use it to reduce their funding. Emits a `Withdrawn` event."
            },
            "withdrawMultiple(address[],uint256[])": {
                "notice": "Withdraws from an account's balance, sending funds to multiple provided addresses. Relay Managers call this to retrieve their revenue, and `Paymasters` can also use it to reduce their funding. Emits a `Withdrawn` event for each destination."
            }
        },
        "notice": "This contract implements the `IRelayHub` interface for the EVM-compatible networks.",
        "version": 1
    }
}