{
    "contractName": "TestRelayHubValidator",
    "abi": [
        {
            "inputs": [
                {
                    "internalType": "string",
                    "name": "domainSeparatorName",
                    "type": "string"
                },
                {
                    "internalType": "uint256",
                    "name": "",
                    "type": "uint256"
                },
                {
                    "components": [
                        {
                            "components": [
                                {
                                    "internalType": "address",
                                    "name": "from",
                                    "type": "address"
                                },
                                {
                                    "internalType": "address",
                                    "name": "to",
                                    "type": "address"
                                },
                                {
                                    "internalType": "uint256",
                                    "name": "value",
                                    "type": "uint256"
                                },
                                {
                                    "internalType": "uint256",
                                    "name": "gas",
                                    "type": "uint256"
                                },
                                {
                                    "internalType": "uint256",
                                    "name": "nonce",
                                    "type": "uint256"
                                },
                                {
                                    "internalType": "bytes",
                                    "name": "data",
                                    "type": "bytes"
                                },
                                {
                                    "internalType": "uint256",
                                    "name": "validUntilTime",
                                    "type": "uint256"
                                }
                            ],
                            "internalType": "struct IForwarder.ForwardRequest",
                            "name": "request",
                            "type": "tuple"
                        },
                        {
                            "components": [
                                {
                                    "internalType": "uint256",
                                    "name": "maxFeePerGas",
                                    "type": "uint256"
                                },
                                {
                                    "internalType": "uint256",
                                    "name": "maxPriorityFeePerGas",
                                    "type": "uint256"
                                },
                                {
                                    "internalType": "uint256",
                                    "name": "transactionCalldataGasUsed",
                                    "type": "uint256"
                                },
                                {
                                    "internalType": "address",
                                    "name": "relayWorker",
                                    "type": "address"
                                },
                                {
                                    "internalType": "address",
                                    "name": "paymaster",
                                    "type": "address"
                                },
                                {
                                    "internalType": "address",
                                    "name": "forwarder",
                                    "type": "address"
                                },
                                {
                                    "internalType": "bytes",
                                    "name": "paymasterData",
                                    "type": "bytes"
                                },
                                {
                                    "internalType": "uint256",
                                    "name": "clientId",
                                    "type": "uint256"
                                }
                            ],
                            "internalType": "struct GsnTypes.RelayData",
                            "name": "relayData",
                            "type": "tuple"
                        }
                    ],
                    "internalType": "struct GsnTypes.RelayRequest",
                    "name": "relayRequest",
                    "type": "tuple"
                },
                {
                    "internalType": "bytes",
                    "name": "signature",
                    "type": "bytes"
                },
                {
                    "internalType": "bytes",
                    "name": "approvalData",
                    "type": "bytes"
                }
            ],
            "name": "dummyRelayCall",
            "outputs": [],
            "stateMutability": "nonpayable",
            "type": "function"
        },
        {
            "inputs": [
                {
                    "internalType": "bytes",
                    "name": "buf",
                    "type": "bytes"
                }
            ],
            "name": "dynamicParamSize",
            "outputs": [
                {
                    "internalType": "uint256",
                    "name": "",
                    "type": "uint256"
                }
            ],
            "stateMutability": "pure",
            "type": "function"
        }
    ],
    "bytecode": "0x608060405234801561001057600080fd5b506103f8806100206000396000f3fe608060405234801561001057600080fd5b50600436106100365760003560e01c806321b3a7e41461003b5780638787309d14610050575b600080fd5b61004e610049366004610230565b610075565b005b61006361005e3660046101ee565b61008e565b60405190815260200160405180910390f35b610084888887878787876100a1565b5050505050505050565b600061009a838361017f565b9392505050565b60006100c66100b36020880188610367565b6100c19060c0810190610300565b61017f565b6100e16100d38880610347565b6100c19060a0810190610300565b6100eb858561017f565b6100f5888861017f565b6100ff8c8c61017f565b61010b906102c461037d565b610115919061037d565b61011f919061037d565b610129919061037d565b610133919061037d565b90503681146100845760405162461bcd60e51b81526020600482015260146024820152736578747261206d73672e6461746120627974657360601b604482015260640160405180910390fd5b600061018e601f600019610395565b61019983601f61037d565b61009a9116602061037d565b60008083601f8401126101b757600080fd5b50813567ffffffffffffffff8111156101cf57600080fd5b6020830191508360208285010111156101e757600080fd5b9250929050565b6000806020838503121561020157600080fd5b823567ffffffffffffffff81111561021857600080fd5b610224858286016101a5565b90969095509350505050565b60008060008060008060008060a0898b03121561024c57600080fd5b883567ffffffffffffffff8082111561026457600080fd5b6102708c838d016101a5565b909a50985060208b0135975060408b013591508082111561029057600080fd5b908a01906040828d0312156102a457600080fd5b90955060608a013590808211156102ba57600080fd5b6102c68c838d016101a5565b909650945060808b01359150808211156102df57600080fd5b506102ec8b828c016101a5565b999c989b5096995094979396929594505050565b6000808335601e1984360301811261031757600080fd5b83018035915067ffffffffffffffff82111561033257600080fd5b6020019150368190038213156101e757600080fd5b6000823560de1983360301811261035d57600080fd5b9190910192915050565b6000823560fe1983360301811261035d57600080fd5b60008219821115610390576103906103ac565b500190565b6000828210156103a7576103a76103ac565b500390565b634e487b7160e01b600052601160045260246000fdfea264697066735822122079b547b5ba7704b9a7a5fc056f8e52d8c5fe17c91e4771165f73de3497af123664736f6c63430008070033",
    "immutableReferences": {},
    "source": "pragma solidity ^0.8.0;\npragma abicoder v2;\n\n// SPDX-License-Identifier: GPL-3.0-only\n\nimport \"../utils/RelayHubValidator.sol\";\n\ncontract TestRelayHubValidator {\n\n    //for testing purposes, we must be called from a method with same param signature as RelayCall\n    function dummyRelayCall(\n        string calldata domainSeparatorName,\n        uint256, //paymasterMaxAcceptanceBudget,\n        GsnTypes.RelayRequest calldata relayRequest,\n        bytes calldata signature,\n        bytes calldata approvalData\n    ) external {\n        RelayHubValidator.verifyTransactionPacking(domainSeparatorName, relayRequest, signature, approvalData);\n    }\n\n    // helper method for verifyTransactionPacking\n    function dynamicParamSize(bytes calldata buf) external pure returns (uint256) {\n        return RelayHubValidator.dynamicParamSize(buf);\n    }\n}",
    "sourcePath": "/Users/cameron/Rally/evm/gsn/packages/contracts/solpp/test/TestRelayHubValidator.sol",
    "compiler": {
        "name": "solc",
        "version": "0.8.7+commit.e28d00a7.Emscripten.clang"
    },
    "schemaVersion": "3.1.0",
    "updatedAt": "2023-06-08T13:50:08.511Z",
    "devdoc": {
        "kind": "dev",
        "methods": {},
        "version": 1
    },
    "userdoc": {
        "kind": "user",
        "methods": {},
        "version": 1
    }
}