{
    "contractName": "TestRecipientWithoutFallback",
    "abi": [
        {
            "inputs": [
                {
                    "internalType": "address",
                    "name": "forwarder",
                    "type": "address"
                }
            ],
            "stateMutability": "nonpayable",
            "type": "constructor"
        },
        {
            "inputs": [],
            "name": "getTrustedForwarder",
            "outputs": [
                {
                    "internalType": "address",
                    "name": "forwarder",
                    "type": "address"
                }
            ],
            "stateMutability": "view",
            "type": "function"
        },
        {
            "inputs": [
                {
                    "internalType": "address",
                    "name": "forwarder",
                    "type": "address"
                }
            ],
            "name": "isTrustedForwarder",
            "outputs": [
                {
                    "internalType": "bool",
                    "name": "",
                    "type": "bool"
                }
            ],
            "stateMutability": "view",
            "type": "function"
        }
    ],
    "bytecode": "0x608060405234801561001057600080fd5b5060405161017738038061017783398101604081905261002f91610050565b600080546001600160a01b0319166001600160a01b03831617905550610080565b60006020828403121561006257600080fd5b81516001600160a01b038116811461007957600080fd5b9392505050565b60e98061008e6000396000f3fe6080604052348015600f57600080fd5b506004361060325760003560e01c8063572b6c05146037578063ce1b815f14606b575b600080fd5b605660423660046085565b6000546001600160a01b0391821691161490565b60405190151581526020015b60405180910390f35b6000546040516001600160a01b0390911681526020016062565b600060208284031215609657600080fd5b81356001600160a01b038116811460ac57600080fd5b939250505056fea26469706673582212207e31454653af11d7e43cd4bab8a8a718122525c14334f235676d1c424c4232e664736f6c63430008070033",
    "immutableReferences": {},
    "source": "pragma solidity ^0.8.0;\n\n/* solhint-disable avoid-tx-origin */\n// SPDX-License-Identifier: GPL-3.0-only\n\nimport \"../utils/GsnUtils.sol\";\nimport \"../ERC2771Recipient.sol\";\nimport \"./TestPaymasterConfigurableMisbehavior.sol\";\n\ncontract TestRecipientWithoutFallback is ERC2771Recipient {\n\n    constructor(address forwarder) {\n        _setTrustedForwarder(forwarder);\n    }\n}",
    "sourcePath": "/Users/cameron/Rally/evm/gsn/packages/contracts/solpp/test/TestRecipientWithoutFallback.sol",
    "compiler": {
        "name": "solc",
        "version": "0.8.7+commit.e28d00a7.Emscripten.clang"
    },
    "schemaVersion": "3.1.0",
    "updatedAt": "2023-06-08T13:50:08.508Z",
    "devdoc": {
        "kind": "dev",
        "methods": {
            "getTrustedForwarder()": {
                "returns": {
                    "forwarder": "The address of the Forwarder contract that is being used."
                }
            },
            "isTrustedForwarder(address)": {
                "params": {
                    "forwarder": "The address of the Forwarder contract that is being used."
                },
                "returns": {
                    "_0": "isTrustedForwarder `true` if the Forwarder is trusted to forward relayed transactions by this Recipient."
                }
            }
        },
        "version": 1
    },
    "userdoc": {
        "kind": "user",
        "methods": {
            "getTrustedForwarder()": {
                "notice": ":warning: **Warning** :warning: The Forwarder can have a full control over your Recipient. Only trust verified Forwarder.Method is not a required method to allow Recipients to trust multiple Forwarders. Not recommended yet."
            },
            "isTrustedForwarder(address)": {
                "notice": ":warning: **Warning** :warning: The Forwarder can have a full control over your Recipient. Only trust verified Forwarder."
            }
        },
        "version": 1
    }
}