{
    "contractName": "TestRecipient",
    "abi": [
        {
            "inputs": [
                {
                    "internalType": "address",
                    "name": "forwarder",
                    "type": "address"
                }
            ],
            "stateMutability": "nonpayable",
            "type": "constructor"
        },
        {
            "anonymous": false,
            "inputs": [
                {
                    "indexed": false,
                    "internalType": "string",
                    "name": "message",
                    "type": "string"
                }
            ],
            "name": "Reverting",
            "type": "event"
        },
        {
            "anonymous": false,
            "inputs": [
                {
                    "indexed": false,
                    "internalType": "string",
                    "name": "message",
                    "type": "string"
                },
                {
                    "indexed": false,
                    "internalType": "address",
                    "name": "realSender",
                    "type": "address"
                },
                {
                    "indexed": false,
                    "internalType": "address",
                    "name": "msgSender",
                    "type": "address"
                },
                {
                    "indexed": false,
                    "internalType": "address",
                    "name": "origin",
                    "type": "address"
                },
                {
                    "indexed": false,
                    "internalType": "uint256",
                    "name": "msgValue",
                    "type": "uint256"
                },
                {
                    "indexed": false,
                    "internalType": "uint256",
                    "name": "gasLeft",
                    "type": "uint256"
                },
                {
                    "indexed": false,
                    "internalType": "uint256",
                    "name": "balance",
                    "type": "uint256"
                }
            ],
            "name": "SampleRecipientEmitted",
            "type": "event"
        },
        {
            "inputs": [],
            "name": "getTrustedForwarder",
            "outputs": [
                {
                    "internalType": "address",
                    "name": "forwarder",
                    "type": "address"
                }
            ],
            "stateMutability": "view",
            "type": "function"
        },
        {
            "inputs": [
                {
                    "internalType": "address",
                    "name": "forwarder",
                    "type": "address"
                }
            ],
            "name": "isTrustedForwarder",
            "outputs": [
                {
                    "internalType": "bool",
                    "name": "",
                    "type": "bool"
                }
            ],
            "stateMutability": "view",
            "type": "function"
        },
        {
            "inputs": [],
            "name": "paymaster",
            "outputs": [
                {
                    "internalType": "address payable",
                    "name": "",
                    "type": "address"
                }
            ],
            "stateMutability": "view",
            "type": "function"
        },
        {
            "stateMutability": "payable",
            "type": "receive"
        },
        {
            "inputs": [],
            "name": "testRevert",
            "outputs": [],
            "stateMutability": "nonpayable",
            "type": "function"
        },
        {
            "inputs": [
                {
                    "internalType": "address payable",
                    "name": "_paymaster",
                    "type": "address"
                }
            ],
            "name": "setWithdrawDuringRelayedCall",
            "outputs": [],
            "stateMutability": "nonpayable",
            "type": "function"
        },
        {
            "inputs": [],
            "name": "recipientRevert",
            "outputs": [],
            "stateMutability": "nonpayable",
            "type": "function"
        },
        {
            "inputs": [
                {
                    "internalType": "string",
                    "name": "message",
                    "type": "string"
                }
            ],
            "name": "emitMessage",
            "outputs": [
                {
                    "internalType": "string",
                    "name": "",
                    "type": "string"
                }
            ],
            "stateMutability": "payable",
            "type": "function"
        },
        {
            "inputs": [],
            "name": "withdrawAllBalance",
            "outputs": [],
            "stateMutability": "nonpayable",
            "type": "function"
        },
        {
            "inputs": [
                {
                    "internalType": "string",
                    "name": "message",
                    "type": "string"
                }
            ],
            "name": "dontEmitMessage",
            "outputs": [],
            "stateMutability": "nonpayable",
            "type": "function"
        },
        {
            "inputs": [],
            "name": "emitMessageNoParams",
            "outputs": [],
            "stateMutability": "nonpayable",
            "type": "function"
        },
        {
            "inputs": [
                {
                    "internalType": "uint256",
                    "name": "len",
                    "type": "uint256"
                },
                {
                    "internalType": "bool",
                    "name": "doRevert",
                    "type": "bool"
                }
            ],
            "name": "checkReturnValues",
            "outputs": [
                {
                    "internalType": "string",
                    "name": "",
                    "type": "string"
                }
            ],
            "stateMutability": "view",
            "type": "function"
        },
        {
            "inputs": [
                {
                    "internalType": "bool",
                    "name": "doRevert",
                    "type": "bool"
                }
            ],
            "name": "checkNoReturnValues",
            "outputs": [],
            "stateMutability": "view",
            "type": "function"
        }
    ],
    "bytecode": "0x608060405234801561001057600080fd5b506040516109e03803806109e083398101604081905261002f91610050565b600080546001600160a01b0319166001600160a01b03831617905550610080565b60006020828403121561006257600080fd5b81516001600160a01b038116811461007957600080fd5b9392505050565b6109518061008f6000396000f3fe6080604052600436106100ab5760003560e01c8063b51fab0a11610064578063b51fab0a146101bc578063b973c5a6146101db578063c095ad3c146101f0578063ce1b815f14610210578063dc59c90f1461022e578063de6e56f61461024357600080fd5b806316e4cbf9146100b75780632ac0df26146100f45780633b17eadc14610114578063572b6c051461012b5780638db93e3d1461016a578063a26388bb146101a757600080fd5b366100b257005b600080fd5b3480156100c357600080fd5b506001546100d7906001600160a01b031681565b6040516001600160a01b0390911681526020015b60405180910390f35b6101076101023660046106bd565b610263565b6040516100eb9190610800565b34801561012057600080fd5b50610129610309565b005b34801561013757600080fd5b5061015a61014636600461060c565b6000546001600160a01b0391821691161490565b60405190151581526020016100eb565b34801561017657600080fd5b5061012961018536600461060c565b600180546001600160a01b0319166001600160a01b0392909216919091179055565b3480156101b357600080fd5b50610129610394565b3480156101c857600080fd5b506101296101d736600461064b565b5050565b3480156101e757600080fd5b5061012961043c565b3480156101fc57600080fd5b5061012961020b366004610630565b610484565b34801561021c57600080fd5b506000546001600160a01b03166100d7565b34801561023a57600080fd5b5061012961048f565b34801561024f57600080fd5b5061010761025e366004610787565b61052f565b606060005a6001549091506001600160a01b03161561028457610284610309565b7f757e1fd4f3cac236f4594151fa8cb2b3f650fe76098389e524823b76ccbaaf41836102ae6105c3565b33323486476040516102c69796959493929190610813565b60405180910390a1505060408051808201909152601881527f656d69744d6573736167652072657475726e2076616c756500000000000000006020820152919050565b600160009054906101000a90046001600160a01b03166001600160a01b0316633b17eadc6040518163ffffffff1660e01b8152600401602060405180830381600087803b15801561035957600080fd5b505af115801561036d573d6000803e3d6000fd5b505050506040513d601f19601f82011682018060405250810190610391919061076e565b50565b30156103d55760405162461bcd60e51b815260206004820152600b60248201526a185b1dd85e5cc819985a5b60aa1b60448201526064015b60405180910390fd5b7f3f110cf99894407239c5fa1bf0523ea12b54ef6eb3e88be600b6a7f0ff76eb0e604051610432906020808252818101527f696620796f7520736565207468697320726576657274206661696c65642e2e2e604082015260600190565b60405180910390a1565b60405162461bcd60e51b815260206004820181905260248201527f74686973206d6574686f64207265766572747320636f6e73697374656e746c7960448201526064016103cc565b801561039157600080fd5b7f757e1fd4f3cac236f4594151fa8cb2b3f650fe76098389e524823b76ccbaaf416104b86105c3565b333260005a6040805160e08082526019908201527f4d6574686f642077697468206e6f20706172616d6574657273000000000000006101008201526001600160a01b03968716602082015294861690850152939091166060830152608082015260a08101919091524760c082015261012001610432565b606060006040518060c00160405280608f815260200161088d608f9139905083815110156105985760405162461bcd60e51b8152602060048201526016602482015275696e76616c6964206c656e3a20746f6f206c6172676560501b60448201526064016103cc565b8381528083156105bb5760405162461bcd60e51b81526004016103cc9190610800565b509392505050565b6000601436108015906105e057506000546001600160a01b031633145b156105f2575060131936013560601c90565b503390565b8035801515811461060757600080fd5b919050565b60006020828403121561061e57600080fd5b813561062981610877565b9392505050565b60006020828403121561064257600080fd5b610629826105f7565b6000806020838503121561065e57600080fd5b823567ffffffffffffffff8082111561067657600080fd5b818501915085601f83011261068a57600080fd5b81358181111561069957600080fd5b8660208285010111156106ab57600080fd5b60209290920196919550909350505050565b6000602082840312156106cf57600080fd5b813567ffffffffffffffff808211156106e757600080fd5b818401915084601f8301126106fb57600080fd5b81358181111561070d5761070d610861565b604051601f8201601f19908116603f0116810190838211818310171561073557610735610861565b8160405282815287602084870101111561074e57600080fd5b826020860160208301376000928101602001929092525095945050505050565b60006020828403121561078057600080fd5b5051919050565b6000806040838503121561079a57600080fd5b823591506107aa602084016105f7565b90509250929050565b6000815180845260005b818110156107d9576020818501810151868301820152016107bd565b818111156107eb576000602083870101525b50601f01601f19169290920160200192915050565b60208152600061062960208301846107b3565b60e08152600061082660e083018a6107b3565b6001600160a01b039889166020840152968816604083015250939095166060840152608083019190915260a082015260c00191909152919050565b634e487b7160e01b600052604160045260246000fd5b6001600160a01b038116811461039157600080fdfe746869732069732061206c6f6e67206d65737361676520746861742077652061726520676f696e6720746f2072657475726e206120736d616c6c20706172742066726f6d2e20776520646f6e2774207573652061206c6f6f702073696e63652077652077616e74206120666978656420676173207573616765206f6620746865206d6574686f6420697473656c662ea2646970667358221220fcf239d3becfb43b020c4bbe8af532dc3cfb511d902871ff07f16f6c55426f6c64736f6c63430008070033",
    "immutableReferences": {},
    "source": "pragma solidity ^0.8.0;\n\n/* solhint-disable avoid-tx-origin */\n// SPDX-License-Identifier: GPL-3.0-only\n\nimport \"../utils/GsnUtils.sol\";\nimport \"../ERC2771Recipient.sol\";\nimport \"./TestPaymasterConfigurableMisbehavior.sol\";\n\ncontract TestRecipient is ERC2771Recipient {\n\n    constructor(address forwarder) {\n        _setTrustedForwarder(forwarder);\n    }\n\n    event Reverting(string message);\n\n    function testRevert() public {\n        require(address(this) == address(0), \"always fail\");\n        emit Reverting(\"if you see this revert failed...\");\n    }\n\n    address payable public paymaster;\n\n    function setWithdrawDuringRelayedCall(address payable _paymaster) public {\n        paymaster = _paymaster;\n    }\n\n    // solhint-disable-next-line no-empty-blocks\n    receive() external payable {}\n\n    event SampleRecipientEmitted(string message, address realSender, address msgSender, address origin, uint256 msgValue, uint256 gasLeft, uint256 balance);\n\n    function recipientRevert() public {\n        revert(\"this method reverts consistently\");\n    }\n\n    function emitMessage(string memory message) public payable returns (string memory) {\n        uint256 gasLeft = gasleft();\n        if (paymaster != address(0)) {\n            withdrawAllBalance();\n        }\n\n        emit SampleRecipientEmitted(message, _msgSender(), msg.sender, tx.origin, msg.value, gasLeft, address(this).balance);\n        return \"emitMessage return value\";\n    }\n\n    function withdrawAllBalance() public {\n        TestPaymasterConfigurableMisbehavior(paymaster).withdrawAllBalance();\n    }\n\n    // solhint-disable-next-line no-empty-blocks\n    function dontEmitMessage(string calldata message) public {}\n\n    function emitMessageNoParams() public {\n        emit SampleRecipientEmitted(\"Method with no parameters\", _msgSender(), msg.sender, tx.origin, 0, gasleft(), address(this).balance);\n    }\n\n    //return (or revert) with a string in the given length\n    function checkReturnValues(uint256 len, bool doRevert) public view returns (string memory) {\n        (this);\n        string memory mesg = \"this is a long message that we are going to return a small part from. we don't use a loop since we want a fixed gas usage of the method itself.\";\n        require( bytes(mesg).length>=len, \"invalid len: too large\");\n\n        /* solhint-disable no-inline-assembly */\n        //cut the msg at that length\n        assembly { mstore(mesg, len) }\n        require(!doRevert, mesg);\n        return mesg;\n    }\n\n    //function with no return value (also test revert with no msg.\n    function checkNoReturnValues(bool doRevert) public view {\n        (this);\n        /* solhint-disable reason-string*/\n        require(!doRevert);\n    }\n\n}",
    "sourcePath": "/Users/cameron/Rally/evm/gsn/packages/contracts/solpp/test/TestRecipient.sol",
    "compiler": {
        "name": "solc",
        "version": "0.8.7+commit.e28d00a7.Emscripten.clang"
    },
    "schemaVersion": "3.1.0",
    "updatedAt": "2023-06-08T13:50:08.505Z",
    "devdoc": {
        "kind": "dev",
        "methods": {
            "getTrustedForwarder()": {
                "returns": {
                    "forwarder": "The address of the Forwarder contract that is being used."
                }
            },
            "isTrustedForwarder(address)": {
                "params": {
                    "forwarder": "The address of the Forwarder contract that is being used."
                },
                "returns": {
                    "_0": "isTrustedForwarder `true` if the Forwarder is trusted to forward relayed transactions by this Recipient."
                }
            }
        },
        "version": 1
    },
    "userdoc": {
        "kind": "user",
        "methods": {
            "getTrustedForwarder()": {
                "notice": ":warning: **Warning** :warning: The Forwarder can have a full control over your Recipient. Only trust verified Forwarder.Method is not a required method to allow Recipients to trust multiple Forwarders. Not recommended yet."
            },
            "isTrustedForwarder(address)": {
                "notice": ":warning: **Warning** :warning: The Forwarder can have a full control over your Recipient. Only trust verified Forwarder."
            }
        },
        "version": 1
    }
}