{
    "contractName": "TestGatewayForwarder",
    "abi": [
        {
            "anonymous": false,
            "inputs": [
                {
                    "indexed": true,
                    "internalType": "bytes32",
                    "name": "domainSeparator",
                    "type": "bytes32"
                },
                {
                    "indexed": false,
                    "internalType": "bytes",
                    "name": "domainValue",
                    "type": "bytes"
                }
            ],
            "name": "DomainRegistered",
            "type": "event"
        },
        {
            "anonymous": false,
            "inputs": [
                {
                    "indexed": true,
                    "internalType": "bytes32",
                    "name": "typeHash",
                    "type": "bytes32"
                },
                {
                    "indexed": false,
                    "internalType": "string",
                    "name": "typeStr",
                    "type": "string"
                }
            ],
            "name": "RequestTypeRegistered",
            "type": "event"
        },
        {
            "inputs": [],
            "name": "EIP712_DOMAIN_TYPE",
            "outputs": [
                {
                    "internalType": "string",
                    "name": "",
                    "type": "string"
                }
            ],
            "stateMutability": "view",
            "type": "function"
        },
        {
            "inputs": [],
            "name": "GENERIC_PARAMS",
            "outputs": [
                {
                    "internalType": "string",
                    "name": "",
                    "type": "string"
                }
            ],
            "stateMutability": "view",
            "type": "function"
        },
        {
            "inputs": [
                {
                    "components": [
                        {
                            "internalType": "address",
                            "name": "from",
                            "type": "address"
                        },
                        {
                            "internalType": "address",
                            "name": "to",
                            "type": "address"
                        },
                        {
                            "internalType": "uint256",
                            "name": "value",
                            "type": "uint256"
                        },
                        {
                            "internalType": "uint256",
                            "name": "gas",
                            "type": "uint256"
                        },
                        {
                            "internalType": "uint256",
                            "name": "nonce",
                            "type": "uint256"
                        },
                        {
                            "internalType": "bytes",
                            "name": "data",
                            "type": "bytes"
                        },
                        {
                            "internalType": "uint256",
                            "name": "validUntilTime",
                            "type": "uint256"
                        }
                    ],
                    "internalType": "struct IForwarder.ForwardRequest",
                    "name": "req",
                    "type": "tuple"
                },
                {
                    "internalType": "bytes32",
                    "name": "requestTypeHash",
                    "type": "bytes32"
                },
                {
                    "internalType": "bytes",
                    "name": "suffixData",
                    "type": "bytes"
                }
            ],
            "name": "_getEncoded",
            "outputs": [
                {
                    "internalType": "bytes",
                    "name": "",
                    "type": "bytes"
                }
            ],
            "stateMutability": "pure",
            "type": "function"
        },
        {
            "inputs": [
                {
                    "internalType": "bytes32",
                    "name": "",
                    "type": "bytes32"
                }
            ],
            "name": "domains",
            "outputs": [
                {
                    "internalType": "bool",
                    "name": "",
                    "type": "bool"
                }
            ],
            "stateMutability": "view",
            "type": "function"
        },
        {
            "inputs": [
                {
                    "components": [
                        {
                            "internalType": "address",
                            "name": "from",
                            "type": "address"
                        },
                        {
                            "internalType": "address",
                            "name": "to",
                            "type": "address"
                        },
                        {
                            "internalType": "uint256",
                            "name": "value",
                            "type": "uint256"
                        },
                        {
                            "internalType": "uint256",
                            "name": "gas",
                            "type": "uint256"
                        },
                        {
                            "internalType": "uint256",
                            "name": "nonce",
                            "type": "uint256"
                        },
                        {
                            "internalType": "bytes",
                            "name": "data",
                            "type": "bytes"
                        },
                        {
                            "internalType": "uint256",
                            "name": "validUntilTime",
                            "type": "uint256"
                        }
                    ],
                    "internalType": "struct IForwarder.ForwardRequest",
                    "name": "req",
                    "type": "tuple"
                },
                {
                    "internalType": "bytes32",
                    "name": "domainSeparator",
                    "type": "bytes32"
                },
                {
                    "internalType": "bytes32",
                    "name": "requestTypeHash",
                    "type": "bytes32"
                },
                {
                    "internalType": "bytes",
                    "name": "suffixData",
                    "type": "bytes"
                },
                {
                    "internalType": "bytes",
                    "name": "sig",
                    "type": "bytes"
                }
            ],
            "name": "execute",
            "outputs": [
                {
                    "internalType": "bool",
                    "name": "success",
                    "type": "bool"
                },
                {
                    "internalType": "bytes",
                    "name": "ret",
                    "type": "bytes"
                }
            ],
            "stateMutability": "payable",
            "type": "function"
        },
        {
            "inputs": [
                {
                    "internalType": "address",
                    "name": "from",
                    "type": "address"
                }
            ],
            "name": "getNonce",
            "outputs": [
                {
                    "internalType": "uint256",
                    "name": "",
                    "type": "uint256"
                }
            ],
            "stateMutability": "view",
            "type": "function"
        },
        {
            "inputs": [
                {
                    "internalType": "string",
                    "name": "name",
                    "type": "string"
                },
                {
                    "internalType": "string",
                    "name": "version",
                    "type": "string"
                }
            ],
            "name": "registerDomainSeparator",
            "outputs": [],
            "stateMutability": "nonpayable",
            "type": "function"
        },
        {
            "inputs": [
                {
                    "internalType": "string",
                    "name": "typeName",
                    "type": "string"
                },
                {
                    "internalType": "string",
                    "name": "typeSuffix",
                    "type": "string"
                }
            ],
            "name": "registerRequestType",
            "outputs": [],
            "stateMutability": "nonpayable",
            "type": "function"
        },
        {
            "inputs": [
                {
                    "internalType": "bytes4",
                    "name": "interfaceId",
                    "type": "bytes4"
                }
            ],
            "name": "supportsInterface",
            "outputs": [
                {
                    "internalType": "bool",
                    "name": "",
                    "type": "bool"
                }
            ],
            "stateMutability": "view",
            "type": "function"
        },
        {
            "inputs": [],
            "name": "trustedRelayHub",
            "outputs": [
                {
                    "internalType": "address",
                    "name": "",
                    "type": "address"
                }
            ],
            "stateMutability": "view",
            "type": "function"
        },
        {
            "inputs": [
                {
                    "internalType": "bytes32",
                    "name": "",
                    "type": "bytes32"
                }
            ],
            "name": "typeHashes",
            "outputs": [
                {
                    "internalType": "bool",
                    "name": "",
                    "type": "bool"
                }
            ],
            "stateMutability": "view",
            "type": "function"
        },
        {
            "inputs": [
                {
                    "components": [
                        {
                            "internalType": "address",
                            "name": "from",
                            "type": "address"
                        },
                        {
                            "internalType": "address",
                            "name": "to",
                            "type": "address"
                        },
                        {
                            "internalType": "uint256",
                            "name": "value",
                            "type": "uint256"
                        },
                        {
                            "internalType": "uint256",
                            "name": "gas",
                            "type": "uint256"
                        },
                        {
                            "internalType": "uint256",
                            "name": "nonce",
                            "type": "uint256"
                        },
                        {
                            "internalType": "bytes",
                            "name": "data",
                            "type": "bytes"
                        },
                        {
                            "internalType": "uint256",
                            "name": "validUntilTime",
                            "type": "uint256"
                        }
                    ],
                    "internalType": "struct IForwarder.ForwardRequest",
                    "name": "req",
                    "type": "tuple"
                },
                {
                    "internalType": "bytes32",
                    "name": "domainSeparator",
                    "type": "bytes32"
                },
                {
                    "internalType": "bytes32",
                    "name": "requestTypeHash",
                    "type": "bytes32"
                },
                {
                    "internalType": "bytes",
                    "name": "suffixData",
                    "type": "bytes"
                },
                {
                    "internalType": "bytes",
                    "name": "sig",
                    "type": "bytes"
                }
            ],
            "name": "verify",
            "outputs": [],
            "stateMutability": "view",
            "type": "function"
        },
        {
            "stateMutability": "payable",
            "type": "receive"
        },
        {
            "inputs": [
                {
                    "internalType": "address",
                    "name": "_trustedRelayHub",
                    "type": "address"
                }
            ],
            "name": "setTrustedRelayHub",
            "outputs": [],
            "stateMutability": "nonpayable",
            "type": "function"
        }
    ],
    "bytecode": "0x60806040523480156200001157600080fd5b5060006040518060a0016040528060618152602001620016eb60619139604051602001620000409190620000c8565b60408051601f1981840301815291905290506200005d8162000064565b5062000174565b8051602080830191909120600081815291829052604091829020805460ff19166001179055905181907f64d6bce64323458c44643c51fe45113efc882082f7b7fd5f09f0d69d2eedb20290620000bc9085906200010c565b60405180910390a25050565b6e08cdee4eec2e4c8a4cae2eacae6e85608b1b815260008251620000f481600f85016020870162000141565b602960f81b600f939091019283015250601001919050565b60208152600082518060208401526200012d81604085016020870162000141565b601f01601f19169190910160400192915050565b60005b838110156200015e57818101518382015260200162000144565b838111156200016e576000848401525b50505050565b61156780620001846000396000f3fe6080604052600436106100c65760003560e01c8063ad9f99c71161007f578063cfbd30ed11610059578063cfbd30ed1461025c578063d9210be514610299578063e024dc7f146102b9578063e2b62f2d146102da57600080fd5b8063ad9f99c7146101f7578063c3f28abd14610217578063c722f1771461022c57600080fd5b806301ffc9a7146100d2578063066a310c1461010757806321fe98df146101295780632d0335ab1461015957806344e013401461019d5780639c7b4592146101d557600080fd5b366100cd57005b600080fd5b3480156100de57600080fd5b506100f26100ed366004611040565b6102fa565b60405190151581526020015b60405180910390f35b34801561011357600080fd5b5061011c610331565b6040516100fe919061131a565b34801561013557600080fd5b506100f2610144366004611027565b60006020819052908152604090205460ff1681565b34801561016557600080fd5b5061018f610174366004610ff7565b6001600160a01b031660009081526002602052604090205490565b6040519081526020016100fe565b3480156101a957600080fd5b506003546101bd906001600160a01b031681565b6040516001600160a01b0390911681526020016100fe565b3480156101e157600080fd5b506101f56101f036600461106a565b61034d565b005b34801561020357600080fd5b506101f56102123660046110d6565b610444565b34801561022357600080fd5b5061011c610465565b34801561023857600080fd5b506100f2610247366004611027565b60016020526000908152604090205460ff1681565b34801561026857600080fd5b506101f5610277366004610ff7565b600380546001600160a01b0319166001600160a01b0392909216919091179055565b3480156102a557600080fd5b506101f56102b436600461106a565b610481565b6102cc6102c73660046110d6565b610584565b6040516100fe9291906112f7565b3480156102e657600080fd5b5061011c6102f536600461117e565b6107e2565b60006001600160e01b031982166309788f9960e21b148061032b57506301ffc9a760e01b6001600160e01b03198316145b92915050565b6040518060a001604052806061815260200161147f6061913981565b600046905060006040518060800160405280605281526020016114e060529139805190602001208686604051610384929190611253565b6040518091039020858560405161039c929190611253565b6040805191829003822060208301949094528101919091526060810191909152608081018390523060a082015260c00160408051601f198184030181528282528051602080830191909120600081815260019283905293909320805460ff1916909117905592509081907f4bc68689cbe89a4a6333a3ab0a70093874da3e5bfb71e93102027f3f073687d89061043390859061131a565b60405180910390a250505050505050565b61044d8761087c565b61045c878787878787876108f9565b50505050505050565b6040518060800160405280605281526020016114e06052913981565b60005b8381101561052f5760008585838181106104a0576104a0611468565b909101356001600160f81b031916915050600560fb1b81148015906104d35750602960f81b6001600160f81b0319821614155b61051c5760405162461bcd60e51b81526020600482015260156024820152744657443a20696e76616c696420747970656e616d6560581b60448201526064015b60405180910390fd5b508061052781611421565b915050610484565b50600084846040518060a001604052806061815260200161147f6061913985856040516020016105639594939291906112a5565b604051602081830303815290604052905061057d81610926565b5050505050565b60006060610597898989898989896108f9565b6105a089610988565b60c089013515806105b45750428960c00135115b6105f75760405162461bcd60e51b81526020600482015260146024820152731195d10e881c995c5d595cdd08195e1c1a5c995960621b6044820152606401610513565b600060408a0135156106085750619c405b600061061760a08c018c611351565b61062460208e018e610ff7565b60405160200161063693929190611263565b60408051601f1981840301815291905290506106568260608d0135611398565b60405a61066490603f6113d2565b61066e91906113b0565b10156106b45760405162461bcd60e51b81526020600482015260156024820152744657443a20696e73756666696369656e742067617360581b6044820152606401610513565b6106c460408c0160208d01610ff7565b6001600160a01b03168b606001358c60400135836040516106e59190611289565b600060405180830381858888f193505050503d8060008114610723576040519150601f19603f3d011682016040523d82523d6000602084013e610728565b606091505b506040805180820190915260208082527f6578656375746520726573756c743a20737563636573733a202573207265743a90820152919550935061076c9085610a0c565b61077583610a55565b60408b0135158015906107885750600047115b156107d45761079a60208c018c610ff7565b6001600160a01b03166108fc479081150290604051600060405180830381858888f193505050501580156107d2573d6000803e3d6000fd5b505b505097509795505050505050565b6060836107f26020870187610ff7565b6001600160a01b031661080b6040880160208901610ff7565b6001600160a01b03166040880135606089013560808a013561083060a08c018c611351565b60405161083e929190611253565b6040519081900381206108639796959493929160c08e0135908c908c90602001611201565b6040516020818303038152906040529050949350505050565b6080810135600260006108926020850185610ff7565b6001600160a01b03166001600160a01b0316815260200190815260200160002054146108f65760405162461bcd60e51b815260206004820152601360248201527208cae887440dcdedcc6ca40dad2e6dac2e8c6d606b1b6044820152606401610513565b50565b6003546001600160a01b03163314158061091257508015155b1561045c5761045c87878787878787610a98565b8051602080830191909120600081815291829052604091829020805460ff19166001179055905181907f64d6bce64323458c44643c51fe45113efc882082f7b7fd5f09f0d69d2eedb2029061097c90859061131a565b60405180910390a25050565b60808101356002600061099e6020850185610ff7565b6001600160a01b03168152602081019190915260400160009081208054916109c583611421565b91905055146108f65760405162461bcd60e51b815260206004820152601360248201527208cae887440dcdedcc6ca40dad2e6dac2e8c6d606b1b6044820152606401610513565b610a518282604051602401610a2292919061132d565b60408051601f198184030181529190526020810180516001600160e01b031663c3b5563560e01b179052610c6a565b5050565b6108f681604051602401610a69919061131a565b60408051601f198184030181529190526020810180516001600160e01b03166305f3bfab60e11b179052610c6a565b60008681526001602052604090205460ff16610af65760405162461bcd60e51b815260206004820152601d60248201527f4657443a20756e7265676973746572656420646f6d61696e207365702e0000006044820152606401610513565b60008581526020819052604090205460ff16610b545760405162461bcd60e51b815260206004820152601a60248201527f4657443a20756e726567697374657265642074797065686173680000000000006044820152606401610513565b600086610b63898888886107e2565b8051602091820120604051610b8f93920161190160f01b81526002810192909252602282015260420190565b60408051601f1981840301815291905280516020909101209050321580610c145750610bbe6020890189610ff7565b6001600160a01b0316610c0984848080601f0160208091040260200160405190810160405280939291908181526020018383808284376000920191909152508693925050610c8b9050565b6001600160a01b0316145b610c605760405162461bcd60e51b815260206004820152601760248201527f4657443a207369676e6174757265206d69736d617463680000000000000000006044820152606401610513565b5050505050505050565b80516a636f6e736f6c652e6c6f67602083016000808483855afa5050505050565b6000806000610c9a8585610caf565b91509150610ca781610cf5565b509392505050565b600080825160411415610ce65760208301516040840151606085015160001a610cda87828585610eb0565b94509450505050610cee565b506000905060025b9250929050565b6000816004811115610d0957610d09611452565b1415610d125750565b6001816004811115610d2657610d26611452565b1415610d745760405162461bcd60e51b815260206004820152601860248201527f45434453413a20696e76616c6964207369676e617475726500000000000000006044820152606401610513565b6002816004811115610d8857610d88611452565b1415610dd65760405162461bcd60e51b815260206004820152601f60248201527f45434453413a20696e76616c6964207369676e6174757265206c656e677468006044820152606401610513565b6003816004811115610dea57610dea611452565b1415610e435760405162461bcd60e51b815260206004820152602260248201527f45434453413a20696e76616c6964207369676e6174757265202773272076616c604482015261756560f01b6064820152608401610513565b6004816004811115610e5757610e57611452565b14156108f65760405162461bcd60e51b815260206004820152602260248201527f45434453413a20696e76616c6964207369676e6174757265202776272076616c604482015261756560f01b6064820152608401610513565b6000807f7fffffffffffffffffffffffffffffff5d576e7357a4501ddfe92f46681b20a0831115610ee75750600090506003610f94565b8460ff16601b14158015610eff57508460ff16601c14155b15610f105750600090506004610f94565b6040805160008082526020820180845289905260ff881692820192909252606081018690526080810185905260019060a0016020604051602081039080840390855afa158015610f64573d6000803e3d6000fd5b5050604051601f1901519150506001600160a01b038116610f8d57600060019250925050610f94565b9150600090505b94509492505050565b60008083601f840112610faf57600080fd5b50813567ffffffffffffffff811115610fc757600080fd5b602083019150836020828501011115610cee57600080fd5b600060e08284031215610ff157600080fd5b50919050565b60006020828403121561100957600080fd5b81356001600160a01b038116811461102057600080fd5b9392505050565b60006020828403121561103957600080fd5b5035919050565b60006020828403121561105257600080fd5b81356001600160e01b03198116811461102057600080fd5b6000806000806040858703121561108057600080fd5b843567ffffffffffffffff8082111561109857600080fd5b6110a488838901610f9d565b909650945060208701359150808211156110bd57600080fd5b506110ca87828801610f9d565b95989497509550505050565b600080600080600080600060a0888a0312156110f157600080fd5b873567ffffffffffffffff8082111561110957600080fd5b6111158b838c01610fdf565b985060208a0135975060408a0135965060608a013591508082111561113957600080fd5b6111458b838c01610f9d565b909650945060808a013591508082111561115e57600080fd5b5061116b8a828b01610f9d565b989b979a50959850939692959293505050565b6000806000806060858703121561119457600080fd5b843567ffffffffffffffff808211156111ac57600080fd5b6111b888838901610fdf565b95506020870135945060408701359150808211156110bd57600080fd5b600081518084526111ed8160208601602086016113f1565b601f01601f19169290920160200192915050565b8a81528960208201528860408201528760608201528660808201528560a08201528460c08201528360e082015260006101008385828501376000929093019092019081529a9950505050505050505050565b8183823760009101908152919050565b8284823760609190911b6bffffffffffffffffffffffff19169101908152601401919050565b6000825161129b8184602087016113f1565b9190910192915050565b84868237600085820160008152600560fb1b815285516112cc816001840160208a016113f1565b600b60fa1b600192909101918201528385600283013760009301600201928352509095945050505050565b821515815260406020820152600061131260408301846111d5565b949350505050565b60208152600061102060208301846111d5565b60408152600061134060408301856111d5565b905082151560208301529392505050565b6000808335601e1984360301811261136857600080fd5b83018035915067ffffffffffffffff82111561138357600080fd5b602001915036819003821315610cee57600080fd5b600082198211156113ab576113ab61143c565b500190565b6000826113cd57634e487b7160e01b600052601260045260246000fd5b500490565b60008160001904831182151516156113ec576113ec61143c565b500290565b60005b8381101561140c5781810151838201526020016113f4565b8381111561141b576000848401525b50505050565b60006000198214156114355761143561143c565b5060010190565b634e487b7160e01b600052601160045260246000fd5b634e487b7160e01b600052602160045260246000fd5b634e487b7160e01b600052603260045260246000fdfe616464726573732066726f6d2c6164647265737320746f2c75696e743235362076616c75652c75696e74323536206761732c75696e74323536206e6f6e63652c627974657320646174612c75696e743235362076616c6964556e74696c54696d65454950373132446f6d61696e28737472696e67206e616d652c737472696e672076657273696f6e2c75696e7432353620636861696e49642c6164647265737320766572696679696e67436f6e747261637429a2646970667358221220c6ca79bbb1513cf8cf0f41064239db96951c1225ba25cf667897ea704525039d64736f6c63430008070033616464726573732066726f6d2c6164647265737320746f2c75696e743235362076616c75652c75696e74323536206761732c75696e74323536206e6f6e63652c627974657320646174612c75696e743235362076616c6964556e74696c54696d65",
    "immutableReferences": {},
    "source": "pragma solidity ^0.8.0;\npragma abicoder v2;\n\n// SPDX-License-Identifier: GPL-3.0-only\n\nimport \"../forwarder/Forwarder.sol\";\n\ncontract TestGatewayForwarder is Forwarder {\n    address public trustedRelayHub;\n\n    function setTrustedRelayHub(address _trustedRelayHub) external {\n        trustedRelayHub = _trustedRelayHub;\n    }\n\n    function _verifySig(\n        ForwardRequest calldata req,\n        bytes32 domainSeparator,\n        bytes32 requestTypeHash,\n        bytes calldata suffixData,\n        bytes calldata sig)\n    internal\n    override\n    view\n    {\n        // trustedRelayHub can only be called from a verified Gateway where the signatures are actually checked\n        // note that if signature field is set, it will be verified in this Forwarder anyway\n        if (msg.sender != trustedRelayHub || sig.length != 0) {\n            super._verifySig(req, domainSeparator, requestTypeHash, suffixData, sig);\n        }\n    }\n}",
    "sourcePath": "/Users/cameron/Rally/evm/gsn/packages/contracts/solpp/test/TestGatewayForwarder.sol",
    "compiler": {
        "name": "solc",
        "version": "0.8.7+commit.e28d00a7.Emscripten.clang"
    },
    "schemaVersion": "3.1.0",
    "updatedAt": "2023-06-08T13:50:08.492Z",
    "devdoc": {
        "kind": "dev",
        "methods": {
            "execute((address,address,uint256,uint256,uint256,bytes,uint256),bytes32,bytes32,bytes,bytes)": {
                "params": {
                    "domainSeparator": "The domain used when signing this request.",
                    "forwardRequest": "All requested transaction parameters.",
                    "requestTypeHash": "The request type used when signing this request.",
                    "signature": "The client signature to be validated.",
                    "suffixData": "The ABI-encoded extension data for the current `RequestType` used when signing this request."
                },
                "returns": {
                    "ret": "The byte array returned by the underlying `CALL` to the target address.",
                    "success": "The success flag of the underlying `CALL` to the target address."
                }
            },
            "getNonce(address)": {
                "params": {
                    "from": "The address of a sender."
                },
                "returns": {
                    "_0": "The nonce for this address."
                }
            },
            "registerDomainSeparator(string,string)": {
                "params": {
                    "name": "The domain's display name.",
                    "version": "The domain/protocol version."
                }
            },
            "registerRequestType(string,string)": {
                "params": {
                    "typeName": "The name of the request type.",
                    "typeSuffix": "Any extra data after the generic params. Must contain add at least one param. The generic ForwardRequest type is always registered by the constructor."
                }
            },
            "supportsInterface(bytes4)": {
                "details": "Returns true if this contract implements the interface defined by `interfaceId`. See the corresponding https://eips.ethereum.org/EIPS/eip-165#how-interfaces-are-identified[EIP section] to learn more about how these ids are created. This function call must use less than 30 000 gas."
            }
        },
        "version": 1
    },
    "userdoc": {
        "kind": "user",
        "methods": {
            "_getEncoded((address,address,uint256,uint256,uint256,bytes,uint256),bytes32,bytes)": {
                "notice": "Creates a byte array that is a valid ABI encoding of a request of a `RequestType` type. See `execute()`."
            },
            "execute((address,address,uint256,uint256,uint256,bytes,uint256),bytes32,bytes32,bytes,bytes)": {
                "notice": "Executes a transaction specified by the `ForwardRequest`. The transaction is first verified and then executed. The success flag and returned bytes array of the `CALL` are returned as-is. This method would revert only in case of a verification error. All the target errors are reported using the returned success flag and returned bytes array."
            },
            "registerDomainSeparator(string,string)": {
                "notice": "Register a new domain separator.This is necessary for the Forwarder to be able to verify the signatures conforming to the ERC-712.The domain separator must have the following fields: `name`, `version`, `chainId`, `verifyingContract`. The `chainId` is the current network's `chainId`, and the `verifyingContract` is this Forwarder's address. This method accepts the domain name and version to create and register the domain separator value."
            },
            "registerRequestType(string,string)": {
                "notice": "Register a new Request typehash.This is necessary for the Forwarder to be able to verify the signatures conforming to the ERC-712."
            },
            "verify((address,address,uint256,uint256,uint256,bytes,uint256),bytes32,bytes32,bytes,bytes)": {
                "notice": "Verify the transaction is valid and can be executed. Implementations must validate the signature and the nonce of the request are correct. Does not revert and returns successfully if the input is valid. Reverts if any validation has failed. For instance, if either signature or nonce are incorrect. Reverts if `domainSeparator` or `requestTypeHash` are not registered as well."
            }
        },
        "version": 1
    }
}