{
    "contractName": "TestUtil",
    "abi": [
        {
            "anonymous": false,
            "inputs": [
                {
                    "indexed": false,
                    "internalType": "bool",
                    "name": "success",
                    "type": "bool"
                },
                {
                    "indexed": false,
                    "internalType": "bytes",
                    "name": "error",
                    "type": "bytes"
                }
            ],
            "name": "Called",
            "type": "event"
        },
        {
            "inputs": [],
            "name": "libRelayRequestName",
            "outputs": [
                {
                    "internalType": "string",
                    "name": "",
                    "type": "string"
                }
            ],
            "stateMutability": "pure",
            "type": "function"
        },
        {
            "inputs": [],
            "name": "libRelayRequestType",
            "outputs": [
                {
                    "internalType": "string",
                    "name": "",
                    "type": "string"
                }
            ],
            "stateMutability": "pure",
            "type": "function"
        },
        {
            "inputs": [],
            "name": "libRelayRequestTypeHash",
            "outputs": [
                {
                    "internalType": "bytes32",
                    "name": "",
                    "type": "bytes32"
                }
            ],
            "stateMutability": "pure",
            "type": "function"
        },
        {
            "inputs": [],
            "name": "libRelayRequestSuffix",
            "outputs": [
                {
                    "internalType": "string",
                    "name": "",
                    "type": "string"
                }
            ],
            "stateMutability": "pure",
            "type": "function"
        },
        {
            "inputs": [
                {
                    "components": [
                        {
                            "components": [
                                {
                                    "internalType": "address",
                                    "name": "from",
                                    "type": "address"
                                },
                                {
                                    "internalType": "address",
                                    "name": "to",
                                    "type": "address"
                                },
                                {
                                    "internalType": "uint256",
                                    "name": "value",
                                    "type": "uint256"
                                },
                                {
                                    "internalType": "uint256",
                                    "name": "gas",
                                    "type": "uint256"
                                },
                                {
                                    "internalType": "uint256",
                                    "name": "nonce",
                                    "type": "uint256"
                                },
                                {
                                    "internalType": "bytes",
                                    "name": "data",
                                    "type": "bytes"
                                },
                                {
                                    "internalType": "uint256",
                                    "name": "validUntilTime",
                                    "type": "uint256"
                                }
                            ],
                            "internalType": "struct IForwarder.ForwardRequest",
                            "name": "request",
                            "type": "tuple"
                        },
                        {
                            "components": [
                                {
                                    "internalType": "uint256",
                                    "name": "maxFeePerGas",
                                    "type": "uint256"
                                },
                                {
                                    "internalType": "uint256",
                                    "name": "maxPriorityFeePerGas",
                                    "type": "uint256"
                                },
                                {
                                    "internalType": "uint256",
                                    "name": "transactionCalldataGasUsed",
                                    "type": "uint256"
                                },
                                {
                                    "internalType": "address",
                                    "name": "relayWorker",
                                    "type": "address"
                                },
                                {
                                    "internalType": "address",
                                    "name": "paymaster",
                                    "type": "address"
                                },
                                {
                                    "internalType": "address",
                                    "name": "forwarder",
                                    "type": "address"
                                },
                                {
                                    "internalType": "bytes",
                                    "name": "paymasterData",
                                    "type": "bytes"
                                },
                                {
                                    "internalType": "uint256",
                                    "name": "clientId",
                                    "type": "uint256"
                                }
                            ],
                            "internalType": "struct GsnTypes.RelayData",
                            "name": "relayData",
                            "type": "tuple"
                        }
                    ],
                    "internalType": "struct GsnTypes.RelayRequest",
                    "name": "relayRequest",
                    "type": "tuple"
                },
                {
                    "internalType": "bytes",
                    "name": "signature",
                    "type": "bytes"
                }
            ],
            "name": "callForwarderVerify",
            "outputs": [],
            "stateMutability": "view",
            "type": "function"
        },
        {
            "inputs": [
                {
                    "components": [
                        {
                            "components": [
                                {
                                    "internalType": "address",
                                    "name": "from",
                                    "type": "address"
                                },
                                {
                                    "internalType": "address",
                                    "name": "to",
                                    "type": "address"
                                },
                                {
                                    "internalType": "uint256",
                                    "name": "value",
                                    "type": "uint256"
                                },
                                {
                                    "internalType": "uint256",
                                    "name": "gas",
                                    "type": "uint256"
                                },
                                {
                                    "internalType": "uint256",
                                    "name": "nonce",
                                    "type": "uint256"
                                },
                                {
                                    "internalType": "bytes",
                                    "name": "data",
                                    "type": "bytes"
                                },
                                {
                                    "internalType": "uint256",
                                    "name": "validUntilTime",
                                    "type": "uint256"
                                }
                            ],
                            "internalType": "struct IForwarder.ForwardRequest",
                            "name": "request",
                            "type": "tuple"
                        },
                        {
                            "components": [
                                {
                                    "internalType": "uint256",
                                    "name": "maxFeePerGas",
                                    "type": "uint256"
                                },
                                {
                                    "internalType": "uint256",
                                    "name": "maxPriorityFeePerGas",
                                    "type": "uint256"
                                },
                                {
                                    "internalType": "uint256",
                                    "name": "transactionCalldataGasUsed",
                                    "type": "uint256"
                                },
                                {
                                    "internalType": "address",
                                    "name": "relayWorker",
                                    "type": "address"
                                },
                                {
                                    "internalType": "address",
                                    "name": "paymaster",
                                    "type": "address"
                                },
                                {
                                    "internalType": "address",
                                    "name": "forwarder",
                                    "type": "address"
                                },
                                {
                                    "internalType": "bytes",
                                    "name": "paymasterData",
                                    "type": "bytes"
                                },
                                {
                                    "internalType": "uint256",
                                    "name": "clientId",
                                    "type": "uint256"
                                }
                            ],
                            "internalType": "struct GsnTypes.RelayData",
                            "name": "relayData",
                            "type": "tuple"
                        }
                    ],
                    "internalType": "struct GsnTypes.RelayRequest",
                    "name": "relayRequest",
                    "type": "tuple"
                },
                {
                    "internalType": "bytes",
                    "name": "signature",
                    "type": "bytes"
                }
            ],
            "name": "callForwarderVerifyAndCall",
            "outputs": [
                {
                    "internalType": "bool",
                    "name": "success",
                    "type": "bool"
                },
                {
                    "internalType": "bytes",
                    "name": "ret",
                    "type": "bytes"
                }
            ],
            "stateMutability": "nonpayable",
            "type": "function"
        },
        {
            "inputs": [
                {
                    "components": [
                        {
                            "components": [
                                {
                                    "internalType": "address",
                                    "name": "from",
                                    "type": "address"
                                },
                                {
                                    "internalType": "address",
                                    "name": "to",
                                    "type": "address"
                                },
                                {
                                    "internalType": "uint256",
                                    "name": "value",
                                    "type": "uint256"
                                },
                                {
                                    "internalType": "uint256",
                                    "name": "gas",
                                    "type": "uint256"
                                },
                                {
                                    "internalType": "uint256",
                                    "name": "nonce",
                                    "type": "uint256"
                                },
                                {
                                    "internalType": "bytes",
                                    "name": "data",
                                    "type": "bytes"
                                },
                                {
                                    "internalType": "uint256",
                                    "name": "validUntilTime",
                                    "type": "uint256"
                                }
                            ],
                            "internalType": "struct IForwarder.ForwardRequest",
                            "name": "request",
                            "type": "tuple"
                        },
                        {
                            "components": [
                                {
                                    "internalType": "uint256",
                                    "name": "maxFeePerGas",
                                    "type": "uint256"
                                },
                                {
                                    "internalType": "uint256",
                                    "name": "maxPriorityFeePerGas",
                                    "type": "uint256"
                                },
                                {
                                    "internalType": "uint256",
                                    "name": "transactionCalldataGasUsed",
                                    "type": "uint256"
                                },
                                {
                                    "internalType": "address",
                                    "name": "relayWorker",
                                    "type": "address"
                                },
                                {
                                    "internalType": "address",
                                    "name": "paymaster",
                                    "type": "address"
                                },
                                {
                                    "internalType": "address",
                                    "name": "forwarder",
                                    "type": "address"
                                },
                                {
                                    "internalType": "bytes",
                                    "name": "paymasterData",
                                    "type": "bytes"
                                },
                                {
                                    "internalType": "uint256",
                                    "name": "clientId",
                                    "type": "uint256"
                                }
                            ],
                            "internalType": "struct GsnTypes.RelayData",
                            "name": "relayData",
                            "type": "tuple"
                        }
                    ],
                    "internalType": "struct GsnTypes.RelayRequest",
                    "name": "relayRequest",
                    "type": "tuple"
                }
            ],
            "name": "splitRequest",
            "outputs": [
                {
                    "internalType": "bytes32",
                    "name": "typeHash",
                    "type": "bytes32"
                },
                {
                    "internalType": "bytes",
                    "name": "suffixData",
                    "type": "bytes"
                }
            ],
            "stateMutability": "pure",
            "type": "function"
        },
        {
            "inputs": [
                {
                    "internalType": "address",
                    "name": "forwarder",
                    "type": "address"
                }
            ],
            "name": "libDomainSeparator",
            "outputs": [
                {
                    "internalType": "bytes32",
                    "name": "",
                    "type": "bytes32"
                }
            ],
            "stateMutability": "view",
            "type": "function"
        },
        {
            "inputs": [],
            "name": "libGetChainID",
            "outputs": [
                {
                    "internalType": "uint256",
                    "name": "",
                    "type": "uint256"
                }
            ],
            "stateMutability": "view",
            "type": "function"
        },
        {
            "inputs": [
                {
                    "internalType": "string",
                    "name": "message",
                    "type": "string"
                },
                {
                    "internalType": "bytes",
                    "name": "signature",
                    "type": "bytes"
                }
            ],
            "name": "_ecrecover",
            "outputs": [
                {
                    "internalType": "address",
                    "name": "",
                    "type": "address"
                }
            ],
            "stateMutability": "pure",
            "type": "function"
        }
    ],
    "bytecode": "0x608060405234801561001057600080fd5b5061194a806100206000396000f3fe608060405234801561001057600080fd5b506004361061009e5760003560e01c8063ae1c18e811610066578063ae1c18e814610160578063b8e6f47a14610168578063d5de06781461017d578063e2cc257614610185578063f69cd3751461018b57600080fd5b806326be0f08146100a357806337d899ce146100cd57806344fa3ccf146100fe5780639182713014610114578063ab469e0d1461013f575b600080fd5b6100b66100b136600461128b565b61019e565b6040516100c49291906114e9565b60405180910390f35b60408051808201909152600c81526b14995b185e54995c5d595cdd60a21b60208201525b6040516100c49190611502565b610106610250565b6040519081526020016100c4565b6101276101223660046111fc565b6102f3565b6040516001600160a01b0390911681526020016100c4565b61015261014d3660046112c0565b61030f565b6040516100c49291906114ce565b6100f16103c3565b61017b6101763660046112c0565b61045f565b005b6100f161049f565b46610106565b61010661019936600461113c565b6104ca565b600060606101ab8361050b565b90506040518060400160405280600c81526020016b14995b185e54995c5d595cdd60a21b8152506040518060a00160405280606181526020016117f8606191396040518060e0016040528060bc815260200161185960bc91396040516020016102149190611437565b60408051601f19818403018152908290526102339392916020016113d8565b604051602081830303815290604052805190602001209150915091565b60006040518060400160405280600c81526020016b14995b185e54995c5d595cdd60a21b8152506040518060a00160405280606181526020016117f8606191396040518060e0016040528060bc815260200161185960bc91396040516020016102b99190611437565b60408051601f19818403018152908290526102d89392916020016113d8565b60405160208183030381529060405280519060200120905090565b6000610308826103028561054a565b90610585565b9392505050565b6000606060006103506040518060400160405280601781526020017623a9a7102932b630bcb2b2102a3930b739b0b1ba34b7b760491b8152508787876105a9565b9094509250905080610365576103658261078f565b7f85cbacf8f422a541772e13127e76d92356b61818e21495c252b257429f3f438c8380156103a257604051806020016040528060008152506103a4565b835b6040516103b29291906114ce565b60405180910390a150935093915050565b60606040518060400160405280600c81526020016b14995b185e54995c5d595cdd60a21b8152506040518060a00160405280606181526020016117f8606191396040518060e0016040528060bc815260200161185960bc913960405160200161042c9190611437565b60408051601f198184030181529082905261044b9392916020016113d8565b604051602081830303815290604052905090565b61049a6040518060400160405280601781526020017623a9a7102932b630bcb2b2102a3930b739b0b1ba34b7b760491b815250848484610797565b505050565b60606040518060e0016040528060bc815260200161185960bc913960405160200161044b9190611437565b60006105056040518060400160405280601781526020017623a9a7102932b630bcb2b2102a3930b739b0b1ba34b7b760491b815250836107b2565b92915050565b606061052261051d6020840184611636565b610805565b60405160200161053491815260200190565b6040516020818303038152906040529050919050565b600061055682516108e6565b82604051602001610568929190611473565b604051602081830303815290604052805190602001209050919050565b600080600061059485856109ec565b915091506105a181610a32565b509392505050565b600080606060006105b98761050b565b905060006105e4896105ce60208b018b611636565b6105df9060c081019060a00161113c565b6107b2565b90506105f36020890189611636565b6106049060c081019060a00161113c565b6001600160a01b031663e024dc7f60e01b61061f8a80611620565b836040518060400160405280600c81526020016b14995b185e54995c5d595cdd60a21b8152506040518060a00160405280606181526020016117f8606191396040518060e0016040528060bc815260200161185960bc91396040516020016106879190611437565b60408051601f19818403018152908290526106a69392916020016113d8565b60405160208183030381529060405280519060200120868c8c6040516024016106d496959493929190611515565b60408051601f198184030181529181526020820180516001600160e01b03166001600160e01b031990941693909317909252905161071291906113bc565b6000604051808303816000865af19150503d806000811461074f576040519150601f19603f3d011682016040523d82523d6000602084013e610754565b606091505b509095509250841561077a57828060200190518101906107749190611172565b90945092505b61078383610bf5565b50509450945094915050565b805160208201fd5b6107a083610c01565b6107ac84848484610de5565b50505050565b60006103086040518060800160405280858152602001604051806040016040528060018152602001603360f81b81525081526020016107ee4690565b8152602001846001600160a01b0316815250610f3c565b60006040518060e0016040528060bc815260200161185960bc91398051602091820120908335908401356040850135610844608087016060880161113c565b61085460a088016080890161113c565b61086460c0890160a08a0161113c565b61087160c08a018a6115d9565b60405161087f9291906113ac565b604051908190038120610568989796959493929160e08c0135906020019889526020890197909752604088019590955260608701939093526001600160a01b039182166080870152811660a08601521660c084015260e08301526101008201526101200190565b60608161090a5750506040805180820190915260018152600360fc1b602082015290565b8160005b8115610934578061091e8161175a565b915061092d9050600a83611703565b915061090e565b60008167ffffffffffffffff81111561094f5761094f6117e1565b6040519080825280601f01601f191660200182016040528015610979576020820181803683370190505b5090505b84156109e45761098e600183611717565b915061099b600a86611775565b6109a69060306116eb565b60f81b8183815181106109bb576109bb6117cb565b60200101906001600160f81b031916908160001a9053506109dd600a86611703565b945061097d565b949350505050565b600080825160411415610a235760208301516040840151606085015160001a610a1787828585610fbc565b94509450505050610a2b565b506000905060025b9250929050565b6000816004811115610a4657610a466117b5565b1415610a4f5750565b6001816004811115610a6357610a636117b5565b1415610ab65760405162461bcd60e51b815260206004820152601860248201527f45434453413a20696e76616c6964207369676e6174757265000000000000000060448201526064015b60405180910390fd5b6002816004811115610aca57610aca6117b5565b1415610b185760405162461bcd60e51b815260206004820152601f60248201527f45434453413a20696e76616c6964207369676e6174757265206c656e677468006044820152606401610aad565b6003816004811115610b2c57610b2c6117b5565b1415610b855760405162461bcd60e51b815260206004820152602260248201527f45434453413a20696e76616c6964207369676e6174757265202773272076616c604482015261756560f01b6064820152608401610aad565b6004816004811115610b9957610b996117b5565b1415610bf25760405162461bcd60e51b815260206004820152602260248201527f45434453413a20696e76616c6964207369676e6174757265202776272076616c604482015261756560f01b6064820152608401610aad565b50565b610bf2816104006110a9565b600080610c0e8380611620565b610c1f90604081019060200161113c565b6001600160a01b031663572b6c0560e01b610c3d6020860186611636565b610c4e9060c081019060a00161113c565b6040516001600160a01b03909116602482015260440160408051601f198184030181529181526020820180516001600160e01b03166001600160e01b0319909416939093179092529051610ca291906113bc565b600060405180830381855afa9150503d8060008114610cdd576040519150601f19603f3d011682016040523d82523d6000602084013e610ce2565b606091505b509150915081610d345760405162461bcd60e51b815260206004820152601c60248201527f697354727573746564466f727761726465723a207265766572746564000000006044820152606401610aad565b8051602014610d855760405162461bcd60e51b815260206004820181905260248201527f697354727573746564466f727761726465723a2062616420726573706f6e73656044820152606401610aad565b80806020019051810190610d999190611157565b61049a5760405162461bcd60e51b815260206004820152601f60248201527f696e76616c696420666f7277617264657220666f7220726563697069656e74006044820152606401610aad565b6000610df08461050b565b90506000610e05866105ce6020880188611636565b90506000610e166020870187611636565b610e279060c081019060a00161113c565b90506001600160a01b03811663ad9f99c7610e428880611620565b846040518060400160405280600c81526020016b14995b185e54995c5d595cdd60a21b8152506040518060a00160405280606181526020016117f8606191396040518060e0016040528060bc815260200161185960bc9139604051602001610eaa9190611437565b60408051601f1981840301815290829052610ec99392916020016113d8565b60405160208183030381529060405280519060200120878a8a6040518763ffffffff1660e01b8152600401610f0396959493929190611515565b60006040518083038186803b158015610f1b57600080fd5b505afa158015610f2f573d6000803e3d6000fd5b5050505050505050505050565b60007f8b73c3c69bb8fe3d512ecc4cf759cc79239f7b179b0ffacaa9a75d522b39400f826000015180519060200120836020015180519060200120846040015185606001516040516020016105689594939291909485526020850193909352604084019190915260608301526001600160a01b0316608082015260a00190565b6000807f7fffffffffffffffffffffffffffffff5d576e7357a4501ddfe92f46681b20a0831115610ff357506000905060036110a0565b8460ff16601b1415801561100b57508460ff16601c14155b1561101c57506000905060046110a0565b6040805160008082526020820180845289905260ff881692820192909252606081018690526080810185905260019060a0016020604051602081039080840390855afa158015611070573d6000803e3d6000fd5b5050604051601f1901519150506001600160a01b038116611099576000600192509250506110a0565b9150600090505b94509492505050565b80825111156110b6578082525b5050565b60006110cd6110c88461167d565b61164c565b90508281528383830111156110e157600080fd5b828260208301376000602084830101529392505050565b80356001600160a01b038116811461110f57600080fd5b919050565b8051801515811461110f57600080fd5b60006040828403121561113657600080fd5b50919050565b60006020828403121561114e57600080fd5b610308826110f8565b60006020828403121561116957600080fd5b61030882611114565b6000806040838503121561118557600080fd5b61118e83611114565b9150602083015167ffffffffffffffff8111156111aa57600080fd5b8301601f810185136111bb57600080fd5b80516111c96110c88261167d565b8181528660208385010111156111de57600080fd5b6111ef82602083016020860161172e565b8093505050509250929050565b6000806040838503121561120f57600080fd5b823567ffffffffffffffff8082111561122757600080fd5b818501915085601f83011261123b57600080fd5b61124a868335602085016110ba565b9350602085013591508082111561126057600080fd5b508301601f8101851361127257600080fd5b611281858235602084016110ba565b9150509250929050565b60006020828403121561129d57600080fd5b813567ffffffffffffffff8111156112b457600080fd5b6109e484828501611124565b6000806000604084860312156112d557600080fd5b833567ffffffffffffffff808211156112ed57600080fd5b6112f987838801611124565b9450602086013591508082111561130f57600080fd5b818601915086601f83011261132357600080fd5b81358181111561133257600080fd5b87602082850101111561134457600080fd5b6020830194508093505050509250925092565b81835281816020850137506000828201602090810191909152601f909101601f19169091010190565b6000815180845261139881602086016020860161172e565b601f01601f19169290920160200192915050565b8183823760009101908152919050565b600082516113ce81846020870161172e565b9190910192915050565b600084516113ea81846020890161172e565b600560fb1b908301908152845161140881600184016020890161172e565b600b60fa1b60019290910191820152835161142a81600284016020880161172e565b0160020195945050505050565b7352656c6179446174612072656c6179446174612960601b81526000825161146681601485016020870161172e565b9190910160140192915050565b7f19457468657265756d205369676e6564204d6573736167653a0a0000000000008152600083516114ab81601a85016020880161172e565b8351908301906114c281601a84016020880161172e565b01601a01949350505050565b82151581526040602082015260006109e46040830184611380565b8281526040602082015260006109e46040830184611380565b6020815260006103086020830184611380565b60a0815260006001600160a01b038061152d8a6110f8565b1660a08401528061154060208b016110f8565b1660c084015250604088013560e08301526060880135610100830152608088013561012083015261157460a08901896116a5565b60e061014085015261158b61018085018284611357565b91505060c089013561016084015287602084015286604084015282810360608401526115b78187611380565b905082810360808401526115cc818587611357565b9998505050505050505050565b6000808335601e198436030181126115f057600080fd5b83018035915067ffffffffffffffff82111561160b57600080fd5b602001915036819003821315610a2b57600080fd5b6000823560de198336030181126113ce57600080fd5b6000823560fe198336030181126113ce57600080fd5b604051601f8201601f1916810167ffffffffffffffff81118282101715611675576116756117e1565b604052919050565b600067ffffffffffffffff821115611697576116976117e1565b50601f01601f191660200190565b6000808335601e198436030181126116bc57600080fd5b830160208101925035905067ffffffffffffffff8111156116dc57600080fd5b803603831315610a2b57600080fd5b600082198211156116fe576116fe611789565b500190565b6000826117125761171261179f565b500490565b60008282101561172957611729611789565b500390565b60005b83811015611749578181015183820152602001611731565b838111156107ac5750506000910152565b600060001982141561176e5761176e611789565b5060010190565b6000826117845761178461179f565b500690565b634e487b7160e01b600052601160045260246000fd5b634e487b7160e01b600052601260045260246000fd5b634e487b7160e01b600052602160045260246000fd5b634e487b7160e01b600052603260045260246000fd5b634e487b7160e01b600052604160045260246000fdfe616464726573732066726f6d2c6164647265737320746f2c75696e743235362076616c75652c75696e74323536206761732c75696e74323536206e6f6e63652c627974657320646174612c75696e743235362076616c6964556e74696c54696d6552656c6179446174612875696e74323536206d61784665655065724761732c75696e74323536206d61785072696f726974794665655065724761732c75696e74323536207472616e73616374696f6e43616c6c64617461476173557365642c616464726573732072656c6179576f726b65722c61646472657373207061796d61737465722c6164647265737320666f727761726465722c6279746573207061796d6173746572446174612c75696e7432353620636c69656e74496429a26469706673582212202b8c9c0c8cae72d541673c133ee35f9da48233895cf8f4f8406c4f125a1350b364736f6c63430008070033",
    "immutableReferences": {},
    "source": "pragma solidity ^0.8.0;\npragma abicoder v2;\n\n// SPDX-License-Identifier: GPL-3.0-only\n\nimport \"@openzeppelin/contracts/utils/cryptography/ECDSA.sol\";\n\nimport \"../utils/GsnTypes.sol\";\nimport \"../utils/GsnEip712Library.sol\";\nimport \"../utils/GsnUtils.sol\";\n\ncontract TestUtil {\n    using ECDSA for bytes;\n    using ECDSA for bytes32;\n\n    function libRelayRequestName() public pure returns (string memory) {\n        return GsnEip712Library.RELAY_REQUEST_NAME;\n    }\n\n    function libRelayRequestType() public pure returns (string memory) {\n        return string(GsnEip712Library.RELAY_REQUEST_TYPE);\n    }\n\n    function libRelayRequestTypeHash() public pure returns (bytes32) {\n        return GsnEip712Library.RELAY_REQUEST_TYPEHASH;\n    }\n\n    function libRelayRequestSuffix() public pure returns (string memory) {\n        return GsnEip712Library.RELAY_REQUEST_SUFFIX;\n    }\n\n    //helpers for test to call the library funcs:\n    function callForwarderVerify(\n        GsnTypes.RelayRequest calldata relayRequest,\n        bytes calldata signature\n    )\n    external\n    view {\n        GsnEip712Library.verify(\"GSN Relayed Transaction\", relayRequest, signature);\n    }\n\n    function callForwarderVerifyAndCall(\n        GsnTypes.RelayRequest calldata relayRequest,\n        bytes calldata signature\n    )\n    external\n    returns (\n        bool success,\n        bytes memory ret\n    ) {\n        bool forwarderSuccess;\n        (forwarderSuccess, success, ret) = GsnEip712Library.execute(\"GSN Relayed Transaction\", relayRequest, signature);\n        if (!forwarderSuccess) {\n            GsnUtils.revertWithData(ret);\n        }\n        emit Called(success, success == false ? ret : bytes(\"\"));\n    }\n\n    event Called(bool success, bytes error);\n\n    function splitRequest(\n        GsnTypes.RelayRequest calldata relayRequest\n    )\n    external\n    pure\n    returns (\n        bytes32 typeHash,\n        bytes memory suffixData\n    ) {\n        (suffixData) = GsnEip712Library.splitRequest(relayRequest);\n        typeHash = GsnEip712Library.RELAY_REQUEST_TYPEHASH;\n    }\n\n    function libDomainSeparator(address forwarder) public view returns (bytes32) {\n        return GsnEip712Library.domainSeparator(\"GSN Relayed Transaction\", forwarder);\n    }\n\n    function libGetChainID() public view returns (uint256) {\n        return GsnEip712Library.getChainID();\n    }\n\n    function _ecrecover(string memory message, bytes memory signature) public pure returns (address) {\n        return bytes(message).toEthSignedMessageHash().recover(signature);\n    }\n}",
    "sourcePath": "/Users/cameron/Rally/evm/gsn/packages/contracts/solpp/test/TestUtil.sol",
    "compiler": {
        "name": "solc",
        "version": "0.8.7+commit.e28d00a7.Emscripten.clang"
    },
    "schemaVersion": "3.1.0",
    "updatedAt": "2023-06-08T13:50:08.513Z",
    "devdoc": {
        "kind": "dev",
        "methods": {},
        "version": 1
    },
    "userdoc": {
        "kind": "user",
        "methods": {},
        "version": 1
    }
}