{
  "contractName": "ArbRelayHub",
  "abi": [
    {
      "inputs": [
        {
          "internalType": "contract ArbSys",
          "name": "_arbsys",
          "type": "address"
        },
        {
          "internalType": "contract IStakeManager",
          "name": "_stakeManager",
          "type": "address"
        },
        {
          "internalType": "address",
          "name": "_penalizer",
          "type": "address"
        },
        {
          "internalType": "address",
          "name": "_batchGateway",
          "type": "address"
        },
        {
          "internalType": "address",
          "name": "_relayRegistrar",
          "type": "address"
        },
        {
          "components": [
            {
              "internalType": "uint256",
              "name": "maxWorkerCount",
              "type": "uint256"
            },
            {
              "internalType": "uint256",
              "name": "gasReserve",
              "type": "uint256"
            },
            {
              "internalType": "uint256",
              "name": "postOverhead",
              "type": "uint256"
            },
            {
              "internalType": "uint256",
              "name": "gasOverhead",
              "type": "uint256"
            },
            {
              "internalType": "uint256",
              "name": "minimumUnstakeDelay",
              "type": "uint256"
            },
            {
              "internalType": "address",
              "name": "devAddress",
              "type": "address"
            },
            {
              "internalType": "uint8",
              "name": "devFee",
              "type": "uint8"
            },
            {
              "internalType": "uint80",
              "name": "baseRelayFee",
              "type": "uint80"
            },
            {
              "internalType": "uint16",
              "name": "pctRelayFee",
              "type": "uint16"
            }
          ],
          "internalType": "struct IRelayHub.RelayHubConfig",
          "name": "_config",
          "type": "tuple"
        }
      ],
      "stateMutability": "nonpayable",
      "type": "constructor"
    },
    {
      "anonymous": false,
      "inputs": [
        {
          "indexed": true,
          "internalType": "address",
          "name": "relayManager",
          "type": "address"
        },
        {
          "indexed": false,
          "internalType": "uint256",
          "name": "balance",
          "type": "uint256"
        }
      ],
      "name": "AbandonedRelayManagerBalanceEscheated",
      "type": "event"
    },
    {
      "anonymous": false,
      "inputs": [
        {
          "indexed": true,
          "internalType": "address",
          "name": "paymaster",
          "type": "address"
        },
        {
          "indexed": true,
          "internalType": "address",
          "name": "from",
          "type": "address"
        },
        {
          "indexed": false,
          "internalType": "uint256",
          "name": "amount",
          "type": "uint256"
        }
      ],
      "name": "Deposited",
      "type": "event"
    },
    {
      "anonymous": false,
      "inputs": [
        {
          "indexed": false,
          "internalType": "uint256",
          "name": "deprecationTime",
          "type": "uint256"
        }
      ],
      "name": "HubDeprecated",
      "type": "event"
    },
    {
      "anonymous": false,
      "inputs": [
        {
          "indexed": true,
          "internalType": "address",
          "name": "previousOwner",
          "type": "address"
        },
        {
          "indexed": true,
          "internalType": "address",
          "name": "newOwner",
          "type": "address"
        }
      ],
      "name": "OwnershipTransferred",
      "type": "event"
    },
    {
      "anonymous": false,
      "inputs": [
        {
          "components": [
            {
              "internalType": "uint256",
              "name": "maxWorkerCount",
              "type": "uint256"
            },
            {
              "internalType": "uint256",
              "name": "gasReserve",
              "type": "uint256"
            },
            {
              "internalType": "uint256",
              "name": "postOverhead",
              "type": "uint256"
            },
            {
              "internalType": "uint256",
              "name": "gasOverhead",
              "type": "uint256"
            },
            {
              "internalType": "uint256",
              "name": "minimumUnstakeDelay",
              "type": "uint256"
            },
            {
              "internalType": "address",
              "name": "devAddress",
              "type": "address"
            },
            {
              "internalType": "uint8",
              "name": "devFee",
              "type": "uint8"
            },
            {
              "internalType": "uint80",
              "name": "baseRelayFee",
              "type": "uint80"
            },
            {
              "internalType": "uint16",
              "name": "pctRelayFee",
              "type": "uint16"
            }
          ],
          "indexed": false,
          "internalType": "struct IRelayHub.RelayHubConfig",
          "name": "config",
          "type": "tuple"
        }
      ],
      "name": "RelayHubConfigured",
      "type": "event"
    },
    {
      "anonymous": false,
      "inputs": [
        {
          "indexed": true,
          "internalType": "address",
          "name": "relayManager",
          "type": "address"
        },
        {
          "indexed": false,
          "internalType": "address[]",
          "name": "newRelayWorkers",
          "type": "address[]"
        },
        {
          "indexed": false,
          "internalType": "uint256",
          "name": "workersCount",
          "type": "uint256"
        }
      ],
      "name": "RelayWorkersAdded",
      "type": "event"
    },
    {
      "anonymous": false,
      "inputs": [
        {
          "indexed": false,
          "internalType": "address",
          "name": "token",
          "type": "address"
        },
        {
          "indexed": false,
          "internalType": "uint256",
          "name": "minimumStake",
          "type": "uint256"
        }
      ],
      "name": "StakingTokenDataChanged",
      "type": "event"
    },
    {
      "anonymous": false,
      "inputs": [
        {
          "indexed": true,
          "internalType": "address",
          "name": "relayManager",
          "type": "address"
        },
        {
          "indexed": true,
          "internalType": "address",
          "name": "paymaster",
          "type": "address"
        },
        {
          "indexed": true,
          "internalType": "bytes32",
          "name": "relayRequestID",
          "type": "bytes32"
        },
        {
          "indexed": false,
          "internalType": "address",
          "name": "from",
          "type": "address"
        },
        {
          "indexed": false,
          "internalType": "address",
          "name": "to",
          "type": "address"
        },
        {
          "indexed": false,
          "internalType": "address",
          "name": "relayWorker",
          "type": "address"
        },
        {
          "indexed": false,
          "internalType": "bytes4",
          "name": "selector",
          "type": "bytes4"
        },
        {
          "indexed": false,
          "internalType": "uint256",
          "name": "innerGasUsed",
          "type": "uint256"
        },
        {
          "indexed": false,
          "internalType": "bytes",
          "name": "reason",
          "type": "bytes"
        }
      ],
      "name": "TransactionRejectedByPaymaster",
      "type": "event"
    },
    {
      "anonymous": false,
      "inputs": [
        {
          "indexed": true,
          "internalType": "address",
          "name": "relayManager",
          "type": "address"
        },
        {
          "indexed": true,
          "internalType": "address",
          "name": "relayWorker",
          "type": "address"
        },
        {
          "indexed": true,
          "internalType": "bytes32",
          "name": "relayRequestID",
          "type": "bytes32"
        },
        {
          "indexed": false,
          "internalType": "address",
          "name": "from",
          "type": "address"
        },
        {
          "indexed": false,
          "internalType": "address",
          "name": "to",
          "type": "address"
        },
        {
          "indexed": false,
          "internalType": "address",
          "name": "paymaster",
          "type": "address"
        },
        {
          "indexed": false,
          "internalType": "bytes4",
          "name": "selector",
          "type": "bytes4"
        },
        {
          "indexed": false,
          "internalType": "enum IRelayHub.RelayCallStatus",
          "name": "status",
          "type": "uint8"
        },
        {
          "indexed": false,
          "internalType": "uint256",
          "name": "charge",
          "type": "uint256"
        }
      ],
      "name": "TransactionRelayed",
      "type": "event"
    },
    {
      "anonymous": false,
      "inputs": [
        {
          "indexed": false,
          "internalType": "enum IRelayHub.RelayCallStatus",
          "name": "status",
          "type": "uint8"
        },
        {
          "indexed": false,
          "internalType": "bytes",
          "name": "returnValue",
          "type": "bytes"
        }
      ],
      "name": "TransactionResult",
      "type": "event"
    },
    {
      "anonymous": false,
      "inputs": [
        {
          "indexed": true,
          "internalType": "address",
          "name": "account",
          "type": "address"
        },
        {
          "indexed": true,
          "internalType": "address",
          "name": "dest",
          "type": "address"
        },
        {
          "indexed": false,
          "internalType": "uint256",
          "name": "amount",
          "type": "uint256"
        }
      ],
      "name": "Withdrawn",
      "type": "event"
    },
    {
      "inputs": [
        {
          "internalType": "address[]",
          "name": "newRelayWorkers",
          "type": "address[]"
        }
      ],
      "name": "addRelayWorkers",
      "outputs": [],
      "stateMutability": "nonpayable",
      "type": "function"
    },
    {
      "inputs": [],
      "name": "arbsys",
      "outputs": [
        {
          "internalType": "contract ArbSys",
          "name": "",
          "type": "address"
        }
      ],
      "stateMutability": "view",
      "type": "function"
    },
    {
      "inputs": [
        {
          "internalType": "address",
          "name": "target",
          "type": "address"
        }
      ],
      "name": "balanceOf",
      "outputs": [
        {
          "internalType": "uint256",
          "name": "",
          "type": "uint256"
        }
      ],
      "stateMutability": "view",
      "type": "function"
    },
    {
      "inputs": [
        {
          "internalType": "uint256",
          "name": "gasUsed",
          "type": "uint256"
        },
        {
          "components": [
            {
              "internalType": "uint256",
              "name": "maxFeePerGas",
              "type": "uint256"
            },
            {
              "internalType": "uint256",
              "name": "maxPriorityFeePerGas",
              "type": "uint256"
            },
            {
              "internalType": "uint256",
              "name": "transactionCalldataGasUsed",
              "type": "uint256"
            },
            {
              "internalType": "address",
              "name": "relayWorker",
              "type": "address"
            },
            {
              "internalType": "address",
              "name": "paymaster",
              "type": "address"
            },
            {
              "internalType": "address",
              "name": "forwarder",
              "type": "address"
            },
            {
              "internalType": "bytes",
              "name": "paymasterData",
              "type": "bytes"
            },
            {
              "internalType": "uint256",
              "name": "clientId",
              "type": "uint256"
            }
          ],
          "internalType": "struct GsnTypes.RelayData",
          "name": "relayData",
          "type": "tuple"
        }
      ],
      "name": "calculateCharge",
      "outputs": [
        {
          "internalType": "uint256",
          "name": "",
          "type": "uint256"
        }
      ],
      "stateMutability": "view",
      "type": "function"
    },
    {
      "inputs": [
        {
          "internalType": "uint256",
          "name": "charge",
          "type": "uint256"
        }
      ],
      "name": "calculateDevCharge",
      "outputs": [
        {
          "internalType": "uint256",
          "name": "",
          "type": "uint256"
        }
      ],
      "stateMutability": "view",
      "type": "function"
    },
    {
      "inputs": [
        {
          "internalType": "address",
          "name": "target",
          "type": "address"
        }
      ],
      "name": "depositFor",
      "outputs": [],
      "stateMutability": "payable",
      "type": "function"
    },
    {
      "inputs": [
        {
          "internalType": "uint256",
          "name": "_deprecationTime",
          "type": "uint256"
        }
      ],
      "name": "deprecateHub",
      "outputs": [],
      "stateMutability": "nonpayable",
      "type": "function"
    },
    {
      "inputs": [
        {
          "internalType": "address",
          "name": "relayManager",
          "type": "address"
        }
      ],
      "name": "escheatAbandonedRelayBalance",
      "outputs": [],
      "stateMutability": "nonpayable",
      "type": "function"
    },
    {
      "inputs": [],
      "name": "getBatchGateway",
      "outputs": [
        {
          "internalType": "address",
          "name": "",
          "type": "address"
        }
      ],
      "stateMutability": "view",
      "type": "function"
    },
    {
      "inputs": [],
      "name": "getConfiguration",
      "outputs": [
        {
          "components": [
            {
              "internalType": "uint256",
              "name": "maxWorkerCount",
              "type": "uint256"
            },
            {
              "internalType": "uint256",
              "name": "gasReserve",
              "type": "uint256"
            },
            {
              "internalType": "uint256",
              "name": "postOverhead",
              "type": "uint256"
            },
            {
              "internalType": "uint256",
              "name": "gasOverhead",
              "type": "uint256"
            },
            {
              "internalType": "uint256",
              "name": "minimumUnstakeDelay",
              "type": "uint256"
            },
            {
              "internalType": "address",
              "name": "devAddress",
              "type": "address"
            },
            {
              "internalType": "uint8",
              "name": "devFee",
              "type": "uint8"
            },
            {
              "internalType": "uint80",
              "name": "baseRelayFee",
              "type": "uint80"
            },
            {
              "internalType": "uint16",
              "name": "pctRelayFee",
              "type": "uint16"
            }
          ],
          "internalType": "struct IRelayHub.RelayHubConfig",
          "name": "",
          "type": "tuple"
        }
      ],
      "stateMutability": "view",
      "type": "function"
    },
    {
      "inputs": [],
      "name": "getDeprecationTime",
      "outputs": [
        {
          "internalType": "uint256",
          "name": "",
          "type": "uint256"
        }
      ],
      "stateMutability": "view",
      "type": "function"
    },
    {
      "inputs": [
        {
          "internalType": "contract IERC20",
          "name": "token",
          "type": "address"
        }
      ],
      "name": "getMinimumStakePerToken",
      "outputs": [
        {
          "internalType": "uint256",
          "name": "",
          "type": "uint256"
        }
      ],
      "stateMutability": "view",
      "type": "function"
    },
    {
      "inputs": [],
      "name": "getPenalizer",
      "outputs": [
        {
          "internalType": "address",
          "name": "",
          "type": "address"
        }
      ],
      "stateMutability": "view",
      "type": "function"
    },
    {
      "inputs": [],
      "name": "getRelayRegistrar",
      "outputs": [
        {
          "internalType": "address",
          "name": "",
          "type": "address"
        }
      ],
      "stateMutability": "view",
      "type": "function"
    },
    {
      "inputs": [],
      "name": "getStakeManager",
      "outputs": [
        {
          "internalType": "contract IStakeManager",
          "name": "",
          "type": "address"
        }
      ],
      "stateMutability": "view",
      "type": "function"
    },
    {
      "inputs": [
        {
          "internalType": "address",
          "name": "manager",
          "type": "address"
        }
      ],
      "name": "getWorkerCount",
      "outputs": [
        {
          "internalType": "uint256",
          "name": "",
          "type": "uint256"
        }
      ],
      "stateMutability": "view",
      "type": "function"
    },
    {
      "inputs": [
        {
          "internalType": "address",
          "name": "worker",
          "type": "address"
        }
      ],
      "name": "getWorkerManager",
      "outputs": [
        {
          "internalType": "address",
          "name": "",
          "type": "address"
        }
      ],
      "stateMutability": "view",
      "type": "function"
    },
    {
      "inputs": [
        {
          "internalType": "string",
          "name": "domainSeparatorName",
          "type": "string"
        },
        {
          "components": [
            {
              "components": [
                {
                  "internalType": "address",
                  "name": "from",
                  "type": "address"
                },
                {
                  "internalType": "address",
                  "name": "to",
                  "type": "address"
                },
                {
                  "internalType": "uint256",
                  "name": "value",
                  "type": "uint256"
                },
                {
                  "internalType": "uint256",
                  "name": "gas",
                  "type": "uint256"
                },
                {
                  "internalType": "uint256",
                  "name": "nonce",
                  "type": "uint256"
                },
                {
                  "internalType": "bytes",
                  "name": "data",
                  "type": "bytes"
                },
                {
                  "internalType": "uint256",
                  "name": "validUntilTime",
                  "type": "uint256"
                }
              ],
              "internalType": "struct IForwarder.ForwardRequest",
              "name": "request",
              "type": "tuple"
            },
            {
              "components": [
                {
                  "internalType": "uint256",
                  "name": "maxFeePerGas",
                  "type": "uint256"
                },
                {
                  "internalType": "uint256",
                  "name": "maxPriorityFeePerGas",
                  "type": "uint256"
                },
                {
                  "internalType": "uint256",
                  "name": "transactionCalldataGasUsed",
                  "type": "uint256"
                },
                {
                  "internalType": "address",
                  "name": "relayWorker",
                  "type": "address"
                },
                {
                  "internalType": "address",
                  "name": "paymaster",
                  "type": "address"
                },
                {
                  "internalType": "address",
                  "name": "forwarder",
                  "type": "address"
                },
                {
                  "internalType": "bytes",
                  "name": "paymasterData",
                  "type": "bytes"
                },
                {
                  "internalType": "uint256",
                  "name": "clientId",
                  "type": "uint256"
                }
              ],
              "internalType": "struct GsnTypes.RelayData",
              "name": "relayData",
              "type": "tuple"
            }
          ],
          "internalType": "struct GsnTypes.RelayRequest",
          "name": "relayRequest",
          "type": "tuple"
        },
        {
          "internalType": "bytes",
          "name": "signature",
          "type": "bytes"
        },
        {
          "internalType": "bytes",
          "name": "approvalData",
          "type": "bytes"
        },
        {
          "components": [
            {
              "internalType": "uint256",
              "name": "acceptanceBudget",
              "type": "uint256"
            },
            {
              "internalType": "uint256",
              "name": "preRelayedCallGasLimit",
              "type": "uint256"
            },
            {
              "internalType": "uint256",
              "name": "postRelayedCallGasLimit",
              "type": "uint256"
            },
            {
              "internalType": "uint256",
              "name": "calldataSizeLimit",
              "type": "uint256"
            }
          ],
          "internalType": "struct IPaymaster.GasAndDataLimits",
          "name": "gasAndDataLimits",
          "type": "tuple"
        },
        {
          "internalType": "uint256",
          "name": "totalInitialGas",
          "type": "uint256"
        },
        {
          "internalType": "uint256",
          "name": "maxPossibleGas",
          "type": "uint256"
        }
      ],
      "name": "innerRelayCall",
      "outputs": [
        {
          "internalType": "enum IRelayHub.RelayCallStatus",
          "name": "",
          "type": "uint8"
        },
        {
          "internalType": "bytes",
          "name": "",
          "type": "bytes"
        }
      ],
      "stateMutability": "nonpayable",
      "type": "function"
    },
    {
      "inputs": [],
      "name": "isDeprecated",
      "outputs": [
        {
          "internalType": "bool",
          "name": "",
          "type": "bool"
        }
      ],
      "stateMutability": "view",
      "type": "function"
    },
    {
      "inputs": [
        {
          "internalType": "address",
          "name": "relayManager",
          "type": "address"
        }
      ],
      "name": "isRelayEscheatable",
      "outputs": [
        {
          "internalType": "bool",
          "name": "",
          "type": "bool"
        }
      ],
      "stateMutability": "view",
      "type": "function"
    },
    {
      "inputs": [
        {
          "internalType": "address",
          "name": "relayManager",
          "type": "address"
        }
      ],
      "name": "onRelayServerRegistered",
      "outputs": [],
      "stateMutability": "nonpayable",
      "type": "function"
    },
    {
      "inputs": [],
      "name": "owner",
      "outputs": [
        {
          "internalType": "address",
          "name": "",
          "type": "address"
        }
      ],
      "stateMutability": "view",
      "type": "function"
    },
    {
      "inputs": [
        {
          "internalType": "address",
          "name": "relayWorker",
          "type": "address"
        },
        {
          "internalType": "address payable",
          "name": "beneficiary",
          "type": "address"
        }
      ],
      "name": "penalize",
      "outputs": [],
      "stateMutability": "nonpayable",
      "type": "function"
    },
    {
      "inputs": [
        {
          "internalType": "string",
          "name": "domainSeparatorName",
          "type": "string"
        },
        {
          "internalType": "uint256",
          "name": "maxAcceptanceBudget",
          "type": "uint256"
        },
        {
          "components": [
            {
              "components": [
                {
                  "internalType": "address",
                  "name": "from",
                  "type": "address"
                },
                {
                  "internalType": "address",
                  "name": "to",
                  "type": "address"
                },
                {
                  "internalType": "uint256",
                  "name": "value",
                  "type": "uint256"
                },
                {
                  "internalType": "uint256",
                  "name": "gas",
                  "type": "uint256"
                },
                {
                  "internalType": "uint256",
                  "name": "nonce",
                  "type": "uint256"
                },
                {
                  "internalType": "bytes",
                  "name": "data",
                  "type": "bytes"
                },
                {
                  "internalType": "uint256",
                  "name": "validUntilTime",
                  "type": "uint256"
                }
              ],
              "internalType": "struct IForwarder.ForwardRequest",
              "name": "request",
              "type": "tuple"
            },
            {
              "components": [
                {
                  "internalType": "uint256",
                  "name": "maxFeePerGas",
                  "type": "uint256"
                },
                {
                  "internalType": "uint256",
                  "name": "maxPriorityFeePerGas",
                  "type": "uint256"
                },
                {
                  "internalType": "uint256",
                  "name": "transactionCalldataGasUsed",
                  "type": "uint256"
                },
                {
                  "internalType": "address",
                  "name": "relayWorker",
                  "type": "address"
                },
                {
                  "internalType": "address",
                  "name": "paymaster",
                  "type": "address"
                },
                {
                  "internalType": "address",
                  "name": "forwarder",
                  "type": "address"
                },
                {
                  "internalType": "bytes",
                  "name": "paymasterData",
                  "type": "bytes"
                },
                {
                  "internalType": "uint256",
                  "name": "clientId",
                  "type": "uint256"
                }
              ],
              "internalType": "struct GsnTypes.RelayData",
              "name": "relayData",
              "type": "tuple"
            }
          ],
          "internalType": "struct GsnTypes.RelayRequest",
          "name": "relayRequest",
          "type": "tuple"
        },
        {
          "internalType": "bytes",
          "name": "signature",
          "type": "bytes"
        },
        {
          "internalType": "bytes",
          "name": "approvalData",
          "type": "bytes"
        }
      ],
      "name": "relayCall",
      "outputs": [
        {
          "internalType": "bool",
          "name": "paymasterAccepted",
          "type": "bool"
        },
        {
          "internalType": "uint256",
          "name": "charge",
          "type": "uint256"
        },
        {
          "internalType": "enum IRelayHub.RelayCallStatus",
          "name": "status",
          "type": "uint8"
        },
        {
          "internalType": "bytes",
          "name": "returnValue",
          "type": "bytes"
        }
      ],
      "stateMutability": "nonpayable",
      "type": "function"
    },
    {
      "inputs": [],
      "name": "renounceOwnership",
      "outputs": [],
      "stateMutability": "nonpayable",
      "type": "function"
    },
    {
      "inputs": [
        {
          "components": [
            {
              "internalType": "uint256",
              "name": "maxWorkerCount",
              "type": "uint256"
            },
            {
              "internalType": "uint256",
              "name": "gasReserve",
              "type": "uint256"
            },
            {
              "internalType": "uint256",
              "name": "postOverhead",
              "type": "uint256"
            },
            {
              "internalType": "uint256",
              "name": "gasOverhead",
              "type": "uint256"
            },
            {
              "internalType": "uint256",
              "name": "minimumUnstakeDelay",
              "type": "uint256"
            },
            {
              "internalType": "address",
              "name": "devAddress",
              "type": "address"
            },
            {
              "internalType": "uint8",
              "name": "devFee",
              "type": "uint8"
            },
            {
              "internalType": "uint80",
              "name": "baseRelayFee",
              "type": "uint80"
            },
            {
              "internalType": "uint16",
              "name": "pctRelayFee",
              "type": "uint16"
            }
          ],
          "internalType": "struct IRelayHub.RelayHubConfig",
          "name": "_config",
          "type": "tuple"
        }
      ],
      "name": "setConfiguration",
      "outputs": [],
      "stateMutability": "nonpayable",
      "type": "function"
    },
    {
      "inputs": [
        {
          "internalType": "contract IERC20[]",
          "name": "token",
          "type": "address[]"
        },
        {
          "internalType": "uint256[]",
          "name": "minimumStake",
          "type": "uint256[]"
        }
      ],
      "name": "setMinimumStakes",
      "outputs": [],
      "stateMutability": "nonpayable",
      "type": "function"
    },
    {
      "inputs": [
        {
          "internalType": "bytes4",
          "name": "interfaceId",
          "type": "bytes4"
        }
      ],
      "name": "supportsInterface",
      "outputs": [
        {
          "internalType": "bool",
          "name": "",
          "type": "bool"
        }
      ],
      "stateMutability": "view",
      "type": "function"
    },
    {
      "inputs": [
        {
          "internalType": "address",
          "name": "newOwner",
          "type": "address"
        }
      ],
      "name": "transferOwnership",
      "outputs": [],
      "stateMutability": "nonpayable",
      "type": "function"
    },
    {
      "inputs": [
        {
          "internalType": "address",
          "name": "relayManager",
          "type": "address"
        }
      ],
      "name": "verifyRelayManagerStaked",
      "outputs": [],
      "stateMutability": "view",
      "type": "function"
    },
    {
      "inputs": [
        {
          "internalType": "address payable",
          "name": "dest",
          "type": "address"
        },
        {
          "internalType": "uint256",
          "name": "amount",
          "type": "uint256"
        }
      ],
      "name": "withdraw",
      "outputs": [],
      "stateMutability": "nonpayable",
      "type": "function"
    },
    {
      "inputs": [
        {
          "internalType": "address payable[]",
          "name": "dest",
          "type": "address[]"
        },
        {
          "internalType": "uint256[]",
          "name": "amount",
          "type": "uint256[]"
        }
      ],
      "name": "withdrawMultiple",
      "outputs": [],
      "stateMutability": "nonpayable",
      "type": "function"
    },
    {
      "inputs": [],
      "name": "versionHub",
      "outputs": [
        {
          "internalType": "string",
          "name": "",
          "type": "string"
        }
      ],
      "stateMutability": "pure",
      "type": "function"
    },
    {
      "inputs": [],
      "name": "getCreationBlock",
      "outputs": [
        {
          "internalType": "uint256",
          "name": "",
          "type": "uint256"
        }
      ],
      "stateMutability": "view",
      "type": "function"
    },
    {
      "inputs": [],
      "name": "getL1CreationBlock",
      "outputs": [
        {
          "internalType": "uint256",
          "name": "",
          "type": "uint256"
        }
      ],
      "stateMutability": "view",
      "type": "function"
    },
    {
      "inputs": [],
      "name": "aggregateGasleft",
      "outputs": [
        {
          "internalType": "uint256",
          "name": "",
          "type": "uint256"
        }
      ],
      "stateMutability": "view",
      "type": "function"
    }
  ],
  "bytecode": "0x610160604052600019600c553480156200001857600080fd5b5060405162005931380380620059318339810160408190526200003b91620003d4565b84848484846200004b336200012e565b43610100526001600160601b0319606086811b821660805285811b821660a05284811b821660c05283901b1660e05262000085816200017e565b5050505050856001600160a01b0316610120816001600160a01b031660601b81525050856001600160a01b031663a3b1b31d6040518163ffffffff1660e01b815260040160206040518083038186803b158015620000e257600080fd5b505afa158015620000f7573d6000803e3d6000fd5b505050506040513d601f19601f820116820180604052508101906200011d9190620004fb565b610140525062000566945050505050565b600080546001600160a01b038381166001600160a01b0319831681178455604051919092169283917f8be0079c531659141344cd1fd0a4f28419497f9722a3daafe3b4186f6b6457e09190a35050565b6200018862000327565b60648160c0015160ff1610620001d85760405162461bcd60e51b815260206004820152601060248201526f0c8caec40cccaca40e8dede40d0d2ced60831b60448201526064015b60405180910390fd5b8051600190815560208201516002556040808301516003556060830151600455608083015160055560a08301516006805460c086015160e08701516001600160501b0316600160a81b02600160a81b600160f81b031960ff909216600160a01b026001600160a81b03199093166001600160a01b039095169490941791909117169190911790556101008301516007805461ffff90921661ffff19909216919091179055517f4812ada68f7c2cdc9f4a4a09e157ea6b924e0ef40a4fa7aa074fa8f70b1e7247916200031c91815481526001820154602082015260028201546040820152600382015460608201526004820154608082015260058201546001600160a01b03811660a08084019190915260ff9082901c1660c083015260a81c6001600160501b031660e082015260069091015461ffff166101008201526101200190565b60405180910390a150565b6000546001600160a01b03163314620003835760405162461bcd60e51b815260206004820181905260248201527f4f776e61626c653a2063616c6c6572206973206e6f7420746865206f776e65726044820152606401620001cf565b565b805162000392816200054d565b919050565b805161ffff811681146200039257600080fd5b80516001600160501b03811681146200039257600080fd5b805160ff811681146200039257600080fd5b6000806000806000808688036101c0811215620003f057600080fd5b8751620003fd816200054d565b602089015190975062000410816200054d565b604089015190965062000423816200054d565b606089015190955062000436816200054d565b608089015190945062000449816200054d565b9250610120609f1982018113156200046057600080fd5b6200046a62000515565b915060a0890151825260c0890151602083015260e08901516040830152610100808a01516060840152818a01516080840152620004ab6101408b0162000385565b60a0840152620004bf6101608b01620003c2565b60c0840152620004d36101808b01620003aa565b60e0840152620004e76101a08b0162000397565b818401525050809150509295509295509295565b6000602082840312156200050e57600080fd5b5051919050565b60405161012081016001600160401b03811182821017156200054757634e487b7160e01b600052604160045260246000fd5b60405290565b6001600160a01b03811681146200056357600080fd5b50565b60805160601c60a05160601c60c05160601c60e05160601c610100516101205160601c6101405161531b62000616600039600061025801526000818161050f0152610889015260006105fa015260008181610301015261093201526000818161077001526111a601526000818161043b0152612ca30152600081816106450152818161080801528181610a240152818161287e01528181612a1901528181612d810152612e7c015261531b6000f3fe60806040526004361061020f5760003560e01c80639bcde3f311610118578063ca64f9e7116100a0578063e6e22e121161006f578063e6e22e12146106e1578063ebcd31ac14610701578063f2fde38b14610721578063f3fef3a314610741578063f7908a741461076157600080fd5b8063ca64f9e714610636578063d26152f914610669578063d904c73214610689578063ddf73789146106ab57600080fd5b8063af595dfc116100e7578063af595dfc14610572578063be7c76ad14610592578063c2da0786146105cb578063c5c98a1a146105eb578063c71782301461061e57600080fd5b80639bcde3f3146104dd578063a51c8cb9146104fd578063a6e61b6014610531578063aa67c9191461055f57600080fd5b80636ca862e21161019b57806375dc7b4e1161016a57806375dc7b4e1461042c5780638a09fb561461045f5780638ac3b8451461047f5780638da5cb5b1461049f5780638e53548b146104bd57600080fd5b80636ca862e21461039157806370a08231146103c1578063715018a6146103f757806372c1ab0c1461040c57600080fd5b806345bdade7116101e257806345bdade7146102bb5780634f7de031146102d057806351d85156146102f257806359c4afc0146103395780636bd50cef1461036f57600080fd5b806301ffc9a71461021457806320ffd56d1461024957806339622167146102865780633c16e59a146102a6575b600080fd5b34801561022057600080fd5b5061023461022f36600461417c565b610794565b60405190151581526020015b60405180910390f35b34801561025557600080fd5b507f00000000000000000000000000000000000000000000000000000000000000005b604051908152602001610240565b34801561029257600080fd5b506102346102a1366004613ec6565b6107e6565b3480156102b257600080fd5b50600c54610278565b3480156102c757600080fd5b50610278610884565b3480156102dc57600080fd5b506102f06102eb366004613ec6565b610927565b005b3480156102fe57600080fd5b507f00000000000000000000000000000000000000000000000000000000000000005b6040516001600160a01b039091168152602001610240565b34801561034557600080fd5b50610278610354366004613ec6565b6001600160a01b03166000908152600a602052604090205490565b34801561037b57600080fd5b50610384610a83565b6040516102409190614bc1565b34801561039d57600080fd5b506103b16103ac366004614316565b610b64565b60405161024094939291906149c0565b3480156103cd57600080fd5b506102786103dc366004613ec6565b6001600160a01b03166000908152600b602052604090205490565b34801561040357600080fd5b506102f06119e7565b34801561041857600080fd5b506102f0610427366004613fbc565b6119fb565b34801561043857600080fd5b507f0000000000000000000000000000000000000000000000000000000000000000610321565b34801561046b57600080fd5b506102f061047a366004614084565b611cbc565b34801561048b57600080fd5b5061027861049a366004614561565b611e13565b3480156104ab57600080fd5b506000546001600160a01b0316610321565b3480156104c957600080fd5b506102786104d8366004614593565b611e48565b3480156104e957600080fd5b506102f06104f8366004614442565b611ede565b34801561050957600080fd5b506103217f000000000000000000000000000000000000000000000000000000000000000081565b34801561053d57600080fd5b5061055161054c366004614231565b612084565b604051610240929190614a34565b6102f061056d366004613ec6565b612510565b34801561057e57600080fd5b506102f061058d366004614561565b6125f1565b34801561059e57600080fd5b506103216105ad366004613ec6565b6001600160a01b039081166000908152600960205260409020541690565b3480156105d757600080fd5b506102f06105e6366004613f48565b612674565b3480156105f757600080fd5b507f0000000000000000000000000000000000000000000000000000000000000000610278565b34801561062a57600080fd5b50600c54421015610234565b34801561064257600080fd5b507f0000000000000000000000000000000000000000000000000000000000000000610321565b34801561067557600080fd5b506102f0610684366004613ec6565b612857565b34801561069557600080fd5b5061069e6129d5565b60405161024091906149ee565b3480156106b757600080fd5b506102786106c6366004613ec6565b6001600160a01b031660009081526008602052604090205490565b3480156106ed57600080fd5b506102f06106fc366004613ec6565b6129f5565b34801561070d57600080fd5b506102f061071c366004613f0f565b612c98565b34801561072d57600080fd5b506102f061073c366004613ec6565b612ee0565b34801561074d57600080fd5b506102f061075c366004613ee3565b612f59565b34801561076d57600080fd5b507f0000000000000000000000000000000000000000000000000000000000000000610321565b60006001600160e01b0319821663e9fb30f760e01b14806107c557506001600160e01b03198216630704183b60e11b145b806107e057506301ffc9a760e01b6001600160e01b03198316145b92915050565b604051633962216760e01b81526001600160a01b0382811660048301526000917f00000000000000000000000000000000000000000000000000000000000000009091169063396221679060240160206040518083038186803b15801561084c57600080fd5b505afa158015610860573d6000803e3d6000fd5b505050506040513d601f19601f820116820180604052508101906107e0919061411e565b60005a7f00000000000000000000000000000000000000000000000000000000000000006001600160a01b031663a94597ff6040518163ffffffff1660e01b815260040160206040518083038186803b1580156108e057600080fd5b505afa1580156108f4573d6000803e3d6000fd5b505050506040513d601f19601f82011682018060405250810190610918919061457a565b6109229190614e0d565b905090565b336001600160a01b037f000000000000000000000000000000000000000000000000000000000000000016146109a45760405162461bcd60e51b815260206004820152601d60248201527f63616c6c6572206973206e6f742072656c61792072656769737472617200000060448201526064015b60405180910390fd5b6109ad816129f5565b6001600160a01b0381166000908152600a6020526040902054610a055760405162461bcd60e51b815260206004820152601060248201526f6e6f2072656c617920776f726b65727360801b604482015260640161099b565b6040516346dcbf0b60e01b81526001600160a01b0382811660048301527f000000000000000000000000000000000000000000000000000000000000000016906346dcbf0b90602401600060405180830381600087803b158015610a6857600080fd5b505af1158015610a7c573d6000803e3d6000fd5b5050505050565b610aeb604051806101200160405280600081526020016000815260200160008152602001600081526020016000815260200160006001600160a01b03168152602001600060ff16815260200160006001600160501b03168152602001600061ffff1681525090565b5060408051610120810182526001548152600254602082015260035491810191909152600454606082015260055460808201526006546001600160a01b03811660a0830152600160a01b810460ff1660c0830152600160a81b90046001600160501b031660e082015260075461ffff1661010082015290565b60008060006060610b73613c51565b610b7b610884565b6040820152610b8b8a8a8a612ffc565b6101e082015260408051808201909152601881527f72656c617943616c6c2072656c617952657175657374496400000000000000006020820152610bce90613061565b610bdc816101e001516130a4565b610c156040518060600160405280602381526020016152c360239139610c028c80614cd8565b610c10906020810190613ec6565b6130e9565b610c4c60405180606001604052806021815260200161501060219139610c3b8c80614cd8565b610c10906040810190602001613ec6565b610c7b60405180606001604052806024815260200161513e60249139610c728c80614cd8565b60400135613132565b610caa60405180606001604052806022815260200161503160229139610ca18c80614cd8565b60600135613132565b610cd9604051806060016040528060248152602001614fec60249139610cd08c80614cd8565b60800135613132565b610d086040518060600160405280602d8152602001614f5e602d9139610cff8c80614cd8565b60c00135613132565b610d376040518060600160405280602d81526020016150b3602d9139610d3160208d018d614cee565b35613132565b610d6960405180606001604052806035815260200161510960359139610d6060208d018d614cee565b60200135613132565b610d926040518060600160405280603b8152602001615053603b9139610c7260208d018d614cee565b610dcc6040518060600160405280602c8152602001614f32602c9139610dbb60208d018d614cee565b610c10906080810190606001613ec6565b610e066040518060600160405280602a8152602001615299602a9139610df560208d018d614cee565b610c109060a0810190608001613ec6565b610e406040518060600160405280602a815260200161526f602a9139610e2f60208d018d614cee565b610c109060c081019060a001613ec6565b610e726040518060600160405280602981526020016150e060299139610e6960208d018d614cee565b60e00135613132565b610eb06040518060400160405280601d81526020017f72656c617943616c6c20646f6d61696e536570617261746f724e616d65000000815250613061565b610eef8d8d8080601f01602080910402602001604051908101604052809392919081815260200183838082843760009201919091525061306192505050565b610f236040518060400160405280601381526020017272656c617943616c6c207369676e617475726560681b815250613061565b610f6289898080601f01602080910402602001604051908101604052809392919081815260200183838082843760009201919091525061317792505050565b610f996040518060400160405280601681526020017572656c617943616c6c20617070726f76616c4461746160501b815250613061565b610fd887878080601f01602080910402602001604051908101604052809392919081815260200183838082843760009201919091525061317792505050565b610ff960405180606001604052806023815260200161524c60239139613061565b61104e6110068b80614cd8565b6110149060a0810190614c92565b8080601f01602080910402602001604051908101604052809392919081815260200183838082843760009201919091525061317792505050565b61106f6040518060600160405280602e8152602001615162602e9139613061565b61108d61107f60208c018c614cee565b6110149060c0810190614c92565b6110cc6040518060400160405280601d81526020017f72656c617943616c6c206d6178416363657074616e63654275646765740000008152508c613132565b600c54421061110e5760405162461bcd60e51b815260206004820152600e60248201526d1a1d588819195c1c9958d85d195960921b604482015260640161099b565b600461111a8b80614cd8565b6111289060a0810190614c92565b9050101561113757600061118c565b61118c6111448b80614cd8565b6111529060a0810190614c92565b8080601f016020809104026020016040519081016040528093929190818152602001838380828437600092018290525092506131ba915050565b6001600160e01b0319166020820152336001600160a01b037f000000000000000000000000000000000000000000000000000000000000000016148015906111d357503215155b156112e757876112255760405162461bcd60e51b815260206004820181905260248201527f6d697373696e67207369676e6174757265206f72206261642067617465776179604482015260640161099b565b3332146112745760405162461bcd60e51b815260206004820152601860248201527f72656c617920776f726b6572206d75737420626520454f410000000000000000604482015260640161099b565b61128160208b018b614cee565b611292906080810190606001613ec6565b6001600160a01b0316336001600160a01b0316146112e75760405162461bcd60e51b81526020600482015260126024820152712737ba1030903934b3b43a103bb7b935b2b960711b604482015260640161099b565b321561138557600960006112fe60208d018d614cee565b61130f906080810190606001613ec6565b6001600160a01b039081168252602082019290925260400160002054166101c082018190526113775760405162461bcd60e51b81526020600482015260146024820152732ab735b737bbb7103932b630bc903bb7b935b2b960611b604482015260640161099b565b611385816101c001516129f5565b6113948b8b836040015161322a565b61010083015260a08201526113ae8d8d8c8c8c8c8c6134b4565b60025460405a6113bf90603f614e47565b6113c99190614e25565b6113d39190614e66565b6101208201526113e1610884565b610140820152600354600454610120830151604084015161140560208f018f614cee565b604001356114139190614e0d565b61141d9190614e0d565b6114279190614e0d565b6114319190614e0d565b81610200018181525050306001600160a01b031681610120015163a6e61b6060e01b8f8f8e8e8e8e8e8a60a00151611467610884565b8c61020001516114779190614e66565b8c61010001516040516024016114969a99989796959493929190614a54565b60408051601f198184030181529181526020820180516001600160e01b03166001600160e01b03199094169390931790925290516114d491906147e6565b60006040518083038160008787f1925050503d8060008114611512576040519150601f19603f3d011682016040523d82523d6000602084013e611517565b606091505b506102208301521515815261152a610884565b81610140015161153a9190614e66565b60e08201526102208101518051611559916020918101820191016141f3565b8260c0018360800182905282600681111561157657611576614eda565b600681111561158757611587614eda565b90525050608081015151156115d8577fa1478a4242848419db824250a0dddc645dca0d6a9b12ab1fd79b00145a0ba98e8160c0015182608001516040516115cf929190614a34565b60405180910390a15b805161173a5760028160c0015160068111156115f6576115f6614eda565b1480611665575061160a60208b018b614cee565b60a08201515161161e916040013590614e0d565b8160e0015111158015611665575060038160c00151600681111561164457611644614eda565b1480611665575060048160c00151600681111561166357611663614eda565b145b1561173a576101e081015161167d60208c018c614cee565b61168e9060a0810190608001613ec6565b6101c08301516001600160a01b0391821691167f0c47510cb900901afca7c9e926892582a36fd3bb7f908142ccf0fb4382a2b6846116cc8e80614cd8565b6116da906020810190613ec6565b6116e48f80614cd8565b6116f5906040810190602001613ec6565b3387602001518860e001518960800151604051611717969594939291906148eb565b60405180910390a46000808260c0015183608001519450945094509450506119d8565b600454611745610884565b82604001516117549190614e66565b61176160208d018d614cee565b6040013561176f9190614e0d565b6117799190614e0d565b6101608201819052611792906104d860208d018d614cee565b935061179d84611e13565b61018082015283600b60006117b560208e018e614cee565b6117c69060a0810190608001613ec6565b6001600160a01b03166001600160a01b03168152602001908152602001600020546117f19190614e66565b600b600061180260208e018e614cee565b6118139060a0810190608001613ec6565b6001600160a01b0316815260208101919091526040016000205561018081015161183d9085614e66565b6101c08201516001600160a01b03166000908152600b60205260409020546118659190614e0d565b6101c08201516001600160a01b03166000908152600b6020526040902055610180810151156118d5576101808101516006546001600160a01b03166000908152600b60205260409020546118b99190614e0d565b6006546001600160a01b03166000908152600b60205260409020555b60006118e18b80614cd8565b6118ef906020810190613ec6565b905060006118fd8c80614cd8565b61190e906040810190602001613ec6565b9050600061191f60208e018e614cee565b6119309060a0810190608001613ec6565b9050836101e00151336001600160a01b0316856101c001516001600160a01b03167fd51ac07012398c2059ec53c6005fa8639657917bd2dbd72bc489a3c0eaaa7f168686868a602001518b60c001518f6040516119929695949392919061489d565b60405180910390a4505050326119bb5760c08101516080909101516001955090925090506119d8565b60c001516040805160208101909152600081526001955090925090505b98509850985098945050505050565b6119ef6135df565b6119f96000613639565b565b3360005b8251811015611cb657611aa06040518060400160405280601981526020017f77697468647261774d756c7469706c6520257320257320257300000000000000815250600b6000856001600160a01b03166001600160a01b0316815260200190815260200160002054868481518110611a7957611a79614ef0565b6020026020010151868581518110611a9357611a93614ef0565b6020026020010151613689565b6001600160a01b0382166000908152600b60205260409020548351849083908110611acd57611acd614ef0565b6020026020010151811015611b195760405162461bcd60e51b8152602060048201526012602482015271696e73756666696369656e742066756e647360701b604482015260640161099b565b838281518110611b2b57611b2b614ef0565b602002602001015181611b3e9190614e66565b6001600160a01b0384166000908152600b60205260408120919091558551869084908110611b6e57611b6e614ef0565b60200260200101516001600160a01b0316858481518110611b9157611b91614ef0565b602002602001015160405160006040518083038185875af1925050503d8060008114611bd9576040519150601f19603f3d011682016040523d82523d6000602084013e611bde565b606091505b5050905080611c225760405162461bcd60e51b815260206004820152601060248201526f2a3930b739b332b9103330b4b632b21760811b604482015260640161099b565b858381518110611c3457611c34614ef0565b60200260200101516001600160a01b0316846001600160a01b03167fd1c19fbcd4551a5edfb66d43d2e337c04837afda3482b42bdf569a8fccdae5fb878681518110611c8257611c82614ef0565b6020026020010151604051611c9991815260200190565b60405180910390a350508080611cae90614ea9565b9150506119ff565b50505050565b611cc46135df565b8051825114611d155760405162461bcd60e51b815260206004820152601e60248201527f7365744d696e696d756d5374616b65733a2077726f6e67206c656e6774680000604482015260640161099b565b60005b8251811015611e0e57818181518110611d3357611d33614ef0565b602002602001015160086000858481518110611d5157611d51614ef0565b60200260200101516001600160a01b03166001600160a01b03168152602001908152602001600020819055507ffb7510fe755f485459ee8ed619d4a0addc092c230ff47e760a62aeba78ebb9e3838281518110611db057611db0614ef0565b6020026020010151838381518110611dca57611dca614ef0565b6020026020010151604051611df49291906001600160a01b03929092168252602082015260400190565b60405180910390a180611e0681614ea9565b915050611d18565b505050565b600654600090600160a01b900460ff16611e2f57506000919050565b600654606490600160a01b900460ff1683020492915050565b600080823560208401351415611e6057506000611e63565b50485b6000611e7f8435611e7a3a81602089013587614e0d565b6136d2565b600754909150606490611e969061ffff1682614de7565b61ffff16611ea48388614e47565b611eae9190614e47565b611eb89190614e25565b600654611ed59190600160a81b90046001600160501b0316614e0d565b95945050505050565b611ee66135df565b60648160c0015160ff1610611f305760405162461bcd60e51b815260206004820152601060248201526f0c8caec40cccaca40e8dede40d0d2ced60831b604482015260640161099b565b8051600190815560208201516002556040808301516003556060830151600455608083015160055560a08301516006805460c086015160e08701516001600160501b0316600160a81b0269ffffffffffffffffffff60a81b1960ff909216600160a01b026001600160a81b03199093166001600160a01b039095169490941791909117169190911790556101008301516007805461ffff90921661ffff19909216919091179055517f4812ada68f7c2cdc9f4a4a09e157ea6b924e0ef40a4fa7aa074fa8f70b1e72479161207991815481526001820154602082015260028201546040820152600382015460608201526004820154608082015260058201546001600160a01b03811660a08084019190915260ff9082901c1660c08301526001600160501b0360a89190911c1660e082015260069091015461ffff166101008201526101200190565b60405180910390a150565b600060606120de604051806101200160405280600081526020016000815260200160008152602001600080191681526020016000151581526020016060815260200160608152602001606081526020016000151581525090565b6120e6610884565b81525a6120f39086614e66565b60208201523330146121475760405162461bcd60e51b815260206004820152601a60248201527f4d7573742062652063616c6c65642062792052656c6179487562000000000000604482015260640161099b565b600b600061215860208e018e614cee565b6121699060a0810190608001613ec6565b6001600160a01b0316815260208101919091526040908101600020548282015251622f977560e21b906121aa908d908d908d908d908d908b90602401614c43565b60408051601f19818403018152919052602080820180516001600160e01b03166001600160e01b03199094169390931790925260e08301526000906060906121f4908e018e614cee565b6122059060a0810190608001613ec6565b6001600160a01b031688602001358460e0015160405161222591906147e6565b60006040518083038160008787f1925050503d8060008114612263576040519150601f19603f3d011682016040523d82523d6000602084013e612268565b606091505b509092509050816122875761227c816136ea565b6122876002826136f6565b8080602001905181019061229b91906141a6565b8460c001856101000182151515158152508290525050505060006123058e8e8080601f016020809104026020016040519081016040528093929190818152602001838380828437600081840152601f19601f820116905080830192505050505050508d8d8d61372f565b60a0850152151560808401529050806123275761232760038360a001516136f6565b816101000151801561233b57508160800151155b1561234f5761234f60048360a001516136f6565b506376fa01c360e01b8160c00151826080015161236a610884565b84516123769190614e66565b84602001516123859190614e0d565b8e80602001906123959190614cee565b6040516024016123a89493929190614a01565b60408051601f19818403018152919052602080820180516001600160e01b03166001600160e01b03199094169390931790925260e083015260009081906123f1908e018e614cee565b6124029060a0810190608001613ec6565b6001600160a01b031688604001358460e0015160405161242291906147e6565b60006040518083038160008787f1925050503d8060008114612460576040519150601f19603f3d011682016040523d82523d6000602084013e612465565b606091505b50915091508161247a5761247a6005826136f6565b50506040810151600b600061249260208f018f614cee565b6124a39060a0810190608001613ec6565b6001600160a01b03166001600160a01b031681526020019081526020016000205410156124e4576124e46006604051806020016040528060008152506136f6565b80608001516124f45760016124f7565b60005b8160a0015192509250509a509a98505050505050505050565b61252a6001600160a01b0382166370d596f560e11b613915565b6125765760405162461bcd60e51b815260206004820181905260248201527f746172676574206973206e6f7420612076616c696420495061796d6173746572604482015260640161099b565b6001600160a01b0381166000908152600b6020526040902054349061259c908290614e0d565b6001600160a01b0383166000818152600b6020908152604091829020939093555183815233927f8752a472e571a816aea92eec8dae9baf628e840f4929fbcc2d155e6233ff68a7910160405180910390a35050565b6125f96135df565b600c54421061263f5760405162461bcd60e51b8152602060048201526012602482015271105b1c9958591e4819195c1c9958d85d195960721b604482015260640161099b565b600c8190556040518181527f1c0aa0c666483fbf0cf795d9d646ea3552d1e3008162ba9ab1d6d6dfd8c6ec6b90602001612079565b336000818152600a602052604081205461268f908490614e0d565b6001600160a01b0383166000908152600a602052604090208190556001549091508111156126f25760405162461bcd60e51b815260206004820152601060248201526f746f6f206d616e7920776f726b65727360801b604482015260640161099b565b6126fb826129f5565b60005b8381101561280b57600060098187878581811061271d5761271d614ef0565b90506020020160208101906127329190613ec6565b6001600160a01b039081168252602082019290925260400160002054161461279c5760405162461bcd60e51b815260206004820152601960248201527f7468697320776f726b6572206861732061206d616e6167657200000000000000604482015260640161099b565b82600960008787858181106127b3576127b3614ef0565b90506020020160208101906127c89190613ec6565b6001600160a01b039081168252602082019290925260400160002080546001600160a01b031916929091169190911790558061280381614ea9565b9150506126fe565b50816001600160a01b03167febf4a9bffb39f7c5dbf3f65540183b9381ae226ac3d0a45b4cad484713bd4a288585846040516128499392919061496a565b60405180910390a250505050565b61285f6135df565b604051633962216760e01b81526001600160a01b0382811660048301527f0000000000000000000000000000000000000000000000000000000000000000169063396221679060240160206040518083038186803b1580156128c057600080fd5b505afa1580156128d4573d6000803e3d6000fd5b505050506040513d601f19601f820116820180604052508101906128f8919061411e565b6129445760405162461bcd60e51b815260206004820181905260248201527f72656c617920736572766572206e6f74206573636865617461626c6520796574604482015260640161099b565b6001600160a01b038082166000908152600b6020526040808220805490839055600654909316825290205461297a908290614e0d565b6006546001600160a01b039081166000908152600b60209081526040918290209390935551838152908416917f3fb672a061b9c3ab083062a9a8ff532d341e5fa42145b91f3922a711ae135659910160405180910390a25050565b606060405180606001604052806025815260200161508e60259139905090565b60405163c345315360e01b81526001600160a01b03828116600483015260009182917f0000000000000000000000000000000000000000000000000000000000000000169063c3453153906024016101006040518083038186803b158015612a5c57600080fd5b505afa158015612a70573d6000803e3d6000fd5b505050506040513d601f19601f82011682018060405250810190612a9491906144d5565b60a0820180516001600160a01b0390811660009081526008602052604090205491519395509193509116612b055760405162461bcd60e51b81526020600482015260186024820152771c995b185e481b585b9859d95c881b9bdd081cdd185ad95960421b604482015260640161099b565b8251811115612b565760405162461bcd60e51b815260206004820152601960248201527f7374616b6520616d6f756e7420697320746f6f20736d616c6c00000000000000604482015260640161099b565b80612ba35760405162461bcd60e51b815260206004820152601f60248201527f7374616b696e67207468697320746f6b656e20697320666f7262696464656e00604482015260640161099b565b60055460208401511015612bf95760405162461bcd60e51b815260206004820152601a60248201527f756e7374616b652064656c617920697320746f6f20736d616c6c000000000000604482015260640161099b565b604083015115612c4b5760405162461bcd60e51b815260206004820152601860248201527f7374616b6520686173206265656e2077697468647261776e0000000000000000604482015260640161099b565b81611cb65760405162461bcd60e51b815260206004820181905260248201527f7468697320687562206973206e6f7420617574686f72697a656420627920534d604482015260640161099b565b336001600160a01b037f00000000000000000000000000000000000000000000000000000000000000001614612d005760405162461bcd60e51b815260206004820152600d60248201526c2737ba103832b730b634bd32b960991b604482015260640161099b565b6001600160a01b038083166000908152600960205260409020541680612d5f5760405162461bcd60e51b81526020600482015260146024820152732ab735b737bbb7103932b630bc903bb7b935b2b960611b604482015260640161099b565b60405163c345315360e01b81526001600160a01b0382811660048301526000917f00000000000000000000000000000000000000000000000000000000000000009091169063c3453153906024016101006040518083038186803b158015612dc657600080fd5b505afa158015612dda573d6000803e3d6000fd5b505050506040513d601f19601f82011682018060405250810190612dfe91906144d5565b508051909150612e4b5760405162461bcd60e51b81526020600482015260186024820152771c995b185e481b585b9859d95c881b9bdd081cdd185ad95960421b604482015260640161099b565b805160405163026822bd60e21b81526001600160a01b038481166004830152858116602483015260448201929092527f0000000000000000000000000000000000000000000000000000000000000000909116906309a08af490606401600060405180830381600087803b158015612ec257600080fd5b505af1158015612ed6573d6000803e3d6000fd5b5050505050505050565b612ee86135df565b6001600160a01b038116612f4d5760405162461bcd60e51b815260206004820152602660248201527f4f776e61626c653a206e6577206f776e657220697320746865207a65726f206160448201526564647265737360d01b606482015260840161099b565b612f5681613639565b50565b6040805160018082528183019092526000916020808301908036833750506040805160018082528183019092529293506000929150602080830190803683370190505090508282600081518110612fb257612fb2614ef0565b6020026020010181815250508381600081518110612fd257612fd2614ef0565b60200260200101906001600160a01b031690816001600160a01b031681525050611cb681836119fb565b60006001600160e01b036130108580614cd8565b61301e906020810190613ec6565b6130288680614cd8565b6080013585856040516020016130419493929190614942565b604051602081830303815290604052805190602001201690509392505050565b612f568160405160240161307591906149ee565b60408051601f198184030181529190526020810180516001600160e01b031663104c13eb60e21b179052613931565b612f56816040516024016130ba91815260200190565b60408051601f198184030181529190526020810180516001600160e01b03166327b7cf8560e01b179052613931565b61312e82826040516024016130ff929190614aea565b60408051601f198184030181529190526020810180516001600160e01b031663319af33360e01b179052613931565b5050565b61312e8282604051602401613148929190614b14565b60408051601f198184030181529190526020810180516001600160e01b0316632d839cb360e21b179052613931565b612f568160405160240161318b91906149ee565b60408051601f198184030181529190526020810180516001600160e01b03166305f3bfab60e11b179052613931565b60006131c7826004614e0d565b835110156132175760405162461bcd60e51b815260206004820152601a60248201527f726561644279746573343a206461746120746f6f2073686f7274000000000000604482015260640161099b565b5001602001516001600160e01b03191690565b6132556040518060800160405280600081526020016000815260200160008152602001600081525090565b60006132646020850185614cee565b6132759060a0810190608001613ec6565b6001600160a01b031663b039a88f61c3506040518263ffffffff1660e01b815260040160806040518083038187803b1580156132b057600080fd5b5086fa1580156132c4573d6000803e3d6000fd5b50505050506040513d601f19601f820116820180604052508101906132e991906143dd565b60608101519092503611156133405760405162461bcd60e51b815260206004820152601760248201527f6d73672e64617461206578636565646564206c696d6974000000000000000000604482015260640161099b565b81518510156133915760405162461bcd60e51b815260206004820152601a60248201527f616363657074616e63652062756467657420746f6f2068696768000000000000604482015260640161099b565b6020820151825110156133e65760405162461bcd60e51b815260206004820152601960248201527f616363657074616e63652062756467657420746f6f206c6f7700000000000000604482015260640161099b565b826133f46020860186614cee565b604001356134029190614e0d565b90506000613417826104d86020880188614cee565b9050600b600061342a6020880188614cee565b61343b9060a0810190608001613ec6565b6001600160a01b03166001600160a01b03168152602001908152602001600020548111156134ab5760405162461bcd60e51b815260206004820152601960248201527f5061796d61737465722062616c616e636520746f6f206c6f7700000000000000604482015260640161099b565b50935093915050565b60006134d96134c66020880188614cee565b6134d49060c0810190614c92565b613952565b6134f46134e68880614cd8565b6134d49060a0810190614c92565b6134fe8585613952565b6135088888613952565b6135128c8c613952565b61351e906102c4614e0d565b6135289190614e0d565b6135329190614e0d565b61353c9190614e0d565b6135469190614e0d565b905060418411156135995760405162461bcd60e51b815260206004820152601860248201527f696e76616c6964207369676e6174757265206c656e6774680000000000000000604482015260640161099b565b368114612ed65760405162461bcd60e51b81526020600482015260146024820152736578747261206d73672e6461746120627974657360601b604482015260640161099b565b6000546001600160a01b031633146119f95760405162461bcd60e51b815260206004820181905260248201527f4f776e61626c653a2063616c6c6572206973206e6f7420746865206f776e6572604482015260640161099b565b600080546001600160a01b038381166001600160a01b0319831681178455604051919092169283917f8be0079c531659141344cd1fd0a4f28419497f9722a3daafe3b4186f6b6457e09190a35050565b611cb6848484846040516024016136a39493929190614b36565b60408051601f198184030181529190526020810180516001600160e01b03166327827ee360e11b179052613931565b60008183106136e157816136e3565b825b9392505050565b612f5681610400613978565b6000828260405160200161370b929190614a34565b6040516020818303038152906040529050613725816136ea565b8051602082018181fd5b6000806060600061373f87613985565b9050600061376a8961375460208b018b614cee565b6137659060c081019060a001613ec6565b6139c4565b90506137796020890189614cee565b61378a9060c081019060a001613ec6565b6001600160a01b031663e024dc7f60e01b6137a58a80614cd8565b836040518060400160405280600c81526020016b14995b185e54995c5d595cdd60a21b8152506040518060a0016040528060618152602001614f8b606191396040518060e0016040528060bc815260200161519060bc913960405160200161380d9190614861565b60408051601f198184030181529082905261382c939291602001614802565b60405160208183030381529060405280519060200120868c8c60405160240161385a96959493929190614b6e565b60408051601f198184030181529181526020820180516001600160e01b03166001600160e01b031990941693909317909252905161389891906147e6565b6000604051808303816000865af19150503d80600081146138d5576040519150601f19603f3d011682016040523d82523d6000602084013e6138da565b606091505b509095509250841561390057828060200190518101906138fa9190614139565b90945092505b613909836136ea565b50509450945094915050565b600061392083613a17565b80156136e357506136e38383613a4a565b80516a636f6e736f6c652e6c6f67602083016000808483855afa5050505050565b6000613961601f600019614e66565b61396c83601f614e0d565b6136e391166020614e0d565b808251111561312e579052565b606061399c6139976020840184614cee565b613ad3565b6040516020016139ae91815260200190565b6040516020818303038152906040529050919050565b60006136e36040518060800160405280858152602001604051806040016040528060018152602001603360f81b8152508152602001613a004690565b8152602001846001600160a01b0316815250613bd1565b6000613a2a826301ffc9a760e01b613a4a565b80156107e05750613a43826001600160e01b0319613a4a565b1592915050565b604080516001600160e01b03198316602480830191909152825180830390910181526044909101909152602080820180516001600160e01b03166301ffc9a760e01b178152825160009392849283928392918391908a617530fa92503d91506000519050828015613abc575060208210155b8015613ac85750600081115b979650505050505050565b60006040518060e0016040528060bc815260200161519060bc91398051602091820120908335908401356040850135613b126080870160608801613ec6565b613b2260a0880160808901613ec6565b613b3260c0890160a08a01613ec6565b613b3f60c08a018a614c92565b604051613b4d9291906147d6565b604051908190038120613bb4989796959493929160e08c0135906020019889526020890197909752604088019590955260608701939093526001600160a01b039182166080870152811660a08601521660c084015260e08301526101008201526101200190565b604051602081830303815290604052805190602001209050919050565b60007f8b73c3c69bb8fe3d512ecc4cf759cc79239f7b179b0ffacaa9a75d522b39400f82600001518051906020012083602001518051906020012084604001518560600151604051602001613bb49594939291909485526020850193909352604084019190915260608301526001600160a01b0316608082015260a00190565b60405180610240016040528060001515815260200160006001600160e01b0319168152602001600081526020016060815260200160608152602001613cb76040518060800160405280600081526020016000815260200160008152602001600081525090565b8152602001600081526020016000815260200160008152602001600081526020016000815260200160008152602001600081526020016060815260200160006001600160a01b031681526020016000801916815260200160008152602001606081525090565b8035613d2881614f1c565b919050565b600082601f830112613d3e57600080fd5b81356020613d53613d4e83614d7f565b614d4f565b80838252828201915082860187848660051b8901011115613d7357600080fd5b60005b85811015613d9257813584529284019290840190600101613d76565b5090979650505050505050565b80518015158114613d2857600080fd5b60008083601f840112613dc157600080fd5b5081356001600160401b03811115613dd857600080fd5b602083019150836020828501011115613df057600080fd5b9250929050565b600082601f830112613e0857600080fd5b81516001600160401b03811115613e2157613e21614f06565b613e34601f8201601f1916602001614d4f565b818152846020838601011115613e4957600080fd5b613e5a826020830160208701614e7d565b949350505050565b600060808284031215613e7457600080fd5b50919050565b600060408284031215613e7457600080fd5b803561ffff81168114613d2857600080fd5b803560ff81168114613d2857600080fd5b80356001600160501b0381168114613d2857600080fd5b600060208284031215613ed857600080fd5b81356136e381614f1c565b60008060408385031215613ef657600080fd5b8235613f0181614f1c565b946020939093013593505050565b60008060408385031215613f2257600080fd5b8235613f2d81614f1c565b91506020830135613f3d81614f1c565b809150509250929050565b60008060208385031215613f5b57600080fd5b82356001600160401b0380821115613f7257600080fd5b818501915085601f830112613f8657600080fd5b813581811115613f9557600080fd5b8660208260051b8501011115613faa57600080fd5b60209290920196919550909350505050565b60008060408385031215613fcf57600080fd5b82356001600160401b0380821115613fe657600080fd5b818501915085601f830112613ffa57600080fd5b8135602061400a613d4e83614d7f565b8083825282820191508286018a848660051b890101111561402a57600080fd5b600096505b8487101561405657803561404281614f1c565b83526001969096019591830191830161402f565b509650508601359250508082111561406d57600080fd5b5061407a85828601613d2d565b9150509250929050565b6000806040838503121561409757600080fd5b82356001600160401b03808211156140ae57600080fd5b818501915085601f8301126140c257600080fd5b813560206140d2613d4e83614d7f565b8083825282820191508286018a848660051b89010111156140f257600080fd5b600096505b8487101561405657803561410a81614f1c565b8352600196909601959183019183016140f7565b60006020828403121561413057600080fd5b6136e382613d9f565b6000806040838503121561414c57600080fd5b61415583613d9f565b915060208301516001600160401b0381111561417057600080fd5b61407a85828601613df7565b60006020828403121561418e57600080fd5b81356001600160e01b0319811681146136e357600080fd5b600080604083850312156141b957600080fd5b82516001600160401b038111156141cf57600080fd5b6141db85828601613df7565b9250506141ea60208401613d9f565b90509250929050565b6000806040838503121561420657600080fd5b82516007811061421557600080fd5b60208401519092506001600160401b0381111561417057600080fd5b6000806000806000806000806000806101408b8d03121561425157600080fd5b8a356001600160401b038082111561426857600080fd5b6142748e838f01613daf565b909c509a5060208d013591508082111561428d57600080fd5b6142998e838f01613e7a565b995060408d01359150808211156142af57600080fd5b6142bb8e838f01613daf565b909950975060608d01359150808211156142d457600080fd5b506142e18d828e01613daf565b90965094506142f590508c60808d01613e62565b92506101008b013591506101208b013590509295989b9194979a5092959850565b60008060008060008060008060a0898b03121561433257600080fd5b88356001600160401b038082111561434957600080fd5b6143558c838d01613daf565b909a50985060208b0135975060408b013591508082111561437557600080fd5b6143818c838d01613e7a565b965060608b013591508082111561439757600080fd5b6143a38c838d01613daf565b909650945060808b01359150808211156143bc57600080fd5b506143c98b828c01613daf565b999c989b5096995094979396929594505050565b6000608082840312156143ef57600080fd5b604051608081018181106001600160401b038211171561441157614411614f06565b8060405250825181526020830151602082015260408301516040820152606083015160608201528091505092915050565b6000610120828403121561445557600080fd5b61445d614d04565b823581526020830135602082015260408301356040820152606083013560608201526080830135608082015261449560a08401613d1d565b60a08201526144a660c08401613e9e565b60c08201526144b760e08401613eaf565b60e08201526101006144ca818501613e8c565b908201529392505050565b6000808284036101008112156144ea57600080fd5b60e08112156144f857600080fd5b50614501614d2d565b835181526020840151602082015260408401516040820152606084015160608201526080840151608082015260a084015161453b81614f1c565b60a082015260c084015161454e81614f1c565b60c082015291506141ea60e08401613d9f565b60006020828403121561457357600080fd5b5035919050565b60006020828403121561458c57600080fd5b5051919050565b600080604083850312156145a657600080fd5b8235915060208301356001600160401b038111156145c357600080fd5b83016101008186031215613f3d57600080fd5b81835281816020850137506000828201602090810191909152601f909101601f19169091010190565b60008151808452614617816020860160208601614e7d565b601f01601f19169290920160200192915050565b6007811061464957634e487b7160e01b600052602160045260246000fd5b9052565b6000813561465a81614f1c565b6001600160a01b03908116845260208301359061467682614f1c565b1660208401526040828101359084015260608083013590840152608080830135908401526146a760a0830183614da2565b60e060a08601526146bc60e0860182846145d6565b91505060c083013560c08501528091505092915050565b600061010082358452602083013560208501526040830135604085015260608301356146fe81614f1c565b6001600160a01b03908116606086015260808401359061471d82614f1c565b16608085015260a083013561473181614f1c565b6001600160a01b031660a085015261474c60c0840184614da2565b8260c087015261475f83870182846145d6565b9250505060e083013560e08501528091505092915050565b6000813582360360de198101821261478e57600080fd5b604085526147a16040860185840161464d565b9150602084013560fe19820181126147b857600080fd5b85830360208701526147cc838683016146d3565b9695505050505050565b8183823760009101908152919050565b600082516147f8818460208701614e7d565b9190910192915050565b60008451614814818460208901614e7d565b600560fb1b9083019081528451614832816001840160208901614e7d565b600b60fa1b600192909101918201528351614854816002840160208801614e7d565b0160020195945050505050565b7352656c6179446174612072656c6179446174612960601b815260008251614890816014850160208701614e7d565b9190910160140192915050565b6001600160a01b0387811682528681166020830152851660408201526001600160e01b03198416606082015260c081016148da608083018561462b565b8260a0830152979650505050505050565b6001600160a01b0387811682528681166020830152851660408201526001600160e01b0319841660608201526080810183905260c060a08201819052600090614936908301846145ff565b98975050505050505050565b60018060a01b03851681528360208201526060604082015260006147cc6060830184866145d6565b6040808252810183905260008460608301825b868110156149ad57823561499081614f1c565b6001600160a01b031682526020928301929091019060010161497d565b5060209390930193909352509392505050565b84151581528360208201526149d8604082018461462b565b6080606082015260006147cc60808301846145ff565b6020815260006136e360208301846145ff565b608081526000614a1460808301876145ff565b85151560208401528460408401528281036060840152613ac881856146d3565b614a3e818461462b565b604060208201526000613e5a60408301846145ff565b6000610140808352614a698184018d8f6145d6565b90508281036020840152614a7d818c614777565b90508281036040840152614a92818a8c6145d6565b90508281036060840152614aa781888a6145d6565b86516080850152602087015160a0850152604087015160c085015260609096015160e0840152505061010081019290925261012090910152979650505050505050565b604081526000614afd60408301856145ff565b905060018060a01b03831660208301529392505050565b604081526000614b2760408301856145ff565b90508260208301529392505050565b608081526000614b4960808301876145ff565b6020830195909552506001600160a01b03929092166040830152606090910152919050565b60a081526000614b8160a083018961464d565b8760208401528660408401528281036060840152614b9f81876145ff565b90508281036080840152614bb48185876145d6565b9998505050505050505050565b600061012082019050825182526020830151602083015260408301516040830152606083015160608301526080830151608083015260018060a01b0360a08401511660a083015260ff60c08401511660c083015260e0830151614c2f60e08401826001600160501b03169052565b506101009283015161ffff16919092015290565b608081526000614c566080830189614777565b8281036020840152614c6981888a6145d6565b90508281036040840152614c7e8186886145d6565b915050826060830152979650505050505050565b6000808335601e19843603018112614ca957600080fd5b8301803591506001600160401b03821115614cc357600080fd5b602001915036819003821315613df057600080fd5b6000823560de198336030181126147f857600080fd5b6000823560fe198336030181126147f857600080fd5b60405161012081016001600160401b0381118282101715614d2757614d27614f06565b60405290565b60405160e081016001600160401b0381118282101715614d2757614d27614f06565b604051601f8201601f191681016001600160401b0381118282101715614d7757614d77614f06565b604052919050565b60006001600160401b03821115614d9857614d98614f06565b5060051b60200190565b6000808335601e19843603018112614db957600080fd5b83016020810192503590506001600160401b03811115614dd857600080fd5b803603831315613df057600080fd5b600061ffff808316818516808303821115614e0457614e04614ec4565b01949350505050565b60008219821115614e2057614e20614ec4565b500190565b600082614e4257634e487b7160e01b600052601260045260246000fd5b500490565b6000816000190483118215151615614e6157614e61614ec4565b500290565b600082821015614e7857614e78614ec4565b500390565b60005b83811015614e98578181015183820152602001614e80565b83811115611cb65750506000910152565b6000600019821415614ebd57614ebd614ec4565b5060010190565b634e487b7160e01b600052601160045260246000fd5b634e487b7160e01b600052602160045260246000fd5b634e487b7160e01b600052603260045260246000fd5b634e487b7160e01b600052604160045260246000fd5b6001600160a01b0381168114612f5657600080fdfe72656c617943616c6c2072656c6179526571756573742e72656c6179446174612e72656c6179576f726b657272656c617943616c6c2072656c6179526571756573742e726571756573742e76616c6964556e74696c54696d65616464726573732066726f6d2c6164647265737320746f2c75696e743235362076616c75652c75696e74323536206761732c75696e74323536206e6f6e63652c627974657320646174612c75696e743235362076616c6964556e74696c54696d6572656c617943616c6c2072656c6179526571756573742e726571756573742e6e6f6e636572656c617943616c6c2072656c6179526571756573742e726571756573742e746f72656c617943616c6c2072656c6179526571756573742e726571756573742e67617372656c617943616c6c2072656c6179526571756573742e72656c6179446174612e7472616e73616374696f6e43616c6c6461746147617355736564332e302e302d626574612e322b6f70656e67736e2e6172626875622e6972656c617968756272656c617943616c6c2072656c6179526571756573742e72656c6179446174612e6d617846656550657247617372656c617943616c6c2072656c6179526571756573742e72656c6179446174612e636c69656e74496472656c617943616c6c2072656c6179526571756573742e72656c6179446174612e6d61785072696f7269747946656550657247617372656c617943616c6c2072656c6179526571756573742e726571756573742e76616c756572656c617943616c6c2072656c6179526571756573742e72656c6179446174612e7061796d61737465724461746152656c6179446174612875696e74323536206d61784665655065724761732c75696e74323536206d61785072696f726974794665655065724761732c75696e74323536207472616e73616374696f6e43616c6c64617461476173557365642c616464726573732072656c6179576f726b65722c61646472657373207061796d61737465722c6164647265737320666f727761726465722c6279746573207061796d6173746572446174612c75696e7432353620636c69656e7449642972656c617943616c6c2072656c6179526571756573742e726571756573742e6461746172656c617943616c6c2072656c6179526571756573742e72656c6179446174612e666f7277617264657272656c617943616c6c2072656c6179526571756573742e72656c6179446174612e7061796d617374657272656c617943616c6c2072656c6179526571756573742e726571756573742e66726f6da26469706673582212202e6f8bc43690bfa84979f1d671c189e68f7f45752ebb44b99fe20e45da43889964736f6c63430008070033",
  "immutableReferences": {
    "1283": [
      {
        "length": 32,
        "start": 1605
      },
      {
        "length": 32,
        "start": 2056
      },
      {
        "length": 32,
        "start": 2596
      },
      {
        "length": 32,
        "start": 10366
      },
      {
        "length": 32,
        "start": 10777
      },
      {
        "length": 32,
        "start": 11649
      },
      {
        "length": 32,
        "start": 11900
      }
    ],
    "1285": [
      {
        "length": 32,
        "start": 1083
      },
      {
        "length": 32,
        "start": 11427
      }
    ],
    "1287": [
      {
        "length": 32,
        "start": 1904
      },
      {
        "length": 32,
        "start": 4518
      }
    ],
    "1289": [
      {
        "length": 32,
        "start": 769
      },
      {
        "length": 32,
        "start": 2354
      }
    ],
    "1408": [
      {
        "length": 32,
        "start": 1530
      }
    ],
    "4432": [
      {
        "length": 32,
        "start": 1295
      },
      {
        "length": 32,
        "start": 2185
      }
    ],
    "4434": [
      {
        "length": 32,
        "start": 600
      }
    ]
  },
  "source": "pragma solidity ^0.8.0;\npragma abicoder v2;\n\n// SPDX-License-Identifier: GPL-3.0-only\n\nimport \"../RelayHub.sol\";\nimport \"./ArbSys.sol\";\n\n/**\n * @title The RelayHub Implementation for Arbitrum\n * @notice This contract implements the `IRelayHub` interface for the Arbitrum-compatible Rollups.\n *\n * @notice This implementation relies on the `ArbSys` built-ins that do not exist outside of Arbitrum.\n */\ncontract ArbRelayHub is RelayHub {\n\n    /// @inheritdoc IRelayHub\n    function versionHub() override public pure returns (string memory){\n        return \"3.0.0-beta.2+opengsn.arbhub.irelayhub\";\n    }\n\n    ArbSys public immutable arbsys;\n    uint256 internal immutable arbCreationBlock;\n\n    /// @notice we accept the `ArbSys` address in the constructor to allow mocking it in tests.\n    constructor(\n        ArbSys _arbsys,\n        IStakeManager _stakeManager,\n        address _penalizer,\n        address _batchGateway,\n        address _relayRegistrar,\n        RelayHubConfig memory _config\n    ) RelayHub(_stakeManager, _penalizer, _batchGateway, _relayRegistrar, _config){\n        arbsys = _arbsys;\n        arbCreationBlock = _arbsys.arbBlockNumber();\n    }\n\n    /// @inheritdoc IRelayHub\n    /// @notice Uses `ArbSys` L2 block number specific to the Arbitrum Rollup.\n    function getCreationBlock() external override virtual view returns (uint256){\n        return arbCreationBlock;\n    }\n\n    /// @return The block number in which the contract has been deployed.\n    /// @notice Uses original L1 block number.\n    function getL1CreationBlock() external view returns (uint256){\n        return creationBlock;\n    }\n\n    /// @notice Includes the 'storage gas' specific to the Arbitrum Rollup.\n    /// @inheritdoc IRelayHub\n    function aggregateGasleft() public override virtual view returns (uint256){\n        return arbsys.getStorageGasAvailable() + gasleft();\n    }\n}",
  "sourcePath": "/Users/cameron/Rally/evm/gsn/packages/contracts/solpp/arbitrum/ArbRelayHub.sol",
  "compiler": {
    "name": "solc",
    "version": "0.8.7+commit.e28d00a7.Emscripten.clang"
  },
  "schemaVersion": "3.1.0",
  "updatedAt": "2022-11-15T19:32:08.410Z",
  "devdoc": {
    "kind": "dev",
    "methods": {
      "aggregateGasleft()": {
        "returns": {
          "_0": "A total measurable amount of gas left to current execution. Same as 'gasleft()' for pure EVMs."
        }
      },
      "balanceOf(address)": {
        "returns": {
          "_0": "An account's balance. It can be either a deposit of a `Paymaster`, or a revenue of a Relay Manager."
        }
      },
      "calculateCharge(uint256,(uint256,uint256,uint256,address,address,address,bytes,uint256))": {
        "params": {
          "gasUsed": "An amount of gas used by the transaction.",
          "relayData": "The details of a transaction signed by the sender."
        },
        "returns": {
          "_0": "The calculated charge, in wei."
        }
      },
      "calculateDevCharge(uint256)": {
        "params": {
          "charge": "The amount of Ether in wei the Paymaster will be charged for this transaction."
        },
        "returns": {
          "_0": "The calculated devFee, in wei."
        }
      },
      "deprecateHub(uint256)": {
        "params": {
          "_deprecationTime": "The timestamp in seconds after which the `RelayHub` stops serving transactions."
        }
      },
      "getBatchGateway()": {
        "returns": {
          "_0": "The `BatchGateway` address for this `RelayHub`."
        }
      },
      "getConfiguration()": {
        "returns": {
          "_0": "The configuration of the `RelayHub`."
        }
      },
      "getCreationBlock()": {
        "returns": {
          "_0": "The block number in which the contract has been deployed."
        }
      },
      "getDeprecationTime()": {
        "returns": {
          "_0": "The timestamp from which the hub no longer allows relaying calls."
        }
      },
      "getL1CreationBlock()": {
        "returns": {
          "_0": "The block number in which the contract has been deployed."
        }
      },
      "getMinimumStakePerToken(address)": {
        "params": {
          "token": "An address of an ERC-20 compatible tokens."
        },
        "returns": {
          "_0": "The minimum amount of a given `token` that needs to be staked so that the Relay Manager is considered to be 'staked' by this `RelayHub`. Zero value means this token is not allowed for staking."
        }
      },
      "getPenalizer()": {
        "returns": {
          "_0": "The `Penalizer` address for this `RelayHub`."
        }
      },
      "getRelayRegistrar()": {
        "returns": {
          "_0": "The `RelayRegistrar` address for this `RelayHub`."
        }
      },
      "getStakeManager()": {
        "returns": {
          "_0": "The `StakeManager` address for this `RelayHub`."
        }
      },
      "getWorkerCount(address)": {
        "params": {
          "manager": "An address of the Relay Manager."
        },
        "returns": {
          "_0": "The count of Relay Workers associated with this Relay Manager."
        }
      },
      "getWorkerManager(address)": {
        "params": {
          "worker": "An address of the Relay Worker."
        },
        "returns": {
          "_0": "The address of its Relay Manager."
        }
      },
      "isDeprecated()": {
        "returns": {
          "_0": "`true` if the `RelayHub` is deprecated, `false` it it is not deprecated and can serve transactions."
        }
      },
      "owner()": {
        "details": "Returns the address of the current owner."
      },
      "penalize(address,address)": {
        "params": {
          "beneficiary": "The address that called the `Penalizer` and will receive a reward for it.",
          "relayWorker": "The address of the Relay Worker that committed a penalizable offense."
        }
      },
      "relayCall(string,uint256,((address,address,uint256,uint256,uint256,bytes,uint256),(uint256,uint256,uint256,address,address,address,bytes,uint256)),bytes,bytes)": {
        "params": {
          "approvalData": "The dapp-specific data forwarded to the `Paymaster`'s `preRelayedCall` method. This value is **not** verified by the `RelayHub` in any way. As an example, it can be used to pass some kind of a third-party signature to the `Paymaster` for verification. Emits a `TransactionRelayed` event regardless of whether the transaction succeeded or failed.",
          "domainSeparatorName": "The name of the Domain Separator used to verify the EIP-712 signature",
          "maxAcceptanceBudget": "The maximum valid value for `paymaster.getGasLimits().acceptanceBudget` to return.",
          "relayRequest": "All details of the requested relayed call.",
          "signature": "The client's EIP-712 signature over the `relayRequest` struct."
        }
      },
      "renounceOwnership()": {
        "details": "Leaves the contract without owner. It will not be possible to call `onlyOwner` functions anymore. Can only be called by the current owner. NOTE: Renouncing ownership will leave the contract without an owner, thereby removing any functionality that is only available to the owner."
      },
      "setConfiguration((uint256,uint256,uint256,uint256,uint256,address,uint8,uint80,uint16))": {
        "params": {
          "_config": "The new configuration."
        }
      },
      "setMinimumStakes(address[],uint256[])": {
        "params": {
          "minimumStake": "An array of minimal amounts necessary for a corresponding token, in wei.",
          "token": "An array of addresses of ERC-20 compatible tokens."
        }
      },
      "supportsInterface(bytes4)": {
        "details": "Returns true if this contract implements the interface defined by `interfaceId`. See the corresponding https://eips.ethereum.org/EIPS/eip-165#how-interfaces-are-identified[EIP section] to learn more about how these ids are created. This function call must use less than 30 000 gas."
      },
      "transferOwnership(address)": {
        "details": "Transfers ownership of the contract to a new account (`newOwner`). Can only be called by the current owner."
      },
      "versionHub()": {
        "returns": {
          "_0": "a SemVer-compliant version of the `RelayHub` contract."
        }
      }
    },
    "title": "The RelayHub Implementation for Arbitrum",
    "version": 1
  },
  "userdoc": {
    "events": {
      "AbandonedRelayManagerBalanceEscheated(address,uint256)": {
        "notice": "This event is emitted in case a `relayManager` has been deemed \"abandoned\" for being unresponsive for a prolonged period of time.This event means the entire balance of the relay has been transferred to the `devAddress`."
      },
      "Deposited(address,address,uint256)": {
        "notice": "Emitted when `depositFor` is called, including the amount and account that was funded."
      },
      "HubDeprecated(uint256)": {
        "notice": "This event is emitted in case this `RelayHub` is deprecated and will stop serving transactions soon."
      },
      "RelayHubConfigured((uint256,uint256,uint256,uint256,uint256,address,uint8,uint80,uint16))": {
        "notice": "Emitted when a configuration of the `RelayHub` is changed"
      },
      "RelayWorkersAdded(address,address[],uint256)": {
        "notice": "Emitted when relays are added by a relayManager"
      },
      "StakingTokenDataChanged(address,uint256)": {
        "notice": "Emitted for each token configured for staking in setMinimumStakes"
      },
      "TransactionRejectedByPaymaster(address,address,bytes32,address,address,address,bytes4,uint256,bytes)": {
        "notice": "Emitted when an attempt to relay a call fails and the `Paymaster` does not accept the transaction. The actual relayed call was not executed, and the recipient not charged."
      },
      "TransactionRelayed(address,address,bytes32,address,address,address,bytes4,uint8,uint256)": {
        "notice": "Emitted when a transaction is relayed. Note that the actual internal function call might be reverted. The reason for a revert will be indicated in the `status` field of a corresponding `RelayCallStatus` value.`charge` is the Ether value deducted from the `Paymaster` balance. The amount added to the `relayManager` balance will be lower if there is an activated `devFee` in the `config`."
      },
      "TransactionResult(uint8,bytes)": {
        "notice": "This event is emitted in case the internal function returns a value or reverts with a revert string."
      },
      "Withdrawn(address,address,uint256)": {
        "notice": "Emitted when an account withdraws funds from the `RelayHub`."
      }
    },
    "kind": "user",
    "methods": {
      "addRelayWorkers(address[])": {
        "notice": "Add new worker addresses controlled by the sender who must be a staked Relay Manager address. Emits a `RelayWorkersAdded` event. This function can be called multiple times, emitting new events."
      },
      "aggregateGasleft()": {
        "notice": "Includes the 'storage gas' specific to the Arbitrum Rollup."
      },
      "calculateCharge(uint256,(uint256,uint256,uint256,address,address,address,bytes,uint256))": {
        "notice": "The fee is expressed as a base fee in wei plus percentage of the actual charge. For example, a value '40' stands for a 40% fee, so the recipient will be charged for 1.4 times the spent amount."
      },
      "calculateDevCharge(uint256)": {
        "notice": "The fee is expressed as a  percentage of the actual charge. For example, a value '40' stands for a 40% fee, so the Relay Manager will only get 60% of the `charge`."
      },
      "constructor": {
        "notice": "we accept the `ArbSys` address in the constructor to allow mocking it in tests."
      },
      "depositFor(address)": {
        "notice": "Deposits ether for a `Paymaster`, so that it can and pay for relayed transactions. :warning: **Warning** :warning: Unused balance can only be withdrawn by the holder itself, by calling `withdraw`. Emits a `Deposited` event."
      },
      "deprecateHub(uint256)": {
        "notice": "Deprecate hub by reverting all incoming `relayCall()` calls starting from a given timestamp"
      },
      "escheatAbandonedRelayBalance(address)": {
        "notice": "@param relayManager"
      },
      "getCreationBlock()": {
        "notice": "Uses `ArbSys` L2 block number specific to the Arbitrum Rollup."
      },
      "getL1CreationBlock()": {
        "notice": "Uses original L1 block number."
      },
      "innerRelayCall(string,((address,address,uint256,uint256,uint256,bytes,uint256),(uint256,uint256,uint256,address,address,address,bytes,uint256)),bytes,bytes,(uint256,uint256,uint256,uint256),uint256,uint256)": {
        "notice": "This method can only by called by this `RelayHub`. It wraps the execution of the `RelayRequest` in a revertable frame context."
      },
      "isRelayEscheatable(address)": {
        "notice": "Uses `StakeManager` to check if the Relay Manager can be considered abandoned or not. Returns true if the stake's abandonment time is in the past including the escheatment delay, false otherwise."
      },
      "onRelayServerRegistered(address)": {
        "notice": "The `RelayRegistrar` callback to notify the `RelayHub` that this `relayManager` has updated registration."
      },
      "penalize(address,address)": {
        "notice": "In case the Relay Worker has been found to be in violation of some rules by the `Penalizer` contract, the `Penalizer` will call this method to execute a penalization. The `RelayHub` will look up the Relay Manager of the given Relay Worker and will forward the call to the `StakeManager` contract. The `RelayHub` does not perform the actual penalization either."
      },
      "relayCall(string,uint256,((address,address,uint256,uint256,uint256,bytes,uint256),(uint256,uint256,uint256,address,address,address,bytes,uint256)),bytes,bytes)": {
        "notice": "Relays a transaction. For this to succeed, multiple conditions must be met:  - `Paymaster`'s `preRelayCall` method must succeed and not revert.  - the `msg.sender` must be a registered Relay Worker that the user signed to use.  - the transaction's gas fees must be equal or larger than the ones that were signed by the sender.  - the transaction must have enough gas to run all internal transactions if they use all gas available to them.  - the `Paymaster` must have enough balance to pay the Relay Worker if all gas is spent.If all conditions are met, the call will be relayed and the `Paymaster` charged."
      },
      "setConfiguration((uint256,uint256,uint256,uint256,uint256,address,uint8,uint80,uint16))": {
        "notice": "Sets or changes the configuration of this `RelayHub`."
      },
      "setMinimumStakes(address[],uint256[])": {
        "notice": "Sets or changes the minimum amount of a given `token` that needs to be staked so that the Relay Manager is considered to be 'staked' by this `RelayHub`. Zero value means this token is not allowed for staking."
      },
      "verifyRelayManagerStaked(address)": {
        "notice": "Uses `StakeManager` to decide if the Relay Manager can be considered staked or not. Returns if the stake's token, amount and delay satisfy all requirements, reverts otherwise."
      },
      "withdraw(address,uint256)": {
        "notice": "Withdraws from an account's balance, sending it back to the caller. Relay Managers call this to retrieve their revenue, and `Paymasters` can also use it to reduce their funding. Emits a `Withdrawn` event."
      },
      "withdrawMultiple(address[],uint256[])": {
        "notice": "Withdraws from an account's balance, sending funds to multiple provided addresses. Relay Managers call this to retrieve their revenue, and `Paymasters` can also use it to reduce their funding. Emits a `Withdrawn` event for each destination."
      }
    },
    "notice": "This contract implements the `IRelayHub` interface for the Arbitrum-compatible Rollups.This implementation relies on the `ArbSys` built-ins that do not exist outside of Arbitrum.",
    "version": 1
  }
}