{
  "contractName": "Forwarder",
  "abi": [
    {
      "inputs": [],
      "stateMutability": "nonpayable",
      "type": "constructor"
    },
    {
      "anonymous": false,
      "inputs": [
        {
          "indexed": true,
          "internalType": "bytes32",
          "name": "domainSeparator",
          "type": "bytes32"
        },
        {
          "indexed": false,
          "internalType": "bytes",
          "name": "domainValue",
          "type": "bytes"
        }
      ],
      "name": "DomainRegistered",
      "type": "event"
    },
    {
      "anonymous": false,
      "inputs": [
        {
          "indexed": true,
          "internalType": "bytes32",
          "name": "typeHash",
          "type": "bytes32"
        },
        {
          "indexed": false,
          "internalType": "string",
          "name": "typeStr",
          "type": "string"
        }
      ],
      "name": "RequestTypeRegistered",
      "type": "event"
    },
    {
      "inputs": [],
      "name": "EIP712_DOMAIN_TYPE",
      "outputs": [
        {
          "internalType": "string",
          "name": "",
          "type": "string"
        }
      ],
      "stateMutability": "view",
      "type": "function"
    },
    {
      "inputs": [],
      "name": "GENERIC_PARAMS",
      "outputs": [
        {
          "internalType": "string",
          "name": "",
          "type": "string"
        }
      ],
      "stateMutability": "view",
      "type": "function"
    },
    {
      "inputs": [
        {
          "internalType": "bytes32",
          "name": "",
          "type": "bytes32"
        }
      ],
      "name": "domains",
      "outputs": [
        {
          "internalType": "bool",
          "name": "",
          "type": "bool"
        }
      ],
      "stateMutability": "view",
      "type": "function"
    },
    {
      "inputs": [
        {
          "internalType": "bytes32",
          "name": "",
          "type": "bytes32"
        }
      ],
      "name": "typeHashes",
      "outputs": [
        {
          "internalType": "bool",
          "name": "",
          "type": "bool"
        }
      ],
      "stateMutability": "view",
      "type": "function"
    },
    {
      "stateMutability": "payable",
      "type": "receive"
    },
    {
      "inputs": [
        {
          "internalType": "address",
          "name": "from",
          "type": "address"
        }
      ],
      "name": "getNonce",
      "outputs": [
        {
          "internalType": "uint256",
          "name": "",
          "type": "uint256"
        }
      ],
      "stateMutability": "view",
      "type": "function"
    },
    {
      "inputs": [
        {
          "internalType": "bytes4",
          "name": "interfaceId",
          "type": "bytes4"
        }
      ],
      "name": "supportsInterface",
      "outputs": [
        {
          "internalType": "bool",
          "name": "",
          "type": "bool"
        }
      ],
      "stateMutability": "view",
      "type": "function"
    },
    {
      "inputs": [
        {
          "components": [
            {
              "internalType": "address",
              "name": "from",
              "type": "address"
            },
            {
              "internalType": "address",
              "name": "to",
              "type": "address"
            },
            {
              "internalType": "uint256",
              "name": "value",
              "type": "uint256"
            },
            {
              "internalType": "uint256",
              "name": "gas",
              "type": "uint256"
            },
            {
              "internalType": "uint256",
              "name": "nonce",
              "type": "uint256"
            },
            {
              "internalType": "bytes",
              "name": "data",
              "type": "bytes"
            },
            {
              "internalType": "uint256",
              "name": "validUntilTime",
              "type": "uint256"
            }
          ],
          "internalType": "struct IForwarder.ForwardRequest",
          "name": "req",
          "type": "tuple"
        },
        {
          "internalType": "bytes32",
          "name": "domainSeparator",
          "type": "bytes32"
        },
        {
          "internalType": "bytes32",
          "name": "requestTypeHash",
          "type": "bytes32"
        },
        {
          "internalType": "bytes",
          "name": "suffixData",
          "type": "bytes"
        },
        {
          "internalType": "bytes",
          "name": "sig",
          "type": "bytes"
        }
      ],
      "name": "verify",
      "outputs": [],
      "stateMutability": "view",
      "type": "function"
    },
    {
      "inputs": [
        {
          "components": [
            {
              "internalType": "address",
              "name": "from",
              "type": "address"
            },
            {
              "internalType": "address",
              "name": "to",
              "type": "address"
            },
            {
              "internalType": "uint256",
              "name": "value",
              "type": "uint256"
            },
            {
              "internalType": "uint256",
              "name": "gas",
              "type": "uint256"
            },
            {
              "internalType": "uint256",
              "name": "nonce",
              "type": "uint256"
            },
            {
              "internalType": "bytes",
              "name": "data",
              "type": "bytes"
            },
            {
              "internalType": "uint256",
              "name": "validUntilTime",
              "type": "uint256"
            }
          ],
          "internalType": "struct IForwarder.ForwardRequest",
          "name": "req",
          "type": "tuple"
        },
        {
          "internalType": "bytes32",
          "name": "domainSeparator",
          "type": "bytes32"
        },
        {
          "internalType": "bytes32",
          "name": "requestTypeHash",
          "type": "bytes32"
        },
        {
          "internalType": "bytes",
          "name": "suffixData",
          "type": "bytes"
        },
        {
          "internalType": "bytes",
          "name": "sig",
          "type": "bytes"
        }
      ],
      "name": "execute",
      "outputs": [
        {
          "internalType": "bool",
          "name": "success",
          "type": "bool"
        },
        {
          "internalType": "bytes",
          "name": "ret",
          "type": "bytes"
        }
      ],
      "stateMutability": "payable",
      "type": "function"
    },
    {
      "inputs": [
        {
          "internalType": "string",
          "name": "typeName",
          "type": "string"
        },
        {
          "internalType": "string",
          "name": "typeSuffix",
          "type": "string"
        }
      ],
      "name": "registerRequestType",
      "outputs": [],
      "stateMutability": "nonpayable",
      "type": "function"
    },
    {
      "inputs": [
        {
          "internalType": "string",
          "name": "name",
          "type": "string"
        },
        {
          "internalType": "string",
          "name": "version",
          "type": "string"
        }
      ],
      "name": "registerDomainSeparator",
      "outputs": [],
      "stateMutability": "nonpayable",
      "type": "function"
    },
    {
      "inputs": [
        {
          "components": [
            {
              "internalType": "address",
              "name": "from",
              "type": "address"
            },
            {
              "internalType": "address",
              "name": "to",
              "type": "address"
            },
            {
              "internalType": "uint256",
              "name": "value",
              "type": "uint256"
            },
            {
              "internalType": "uint256",
              "name": "gas",
              "type": "uint256"
            },
            {
              "internalType": "uint256",
              "name": "nonce",
              "type": "uint256"
            },
            {
              "internalType": "bytes",
              "name": "data",
              "type": "bytes"
            },
            {
              "internalType": "uint256",
              "name": "validUntilTime",
              "type": "uint256"
            }
          ],
          "internalType": "struct IForwarder.ForwardRequest",
          "name": "req",
          "type": "tuple"
        },
        {
          "internalType": "bytes32",
          "name": "requestTypeHash",
          "type": "bytes32"
        },
        {
          "internalType": "bytes",
          "name": "suffixData",
          "type": "bytes"
        }
      ],
      "name": "_getEncoded",
      "outputs": [
        {
          "internalType": "bytes",
          "name": "",
          "type": "bytes"
        }
      ],
      "stateMutability": "pure",
      "type": "function"
    }
  ],
  "bytecode": "0x60806040523480156200001157600080fd5b5060006040518060a00160405280606181526020016200162360619139604051602001620000409190620000c8565b60408051601f1981840301815291905290506200005d8162000064565b5062000174565b8051602080830191909120600081815291829052604091829020805460ff19166001179055905181907f64d6bce64323458c44643c51fe45113efc882082f7b7fd5f09f0d69d2eedb20290620000bc9085906200010c565b60405180910390a25050565b6e08cdee4eec2e4c8a4cae2eacae6e85608b1b815260008251620000f481600f85016020870162000141565b602960f81b600f939091019283015250601001919050565b60208152600082518060208401526200012d81604085016020870162000141565b601f01601f19169190910160400192915050565b60005b838110156200015e57818101518382015260200162000144565b838111156200016e576000848401525b50505050565b61149f80620001846000396000f3fe6080604052600436106100a05760003560e01c8063ad9f99c711610064578063ad9f99c714610199578063c3f28abd146101b9578063c722f177146101ce578063d9210be5146101fe578063e024dc7f1461021e578063e2b62f2d1461023f57600080fd5b806301ffc9a7146100ac578063066a310c146100e157806321fe98df146101035780632d0335ab146101335780639c7b45921461017757600080fd5b366100a757005b600080fd5b3480156100b857600080fd5b506100cc6100c7366004610f78565b61025f565b60405190151581526020015b60405180910390f35b3480156100ed57600080fd5b506100f6610296565b6040516100d89190611252565b34801561010f57600080fd5b506100cc61011e366004610f5f565b60006020819052908152604090205460ff1681565b34801561013f57600080fd5b5061016961014e366004610f2f565b6001600160a01b031660009081526002602052604090205490565b6040519081526020016100d8565b34801561018357600080fd5b50610197610192366004610fa2565b6102b2565b005b3480156101a557600080fd5b506101976101b436600461100e565b6103a9565b3480156101c557600080fd5b506100f66103ca565b3480156101da57600080fd5b506100cc6101e9366004610f5f565b60016020526000908152604090205460ff1681565b34801561020a57600080fd5b50610197610219366004610fa2565b6103e6565b61023161022c36600461100e565b6104e9565b6040516100d892919061122f565b34801561024b57600080fd5b506100f661025a3660046110b6565b610747565b60006001600160e01b031982166309788f9960e21b148061029057506301ffc9a760e01b6001600160e01b03198316145b92915050565b6040518060a00160405280606181526020016113b76061913981565b60004690506000604051806080016040528060528152602001611418605291398051906020012086866040516102e992919061118b565b6040518091039020858560405161030192919061118b565b6040805191829003822060208301949094528101919091526060810191909152608081018390523060a082015260c00160408051601f198184030181528282528051602080830191909120600081815260019283905293909320805460ff1916909117905592509081907f4bc68689cbe89a4a6333a3ab0a70093874da3e5bfb71e93102027f3f073687d890610398908590611252565b60405180910390a250505050505050565b6103b2876107e1565b6103c18787878787878761085e565b50505050505050565b6040518060800160405280605281526020016114186052913981565b60005b83811015610494576000858583818110610405576104056113a0565b909101356001600160f81b031916915050600560fb1b81148015906104385750602960f81b6001600160f81b0319821614155b6104815760405162461bcd60e51b81526020600482015260156024820152744657443a20696e76616c696420747970656e616d6560581b60448201526064015b60405180910390fd5b508061048c81611359565b9150506103e9565b50600084846040518060a00160405280606181526020016113b76061913985856040516020016104c89594939291906111dd565b60405160208183030381529060405290506104e281610a30565b5050505050565b600060606104fc8989898989898961085e565b61050589610a92565b60c089013515806105195750428960c00135115b61055c5760405162461bcd60e51b81526020600482015260146024820152731195d10e881c995c5d595cdd08195e1c1a5c995960621b6044820152606401610478565b600060408a01351561056d5750619c405b600061057c60a08c018c611289565b61058960208e018e610f2f565b60405160200161059b9392919061119b565b60408051601f1981840301815291905290506105bb8260608d01356112d0565b60405a6105c990603f61130a565b6105d391906112e8565b10156106195760405162461bcd60e51b81526020600482015260156024820152744657443a20696e73756666696369656e742067617360581b6044820152606401610478565b61062960408c0160208d01610f2f565b6001600160a01b03168b606001358c604001358360405161064a91906111c1565b600060405180830381858888f193505050503d8060008114610688576040519150601f19603f3d011682016040523d82523d6000602084013e61068d565b606091505b506040805180820190915260208082527f6578656375746520726573756c743a20737563636573733a202573207265743a9082015291955093506106d19085610b16565b6106da83610b5f565b60408b0135158015906106ed5750600047115b15610739576106ff60208c018c610f2f565b6001600160a01b03166108fc479081150290604051600060405180830381858888f19350505050158015610737573d6000803e3d6000fd5b505b505097509795505050505050565b6060836107576020870187610f2f565b6001600160a01b03166107706040880160208901610f2f565b6001600160a01b03166040880135606089013560808a013561079560a08c018c611289565b6040516107a392919061118b565b6040519081900381206107c89796959493929160c08e0135908c908c90602001611139565b6040516020818303038152906040529050949350505050565b6080810135600260006107f76020850185610f2f565b6001600160a01b03166001600160a01b03168152602001908152602001600020541461085b5760405162461bcd60e51b815260206004820152601360248201527208cae887440dcdedcc6ca40dad2e6dac2e8c6d606b1b6044820152606401610478565b50565b60008681526001602052604090205460ff166108bc5760405162461bcd60e51b815260206004820152601d60248201527f4657443a20756e7265676973746572656420646f6d61696e207365702e0000006044820152606401610478565b60008581526020819052604090205460ff1661091a5760405162461bcd60e51b815260206004820152601a60248201527f4657443a20756e726567697374657265642074797065686173680000000000006044820152606401610478565b60008661092989888888610747565b805160209182012060405161095593920161190160f01b81526002810192909252602282015260420190565b60408051601f19818403018152919052805160209091012090503215806109da57506109846020890189610f2f565b6001600160a01b03166109cf84848080601f0160208091040260200160405190810160405280939291908181526020018383808284376000920191909152508693925050610ba29050565b6001600160a01b0316145b610a265760405162461bcd60e51b815260206004820152601760248201527f4657443a207369676e6174757265206d69736d617463680000000000000000006044820152606401610478565b5050505050505050565b8051602080830191909120600081815291829052604091829020805460ff19166001179055905181907f64d6bce64323458c44643c51fe45113efc882082f7b7fd5f09f0d69d2eedb20290610a86908590611252565b60405180910390a25050565b608081013560026000610aa86020850185610f2f565b6001600160a01b0316815260208101919091526040016000908120805491610acf83611359565b919050551461085b5760405162461bcd60e51b815260206004820152601360248201527208cae887440dcdedcc6ca40dad2e6dac2e8c6d606b1b6044820152606401610478565b610b5b8282604051602401610b2c929190611265565b60408051601f198184030181529190526020810180516001600160e01b031663c3b5563560e01b179052610bc6565b5050565b61085b81604051602401610b739190611252565b60408051601f198184030181529190526020810180516001600160e01b03166305f3bfab60e11b179052610bc6565b6000806000610bb18585610be7565b91509150610bbe81610c2d565b509392505050565b80516a636f6e736f6c652e6c6f67602083016000808483855afa5050505050565b600080825160411415610c1e5760208301516040840151606085015160001a610c1287828585610de8565b94509450505050610c26565b506000905060025b9250929050565b6000816004811115610c4157610c4161138a565b1415610c4a5750565b6001816004811115610c5e57610c5e61138a565b1415610cac5760405162461bcd60e51b815260206004820152601860248201527f45434453413a20696e76616c6964207369676e617475726500000000000000006044820152606401610478565b6002816004811115610cc057610cc061138a565b1415610d0e5760405162461bcd60e51b815260206004820152601f60248201527f45434453413a20696e76616c6964207369676e6174757265206c656e677468006044820152606401610478565b6003816004811115610d2257610d2261138a565b1415610d7b5760405162461bcd60e51b815260206004820152602260248201527f45434453413a20696e76616c6964207369676e6174757265202773272076616c604482015261756560f01b6064820152608401610478565b6004816004811115610d8f57610d8f61138a565b141561085b5760405162461bcd60e51b815260206004820152602260248201527f45434453413a20696e76616c6964207369676e6174757265202776272076616c604482015261756560f01b6064820152608401610478565b6000807f7fffffffffffffffffffffffffffffff5d576e7357a4501ddfe92f46681b20a0831115610e1f5750600090506003610ecc565b8460ff16601b14158015610e3757508460ff16601c14155b15610e485750600090506004610ecc565b6040805160008082526020820180845289905260ff881692820192909252606081018690526080810185905260019060a0016020604051602081039080840390855afa158015610e9c573d6000803e3d6000fd5b5050604051601f1901519150506001600160a01b038116610ec557600060019250925050610ecc565b9150600090505b94509492505050565b60008083601f840112610ee757600080fd5b50813567ffffffffffffffff811115610eff57600080fd5b602083019150836020828501011115610c2657600080fd5b600060e08284031215610f2957600080fd5b50919050565b600060208284031215610f4157600080fd5b81356001600160a01b0381168114610f5857600080fd5b9392505050565b600060208284031215610f7157600080fd5b5035919050565b600060208284031215610f8a57600080fd5b81356001600160e01b031981168114610f5857600080fd5b60008060008060408587031215610fb857600080fd5b843567ffffffffffffffff80821115610fd057600080fd5b610fdc88838901610ed5565b90965094506020870135915080821115610ff557600080fd5b5061100287828801610ed5565b95989497509550505050565b600080600080600080600060a0888a03121561102957600080fd5b873567ffffffffffffffff8082111561104157600080fd5b61104d8b838c01610f17565b985060208a0135975060408a0135965060608a013591508082111561107157600080fd5b61107d8b838c01610ed5565b909650945060808a013591508082111561109657600080fd5b506110a38a828b01610ed5565b989b979a50959850939692959293505050565b600080600080606085870312156110cc57600080fd5b843567ffffffffffffffff808211156110e457600080fd5b6110f088838901610f17565b9550602087013594506040870135915080821115610ff557600080fd5b60008151808452611125816020860160208601611329565b601f01601f19169290920160200192915050565b8a81528960208201528860408201528760608201528660808201528560a08201528460c08201528360e082015260006101008385828501376000929093019092019081529a9950505050505050505050565b8183823760009101908152919050565b8284823760609190911b6bffffffffffffffffffffffff19169101908152601401919050565b600082516111d3818460208701611329565b9190910192915050565b84868237600085820160008152600560fb1b81528551611204816001840160208a01611329565b600b60fa1b600192909101918201528385600283013760009301600201928352509095945050505050565b821515815260406020820152600061124a604083018461110d565b949350505050565b602081526000610f58602083018461110d565b604081526000611278604083018561110d565b905082151560208301529392505050565b6000808335601e198436030181126112a057600080fd5b83018035915067ffffffffffffffff8211156112bb57600080fd5b602001915036819003821315610c2657600080fd5b600082198211156112e3576112e3611374565b500190565b60008261130557634e487b7160e01b600052601260045260246000fd5b500490565b600081600019048311821515161561132457611324611374565b500290565b60005b8381101561134457818101518382015260200161132c565b83811115611353576000848401525b50505050565b600060001982141561136d5761136d611374565b5060010190565b634e487b7160e01b600052601160045260246000fd5b634e487b7160e01b600052602160045260246000fd5b634e487b7160e01b600052603260045260246000fdfe616464726573732066726f6d2c6164647265737320746f2c75696e743235362076616c75652c75696e74323536206761732c75696e74323536206e6f6e63652c627974657320646174612c75696e743235362076616c6964556e74696c54696d65454950373132446f6d61696e28737472696e67206e616d652c737472696e672076657273696f6e2c75696e7432353620636861696e49642c6164647265737320766572696679696e67436f6e747261637429a2646970667358221220090fdd6f486eaf9bd012bd79408f76be178ec226259df6ca7daf7d680b76629064736f6c63430008070033616464726573732066726f6d2c6164647265737320746f2c75696e743235362076616c75652c75696e74323536206761732c75696e74323536206e6f6e63652c627974657320646174612c75696e743235362076616c6964556e74696c54696d65",
  "immutableReferences": {},
  "source": "pragma solidity ^0.8.0;\npragma abicoder v2;\n\n// solhint-disable not-rely-on-time\n// SPDX-License-Identifier: GPL-3.0-only\n\nimport \"@openzeppelin/contracts/utils/cryptography/ECDSA.sol\";\nimport \"@openzeppelin/contracts/utils/introspection/ERC165.sol\";\n\nimport \"hardhat/console.sol\";\n\nimport \"./IForwarder.sol\";\n\n/**\n * @title The Forwarder Implementation\n * @notice This implementation of the `IForwarder` interface uses ERC-712 signatures and stored nonces for verification.\n */\ncontract Forwarder is IForwarder, ERC165 {\n    using ECDSA for bytes32;\n\n    address private constant DRY_RUN_ADDRESS = 0x0000000000000000000000000000000000000000;\n\n    string public constant GENERIC_PARAMS = \"address from,address to,uint256 value,uint256 gas,uint256 nonce,bytes data,uint256 validUntilTime\";\n\n    string public constant EIP712_DOMAIN_TYPE = \"EIP712Domain(string name,string version,uint256 chainId,address verifyingContract)\";\n\n    mapping(bytes32 => bool) public typeHashes;\n    mapping(bytes32 => bool) public domains;\n\n    // Nonces of senders, used to prevent replay attacks\n    mapping(address => uint256) private nonces;\n\n    // solhint-disable-next-line no-empty-blocks\n    receive() external payable {}\n\n    /// @inheritdoc IForwarder\n    function getNonce(address from)\n    public view override\n    returns (uint256) {\n        return nonces[from];\n    }\n\n    constructor() {\n        string memory requestType = string(abi.encodePacked(\"ForwardRequest(\", GENERIC_PARAMS, \")\"));\n        registerRequestTypeInternal(requestType);\n    }\n\n    /// @inheritdoc IERC165\n    function supportsInterface(bytes4 interfaceId) public view virtual override(IERC165, ERC165) returns (bool) {\n        return interfaceId == type(IForwarder).interfaceId ||\n            super.supportsInterface(interfaceId);\n    }\n\n    /// @inheritdoc IForwarder\n    function verify(\n        ForwardRequest calldata req,\n        bytes32 domainSeparator,\n        bytes32 requestTypeHash,\n        bytes calldata suffixData,\n        bytes calldata sig)\n    external override view {\n        _verifyNonce(req);\n        _verifySig(req, domainSeparator, requestTypeHash, suffixData, sig);\n    }\n\n    /// @inheritdoc IForwarder\n    function execute(\n        ForwardRequest calldata req,\n        bytes32 domainSeparator,\n        bytes32 requestTypeHash,\n        bytes calldata suffixData,\n        bytes calldata sig\n    )\n    external payable\n    override\n    returns (bool success, bytes memory ret) {\n        _verifySig(req, domainSeparator, requestTypeHash, suffixData, sig);\n        _verifyAndUpdateNonce(req);\n\n        require(req.validUntilTime == 0 || req.validUntilTime > block.timestamp, \"FWD: request expired\");\n\n        uint256 gasForTransfer = 0;\n        if ( req.value != 0 ) {\n            gasForTransfer = 40000; //buffer in case we need to move eth after the transaction.\n        }\n        bytes memory callData = abi.encodePacked(req.data, req.from);\n        require(gasleft()*63/64 >= req.gas + gasForTransfer, \"FWD: insufficient gas\");\n        // solhint-disable-next-line avoid-low-level-calls\n        (success,ret) = req.to.call{gas : req.gas, value : req.value}(callData);\n\n        console.log(\"execute result: success: %s ret:\", success);\n        console.logBytes(ret);\n\n        if ( req.value != 0 && address(this).balance>0 ) {\n            // can't fail: req.from signed (off-chain) the request, so it must be an EOA...\n            payable(req.from).transfer(address(this).balance);\n        }\n\n        return (success,ret);\n    }\n\n    function _verifyNonce(ForwardRequest calldata req) internal view {\n        require(nonces[req.from] == req.nonce, \"FWD: nonce mismatch\");\n    }\n\n    function _verifyAndUpdateNonce(ForwardRequest calldata req) internal {\n        require(nonces[req.from]++ == req.nonce, \"FWD: nonce mismatch\");\n    }\n\n    /// @inheritdoc IForwarder\n    function registerRequestType(string calldata typeName, string calldata typeSuffix) external override {\n\n        for (uint256 i = 0; i < bytes(typeName).length; i++) {\n            bytes1 c = bytes(typeName)[i];\n            require(c != \"(\" && c != \")\", \"FWD: invalid typename\");\n        }\n\n        string memory requestType = string(abi.encodePacked(typeName, \"(\", GENERIC_PARAMS, \",\", typeSuffix));\n        registerRequestTypeInternal(requestType);\n    }\n\n    /// @inheritdoc IForwarder\n    function registerDomainSeparator(string calldata name, string calldata version) external override {\n        uint256 chainId;\n        /* solhint-disable-next-line no-inline-assembly */\n        assembly { chainId := chainid() }\n\n        bytes memory domainValue = abi.encode(\n            keccak256(bytes(EIP712_DOMAIN_TYPE)),\n            keccak256(bytes(name)),\n            keccak256(bytes(version)),\n            chainId,\n            address(this));\n\n        bytes32 domainHash = keccak256(domainValue);\n\n        domains[domainHash] = true;\n        emit DomainRegistered(domainHash, domainValue);\n    }\n\n    function registerRequestTypeInternal(string memory requestType) internal {\n\n        bytes32 requestTypehash = keccak256(bytes(requestType));\n        typeHashes[requestTypehash] = true;\n        emit RequestTypeRegistered(requestTypehash, requestType);\n    }\n\n    function _verifySig(\n        ForwardRequest calldata req,\n        bytes32 domainSeparator,\n        bytes32 requestTypeHash,\n        bytes calldata suffixData,\n        bytes calldata sig)\n    internal\n    virtual\n    view\n    {\n        require(domains[domainSeparator], \"FWD: unregistered domain sep.\");\n        require(typeHashes[requestTypeHash], \"FWD: unregistered typehash\");\n        bytes32 digest = keccak256(abi.encodePacked(\n                \"\\x19\\x01\", domainSeparator,\n                keccak256(_getEncoded(req, requestTypeHash, suffixData))\n            ));\n        // solhint-disable-next-line avoid-tx-origin\n        require(tx.origin == DRY_RUN_ADDRESS || digest.recover(sig) == req.from, \"FWD: signature mismatch\");\n    }\n\n    /**\n     * @notice Creates a byte array that is a valid ABI encoding of a request of a `RequestType` type. See `execute()`.\n     */\n    function _getEncoded(\n        ForwardRequest calldata req,\n        bytes32 requestTypeHash,\n        bytes calldata suffixData\n    )\n    public\n    pure\n    returns (\n        bytes memory\n    ) {\n        // we use encodePacked since we append suffixData as-is, not as dynamic param.\n        // still, we must make sure all first params are encoded as abi.encode()\n        // would encode them - as 256-bit-wide params.\n        return abi.encodePacked(\n            requestTypeHash,\n            uint256(uint160(req.from)),\n            uint256(uint160(req.to)),\n            req.value,\n            req.gas,\n            req.nonce,\n            keccak256(req.data),\n            req.validUntilTime,\n            suffixData\n        );\n    }\n}",
  "sourcePath": "/Users/cameron/Rally/evm/gsn/packages/contracts/solpp/forwarder/Forwarder.sol",
  "compiler": {
    "name": "solc",
    "version": "0.8.7+commit.e28d00a7.Emscripten.clang"
  },
  "schemaVersion": "3.1.0",
  "updatedAt": "2022-11-15T19:32:08.415Z",
  "devdoc": {
    "kind": "dev",
    "methods": {
      "execute((address,address,uint256,uint256,uint256,bytes,uint256),bytes32,bytes32,bytes,bytes)": {
        "params": {
          "domainSeparator": "The domain used when signing this request.",
          "forwardRequest": "All requested transaction parameters.",
          "requestTypeHash": "The request type used when signing this request.",
          "signature": "The client signature to be validated.",
          "suffixData": "The ABI-encoded extension data for the current `RequestType` used when signing this request."
        },
        "returns": {
          "ret": "The byte array returned by the underlying `CALL` to the target address.",
          "success": "The success flag of the underlying `CALL` to the target address."
        }
      },
      "getNonce(address)": {
        "params": {
          "from": "The address of a sender."
        },
        "returns": {
          "_0": "The nonce for this address."
        }
      },
      "registerDomainSeparator(string,string)": {
        "params": {
          "name": "The domain's display name.",
          "version": "The domain/protocol version."
        }
      },
      "registerRequestType(string,string)": {
        "params": {
          "typeName": "The name of the request type.",
          "typeSuffix": "Any extra data after the generic params. Must contain add at least one param. The generic ForwardRequest type is always registered by the constructor."
        }
      },
      "supportsInterface(bytes4)": {
        "details": "Returns true if this contract implements the interface defined by `interfaceId`. See the corresponding https://eips.ethereum.org/EIPS/eip-165#how-interfaces-are-identified[EIP section] to learn more about how these ids are created. This function call must use less than 30 000 gas."
      }
    },
    "title": "The Forwarder Implementation",
    "version": 1
  },
  "userdoc": {
    "kind": "user",
    "methods": {
      "_getEncoded((address,address,uint256,uint256,uint256,bytes,uint256),bytes32,bytes)": {
        "notice": "Creates a byte array that is a valid ABI encoding of a request of a `RequestType` type. See `execute()`."
      },
      "execute((address,address,uint256,uint256,uint256,bytes,uint256),bytes32,bytes32,bytes,bytes)": {
        "notice": "Executes a transaction specified by the `ForwardRequest`. The transaction is first verified and then executed. The success flag and returned bytes array of the `CALL` are returned as-is. This method would revert only in case of a verification error. All the target errors are reported using the returned success flag and returned bytes array."
      },
      "registerDomainSeparator(string,string)": {
        "notice": "Register a new domain separator.This is necessary for the Forwarder to be able to verify the signatures conforming to the ERC-712.The domain separator must have the following fields: `name`, `version`, `chainId`, `verifyingContract`. The `chainId` is the current network's `chainId`, and the `verifyingContract` is this Forwarder's address. This method accepts the domain name and version to create and register the domain separator value."
      },
      "registerRequestType(string,string)": {
        "notice": "Register a new Request typehash.This is necessary for the Forwarder to be able to verify the signatures conforming to the ERC-712."
      },
      "verify((address,address,uint256,uint256,uint256,bytes,uint256),bytes32,bytes32,bytes,bytes)": {
        "notice": "Verify the transaction is valid and can be executed. Implementations must validate the signature and the nonce of the request are correct. Does not revert and returns successfully if the input is valid. Reverts if any validation has failed. For instance, if either signature or nonce are incorrect. Reverts if `domainSeparator` or `requestTypeHash` are not registered as well."
      }
    },
    "notice": "This implementation of the `IForwarder` interface uses ERC-712 signatures and stored nonces for verification.",
    "version": 1
  }
}