{
  "contractName": "PayableWithEmit",
  "abi": [
    {
      "anonymous": false,
      "inputs": [
        {
          "indexed": false,
          "internalType": "uint256",
          "name": "gasUsed",
          "type": "uint256"
        },
        {
          "indexed": false,
          "internalType": "bool",
          "name": "success",
          "type": "bool"
        }
      ],
      "name": "GasUsed",
      "type": "event"
    },
    {
      "anonymous": false,
      "inputs": [
        {
          "indexed": false,
          "internalType": "address",
          "name": "sender",
          "type": "address"
        },
        {
          "indexed": false,
          "internalType": "uint256",
          "name": "value",
          "type": "uint256"
        },
        {
          "indexed": false,
          "internalType": "uint256",
          "name": "gasleft",
          "type": "uint256"
        }
      ],
      "name": "Received",
      "type": "event"
    },
    {
      "inputs": [],
      "name": "getTrustedForwarder",
      "outputs": [
        {
          "internalType": "address",
          "name": "forwarder",
          "type": "address"
        }
      ],
      "stateMutability": "view",
      "type": "function"
    },
    {
      "inputs": [
        {
          "internalType": "address",
          "name": "forwarder",
          "type": "address"
        }
      ],
      "name": "isTrustedForwarder",
      "outputs": [
        {
          "internalType": "bool",
          "name": "",
          "type": "bool"
        }
      ],
      "stateMutability": "view",
      "type": "function"
    },
    {
      "stateMutability": "payable",
      "type": "receive"
    },
    {
      "inputs": [
        {
          "internalType": "address payable",
          "name": "target",
          "type": "address"
        }
      ],
      "name": "doSend",
      "outputs": [],
      "stateMutability": "payable",
      "type": "function"
    }
  ],
  "bytecode": "0x608060405234801561001057600080fd5b5061025f806100206000396000f3fe6080604052600436106100385760003560e01c8063572b6c05146100975780639bfcdaa1146100db578063ce1b815f146100f057600080fd5b36610092577f74cf3d18d0ddca79038197ad0dd2c7fa5005ef61a5d1ed190e8a8a437e2fcf10610066610118565b345a604080516001600160a01b03909416845260208401929092529082015260600160405180910390a1005b600080fd5b3480156100a357600080fd5b506100c66100b23660046101c8565b6000546001600160a01b0391821691161490565b60405190151581526020015b60405180910390f35b6100ee6100e93660046101c8565b61014c565b005b3480156100fc57600080fd5b506000546040516001600160a01b0390911681526020016100d2565b60006014361080159061013557506000546001600160a01b031633145b15610147575060131936013560601c90565b503390565b60005a6040519091506000906001600160a01b038416903480156108fc029184818181858888f19350505050905060005a90507f4bd28cc62c0f932efdc0c9c2f68341495ac3c9ac35941adda462fde163aa6c626101aa82856101ec565b6040805191825284151560208301520160405180910390a150505050565b6000602082840312156101da57600080fd5b81356101e581610211565b9392505050565b60008282101561020c57634e487b7160e01b600052601160045260246000fd5b500390565b6001600160a01b038116811461022657600080fd5b5056fea2646970667358221220519bf3347ab6587081d545073c0b6bb2dab59af9a747569804f3f5ea7a7f087e64736f6c63430008070033",
  "immutableReferences": {},
  "source": "pragma solidity ^0.8.0;\n\n// SPDX-License-Identifier: GPL-3.0-only\n\nimport \"@opengsn/contracts/src/ERC2771Recipient.sol\";\n\n//make sure that \"payable\" function that uses _msgSender() still works\n// (its not required to use _msgSender(), since the default function\n// will never be called through GSN, but still, if someone uses it,\n// it should work)\ncontract PayableWithEmit is ERC2771Recipient {\n\n  event Received(address sender, uint256 value, uint256 gasleft);\n\n  receive () external payable {\n\n    emit Received(_msgSender(), msg.value, gasleft());\n  }\n\n  //helper: send value to another contract\n  function doSend(address payable target) public payable {\n\n    uint256 before = gasleft();\n    // solhint-disable-next-line check-send-result\n    bool success = target.send(msg.value);\n    uint256 gasAfter = gasleft();\n    emit GasUsed(before-gasAfter, success);\n  }\n  event GasUsed(uint256 gasUsed, bool success);\n}",
  "sourcePath": "/Users/cameron/Rally/evm/gsn/packages/contracts/solpp/test/PayableWithEmit.sol",
  "compiler": {
    "name": "solc",
    "version": "0.8.7+commit.e28d00a7.Emscripten.clang"
  },
  "schemaVersion": "3.1.0",
  "updatedAt": "2022-11-15T19:32:08.443Z",
  "devdoc": {
    "kind": "dev",
    "methods": {
      "getTrustedForwarder()": {
        "returns": {
          "forwarder": "The address of the Forwarder contract that is being used."
        }
      },
      "isTrustedForwarder(address)": {
        "params": {
          "forwarder": "The address of the Forwarder contract that is being used."
        },
        "returns": {
          "_0": "isTrustedForwarder `true` if the Forwarder is trusted to forward relayed transactions by this Recipient."
        }
      }
    },
    "version": 1
  },
  "userdoc": {
    "kind": "user",
    "methods": {
      "getTrustedForwarder()": {
        "notice": ":warning: **Warning** :warning: The Forwarder can have a full control over your Recipient. Only trust verified Forwarder.Method is not a required method to allow Recipients to trust multiple Forwarders. Not recommended yet."
      },
      "isTrustedForwarder(address)": {
        "notice": ":warning: **Warning** :warning: The Forwarder can have a full control over your Recipient. Only trust verified Forwarder."
      }
    },
    "version": 1
  }
}