{
  "contractName": "Penalizer",
  "abi": [
    {
      "inputs": [
        {
          "internalType": "uint256",
          "name": "_penalizeBlockDelay",
          "type": "uint256"
        },
        {
          "internalType": "uint256",
          "name": "_penalizeBlockExpiration",
          "type": "uint256"
        }
      ],
      "stateMutability": "nonpayable",
      "type": "constructor"
    },
    {
      "anonymous": false,
      "inputs": [
        {
          "indexed": true,
          "internalType": "address",
          "name": "sender",
          "type": "address"
        },
        {
          "indexed": true,
          "internalType": "bytes32",
          "name": "commitHash",
          "type": "bytes32"
        },
        {
          "indexed": false,
          "internalType": "uint256",
          "name": "readyBlockNumber",
          "type": "uint256"
        }
      ],
      "name": "CommitAdded",
      "type": "event"
    },
    {
      "inputs": [
        {
          "internalType": "bytes32",
          "name": "",
          "type": "bytes32"
        }
      ],
      "name": "commits",
      "outputs": [
        {
          "internalType": "uint256",
          "name": "",
          "type": "uint256"
        }
      ],
      "stateMutability": "view",
      "type": "function"
    },
    {
      "inputs": [],
      "name": "versionPenalizer",
      "outputs": [
        {
          "internalType": "string",
          "name": "",
          "type": "string"
        }
      ],
      "stateMutability": "view",
      "type": "function"
    },
    {
      "inputs": [
        {
          "internalType": "bytes4",
          "name": "interfaceId",
          "type": "bytes4"
        }
      ],
      "name": "supportsInterface",
      "outputs": [
        {
          "internalType": "bool",
          "name": "",
          "type": "bool"
        }
      ],
      "stateMutability": "view",
      "type": "function"
    },
    {
      "inputs": [],
      "name": "getPenalizeBlockDelay",
      "outputs": [
        {
          "internalType": "uint256",
          "name": "",
          "type": "uint256"
        }
      ],
      "stateMutability": "view",
      "type": "function"
    },
    {
      "inputs": [],
      "name": "getPenalizeBlockExpiration",
      "outputs": [
        {
          "internalType": "uint256",
          "name": "",
          "type": "uint256"
        }
      ],
      "stateMutability": "view",
      "type": "function"
    },
    {
      "inputs": [
        {
          "internalType": "bytes",
          "name": "rawTransaction",
          "type": "bytes"
        }
      ],
      "name": "isTransactionTypeValid",
      "outputs": [
        {
          "internalType": "bool",
          "name": "",
          "type": "bool"
        }
      ],
      "stateMutability": "pure",
      "type": "function"
    },
    {
      "inputs": [
        {
          "internalType": "bytes",
          "name": "rawTransaction",
          "type": "bytes"
        }
      ],
      "name": "decodeTransaction",
      "outputs": [
        {
          "components": [
            {
              "internalType": "uint256",
              "name": "nonce",
              "type": "uint256"
            },
            {
              "internalType": "uint256",
              "name": "gasLimit",
              "type": "uint256"
            },
            {
              "internalType": "address",
              "name": "to",
              "type": "address"
            },
            {
              "internalType": "uint256",
              "name": "value",
              "type": "uint256"
            },
            {
              "internalType": "bytes",
              "name": "data",
              "type": "bytes"
            }
          ],
          "internalType": "struct IPenalizer.Transaction",
          "name": "transaction",
          "type": "tuple"
        }
      ],
      "stateMutability": "pure",
      "type": "function"
    },
    {
      "inputs": [
        {
          "internalType": "bytes32",
          "name": "commitHash",
          "type": "bytes32"
        }
      ],
      "name": "commit",
      "outputs": [],
      "stateMutability": "nonpayable",
      "type": "function"
    },
    {
      "inputs": [
        {
          "internalType": "bytes",
          "name": "unsignedTx1",
          "type": "bytes"
        },
        {
          "internalType": "bytes",
          "name": "signature1",
          "type": "bytes"
        },
        {
          "internalType": "bytes",
          "name": "unsignedTx2",
          "type": "bytes"
        },
        {
          "internalType": "bytes",
          "name": "signature2",
          "type": "bytes"
        },
        {
          "internalType": "contract IRelayHub",
          "name": "hub",
          "type": "address"
        },
        {
          "internalType": "uint256",
          "name": "randomValue",
          "type": "uint256"
        }
      ],
      "name": "penalizeRepeatedNonce",
      "outputs": [],
      "stateMutability": "nonpayable",
      "type": "function"
    },
    {
      "inputs": [
        {
          "internalType": "bytes",
          "name": "unsignedTx",
          "type": "bytes"
        },
        {
          "internalType": "bytes",
          "name": "signature",
          "type": "bytes"
        },
        {
          "internalType": "contract IRelayHub",
          "name": "hub",
          "type": "address"
        },
        {
          "internalType": "uint256",
          "name": "randomValue",
          "type": "uint256"
        }
      ],
      "name": "penalizeIllegalTransaction",
      "outputs": [],
      "stateMutability": "nonpayable",
      "type": "function"
    }
  ],
  "bytecode": "0x610120604052602960c08181529062001e7e60e03980516200002a916000916020909101906200006a565b503480156200003857600080fd5b5060405162001ea738038062001ea78339810160408190526200005b9162000110565b60809190915260a05262000172565b828054620000789062000135565b90600052602060002090601f0160209004810192826200009c5760008555620000e7565b82601f10620000b757805160ff1916838001178555620000e7565b82800160010185558215620000e7579182015b82811115620000e7578251825591602001919060010190620000ca565b50620000f5929150620000f9565b5090565b5b80821115620000f55760008155600101620000fa565b600080604083850312156200012457600080fd5b505080516020909101519092909150565b600181811c908216806200014a57607f821691505b602082108114156200016c57634e487b7160e01b600052602260045260246000fd5b50919050565b60805160a051611cd1620001ad600039600081816101a40152818161047e01526105fb01526000818161011b015261068e0152611cd16000f3fe608060405234801561001057600080fd5b506004361061009e5760003560e01c8063a031365711610066578063a031365714610152578063a640bc7414610167578063ab456ccb1461017c578063f14fcbc81461018f578063fb509935146101a257600080fd5b806301ffc9a7146100a357806325896446146100cb57806347885781146100eb5780637f1a15bf146101195780638b29ee471461013f575b600080fd5b6100b66100b13660046117b3565b6101c8565b60405190151581526020015b60405180910390f35b6100de6100d93660046117dd565b6101ff565b6040516100c29190611a11565b61010b6100f936600461179a565b60016020526000908152604090205481565b6040519081526020016100c2565b7f000000000000000000000000000000000000000000000000000000000000000061010b565b6100b661014d3660046117dd565b6102bf565b61015a6102f2565b6040516100c291906119fe565b61017a6101753660046118fd565b610380565b005b61017a61018a36600461181f565b610502565b61017a61019d36600461179a565b610687565b7f000000000000000000000000000000000000000000000000000000000000000061010b565b60006001600160e01b03198216636c18d0d560e11b14806101f957506301ffc9a760e01b6001600160e01b03198316145b92915050565b61023a6040518060a00160405280600081526020016000815260200160006001600160a01b0316815260200160008152602001606081525090565b6102448383610709565b15610277576102538383610730565b608086015260608501526001600160a01b03166040840152602083015281526101f9565b610281838361083b565b15610290576102538383610862565b61029a838361092c565b608086015260608501526001600160a01b031660408401526020830152815292915050565b60006102cb83836109fc565b806102db57506102db8383610709565b806102eb57506102eb838361083b565b9392505050565b600080546102ff90611bf3565b80601f016020809104026020016040519081016040528092919081815260200182805461032b90611bf3565b80156103785780601f1061034d57610100808354040283529160200191610378565b820191906000526020600020905b81548152906001019060200180831161035b57829003601f168201915b505050505081565b600080366040516103929291906119b2565b6040805191829003822060208301526001600160601b03193360601b169082015260540160408051601f1981840301815291815281516020928301206000818152600190935290822080549290559150336001600160a01b03146104eb578061042e5760405162461bcd60e51b81526020600482015260096024820152681b9bc818dbdb5b5a5d60ba1b60448201526064015b60405180910390fd5b4381106104785760405162461bcd60e51b81526020600482015260186024820152773932bb32b0b6103832b730b634bd32903a37b79039b7b7b760411b6044820152606401610425565b436104a37f000000000000000000000000000000000000000000000000000000000000000083611a86565b116104eb5760405162461bcd60e51b815260206004820152601860248201527772657665616c2070656e616c697a6520746f6f206c61746560401b6044820152606401610425565b6104f88888888888610a3a565b5050505050505050565b600080366040516105149291906119b2565b6040805191829003822060208301526001600160601b03193360601b169082015260540160408051601f1981840301815291815281516020928301206000818152600190935290822080549290559150336001600160a01b031461066857806105ab5760405162461bcd60e51b81526020600482015260096024820152681b9bc818dbdb5b5a5d60ba1b6044820152606401610425565b4381106105f55760405162461bcd60e51b81526020600482015260186024820152773932bb32b0b6103832b730b634bd32903a37b79039b7b7b760411b6044820152606401610425565b436106207f000000000000000000000000000000000000000000000000000000000000000083611a86565b116106685760405162461bcd60e51b815260206004820152601860248201527772657665616c2070656e616c697a6520746f6f206c61746560401b6044820152606401610425565b6106798c8c8c8c8c8c8c8c8c610ba4565b505050505050505050505050565b60006106b37f000000000000000000000000000000000000000000000000000000000000000043611a86565b6000838152600160205260409081902082905551909150829033907fe3e71aede44b4dc2b562f1f86045529b7aadddc51e28f63a503f3b8ee937e16f906106fd9085815260200190565b60405180910390a35050565b60008282600081811061071e5761071e611c6f565b9091013560f81c600114949350505050565b6000808080606081610745876001818b611a5c565b8080601f016020809104026020016040519081016040528093929190818152602001838380828437600092018290525093945061078f925061078a9150849050610e16565b610e67565b90506107b4816001815181106107a7576107a7611c6f565b6020026020010151610fac565b6107ca826003815181106107a7576107a7611c6f565b6107ed836004815181106107e0576107e0611c6f565b6020026020010151610ffa565b610803846005815181106107a7576107a7611c6f565b6108268560068151811061081957610819611c6f565b6020026020010151611080565b939d929c50909a509850909650945050505050565b60008282600081811061085057610850611c6f565b9091013560f81c600214949350505050565b6000808080606081610877876001818b611a5c565b8080601f01602080910402602001604051908101604052809392919081815260200183838082843760009201829052509394506108bc925061078a9150849050610e16565b90506108d4816001815181106107a7576107a7611c6f565b6108ea826004815181106107a7576107a7611c6f565b610900836005815181106107e0576107e0611c6f565b610916846006815181106107a7576107a7611c6f565b6108268560078151811061081957610819611c6f565b6000806000806060600061097861078a89898080601f016020809104026020016040519081016040528093929190818152602001838380828437600092019190915250610e1692505050565b9050610990816000815181106107a7576107a7611c6f565b6109a6826002815181106107a7576107a7611c6f565b6109bc836003815181106107e0576107e0611c6f565b6109d2846004815181106107a7576107a7611c6f565b6109e88560058151811061081957610819611c6f565b939c929b5090995097509095509350505050565b60008083836000818110610a1257610a12611c6f565b919091013560f81c91505060c08110801590610a32575060fe8160ff1611155b949350505050565b610a4485856102bf565b15610aed576000610a5586866101ff565b9050816001600160a01b031681604001516001600160a01b03161415610aeb576000610a84826080015161111a565b90506001600160e01b03198116633654317160e11b141580610ae85760405162461bcd60e51b815260206004820152601760248201527f4c6567616c2072656c6179207472616e73616374696f6e0000000000000000006044820152606401610425565b50505b505b6000610b4784848080601f01602080910402602001604051908101604052809392919081815260200183838082843760009201919091525050604051610b3892508a915089906119b2565b60405190819003902090611127565b90506001600160a01b038116610b925760405162461bcd60e51b815260206004820152601060248201526f1958dc9958dbdd995c8819985a5b195960821b6044820152606401610425565b610b9c818361114b565b505050505050565b6000610bef88888080601f01602080910402602001604051908101604052809392919081815260200183838082843760009201919091525050604051610b3892508e91508d906119b2565b90506000610c3c85858080601f01602080910402602001604051908101604052809392919081815260200183838082843760009201919091525050604051610b3892508b91508a906119b2565b9050806001600160a01b0316826001600160a01b031614610c925760405162461bcd60e51b815260206004820152601060248201526f2234b33332b932b73a1039b4b3b732b960811b6044820152606401610425565b6001600160a01b038216610cdb5760405162461bcd60e51b815260206004820152601060248201526f1958dc9958dbdd995c8819985a5b195960821b6044820152606401610425565b6000610ce78c8c6101ff565b90506000610cf589896101ff565b8051835191925014610d3b5760405162461bcd60e51b815260206004820152600f60248201526e446966666572656e74206e6f6e636560881b6044820152606401610425565b60008260800151836020015184604001518560600151604051602001610d6494939291906119c2565b604051602081830303815290604052905060008260800151836020015184604001518560600151604051602001610d9e94939291906119c2565b6040516020818303038152906040529050808051906020012082805190602001201415610dfb5760405162461bcd60e51b815260206004820152600b60248201526a1d1e081a5cc8195c5d585b60aa1b6044820152606401610425565b610e05868861114b565b505050505050505050505050505050565b60408051808201909152600080825260208201528151610e49575050604080518082019091526000808252602082015290565b50604080518082019091528151815260209182019181019190915290565b6060610e72826111a8565b610eae5760405162461bcd60e51b815260206004820152600d60248201526c1a5cd31a5cdd0819985a5b1959609a1b6044820152606401610425565b6000610eb9836111d3565b90508067ffffffffffffffff811115610ed457610ed4611c85565b604051908082528060200260200182016040528015610f1957816020015b6040805180820190915260008082526020820152815260200190600190039081610ef25790505b5091506000610f2b846020015161124b565b8460200151610f3a9190611a86565b90506000805b83811015610fa357610f51836112cc565b9150604051806040016040528083815260200184815250858281518110610f7a57610f7a611c6f565b6020908102919091010152610f8f8284611a86565b925080610f9b81611c28565b915050610f40565b50505050919050565b600080610fbc836020015161124b565b90506000818460000151610fd09190611b89565b90506000828560200151610fe49190611a86565b516020929092036101000a909104949350505050565b60006015826000015111156110775760405162461bcd60e51b815260206004820152603a60248201527f496e76616c696420524c504974656d2e2041646472657373657320617265206560448201527f6e636f64656420696e203230206279746573206f72206c6573730000000000006064820152608401610425565b6101f982610fac565b60606000611091836020015161124b565b905060008184600001516110a59190611b89565b905060008167ffffffffffffffff8111156110c2576110c2611c85565b6040519080825280601f01601f1916602001820160405280156110ec576020820181803683370190505b509050600081602001905061111184876020015161110a9190611a86565b828561135b565b50949350505050565b60006101f98260006113db565b6000806000611136858561144b565b9150915061114381611491565b509392505050565b604051633af34c6b60e21b81526001600160a01b03838116600483015233602483015282169063ebcd31ac90604401600060405180830381600087803b15801561119457600080fd5b505af1158015610b9c573d6000803e3d6000fd5b6020810151805160009190821a9060c08210156111c9575060009392505050565b5060019392505050565b6000806000905060006111e9846020015161124b565b84602001516111f89190611a86565b90506000846000015185602001516112109190611a86565b90505b8082101561124257611224826112cc565b61122e9083611a86565b91508261123a81611c28565b935050611213565b50909392505050565b8051600090811a60808110156112645750600092915050565b60b881108061127f575060c0811080159061127f575060f881105b1561128d5750600192915050565b60c08110156112ba576112a2600160b8611ba0565b6112af9060ff1682611b89565b6102eb906001611a86565b6112a2600160f8611ba0565b50919050565b8051600090811a60808110156112e55750600192915050565b60b88110156112f9576112af608082611b89565b60c08110156113265760b78103600184019350806020036101000a845104600182018101935050506112c6565b60f881101561133a576112af60c082611b89565b60019290920151602083900360f7016101000a900490910160f51901919050565b8061136557505050565b6020811061139d578251825261137c602084611a86565b9250611389602083611a86565b9150611396602082611b89565b9050611365565b80156113d657600060016113b2836020611b89565b6113be90610100611ae1565b6113c89190611b89565b845184518216911916178352505b505050565b60006113e8826004611a86565b835110156114385760405162461bcd60e51b815260206004820152601a60248201527f726561644279746573343a206461746120746f6f2073686f72740000000000006044820152606401610425565b5001602001516001600160e01b03191690565b6000808251604114156114825760208301516040840151606085015160001a6114768782858561164f565b9450945050505061148a565b506000905060025b9250929050565b60008160048111156114a5576114a5611c59565b14156114ae5750565b60018160048111156114c2576114c2611c59565b14156115105760405162461bcd60e51b815260206004820152601860248201527f45434453413a20696e76616c6964207369676e617475726500000000000000006044820152606401610425565b600281600481111561152457611524611c59565b14156115725760405162461bcd60e51b815260206004820152601f60248201527f45434453413a20696e76616c6964207369676e6174757265206c656e677468006044820152606401610425565b600381600481111561158657611586611c59565b14156115df5760405162461bcd60e51b815260206004820152602260248201527f45434453413a20696e76616c6964207369676e6174757265202773272076616c604482015261756560f01b6064820152608401610425565b60048160048111156115f3576115f3611c59565b141561164c5760405162461bcd60e51b815260206004820152602260248201527f45434453413a20696e76616c6964207369676e6174757265202776272076616c604482015261756560f01b6064820152608401610425565b50565b6000807f7fffffffffffffffffffffffffffffff5d576e7357a4501ddfe92f46681b20a08311156116865750600090506003611733565b8460ff16601b1415801561169e57508460ff16601c14155b156116af5750600090506004611733565b6040805160008082526020820180845289905260ff881692820192909252606081018690526080810185905260019060a0016020604051602081039080840390855afa158015611703573d6000803e3d6000fd5b5050604051601f1901519150506001600160a01b03811661172c57600060019250925050611733565b9150600090505b94509492505050565b60008083601f84011261174e57600080fd5b50813567ffffffffffffffff81111561176657600080fd5b60208301915083602082850101111561148a57600080fd5b80356001600160a01b038116811461179557600080fd5b919050565b6000602082840312156117ac57600080fd5b5035919050565b6000602082840312156117c557600080fd5b81356001600160e01b0319811681146102eb57600080fd5b600080602083850312156117f057600080fd5b823567ffffffffffffffff81111561180757600080fd5b6118138582860161173c565b90969095509350505050565b60008060008060008060008060008060c08b8d03121561183e57600080fd5b8a3567ffffffffffffffff8082111561185657600080fd5b6118628e838f0161173c565b909c509a5060208d013591508082111561187b57600080fd5b6118878e838f0161173c565b909a50985060408d01359150808211156118a057600080fd5b6118ac8e838f0161173c565b909850965060608d01359150808211156118c557600080fd5b506118d28d828e0161173c565b90955093506118e5905060808c0161177e565b915060a08b013590509295989b9194979a5092959850565b6000806000806000806080878903121561191657600080fd5b863567ffffffffffffffff8082111561192e57600080fd5b61193a8a838b0161173c565b9098509650602089013591508082111561195357600080fd5b5061196089828a0161173c565b909550935061197390506040880161177e565b9150606087013590509295509295509295565b6000815180845261199e816020860160208601611bc3565b601f01601f19169290920160200192915050565b8183823760009101908152919050565b600085516119d4818460208a01611bc3565b919091019384525060609190911b6001600160601b03191660208301526034820152605401919050565b6020815260006102eb6020830184611986565b60208152815160208201526020820151604082015260018060a01b036040830151166060820152606082015160808201526000608083015160a080840152610a3260c0840182611986565b60008085851115611a6c57600080fd5b83861115611a7957600080fd5b5050820193919092039150565b60008219821115611a9957611a99611c43565b500190565b600181815b80851115611ad9578160001904821115611abf57611abf611c43565b80851615611acc57918102915b93841c9390800290611aa3565b509250929050565b60006102eb8383600082611af7575060016101f9565b81611b04575060006101f9565b8160018114611b1a5760028114611b2457611b40565b60019150506101f9565b60ff841115611b3557611b35611c43565b50506001821b6101f9565b5060208310610133831016604e8410600b8410161715611b63575081810a6101f9565b611b6d8383611a9e565b8060001904821115611b8157611b81611c43565b029392505050565b600082821015611b9b57611b9b611c43565b500390565b600060ff821660ff841680821015611bba57611bba611c43565b90039392505050565b60005b83811015611bde578181015183820152602001611bc6565b83811115611bed576000848401525b50505050565b600181811c90821680611c0757607f821691505b602082108114156112c657634e487b7160e01b600052602260045260246000fd5b6000600019821415611c3c57611c3c611c43565b5060010190565b634e487b7160e01b600052601160045260246000fd5b634e487b7160e01b600052602160045260246000fd5b634e487b7160e01b600052603260045260246000fd5b634e487b7160e01b600052604160045260246000fdfea264697066735822122058fa2b6cb98916db8becb3f26bda5dece7304b26296c01d2c5fa5ccd4c7f174f64736f6c63430008070033332e302e302d626574612e332b6f70656e67736e2e70656e616c697a65722e6970656e616c697a6572",
  "immutableReferences": {
    "582": [
      {
        "length": 32,
        "start": 283
      },
      {
        "length": 32,
        "start": 1678
      }
    ],
    "584": [
      {
        "length": 32,
        "start": 420
      },
      {
        "length": 32,
        "start": 1150
      },
      {
        "length": 32,
        "start": 1531
      }
    ]
  },
  "source": "pragma solidity ^0.8.0;\npragma abicoder v2;\n\n// SPDX-License-Identifier: GPL-3.0-only\n\nimport \"@openzeppelin/contracts/utils/cryptography/ECDSA.sol\";\nimport \"@openzeppelin/contracts/utils/introspection/ERC165.sol\";\n\nimport \"./utils/RLPReader.sol\";\nimport \"./utils/GsnUtils.sol\";\nimport \"./interfaces/IRelayHub.sol\";\nimport \"./interfaces/IPenalizer.sol\";\n\n/**\n * @title The Penalizer Implementation\n *\n * @notice This Penalizer supports parsing Legacy, Type 1 and Type 2 raw RLP Encoded transactions.\n */\ncontract Penalizer is IPenalizer, ERC165 {\n    using ECDSA for bytes32;\n\n    /// @inheritdoc IPenalizer\n    string public override versionPenalizer = \"3.0.0-beta.3+opengsn.penalizer.ipenalizer\";\n\n    uint256 internal immutable penalizeBlockDelay;\n    uint256 internal immutable penalizeBlockExpiration;\n\n    constructor(\n        uint256 _penalizeBlockDelay,\n        uint256 _penalizeBlockExpiration\n    ) {\n        penalizeBlockDelay = _penalizeBlockDelay;\n        penalizeBlockExpiration = _penalizeBlockExpiration;\n    }\n\n    /// @inheritdoc IERC165\n    function supportsInterface(bytes4 interfaceId) public view virtual override(IERC165, ERC165) returns (bool) {\n        return interfaceId == type(IPenalizer).interfaceId ||\n        super.supportsInterface(interfaceId);\n    }\n\n    /// @inheritdoc IPenalizer\n    function getPenalizeBlockDelay() external override view returns (uint256) {\n        return penalizeBlockDelay;\n    }\n\n    /// @inheritdoc IPenalizer\n    function getPenalizeBlockExpiration() external override view returns (uint256) {\n        return penalizeBlockExpiration;\n    }\n\n    function isLegacyTransaction(bytes calldata rawTransaction) internal pure returns (bool) {\n        uint8 transactionTypeByte = uint8(rawTransaction[0]);\n        return (transactionTypeByte >= 0xc0 && transactionTypeByte <= 0xfe);\n    }\n\n    function isTransactionType1(bytes calldata rawTransaction) internal pure returns (bool) {\n        return (uint8(rawTransaction[0]) == 1);\n    }\n\n    function isTransactionType2(bytes calldata rawTransaction) internal pure returns (bool) {\n        return (uint8(rawTransaction[0]) == 2);\n    }\n\n    /// @return `true` if raw transaction is of types Legacy, 1 or 2. `false` otherwise.\n    function isTransactionTypeValid(bytes calldata rawTransaction) public pure returns(bool) {\n        return isLegacyTransaction(rawTransaction) || isTransactionType1(rawTransaction) || isTransactionType2(rawTransaction);\n    }\n\n    /// @return transaction The details that the `Penalizer` needs to decide if the transaction is penalizable.\n    function decodeTransaction(bytes calldata rawTransaction) public pure returns (Transaction memory transaction) {\n        if (isTransactionType1(rawTransaction)) {\n            (transaction.nonce,\n            transaction.gasLimit,\n            transaction.to,\n            transaction.value,\n            transaction.data) = RLPReader.decodeTransactionType1(rawTransaction);\n        } else if (isTransactionType2(rawTransaction)) {\n            (transaction.nonce,\n            transaction.gasLimit,\n            transaction.to,\n            transaction.value,\n            transaction.data) = RLPReader.decodeTransactionType2(rawTransaction);\n        } else {\n            (transaction.nonce,\n            transaction.gasLimit,\n            transaction.to,\n            transaction.value,\n            transaction.data) = RLPReader.decodeLegacyTransaction(rawTransaction);\n        }\n        return transaction;\n    }\n\n    mapping(bytes32 => uint256) public commits;\n\n    /// @inheritdoc IPenalizer\n    function commit(bytes32 commitHash) external override {\n        uint256 readyBlockNumber = block.number + penalizeBlockDelay;\n        commits[commitHash] = readyBlockNumber;\n        emit CommitAdded(msg.sender, commitHash, readyBlockNumber);\n    }\n\n    /// Modifier that verifies there was a `commit` operation before this call that has not expired yet.\n    modifier commitRevealOnly() {\n        bytes32 commitHash = keccak256(abi.encodePacked(keccak256(msg.data), msg.sender));\n        uint256 readyBlockNumber = commits[commitHash];\n        delete commits[commitHash];\n        // msg.sender can only be fake during off-chain view call, allowing Penalizer process to check transactions\n        if(msg.sender != address(type(uint160).max)) {\n            require(readyBlockNumber != 0, \"no commit\");\n            require(readyBlockNumber < block.number, \"reveal penalize too soon\");\n            require(readyBlockNumber + penalizeBlockExpiration > block.number, \"reveal penalize too late\");\n        }\n        _;\n    }\n\n    /// @inheritdoc IPenalizer\n    function penalizeRepeatedNonce(\n        bytes calldata unsignedTx1,\n        bytes calldata signature1,\n        bytes calldata unsignedTx2,\n        bytes calldata signature2,\n        IRelayHub hub,\n        uint256 randomValue\n    )\n    public\n    override\n    commitRevealOnly {\n        (randomValue);\n        _penalizeRepeatedNonce(unsignedTx1, signature1, unsignedTx2, signature2, hub);\n    }\n\n    function _penalizeRepeatedNonce(\n        bytes calldata unsignedTx1,\n        bytes calldata signature1,\n        bytes calldata unsignedTx2,\n        bytes calldata signature2,\n        IRelayHub hub\n    )\n    private\n    {\n        address addr1 = keccak256(unsignedTx1).recover(signature1);\n        address addr2 = keccak256(unsignedTx2).recover(signature2);\n\n        require(addr1 == addr2, \"Different signer\");\n        require(addr1 != address(0), \"ecrecover failed\");\n\n        Transaction memory decodedTx1 = decodeTransaction(unsignedTx1);\n        Transaction memory decodedTx2 = decodeTransaction(unsignedTx2);\n\n        // checking that the same nonce is used in both transaction, with both signed by the same address\n        // and the actual data is different\n        // note: we compare the hash of the tx to save gas over iterating both byte arrays\n        require(decodedTx1.nonce == decodedTx2.nonce, \"Different nonce\");\n\n        bytes memory dataToCheck1 =\n        abi.encodePacked(decodedTx1.data, decodedTx1.gasLimit, decodedTx1.to, decodedTx1.value);\n\n        bytes memory dataToCheck2 =\n        abi.encodePacked(decodedTx2.data, decodedTx2.gasLimit, decodedTx2.to, decodedTx2.value);\n\n        require(keccak256(dataToCheck1) != keccak256(dataToCheck2), \"tx is equal\");\n\n        penalize(addr1, hub);\n    }\n\n    /// @inheritdoc IPenalizer\n    function penalizeIllegalTransaction(\n        bytes calldata unsignedTx,\n        bytes calldata signature,\n        IRelayHub hub,\n        uint256 randomValue\n    )\n    public\n    override\n    commitRevealOnly {\n        (randomValue);\n        _penalizeIllegalTransaction(unsignedTx, signature, hub);\n    }\n\n    function _penalizeIllegalTransaction(\n        bytes calldata unsignedTx,\n        bytes calldata signature,\n        IRelayHub hub\n    )\n    private\n    {\n        if (isTransactionTypeValid(unsignedTx)) {\n            Transaction memory decodedTx = decodeTransaction(unsignedTx);\n            if (decodedTx.to == address(hub)) {\n                bytes4 selector = GsnUtils.getMethodSig(decodedTx.data);\n                bool isWrongMethodCall = selector != IRelayHub.relayCall.selector;\n                require(\n                    isWrongMethodCall,\n                    \"Legal relay transaction\");\n            }\n        }\n        address relay = keccak256(unsignedTx).recover(signature);\n        require(relay != address(0), \"ecrecover failed\");\n        penalize(relay, hub);\n    }\n\n    function penalize(address relayWorker, IRelayHub hub) private {\n        hub.penalize(relayWorker, payable(msg.sender));\n    }\n}",
  "sourcePath": "/Users/cameron/Rally/evm/gsn/packages/contracts/solpp/Penalizer.sol",
  "compiler": {
    "name": "solc",
    "version": "0.8.7+commit.e28d00a7.Emscripten.clang"
  },
  "schemaVersion": "3.1.0",
  "updatedAt": "2023-06-08T13:50:08.424Z",
  "devdoc": {
    "kind": "dev",
    "methods": {
      "commit(bytes32)": {
        "params": {
          "commitHash": "The hash of the report of a penalizable behaviour the reporter wants to reveal. Calculated as `commit(keccak(encodedPenalizeFunction))`."
        }
      },
      "decodeTransaction(bytes)": {
        "returns": {
          "transaction": "The details that the `Penalizer` needs to decide if the transaction is penalizable."
        }
      },
      "getPenalizeBlockDelay()": {
        "returns": {
          "_0": "The minimum delay between commit and reveal steps."
        }
      },
      "getPenalizeBlockExpiration()": {
        "returns": {
          "_0": "The maximum delay between commit and reveal steps."
        }
      },
      "isTransactionTypeValid(bytes)": {
        "returns": {
          "_0": "`true` if raw transaction is of types Legacy, 1 or 2. `false` otherwise."
        }
      },
      "supportsInterface(bytes4)": {
        "details": "Returns true if this contract implements the interface defined by `interfaceId`. See the corresponding https://eips.ethereum.org/EIPS/eip-165#how-interfaces-are-identified[EIP section] to learn more about how these ids are created. This function call must use less than 30 000 gas."
      }
    },
    "stateVariables": {
      "versionPenalizer": {
        "return": "a SemVer-compliant version of the `Penalizer` contract.",
        "returns": {
          "_0": "a SemVer-compliant version of the `Penalizer` contract."
        }
      }
    },
    "title": "The Penalizer Implementation",
    "version": 1
  },
  "userdoc": {
    "events": {
      "CommitAdded(address,bytes32,uint256)": {
        "notice": "Emitted once the reporter submits the first step in the commit-reveal process."
      }
    },
    "kind": "user",
    "methods": {
      "commit(bytes32)": {
        "notice": "Called by the reporter as the first step in the commit-reveal process. Any sender can call it to make sure no-one can front-run it to claim this penalization."
      },
      "penalizeIllegalTransaction(bytes,bytes,address,uint256)": {
        "notice": "Called by the reporter as the second step in the commit-reveal process. The Relay Workers are not allowed to make calls other than to the `relayCall` method."
      },
      "penalizeRepeatedNonce(bytes,bytes,bytes,bytes,address,uint256)": {
        "notice": "Called by the reporter as the second step in the commit-reveal process. If a Relay Worker attacked the system by signing multiple transactions with same nonce so only one is accepted, anyone can grab both transactions from the blockchain and submit them here. Check whether `unsignedTx1` != `unsignedTx2`, that both are signed by the same address, and that `unsignedTx1.nonce` == `unsignedTx2.nonce`. If all conditions are met, relay is considered an \"offending relay\". The offending relay will be unregistered immediately, its stake will be forfeited and given to the address who reported it (the `msg.sender`), thus incentivizing anyone to report offending relays."
      }
    },
    "notice": "This Penalizer supports parsing Legacy, Type 1 and Type 2 raw RLP Encoded transactions.",
    "version": 1
  }
}