{
  "contractName": "TestRelayHubValidator",
  "abi": [
    {
      "inputs": [
        {
          "internalType": "string",
          "name": "domainSeparatorName",
          "type": "string"
        },
        {
          "internalType": "uint256",
          "name": "",
          "type": "uint256"
        },
        {
          "components": [
            {
              "components": [
                {
                  "internalType": "address",
                  "name": "from",
                  "type": "address"
                },
                {
                  "internalType": "address",
                  "name": "to",
                  "type": "address"
                },
                {
                  "internalType": "uint256",
                  "name": "value",
                  "type": "uint256"
                },
                {
                  "internalType": "uint256",
                  "name": "gas",
                  "type": "uint256"
                },
                {
                  "internalType": "uint256",
                  "name": "nonce",
                  "type": "uint256"
                },
                {
                  "internalType": "bytes",
                  "name": "data",
                  "type": "bytes"
                },
                {
                  "internalType": "uint256",
                  "name": "validUntilTime",
                  "type": "uint256"
                }
              ],
              "internalType": "struct IForwarder.ForwardRequest",
              "name": "request",
              "type": "tuple"
            },
            {
              "components": [
                {
                  "internalType": "uint256",
                  "name": "maxFeePerGas",
                  "type": "uint256"
                },
                {
                  "internalType": "uint256",
                  "name": "maxPriorityFeePerGas",
                  "type": "uint256"
                },
                {
                  "internalType": "uint256",
                  "name": "transactionCalldataGasUsed",
                  "type": "uint256"
                },
                {
                  "internalType": "address",
                  "name": "relayWorker",
                  "type": "address"
                },
                {
                  "internalType": "address",
                  "name": "paymaster",
                  "type": "address"
                },
                {
                  "internalType": "address",
                  "name": "forwarder",
                  "type": "address"
                },
                {
                  "internalType": "bytes",
                  "name": "paymasterData",
                  "type": "bytes"
                },
                {
                  "internalType": "uint256",
                  "name": "clientId",
                  "type": "uint256"
                }
              ],
              "internalType": "struct GsnTypes.RelayData",
              "name": "relayData",
              "type": "tuple"
            }
          ],
          "internalType": "struct GsnTypes.RelayRequest",
          "name": "relayRequest",
          "type": "tuple"
        },
        {
          "internalType": "bytes",
          "name": "signature",
          "type": "bytes"
        },
        {
          "internalType": "bytes",
          "name": "approvalData",
          "type": "bytes"
        }
      ],
      "name": "dummyRelayCall",
      "outputs": [],
      "stateMutability": "nonpayable",
      "type": "function"
    },
    {
      "inputs": [
        {
          "internalType": "bytes",
          "name": "buf",
          "type": "bytes"
        }
      ],
      "name": "dynamicParamSize",
      "outputs": [
        {
          "internalType": "uint256",
          "name": "",
          "type": "uint256"
        }
      ],
      "stateMutability": "pure",
      "type": "function"
    }
  ],
  "bytecode": "0x608060405234801561001057600080fd5b5061044a806100206000396000f3fe608060405234801561001057600080fd5b50600436106100365760003560e01c806321b3a7e41461003b5780638787309d14610050575b600080fd5b61004e610049366004610282565b610075565b005b61006361005e366004610240565b61008e565b60405190815260200160405180910390f35b610084888887878787876100a1565b5050505050505050565b600061009a83836101d1565b9392505050565b60006100c66100b360208801886103b9565b6100c19060c0810190610352565b6101d1565b6100e16100d38880610399565b6100c19060a0810190610352565b6100eb85856101d1565b6100f588886101d1565b6100ff8c8c6101d1565b61010b906102c46103cf565b61011591906103cf565b61011f91906103cf565b61012991906103cf565b61013391906103cf565b9050604184111561018b5760405162461bcd60e51b815260206004820152601860248201527f696e76616c6964207369676e6174757265206c656e677468000000000000000060448201526064015b60405180910390fd5b3681146100845760405162461bcd60e51b81526020600482015260146024820152736578747261206d73672e6461746120627974657360601b6044820152606401610182565b60006101e0601f6000196103e7565b6101eb83601f6103cf565b61009a911660206103cf565b60008083601f84011261020957600080fd5b50813567ffffffffffffffff81111561022157600080fd5b60208301915083602082850101111561023957600080fd5b9250929050565b6000806020838503121561025357600080fd5b823567ffffffffffffffff81111561026a57600080fd5b610276858286016101f7565b90969095509350505050565b60008060008060008060008060a0898b03121561029e57600080fd5b883567ffffffffffffffff808211156102b657600080fd5b6102c28c838d016101f7565b909a50985060208b0135975060408b01359150808211156102e257600080fd5b908a01906040828d0312156102f657600080fd5b90955060608a0135908082111561030c57600080fd5b6103188c838d016101f7565b909650945060808b013591508082111561033157600080fd5b5061033e8b828c016101f7565b999c989b5096995094979396929594505050565b6000808335601e1984360301811261036957600080fd5b83018035915067ffffffffffffffff82111561038457600080fd5b60200191503681900382131561023957600080fd5b6000823560de198336030181126103af57600080fd5b9190910192915050565b6000823560fe198336030181126103af57600080fd5b600082198211156103e2576103e26103fe565b500190565b6000828210156103f9576103f96103fe565b500390565b634e487b7160e01b600052601160045260246000fdfea2646970667358221220b509678ed380f66e7bf693760b4d6128d47f322e2dbf02026be2cc747bb7556664736f6c63430008070033",
  "immutableReferences": {},
  "source": "pragma solidity ^0.8.0;\npragma abicoder v2;\n\n// SPDX-License-Identifier: GPL-3.0-only\n\nimport \"../utils/RelayHubValidator.sol\";\n\ncontract TestRelayHubValidator {\n\n    //for testing purposes, we must be called from a method with same param signature as RelayCall\n    function dummyRelayCall(\n        string calldata domainSeparatorName,\n        uint256, //paymasterMaxAcceptanceBudget,\n        GsnTypes.RelayRequest calldata relayRequest,\n        bytes calldata signature,\n        bytes calldata approvalData\n    ) external {\n        RelayHubValidator.verifyTransactionPacking(domainSeparatorName, relayRequest, signature, approvalData);\n    }\n\n    // helper method for verifyTransactionPacking\n    function dynamicParamSize(bytes calldata buf) external pure returns (uint256) {\n        return RelayHubValidator.dynamicParamSize(buf);\n    }\n}",
  "sourcePath": "/Users/cameron/Rally/evm/gsn/packages/contracts/solpp/test/TestRelayHubValidator.sol",
  "compiler": {
    "name": "solc",
    "version": "0.8.7+commit.e28d00a7.Emscripten.clang"
  },
  "schemaVersion": "3.1.0",
  "updatedAt": "2022-11-15T19:32:08.479Z",
  "devdoc": {
    "kind": "dev",
    "methods": {},
    "version": 1
  },
  "userdoc": {
    "kind": "user",
    "methods": {},
    "version": 1
  }
}