{
  "contractName": "TestArbSys",
  "abi": [
    {
      "inputs": [],
      "name": "arbBlockNumber",
      "outputs": [
        {
          "internalType": "uint256",
          "name": "",
          "type": "uint256"
        }
      ],
      "stateMutability": "view",
      "type": "function"
    },
    {
      "inputs": [],
      "name": "getStorageGasAvailable",
      "outputs": [
        {
          "internalType": "uint256",
          "name": "",
          "type": "uint256"
        }
      ],
      "stateMutability": "view",
      "type": "function"
    }
  ],
  "bytecode": "0x608060405234801561001057600080fd5b5060d08061001f6000396000f3fe6080604052348015600f57600080fd5b506004361060325760003560e01c8063a3b1b31d146037578063a94597ff14604f575b600080fd5b603d6055565b60405190815260200160405180910390f35b603d6065565b60006060436011606e565b905090565b60005a60609060645b6000816000190483118215151615609557634e487b7160e01b600052601160045260246000fd5b50029056fea2646970667358221220593b99a882cd88072c174d5656e13c89be3f2a3ef4b2a59fe54e2fa026d3ccfd64736f6c63430008070033",
  "immutableReferences": {},
  "source": "pragma solidity ^0.8.0;\n\n// SPDX-License-Identifier: GPL-3.0-only\n\nimport \"../arbitrum/ArbSys.sol\";\n\n/**\n* As there is no way to run Arbitrum chain locally, tests currently need to run on simple hardhat node.\n* If some behavior is needed from ArbSys, it has to be stubbed here.\n */\ncontract TestArbSys is ArbSys {\n\n    /**\n    * @notice Get Arbitrum block number (distinct from L1 block number; Arbitrum genesis block has block number 0)\n    * @return block number as int\n     */\n    function arbBlockNumber() external override view returns (uint){\n        return block.number * 17;\n    }\n\n    function getStorageGasAvailable() external override view returns (uint256) {\n        // we need some really large value as for gasleft but also one that does decrease on every call\n        return gasleft() * 100;\n    }\n}",
  "sourcePath": "/Users/cameron/Rally/evm/gsn/packages/contracts/solpp/test/TestArbSys.sol",
  "compiler": {
    "name": "solc",
    "version": "0.8.7+commit.e28d00a7.Emscripten.clang"
  },
  "schemaVersion": "3.1.0",
  "updatedAt": "2023-06-08T13:50:08.490Z",
  "devdoc": {
    "kind": "dev",
    "methods": {
      "arbBlockNumber()": {
        "returns": {
          "_0": "block number as int"
        }
      },
      "getStorageGasAvailable()": {
        "returns": {
          "_0": "amount of storage gas available to the caller"
        }
      }
    },
    "version": 1
  },
  "userdoc": {
    "kind": "user",
    "methods": {
      "arbBlockNumber()": {
        "notice": "Get Arbitrum block number (distinct from L1 block number; Arbitrum genesis block has block number 0)"
      },
      "getStorageGasAvailable()": {
        "notice": "get the caller's amount of available storage gas"
      }
    },
    "notice": "As there is no way to run Arbitrum chain locally, tests currently need to run on simple hardhat node. If some behavior is needed from ArbSys, it has to be stubbed here.",
    "version": 1
  }
}